{
	"practice.sol": {
		"LotteryNFT": {
			"abi": [
				{
					"inputs": [
						{
							"internalType": "string",
							"name": "_name",
							"type": "string"
						},
						{
							"internalType": "string",
							"name": "_symbol",
							"type": "string"
						},
						{
							"internalType": "uint256",
							"name": "_ticketPrice",
							"type": "uint256"
						}
					],
					"stateMutability": "nonpayable",
					"type": "constructor"
				},
				{
					"inputs": [
						{
							"internalType": "address",
							"name": "sender",
							"type": "address"
						},
						{
							"internalType": "uint256",
							"name": "balance",
							"type": "uint256"
						},
						{
							"internalType": "uint256",
							"name": "needed",
							"type": "uint256"
						},
						{
							"internalType": "uint256",
							"name": "tokenId",
							"type": "uint256"
						}
					],
					"name": "ERC1155InsufficientBalance",
					"type": "error"
				},
				{
					"inputs": [
						{
							"internalType": "address",
							"name": "approver",
							"type": "address"
						}
					],
					"name": "ERC1155InvalidApprover",
					"type": "error"
				},
				{
					"inputs": [
						{
							"internalType": "uint256",
							"name": "idsLength",
							"type": "uint256"
						},
						{
							"internalType": "uint256",
							"name": "valuesLength",
							"type": "uint256"
						}
					],
					"name": "ERC1155InvalidArrayLength",
					"type": "error"
				},
				{
					"inputs": [
						{
							"internalType": "address",
							"name": "operator",
							"type": "address"
						}
					],
					"name": "ERC1155InvalidOperator",
					"type": "error"
				},
				{
					"inputs": [
						{
							"internalType": "address",
							"name": "receiver",
							"type": "address"
						}
					],
					"name": "ERC1155InvalidReceiver",
					"type": "error"
				},
				{
					"inputs": [
						{
							"internalType": "address",
							"name": "sender",
							"type": "address"
						}
					],
					"name": "ERC1155InvalidSender",
					"type": "error"
				},
				{
					"inputs": [
						{
							"internalType": "address",
							"name": "operator",
							"type": "address"
						},
						{
							"internalType": "address",
							"name": "owner",
							"type": "address"
						}
					],
					"name": "ERC1155MissingApprovalForAll",
					"type": "error"
				},
				{
					"inputs": [
						{
							"internalType": "address",
							"name": "owner",
							"type": "address"
						}
					],
					"name": "OwnableInvalidOwner",
					"type": "error"
				},
				{
					"inputs": [
						{
							"internalType": "address",
							"name": "account",
							"type": "address"
						}
					],
					"name": "OwnableUnauthorizedAccount",
					"type": "error"
				},
				{
					"anonymous": false,
					"inputs": [
						{
							"indexed": true,
							"internalType": "address",
							"name": "account",
							"type": "address"
						},
						{
							"indexed": true,
							"internalType": "address",
							"name": "operator",
							"type": "address"
						},
						{
							"indexed": false,
							"internalType": "bool",
							"name": "approved",
							"type": "bool"
						}
					],
					"name": "ApprovalForAll",
					"type": "event"
				},
				{
					"anonymous": false,
					"inputs": [
						{
							"indexed": true,
							"internalType": "address",
							"name": "previousOwner",
							"type": "address"
						},
						{
							"indexed": true,
							"internalType": "address",
							"name": "newOwner",
							"type": "address"
						}
					],
					"name": "OwnershipTransferred",
					"type": "event"
				},
				{
					"anonymous": false,
					"inputs": [
						{
							"indexed": true,
							"internalType": "address",
							"name": "buyer",
							"type": "address"
						},
						{
							"indexed": true,
							"internalType": "uint256",
							"name": "tokenId",
							"type": "uint256"
						},
						{
							"indexed": false,
							"internalType": "bool",
							"name": "isWinner",
							"type": "bool"
						}
					],
					"name": "TiketPurchased",
					"type": "event"
				},
				{
					"anonymous": false,
					"inputs": [
						{
							"indexed": true,
							"internalType": "address",
							"name": "operator",
							"type": "address"
						},
						{
							"indexed": true,
							"internalType": "address",
							"name": "from",
							"type": "address"
						},
						{
							"indexed": true,
							"internalType": "address",
							"name": "to",
							"type": "address"
						},
						{
							"indexed": false,
							"internalType": "uint256[]",
							"name": "ids",
							"type": "uint256[]"
						},
						{
							"indexed": false,
							"internalType": "uint256[]",
							"name": "values",
							"type": "uint256[]"
						}
					],
					"name": "TransferBatch",
					"type": "event"
				},
				{
					"anonymous": false,
					"inputs": [
						{
							"indexed": true,
							"internalType": "address",
							"name": "operator",
							"type": "address"
						},
						{
							"indexed": true,
							"internalType": "address",
							"name": "from",
							"type": "address"
						},
						{
							"indexed": true,
							"internalType": "address",
							"name": "to",
							"type": "address"
						},
						{
							"indexed": false,
							"internalType": "uint256",
							"name": "id",
							"type": "uint256"
						},
						{
							"indexed": false,
							"internalType": "uint256",
							"name": "value",
							"type": "uint256"
						}
					],
					"name": "TransferSingle",
					"type": "event"
				},
				{
					"anonymous": false,
					"inputs": [
						{
							"indexed": false,
							"internalType": "string",
							"name": "value",
							"type": "string"
						},
						{
							"indexed": true,
							"internalType": "uint256",
							"name": "id",
							"type": "uint256"
						}
					],
					"name": "URI",
					"type": "event"
				},
				{
					"inputs": [
						{
							"internalType": "address",
							"name": "account",
							"type": "address"
						},
						{
							"internalType": "uint256",
							"name": "id",
							"type": "uint256"
						}
					],
					"name": "balanceOf",
					"outputs": [
						{
							"internalType": "uint256",
							"name": "",
							"type": "uint256"
						}
					],
					"stateMutability": "view",
					"type": "function"
				},
				{
					"inputs": [
						{
							"internalType": "address[]",
							"name": "accounts",
							"type": "address[]"
						},
						{
							"internalType": "uint256[]",
							"name": "ids",
							"type": "uint256[]"
						}
					],
					"name": "balanceOfBatch",
					"outputs": [
						{
							"internalType": "uint256[]",
							"name": "",
							"type": "uint256[]"
						}
					],
					"stateMutability": "view",
					"type": "function"
				},
				{
					"inputs": [
						{
							"internalType": "address",
							"name": "account",
							"type": "address"
						},
						{
							"internalType": "address",
							"name": "operator",
							"type": "address"
						}
					],
					"name": "isApprovedForAll",
					"outputs": [
						{
							"internalType": "bool",
							"name": "",
							"type": "bool"
						}
					],
					"stateMutability": "view",
					"type": "function"
				},
				{
					"inputs": [],
					"name": "name",
					"outputs": [
						{
							"internalType": "string",
							"name": "",
							"type": "string"
						}
					],
					"stateMutability": "view",
					"type": "function"
				},
				{
					"inputs": [],
					"name": "owner",
					"outputs": [
						{
							"internalType": "address",
							"name": "",
							"type": "address"
						}
					],
					"stateMutability": "view",
					"type": "function"
				},
				{
					"inputs": [],
					"name": "purchaseTicket",
					"outputs": [],
					"stateMutability": "payable",
					"type": "function"
				},
				{
					"inputs": [],
					"name": "renounceOwnership",
					"outputs": [],
					"stateMutability": "nonpayable",
					"type": "function"
				},
				{
					"inputs": [
						{
							"internalType": "address",
							"name": "from",
							"type": "address"
						},
						{
							"internalType": "address",
							"name": "to",
							"type": "address"
						},
						{
							"internalType": "uint256[]",
							"name": "ids",
							"type": "uint256[]"
						},
						{
							"internalType": "uint256[]",
							"name": "values",
							"type": "uint256[]"
						},
						{
							"internalType": "bytes",
							"name": "data",
							"type": "bytes"
						}
					],
					"name": "safeBatchTransferFrom",
					"outputs": [],
					"stateMutability": "nonpayable",
					"type": "function"
				},
				{
					"inputs": [
						{
							"internalType": "address",
							"name": "from",
							"type": "address"
						},
						{
							"internalType": "address",
							"name": "to",
							"type": "address"
						},
						{
							"internalType": "uint256",
							"name": "id",
							"type": "uint256"
						},
						{
							"internalType": "uint256",
							"name": "value",
							"type": "uint256"
						},
						{
							"internalType": "bytes",
							"name": "data",
							"type": "bytes"
						}
					],
					"name": "safeTransferFrom",
					"outputs": [],
					"stateMutability": "nonpayable",
					"type": "function"
				},
				{
					"inputs": [
						{
							"internalType": "address",
							"name": "operator",
							"type": "address"
						},
						{
							"internalType": "bool",
							"name": "approved",
							"type": "bool"
						}
					],
					"name": "setApprovalForAll",
					"outputs": [],
					"stateMutability": "nonpayable",
					"type": "function"
				},
				{
					"inputs": [
						{
							"internalType": "bytes4",
							"name": "interfaceId",
							"type": "bytes4"
						}
					],
					"name": "supportsInterface",
					"outputs": [
						{
							"internalType": "bool",
							"name": "",
							"type": "bool"
						}
					],
					"stateMutability": "view",
					"type": "function"
				},
				{
					"inputs": [],
					"name": "symbol",
					"outputs": [
						{
							"internalType": "string",
							"name": "",
							"type": "string"
						}
					],
					"stateMutability": "view",
					"type": "function"
				},
				{
					"inputs": [],
					"name": "ticketPrice",
					"outputs": [
						{
							"internalType": "uint256",
							"name": "",
							"type": "uint256"
						}
					],
					"stateMutability": "view",
					"type": "function"
				},
				{
					"inputs": [
						{
							"internalType": "address",
							"name": "newOwner",
							"type": "address"
						}
					],
					"name": "transferOwnership",
					"outputs": [],
					"stateMutability": "nonpayable",
					"type": "function"
				},
				{
					"inputs": [
						{
							"internalType": "uint256",
							"name": "",
							"type": "uint256"
						}
					],
					"name": "uri",
					"outputs": [
						{
							"internalType": "string",
							"name": "",
							"type": "string"
						}
					],
					"stateMutability": "view",
					"type": "function"
				}
			],
			"devdoc": {
				"errors": {
					"ERC1155InsufficientBalance(address,uint256,uint256,uint256)": [
						{
							"details": "Indicates an error related to the current `balance` of a `sender`. Used in transfers.",
							"params": {
								"balance": "Current balance for the interacting account.",
								"needed": "Minimum amount required to perform a transfer.",
								"sender": "Address whose tokens are being transferred.",
								"tokenId": "Identifier number of a token."
							}
						}
					],
					"ERC1155InvalidApprover(address)": [
						{
							"details": "Indicates a failure with the `approver` of a token to be approved. Used in approvals.",
							"params": {
								"approver": "Address initiating an approval operation."
							}
						}
					],
					"ERC1155InvalidArrayLength(uint256,uint256)": [
						{
							"details": "Indicates an array length mismatch between ids and values in a safeBatchTransferFrom operation. Used in batch transfers.",
							"params": {
								"idsLength": "Length of the array of token identifiers",
								"valuesLength": "Length of the array of token amounts"
							}
						}
					],
					"ERC1155InvalidOperator(address)": [
						{
							"details": "Indicates a failure with the `operator` to be approved. Used in approvals.",
							"params": {
								"operator": "Address that may be allowed to operate on tokens without being their owner."
							}
						}
					],
					"ERC1155InvalidReceiver(address)": [
						{
							"details": "Indicates a failure with the token `receiver`. Used in transfers.",
							"params": {
								"receiver": "Address to which tokens are being transferred."
							}
						}
					],
					"ERC1155InvalidSender(address)": [
						{
							"details": "Indicates a failure with the token `sender`. Used in transfers.",
							"params": {
								"sender": "Address whose tokens are being transferred."
							}
						}
					],
					"ERC1155MissingApprovalForAll(address,address)": [
						{
							"details": "Indicates a failure with the `operator`’s approval. Used in transfers.",
							"params": {
								"operator": "Address that may be allowed to operate on tokens without being their owner.",
								"owner": "Address of the current owner of a token."
							}
						}
					],
					"OwnableInvalidOwner(address)": [
						{
							"details": "The owner is not a valid owner account. (eg. `address(0)`)"
						}
					],
					"OwnableUnauthorizedAccount(address)": [
						{
							"details": "The caller account is not authorized to perform an operation."
						}
					]
				},
				"events": {
					"ApprovalForAll(address,address,bool)": {
						"details": "Emitted when `account` grants or revokes permission to `operator` to transfer their tokens, according to `approved`."
					},
					"TransferBatch(address,address,address,uint256[],uint256[])": {
						"details": "Equivalent to multiple {TransferSingle} events, where `operator`, `from` and `to` are the same for all transfers."
					},
					"TransferSingle(address,address,address,uint256,uint256)": {
						"details": "Emitted when `value` amount of tokens of type `id` are transferred from `from` to `to` by `operator`."
					},
					"URI(string,uint256)": {
						"details": "Emitted when the URI for token type `id` changes to `value`, if it is a non-programmatic URI. If an {URI} event was emitted for `id`, the standard https://eips.ethereum.org/EIPS/eip-1155#metadata-extensions[guarantees] that `value` will equal the value returned by {IERC1155MetadataURI-uri}."
					}
				},
				"kind": "dev",
				"methods": {
					"balanceOf(address,uint256)": {
						"details": "See {IERC1155-balanceOf}."
					},
					"balanceOfBatch(address[],uint256[])": {
						"details": "See {IERC1155-balanceOfBatch}. Requirements: - `accounts` and `ids` must have the same length."
					},
					"isApprovedForAll(address,address)": {
						"details": "See {IERC1155-isApprovedForAll}."
					},
					"owner()": {
						"details": "Returns the address of the current owner."
					},
					"renounceOwnership()": {
						"details": "Leaves the contract without owner. It will not be possible to call `onlyOwner` functions. Can only be called by the current owner. NOTE: Renouncing ownership will leave the contract without an owner, thereby disabling any functionality that is only available to the owner."
					},
					"safeBatchTransferFrom(address,address,uint256[],uint256[],bytes)": {
						"details": "See {IERC1155-safeBatchTransferFrom}."
					},
					"safeTransferFrom(address,address,uint256,uint256,bytes)": {
						"details": "See {IERC1155-safeTransferFrom}."
					},
					"setApprovalForAll(address,bool)": {
						"details": "See {IERC1155-setApprovalForAll}."
					},
					"supportsInterface(bytes4)": {
						"details": "See {IERC165-supportsInterface}."
					},
					"transferOwnership(address)": {
						"details": "Transfers ownership of the contract to a new account (`newOwner`). Can only be called by the current owner."
					},
					"uri(uint256)": {
						"details": "See {IERC1155MetadataURI-uri}. This implementation returns the same URI for *all* token types. It relies on the token type ID substitution mechanism https://eips.ethereum.org/EIPS/eip-1155#metadata[defined in the EIP]. Clients calling this function must replace the `\\{id\\}` substring with the actual token type ID."
					}
				},
				"version": 1
			},
			"evm": {
				"assembly": "    /* \"practice.sol\":213:1800  contract LotteryNFT is ERC1155, Ownable {... */\n  mstore(0x40, 0x80)\n    /* \"practice.sol\":662:921  constructor(... */\n  callvalue\n  dup1\n  iszero\n  tag_1\n  jumpi\n  0x00\n  dup1\n  revert\ntag_1:\n  pop\n  mload(0x40)\n  sub(codesize, bytecodeSize)\n  dup1\n  bytecodeSize\n  dup4\n  codecopy\n  dup2\n  dup2\n  add\n  0x40\n  mstore\n  dup2\n  add\n  swap1\n  tag_2\n  swap2\n  swap1\n  tag_3\n  jump\t// in\ntag_2:\n    /* \"practice.sol\":803:813  msg.sender */\n  caller\n    /* \"@openzeppelin/contracts/token/ERC1155/ERC1155.sol\":1251:1313  constructor(string memory uri_) {... */\n  mload(0x40)\n  dup1\n  0x20\n  add\n  0x40\n  mstore\n  dup1\n  0x00\n  dup2\n  mstore\n  pop\n    /* \"@openzeppelin/contracts/token/ERC1155/ERC1155.sol\":1293:1306  _setURI(uri_) */\n  tag_8\n    /* \"@openzeppelin/contracts/token/ERC1155/ERC1155.sol\":1301:1305  uri_ */\n  dup2\n    /* \"@openzeppelin/contracts/token/ERC1155/ERC1155.sol\":1293:1300  _setURI */\n  shl(0x20, tag_9)\n    /* \"@openzeppelin/contracts/token/ERC1155/ERC1155.sol\":1293:1306  _setURI(uri_) */\n  0x20\n  shr\n  jump\t// in\ntag_8:\n    /* \"@openzeppelin/contracts/token/ERC1155/ERC1155.sol\":1251:1313  constructor(string memory uri_) {... */\n  pop\n    /* \"@openzeppelin/contracts/access/Ownable.sol\":1297:1298  0 */\n  0x00\n    /* \"@openzeppelin/contracts/access/Ownable.sol\":1273:1299  initialOwner == address(0) */\n  0xffffffffffffffffffffffffffffffffffffffff\n  and\n    /* \"@openzeppelin/contracts/access/Ownable.sol\":1273:1285  initialOwner */\n  dup2\n    /* \"@openzeppelin/contracts/access/Ownable.sol\":1273:1299  initialOwner == address(0) */\n  0xffffffffffffffffffffffffffffffffffffffff\n  and\n  sub\n    /* \"@openzeppelin/contracts/access/Ownable.sol\":1269:1364  if (initialOwner == address(0)) {... */\n  tag_11\n  jumpi\n    /* \"@openzeppelin/contracts/access/Ownable.sol\":1350:1351  0 */\n  0x00\n    /* \"@openzeppelin/contracts/access/Ownable.sol\":1322:1353  OwnableInvalidOwner(address(0)) */\n  mload(0x40)\n  0x1e4fbdf700000000000000000000000000000000000000000000000000000000\n  dup2\n  mstore\n  0x04\n  add\n  tag_12\n  swap2\n  swap1\n  tag_13\n  jump\t// in\ntag_12:\n  mload(0x40)\n  dup1\n  swap2\n  sub\n  swap1\n  revert\n    /* \"@openzeppelin/contracts/access/Ownable.sol\":1269:1364  if (initialOwner == address(0)) {... */\ntag_11:\n    /* \"@openzeppelin/contracts/access/Ownable.sol\":1373:1405  _transferOwnership(initialOwner) */\n  tag_14\n    /* \"@openzeppelin/contracts/access/Ownable.sol\":1392:1404  initialOwner */\n  dup2\n    /* \"@openzeppelin/contracts/access/Ownable.sol\":1373:1391  _transferOwnership */\n  shl(0x20, tag_15)\n    /* \"@openzeppelin/contracts/access/Ownable.sol\":1373:1405  _transferOwnership(initialOwner) */\n  0x20\n  shr\n  jump\t// in\ntag_14:\n    /* \"@openzeppelin/contracts/access/Ownable.sol\":1225:1412  constructor(address initialOwner) {... */\n  pop\n    /* \"practice.sol\":844:849  _name */\n  dup3\n    /* \"practice.sol\":837:841  name */\n  0x04\n    /* \"practice.sol\":837:849  name = _name */\n  swap1\n  dup2\n  tag_17\n  swap2\n  swap1\n  tag_18\n  jump\t// in\ntag_17:\n  pop\n    /* \"practice.sol\":869:876  _symbol */\n  dup2\n    /* \"practice.sol\":860:866  symbol */\n  0x05\n    /* \"practice.sol\":860:876  symbol = _symbol */\n  swap1\n  dup2\n  tag_19\n  swap2\n  swap1\n  tag_18\n  jump\t// in\ntag_19:\n  pop\n    /* \"practice.sol\":901:913  _ticketPrice */\n  dup1\n    /* \"practice.sol\":887:898  ticketPrice */\n  0x06\n    /* \"practice.sol\":887:913  ticketPrice = _ticketPrice */\n  dup2\n  swap1\n  sstore\n  pop\n    /* \"practice.sol\":662:921  constructor(... */\n  pop\n  pop\n  pop\n    /* \"practice.sol\":213:1800  contract LotteryNFT is ERC1155, Ownable {... */\n  jump(tag_20)\n    /* \"@openzeppelin/contracts/token/ERC1155/ERC1155.sol\":10282:10368  function _setURI(string memory newuri) internal virtual {... */\ntag_9:\n    /* \"@openzeppelin/contracts/token/ERC1155/ERC1155.sol\":10355:10361  newuri */\n  dup1\n    /* \"@openzeppelin/contracts/token/ERC1155/ERC1155.sol\":10348:10352  _uri */\n  0x02\n    /* \"@openzeppelin/contracts/token/ERC1155/ERC1155.sol\":10348:10361  _uri = newuri */\n  swap1\n  dup2\n  tag_22\n  swap2\n  swap1\n  tag_18\n  jump\t// in\ntag_22:\n  pop\n    /* \"@openzeppelin/contracts/token/ERC1155/ERC1155.sol\":10282:10368  function _setURI(string memory newuri) internal virtual {... */\n  pop\n  jump\t// out\n    /* \"@openzeppelin/contracts/access/Ownable.sol\":2912:3099  function _transferOwnership(address newOwner) internal virtual {... */\ntag_15:\n    /* \"@openzeppelin/contracts/access/Ownable.sol\":2985:3001  address oldOwner */\n  0x00\n    /* \"@openzeppelin/contracts/access/Ownable.sol\":3004:3010  _owner */\n  0x03\n  0x00\n  swap1\n  sload\n  swap1\n  0x0100\n  exp\n  swap1\n  div\n  0xffffffffffffffffffffffffffffffffffffffff\n  and\n    /* \"@openzeppelin/contracts/access/Ownable.sol\":2985:3010  address oldOwner = _owner */\n  swap1\n  pop\n    /* \"@openzeppelin/contracts/access/Ownable.sol\":3029:3037  newOwner */\n  dup2\n    /* \"@openzeppelin/contracts/access/Ownable.sol\":3020:3026  _owner */\n  0x03\n  0x00\n    /* \"@openzeppelin/contracts/access/Ownable.sol\":3020:3037  _owner = newOwner */\n  0x0100\n  exp\n  dup2\n  sload\n  dup2\n  0xffffffffffffffffffffffffffffffffffffffff\n  mul\n  not\n  and\n  swap1\n  dup4\n  0xffffffffffffffffffffffffffffffffffffffff\n  and\n  mul\n  or\n  swap1\n  sstore\n  pop\n    /* \"@openzeppelin/contracts/access/Ownable.sol\":3083:3091  newOwner */\n  dup2\n    /* \"@openzeppelin/contracts/access/Ownable.sol\":3052:3092  OwnershipTransferred(oldOwner, newOwner) */\n  0xffffffffffffffffffffffffffffffffffffffff\n  and\n    /* \"@openzeppelin/contracts/access/Ownable.sol\":3073:3081  oldOwner */\n  dup2\n    /* \"@openzeppelin/contracts/access/Ownable.sol\":3052:3092  OwnershipTransferred(oldOwner, newOwner) */\n  0xffffffffffffffffffffffffffffffffffffffff\n  and\n  0x8be0079c531659141344cd1fd0a4f28419497f9722a3daafe3b4186f6b6457e0\n  mload(0x40)\n  mload(0x40)\n  dup1\n  swap2\n  sub\n  swap1\n  log3\n    /* \"@openzeppelin/contracts/access/Ownable.sol\":2975:3099  {... */\n  pop\n    /* \"@openzeppelin/contracts/access/Ownable.sol\":2912:3099  function _transferOwnership(address newOwner) internal virtual {... */\n  pop\n  jump\t// out\n    /* \"#utility.yul\":7:82   */\ntag_24:\n    /* \"#utility.yul\":40:46   */\n  0x00\n    /* \"#utility.yul\":73:75   */\n  0x40\n    /* \"#utility.yul\":67:76   */\n  mload\n    /* \"#utility.yul\":57:76   */\n  swap1\n  pop\n    /* \"#utility.yul\":7:82   */\n  swap1\n  jump\t// out\n    /* \"#utility.yul\":88:205   */\ntag_25:\n    /* \"#utility.yul\":197:198   */\n  0x00\n    /* \"#utility.yul\":194:195   */\n  dup1\n    /* \"#utility.yul\":187:199   */\n  revert\n    /* \"#utility.yul\":211:328   */\ntag_26:\n    /* \"#utility.yul\":320:321   */\n  0x00\n    /* \"#utility.yul\":317:318   */\n  dup1\n    /* \"#utility.yul\":310:322   */\n  revert\n    /* \"#utility.yul\":334:451   */\ntag_27:\n    /* \"#utility.yul\":443:444   */\n  0x00\n    /* \"#utility.yul\":440:441   */\n  dup1\n    /* \"#utility.yul\":433:445   */\n  revert\n    /* \"#utility.yul\":457:574   */\ntag_28:\n    /* \"#utility.yul\":566:567   */\n  0x00\n    /* \"#utility.yul\":563:564   */\n  dup1\n    /* \"#utility.yul\":556:568   */\n  revert\n    /* \"#utility.yul\":580:682   */\ntag_29:\n    /* \"#utility.yul\":621:627   */\n  0x00\n    /* \"#utility.yul\":672:674   */\n  0x1f\n    /* \"#utility.yul\":668:675   */\n  not\n    /* \"#utility.yul\":663:665   */\n  0x1f\n    /* \"#utility.yul\":656:661   */\n  dup4\n    /* \"#utility.yul\":652:666   */\n  add\n    /* \"#utility.yul\":648:676   */\n  and\n    /* \"#utility.yul\":638:676   */\n  swap1\n  pop\n    /* \"#utility.yul\":580:682   */\n  swap2\n  swap1\n  pop\n  jump\t// out\n    /* \"#utility.yul\":688:868   */\ntag_30:\n    /* \"#utility.yul\":736:813   */\n  0x4e487b7100000000000000000000000000000000000000000000000000000000\n    /* \"#utility.yul\":733:734   */\n  0x00\n    /* \"#utility.yul\":726:814   */\n  mstore\n    /* \"#utility.yul\":833:837   */\n  0x41\n    /* \"#utility.yul\":830:831   */\n  0x04\n    /* \"#utility.yul\":823:838   */\n  mstore\n    /* \"#utility.yul\":857:861   */\n  0x24\n    /* \"#utility.yul\":854:855   */\n  0x00\n    /* \"#utility.yul\":847:862   */\n  revert\n    /* \"#utility.yul\":874:1155   */\ntag_31:\n    /* \"#utility.yul\":957:984   */\n  tag_70\n    /* \"#utility.yul\":979:983   */\n  dup3\n    /* \"#utility.yul\":957:984   */\n  tag_29\n  jump\t// in\ntag_70:\n    /* \"#utility.yul\":949:955   */\n  dup2\n    /* \"#utility.yul\":945:985   */\n  add\n    /* \"#utility.yul\":1087:1093   */\n  dup2\n    /* \"#utility.yul\":1075:1085   */\n  dup2\n    /* \"#utility.yul\":1072:1094   */\n  lt\n    /* \"#utility.yul\":1051:1069   */\n  0xffffffffffffffff\n    /* \"#utility.yul\":1039:1049   */\n  dup3\n    /* \"#utility.yul\":1036:1070   */\n  gt\n    /* \"#utility.yul\":1033:1095   */\n  or\n    /* \"#utility.yul\":1030:1118   */\n  iszero\n  tag_71\n  jumpi\n    /* \"#utility.yul\":1098:1116   */\n  tag_72\n  tag_30\n  jump\t// in\ntag_72:\n    /* \"#utility.yul\":1030:1118   */\ntag_71:\n    /* \"#utility.yul\":1138:1148   */\n  dup1\n    /* \"#utility.yul\":1134:1136   */\n  0x40\n    /* \"#utility.yul\":1127:1149   */\n  mstore\n    /* \"#utility.yul\":917:1155   */\n  pop\n    /* \"#utility.yul\":874:1155   */\n  pop\n  pop\n  jump\t// out\n    /* \"#utility.yul\":1161:1290   */\ntag_32:\n    /* \"#utility.yul\":1195:1201   */\n  0x00\n    /* \"#utility.yul\":1222:1242   */\n  tag_74\n  tag_24\n  jump\t// in\ntag_74:\n    /* \"#utility.yul\":1212:1242   */\n  swap1\n  pop\n    /* \"#utility.yul\":1251:1284   */\n  tag_75\n    /* \"#utility.yul\":1279:1283   */\n  dup3\n    /* \"#utility.yul\":1271:1277   */\n  dup3\n    /* \"#utility.yul\":1251:1284   */\n  tag_31\n  jump\t// in\ntag_75:\n    /* \"#utility.yul\":1161:1290   */\n  swap2\n  swap1\n  pop\n  jump\t// out\n    /* \"#utility.yul\":1296:1604   */\ntag_33:\n    /* \"#utility.yul\":1358:1362   */\n  0x00\n    /* \"#utility.yul\":1448:1466   */\n  0xffffffffffffffff\n    /* \"#utility.yul\":1440:1446   */\n  dup3\n    /* \"#utility.yul\":1437:1467   */\n  gt\n    /* \"#utility.yul\":1434:1490   */\n  iszero\n  tag_77\n  jumpi\n    /* \"#utility.yul\":1470:1488   */\n  tag_78\n  tag_30\n  jump\t// in\ntag_78:\n    /* \"#utility.yul\":1434:1490   */\ntag_77:\n    /* \"#utility.yul\":1508:1537   */\n  tag_79\n    /* \"#utility.yul\":1530:1536   */\n  dup3\n    /* \"#utility.yul\":1508:1537   */\n  tag_29\n  jump\t// in\ntag_79:\n    /* \"#utility.yul\":1500:1537   */\n  swap1\n  pop\n    /* \"#utility.yul\":1592:1596   */\n  0x20\n    /* \"#utility.yul\":1586:1590   */\n  dup2\n    /* \"#utility.yul\":1582:1597   */\n  add\n    /* \"#utility.yul\":1574:1597   */\n  swap1\n  pop\n    /* \"#utility.yul\":1296:1604   */\n  swap2\n  swap1\n  pop\n  jump\t// out\n    /* \"#utility.yul\":1610:1749   */\ntag_34:\n    /* \"#utility.yul\":1699:1705   */\n  dup3\n    /* \"#utility.yul\":1694:1697   */\n  dup2\n    /* \"#utility.yul\":1689:1692   */\n  dup4\n    /* \"#utility.yul\":1683:1706   */\n  mcopy\n    /* \"#utility.yul\":1740:1741   */\n  0x00\n    /* \"#utility.yul\":1731:1737   */\n  dup4\n    /* \"#utility.yul\":1726:1729   */\n  dup4\n    /* \"#utility.yul\":1722:1738   */\n  add\n    /* \"#utility.yul\":1715:1742   */\n  mstore\n    /* \"#utility.yul\":1610:1749   */\n  pop\n  pop\n  pop\n  jump\t// out\n    /* \"#utility.yul\":1755:2189   */\ntag_35:\n    /* \"#utility.yul\":1844:1849   */\n  0x00\n    /* \"#utility.yul\":1869:1935   */\n  tag_82\n    /* \"#utility.yul\":1885:1934   */\n  tag_83\n    /* \"#utility.yul\":1927:1933   */\n  dup5\n    /* \"#utility.yul\":1885:1934   */\n  tag_33\n  jump\t// in\ntag_83:\n    /* \"#utility.yul\":1869:1935   */\n  tag_32\n  jump\t// in\ntag_82:\n    /* \"#utility.yul\":1860:1935   */\n  swap1\n  pop\n    /* \"#utility.yul\":1958:1964   */\n  dup3\n    /* \"#utility.yul\":1951:1956   */\n  dup2\n    /* \"#utility.yul\":1944:1965   */\n  mstore\n    /* \"#utility.yul\":1996:2000   */\n  0x20\n    /* \"#utility.yul\":1989:1994   */\n  dup2\n    /* \"#utility.yul\":1985:2001   */\n  add\n    /* \"#utility.yul\":2034:2037   */\n  dup5\n    /* \"#utility.yul\":2025:2031   */\n  dup5\n    /* \"#utility.yul\":2020:2023   */\n  dup5\n    /* \"#utility.yul\":2016:2032   */\n  add\n    /* \"#utility.yul\":2013:2038   */\n  gt\n    /* \"#utility.yul\":2010:2122   */\n  iszero\n  tag_84\n  jumpi\n    /* \"#utility.yul\":2041:2120   */\n  tag_85\n  tag_28\n  jump\t// in\ntag_85:\n    /* \"#utility.yul\":2010:2122   */\ntag_84:\n    /* \"#utility.yul\":2131:2183   */\n  tag_86\n    /* \"#utility.yul\":2176:2182   */\n  dup5\n    /* \"#utility.yul\":2171:2174   */\n  dup3\n    /* \"#utility.yul\":2166:2169   */\n  dup6\n    /* \"#utility.yul\":2131:2183   */\n  tag_34\n  jump\t// in\ntag_86:\n    /* \"#utility.yul\":1850:2189   */\n  pop\n    /* \"#utility.yul\":1755:2189   */\n  swap4\n  swap3\n  pop\n  pop\n  pop\n  jump\t// out\n    /* \"#utility.yul\":2209:2564   */\ntag_36:\n    /* \"#utility.yul\":2276:2281   */\n  0x00\n    /* \"#utility.yul\":2325:2328   */\n  dup3\n    /* \"#utility.yul\":2318:2322   */\n  0x1f\n    /* \"#utility.yul\":2310:2316   */\n  dup4\n    /* \"#utility.yul\":2306:2323   */\n  add\n    /* \"#utility.yul\":2302:2329   */\n  slt\n    /* \"#utility.yul\":2292:2414   */\n  tag_88\n  jumpi\n    /* \"#utility.yul\":2333:2412   */\n  tag_89\n  tag_27\n  jump\t// in\ntag_89:\n    /* \"#utility.yul\":2292:2414   */\ntag_88:\n    /* \"#utility.yul\":2443:2449   */\n  dup2\n    /* \"#utility.yul\":2437:2450   */\n  mload\n    /* \"#utility.yul\":2468:2558   */\n  tag_90\n    /* \"#utility.yul\":2554:2557   */\n  dup5\n    /* \"#utility.yul\":2546:2552   */\n  dup3\n    /* \"#utility.yul\":2539:2543   */\n  0x20\n    /* \"#utility.yul\":2531:2537   */\n  dup7\n    /* \"#utility.yul\":2527:2544   */\n  add\n    /* \"#utility.yul\":2468:2558   */\n  tag_35\n  jump\t// in\ntag_90:\n    /* \"#utility.yul\":2459:2558   */\n  swap2\n  pop\n    /* \"#utility.yul\":2282:2564   */\n  pop\n    /* \"#utility.yul\":2209:2564   */\n  swap3\n  swap2\n  pop\n  pop\n  jump\t// out\n    /* \"#utility.yul\":2570:2647   */\ntag_37:\n    /* \"#utility.yul\":2607:2614   */\n  0x00\n    /* \"#utility.yul\":2636:2641   */\n  dup2\n    /* \"#utility.yul\":2625:2641   */\n  swap1\n  pop\n    /* \"#utility.yul\":2570:2647   */\n  swap2\n  swap1\n  pop\n  jump\t// out\n    /* \"#utility.yul\":2653:2775   */\ntag_38:\n    /* \"#utility.yul\":2726:2750   */\n  tag_93\n    /* \"#utility.yul\":2744:2749   */\n  dup2\n    /* \"#utility.yul\":2726:2750   */\n  tag_37\n  jump\t// in\ntag_93:\n    /* \"#utility.yul\":2719:2724   */\n  dup2\n    /* \"#utility.yul\":2716:2751   */\n  eq\n    /* \"#utility.yul\":2706:2769   */\n  tag_94\n  jumpi\n    /* \"#utility.yul\":2765:2766   */\n  0x00\n    /* \"#utility.yul\":2762:2763   */\n  dup1\n    /* \"#utility.yul\":2755:2767   */\n  revert\n    /* \"#utility.yul\":2706:2769   */\ntag_94:\n    /* \"#utility.yul\":2653:2775   */\n  pop\n  jump\t// out\n    /* \"#utility.yul\":2781:2924   */\ntag_39:\n    /* \"#utility.yul\":2838:2843   */\n  0x00\n    /* \"#utility.yul\":2869:2875   */\n  dup2\n    /* \"#utility.yul\":2863:2876   */\n  mload\n    /* \"#utility.yul\":2854:2876   */\n  swap1\n  pop\n    /* \"#utility.yul\":2885:2918   */\n  tag_96\n    /* \"#utility.yul\":2912:2917   */\n  dup2\n    /* \"#utility.yul\":2885:2918   */\n  tag_38\n  jump\t// in\ntag_96:\n    /* \"#utility.yul\":2781:2924   */\n  swap3\n  swap2\n  pop\n  pop\n  jump\t// out\n    /* \"#utility.yul\":2930:3939   */\ntag_3:\n    /* \"#utility.yul\":3038:3044   */\n  0x00\n    /* \"#utility.yul\":3046:3052   */\n  dup1\n    /* \"#utility.yul\":3054:3060   */\n  0x00\n    /* \"#utility.yul\":3103:3105   */\n  0x60\n    /* \"#utility.yul\":3091:3100   */\n  dup5\n    /* \"#utility.yul\":3082:3089   */\n  dup7\n    /* \"#utility.yul\":3078:3101   */\n  sub\n    /* \"#utility.yul\":3074:3106   */\n  slt\n    /* \"#utility.yul\":3071:3190   */\n  iszero\n  tag_98\n  jumpi\n    /* \"#utility.yul\":3109:3188   */\n  tag_99\n  tag_25\n  jump\t// in\ntag_99:\n    /* \"#utility.yul\":3071:3190   */\ntag_98:\n    /* \"#utility.yul\":3250:3251   */\n  0x00\n    /* \"#utility.yul\":3239:3248   */\n  dup5\n    /* \"#utility.yul\":3235:3252   */\n  add\n    /* \"#utility.yul\":3229:3253   */\n  mload\n    /* \"#utility.yul\":3280:3298   */\n  0xffffffffffffffff\n    /* \"#utility.yul\":3272:3278   */\n  dup2\n    /* \"#utility.yul\":3269:3299   */\n  gt\n    /* \"#utility.yul\":3266:3383   */\n  iszero\n  tag_100\n  jumpi\n    /* \"#utility.yul\":3302:3381   */\n  tag_101\n  tag_26\n  jump\t// in\ntag_101:\n    /* \"#utility.yul\":3266:3383   */\ntag_100:\n    /* \"#utility.yul\":3407:3481   */\n  tag_102\n    /* \"#utility.yul\":3473:3480   */\n  dup7\n    /* \"#utility.yul\":3464:3470   */\n  dup3\n    /* \"#utility.yul\":3453:3462   */\n  dup8\n    /* \"#utility.yul\":3449:3471   */\n  add\n    /* \"#utility.yul\":3407:3481   */\n  tag_36\n  jump\t// in\ntag_102:\n    /* \"#utility.yul\":3397:3481   */\n  swap4\n  pop\n    /* \"#utility.yul\":3200:3491   */\n  pop\n    /* \"#utility.yul\":3551:3553   */\n  0x20\n    /* \"#utility.yul\":3540:3549   */\n  dup5\n    /* \"#utility.yul\":3536:3554   */\n  add\n    /* \"#utility.yul\":3530:3555   */\n  mload\n    /* \"#utility.yul\":3582:3600   */\n  0xffffffffffffffff\n    /* \"#utility.yul\":3574:3580   */\n  dup2\n    /* \"#utility.yul\":3571:3601   */\n  gt\n    /* \"#utility.yul\":3568:3685   */\n  iszero\n  tag_103\n  jumpi\n    /* \"#utility.yul\":3604:3683   */\n  tag_104\n  tag_26\n  jump\t// in\ntag_104:\n    /* \"#utility.yul\":3568:3685   */\ntag_103:\n    /* \"#utility.yul\":3709:3783   */\n  tag_105\n    /* \"#utility.yul\":3775:3782   */\n  dup7\n    /* \"#utility.yul\":3766:3772   */\n  dup3\n    /* \"#utility.yul\":3755:3764   */\n  dup8\n    /* \"#utility.yul\":3751:3773   */\n  add\n    /* \"#utility.yul\":3709:3783   */\n  tag_36\n  jump\t// in\ntag_105:\n    /* \"#utility.yul\":3699:3783   */\n  swap3\n  pop\n    /* \"#utility.yul\":3501:3793   */\n  pop\n    /* \"#utility.yul\":3832:3834   */\n  0x40\n    /* \"#utility.yul\":3858:3922   */\n  tag_106\n    /* \"#utility.yul\":3914:3921   */\n  dup7\n    /* \"#utility.yul\":3905:3911   */\n  dup3\n    /* \"#utility.yul\":3894:3903   */\n  dup8\n    /* \"#utility.yul\":3890:3912   */\n  add\n    /* \"#utility.yul\":3858:3922   */\n  tag_39\n  jump\t// in\ntag_106:\n    /* \"#utility.yul\":3848:3922   */\n  swap2\n  pop\n    /* \"#utility.yul\":3803:3932   */\n  pop\n    /* \"#utility.yul\":2930:3939   */\n  swap3\n  pop\n  swap3\n  pop\n  swap3\n  jump\t// out\n    /* \"#utility.yul\":3945:4071   */\ntag_40:\n    /* \"#utility.yul\":3982:3989   */\n  0x00\n    /* \"#utility.yul\":4022:4064   */\n  0xffffffffffffffffffffffffffffffffffffffff\n    /* \"#utility.yul\":4015:4020   */\n  dup3\n    /* \"#utility.yul\":4011:4065   */\n  and\n    /* \"#utility.yul\":4000:4065   */\n  swap1\n  pop\n    /* \"#utility.yul\":3945:4071   */\n  swap2\n  swap1\n  pop\n  jump\t// out\n    /* \"#utility.yul\":4077:4173   */\ntag_41:\n    /* \"#utility.yul\":4114:4121   */\n  0x00\n    /* \"#utility.yul\":4143:4167   */\n  tag_109\n    /* \"#utility.yul\":4161:4166   */\n  dup3\n    /* \"#utility.yul\":4143:4167   */\n  tag_40\n  jump\t// in\ntag_109:\n    /* \"#utility.yul\":4132:4167   */\n  swap1\n  pop\n    /* \"#utility.yul\":4077:4173   */\n  swap2\n  swap1\n  pop\n  jump\t// out\n    /* \"#utility.yul\":4179:4297   */\ntag_42:\n    /* \"#utility.yul\":4266:4290   */\n  tag_111\n    /* \"#utility.yul\":4284:4289   */\n  dup2\n    /* \"#utility.yul\":4266:4290   */\n  tag_41\n  jump\t// in\ntag_111:\n    /* \"#utility.yul\":4261:4264   */\n  dup3\n    /* \"#utility.yul\":4254:4291   */\n  mstore\n    /* \"#utility.yul\":4179:4297   */\n  pop\n  pop\n  jump\t// out\n    /* \"#utility.yul\":4303:4525   */\ntag_13:\n    /* \"#utility.yul\":4396:4400   */\n  0x00\n    /* \"#utility.yul\":4434:4436   */\n  0x20\n    /* \"#utility.yul\":4423:4432   */\n  dup3\n    /* \"#utility.yul\":4419:4437   */\n  add\n    /* \"#utility.yul\":4411:4437   */\n  swap1\n  pop\n    /* \"#utility.yul\":4447:4518   */\n  tag_113\n    /* \"#utility.yul\":4515:4516   */\n  0x00\n    /* \"#utility.yul\":4504:4513   */\n  dup4\n    /* \"#utility.yul\":4500:4517   */\n  add\n    /* \"#utility.yul\":4491:4497   */\n  dup5\n    /* \"#utility.yul\":4447:4518   */\n  tag_42\n  jump\t// in\ntag_113:\n    /* \"#utility.yul\":4303:4525   */\n  swap3\n  swap2\n  pop\n  pop\n  jump\t// out\n    /* \"#utility.yul\":4531:4630   */\ntag_43:\n    /* \"#utility.yul\":4583:4589   */\n  0x00\n    /* \"#utility.yul\":4617:4622   */\n  dup2\n    /* \"#utility.yul\":4611:4623   */\n  mload\n    /* \"#utility.yul\":4601:4623   */\n  swap1\n  pop\n    /* \"#utility.yul\":4531:4630   */\n  swap2\n  swap1\n  pop\n  jump\t// out\n    /* \"#utility.yul\":4636:4816   */\ntag_44:\n    /* \"#utility.yul\":4684:4761   */\n  0x4e487b7100000000000000000000000000000000000000000000000000000000\n    /* \"#utility.yul\":4681:4682   */\n  0x00\n    /* \"#utility.yul\":4674:4762   */\n  mstore\n    /* \"#utility.yul\":4781:4785   */\n  0x22\n    /* \"#utility.yul\":4778:4779   */\n  0x04\n    /* \"#utility.yul\":4771:4786   */\n  mstore\n    /* \"#utility.yul\":4805:4809   */\n  0x24\n    /* \"#utility.yul\":4802:4803   */\n  0x00\n    /* \"#utility.yul\":4795:4810   */\n  revert\n    /* \"#utility.yul\":4822:5142   */\ntag_45:\n    /* \"#utility.yul\":4866:4872   */\n  0x00\n    /* \"#utility.yul\":4903:4904   */\n  0x02\n    /* \"#utility.yul\":4897:4901   */\n  dup3\n    /* \"#utility.yul\":4893:4905   */\n  div\n    /* \"#utility.yul\":4883:4905   */\n  swap1\n  pop\n    /* \"#utility.yul\":4950:4951   */\n  0x01\n    /* \"#utility.yul\":4944:4948   */\n  dup3\n    /* \"#utility.yul\":4940:4952   */\n  and\n    /* \"#utility.yul\":4971:4989   */\n  dup1\n    /* \"#utility.yul\":4961:5042   */\n  tag_117\n  jumpi\n    /* \"#utility.yul\":5027:5031   */\n  0x7f\n    /* \"#utility.yul\":5019:5025   */\n  dup3\n    /* \"#utility.yul\":5015:5032   */\n  and\n    /* \"#utility.yul\":5005:5032   */\n  swap2\n  pop\n    /* \"#utility.yul\":4961:5042   */\ntag_117:\n    /* \"#utility.yul\":5089:5091   */\n  0x20\n    /* \"#utility.yul\":5081:5087   */\n  dup3\n    /* \"#utility.yul\":5078:5092   */\n  lt\n    /* \"#utility.yul\":5058:5076   */\n  dup2\n    /* \"#utility.yul\":5055:5093   */\n  sub\n    /* \"#utility.yul\":5052:5136   */\n  tag_118\n  jumpi\n    /* \"#utility.yul\":5108:5126   */\n  tag_119\n  tag_44\n  jump\t// in\ntag_119:\n    /* \"#utility.yul\":5052:5136   */\ntag_118:\n    /* \"#utility.yul\":4873:5142   */\n  pop\n    /* \"#utility.yul\":4822:5142   */\n  swap2\n  swap1\n  pop\n  jump\t// out\n    /* \"#utility.yul\":5148:5289   */\ntag_46:\n    /* \"#utility.yul\":5197:5201   */\n  0x00\n    /* \"#utility.yul\":5220:5223   */\n  dup2\n    /* \"#utility.yul\":5212:5223   */\n  swap1\n  pop\n    /* \"#utility.yul\":5243:5246   */\n  dup2\n    /* \"#utility.yul\":5240:5241   */\n  0x00\n    /* \"#utility.yul\":5233:5247   */\n  mstore\n    /* \"#utility.yul\":5277:5281   */\n  0x20\n    /* \"#utility.yul\":5274:5275   */\n  0x00\n    /* \"#utility.yul\":5264:5282   */\n  keccak256\n    /* \"#utility.yul\":5256:5282   */\n  swap1\n  pop\n    /* \"#utility.yul\":5148:5289   */\n  swap2\n  swap1\n  pop\n  jump\t// out\n    /* \"#utility.yul\":5295:5388   */\ntag_47:\n    /* \"#utility.yul\":5332:5338   */\n  0x00\n    /* \"#utility.yul\":5379:5381   */\n  0x20\n    /* \"#utility.yul\":5374:5376   */\n  0x1f\n    /* \"#utility.yul\":5367:5372   */\n  dup4\n    /* \"#utility.yul\":5363:5377   */\n  add\n    /* \"#utility.yul\":5359:5382   */\n  div\n    /* \"#utility.yul\":5349:5382   */\n  swap1\n  pop\n    /* \"#utility.yul\":5295:5388   */\n  swap2\n  swap1\n  pop\n  jump\t// out\n    /* \"#utility.yul\":5394:5501   */\ntag_48:\n    /* \"#utility.yul\":5438:5446   */\n  0x00\n    /* \"#utility.yul\":5488:5493   */\n  dup3\n    /* \"#utility.yul\":5482:5486   */\n  dup3\n    /* \"#utility.yul\":5478:5494   */\n  shl\n    /* \"#utility.yul\":5457:5494   */\n  swap1\n  pop\n    /* \"#utility.yul\":5394:5501   */\n  swap3\n  swap2\n  pop\n  pop\n  jump\t// out\n    /* \"#utility.yul\":5507:5900   */\ntag_49:\n    /* \"#utility.yul\":5576:5582   */\n  0x00\n    /* \"#utility.yul\":5626:5627   */\n  0x08\n    /* \"#utility.yul\":5614:5624   */\n  dup4\n    /* \"#utility.yul\":5610:5628   */\n  mul\n    /* \"#utility.yul\":5649:5746   */\n  tag_124\n    /* \"#utility.yul\":5679:5745   */\n  0xffffffffffffffffffffffffffffffffffffffffffffffffffffffffffffffff\n    /* \"#utility.yul\":5668:5677   */\n  dup3\n    /* \"#utility.yul\":5649:5746   */\n  tag_48\n  jump\t// in\ntag_124:\n    /* \"#utility.yul\":5767:5806   */\n  tag_125\n    /* \"#utility.yul\":5797:5805   */\n  dup7\n    /* \"#utility.yul\":5786:5795   */\n  dup4\n    /* \"#utility.yul\":5767:5806   */\n  tag_48\n  jump\t// in\ntag_125:\n    /* \"#utility.yul\":5755:5806   */\n  swap6\n  pop\n    /* \"#utility.yul\":5839:5843   */\n  dup1\n    /* \"#utility.yul\":5835:5844   */\n  not\n    /* \"#utility.yul\":5828:5833   */\n  dup5\n    /* \"#utility.yul\":5824:5845   */\n  and\n    /* \"#utility.yul\":5815:5845   */\n  swap4\n  pop\n    /* \"#utility.yul\":5888:5892   */\n  dup1\n    /* \"#utility.yul\":5878:5886   */\n  dup7\n    /* \"#utility.yul\":5874:5893   */\n  and\n    /* \"#utility.yul\":5867:5872   */\n  dup5\n    /* \"#utility.yul\":5864:5894   */\n  or\n    /* \"#utility.yul\":5854:5894   */\n  swap3\n  pop\n    /* \"#utility.yul\":5583:5900   */\n  pop\n  pop\n    /* \"#utility.yul\":5507:5900   */\n  swap4\n  swap3\n  pop\n  pop\n  pop\n  jump\t// out\n    /* \"#utility.yul\":5906:5966   */\ntag_50:\n    /* \"#utility.yul\":5934:5937   */\n  0x00\n    /* \"#utility.yul\":5955:5960   */\n  dup2\n    /* \"#utility.yul\":5948:5960   */\n  swap1\n  pop\n    /* \"#utility.yul\":5906:5966   */\n  swap2\n  swap1\n  pop\n  jump\t// out\n    /* \"#utility.yul\":5972:6114   */\ntag_51:\n    /* \"#utility.yul\":6022:6031   */\n  0x00\n    /* \"#utility.yul\":6055:6108   */\n  tag_128\n    /* \"#utility.yul\":6073:6107   */\n  tag_129\n    /* \"#utility.yul\":6082:6106   */\n  tag_130\n    /* \"#utility.yul\":6100:6105   */\n  dup5\n    /* \"#utility.yul\":6082:6106   */\n  tag_37\n  jump\t// in\ntag_130:\n    /* \"#utility.yul\":6073:6107   */\n  tag_50\n  jump\t// in\ntag_129:\n    /* \"#utility.yul\":6055:6108   */\n  tag_37\n  jump\t// in\ntag_128:\n    /* \"#utility.yul\":6042:6108   */\n  swap1\n  pop\n    /* \"#utility.yul\":5972:6114   */\n  swap2\n  swap1\n  pop\n  jump\t// out\n    /* \"#utility.yul\":6120:6195   */\ntag_52:\n    /* \"#utility.yul\":6163:6166   */\n  0x00\n    /* \"#utility.yul\":6184:6189   */\n  dup2\n    /* \"#utility.yul\":6177:6189   */\n  swap1\n  pop\n    /* \"#utility.yul\":6120:6195   */\n  swap2\n  swap1\n  pop\n  jump\t// out\n    /* \"#utility.yul\":6201:6470   */\ntag_53:\n    /* \"#utility.yul\":6311:6350   */\n  tag_133\n    /* \"#utility.yul\":6342:6349   */\n  dup4\n    /* \"#utility.yul\":6311:6350   */\n  tag_51\n  jump\t// in\ntag_133:\n    /* \"#utility.yul\":6372:6463   */\n  tag_134\n    /* \"#utility.yul\":6421:6462   */\n  tag_135\n    /* \"#utility.yul\":6445:6461   */\n  dup3\n    /* \"#utility.yul\":6421:6462   */\n  tag_52\n  jump\t// in\ntag_135:\n    /* \"#utility.yul\":6413:6419   */\n  dup5\n    /* \"#utility.yul\":6406:6410   */\n  dup5\n    /* \"#utility.yul\":6400:6411   */\n  sload\n    /* \"#utility.yul\":6372:6463   */\n  tag_49\n  jump\t// in\ntag_134:\n    /* \"#utility.yul\":6366:6370   */\n  dup3\n    /* \"#utility.yul\":6359:6464   */\n  sstore\n    /* \"#utility.yul\":6277:6470   */\n  pop\n    /* \"#utility.yul\":6201:6470   */\n  pop\n  pop\n  pop\n  jump\t// out\n    /* \"#utility.yul\":6476:6549   */\ntag_54:\n    /* \"#utility.yul\":6521:6524   */\n  0x00\n    /* \"#utility.yul\":6476:6549   */\n  swap1\n  jump\t// out\n    /* \"#utility.yul\":6555:6744   */\ntag_55:\n    /* \"#utility.yul\":6632:6664   */\n  tag_138\n  tag_54\n  jump\t// in\ntag_138:\n    /* \"#utility.yul\":6673:6738   */\n  tag_139\n    /* \"#utility.yul\":6731:6737   */\n  dup2\n    /* \"#utility.yul\":6723:6729   */\n  dup5\n    /* \"#utility.yul\":6717:6721   */\n  dup5\n    /* \"#utility.yul\":6673:6738   */\n  tag_53\n  jump\t// in\ntag_139:\n    /* \"#utility.yul\":6608:6744   */\n  pop\n    /* \"#utility.yul\":6555:6744   */\n  pop\n  pop\n  jump\t// out\n    /* \"#utility.yul\":6750:6936   */\ntag_56:\n    /* \"#utility.yul\":6810:6930   */\ntag_141:\n    /* \"#utility.yul\":6827:6830   */\n  dup2\n    /* \"#utility.yul\":6820:6825   */\n  dup2\n    /* \"#utility.yul\":6817:6831   */\n  lt\n    /* \"#utility.yul\":6810:6930   */\n  iszero\n  tag_143\n  jumpi\n    /* \"#utility.yul\":6881:6920   */\n  tag_144\n    /* \"#utility.yul\":6918:6919   */\n  0x00\n    /* \"#utility.yul\":6911:6916   */\n  dup3\n    /* \"#utility.yul\":6881:6920   */\n  tag_55\n  jump\t// in\ntag_144:\n    /* \"#utility.yul\":6854:6855   */\n  0x01\n    /* \"#utility.yul\":6847:6852   */\n  dup2\n    /* \"#utility.yul\":6843:6856   */\n  add\n    /* \"#utility.yul\":6834:6856   */\n  swap1\n  pop\n    /* \"#utility.yul\":6810:6930   */\n  jump(tag_141)\ntag_143:\n    /* \"#utility.yul\":6750:6936   */\n  pop\n  pop\n  jump\t// out\n    /* \"#utility.yul\":6942:7485   */\ntag_57:\n    /* \"#utility.yul\":7043:7045   */\n  0x1f\n    /* \"#utility.yul\":7038:7041   */\n  dup3\n    /* \"#utility.yul\":7035:7046   */\n  gt\n    /* \"#utility.yul\":7032:7478   */\n  iszero\n  tag_146\n  jumpi\n    /* \"#utility.yul\":7077:7115   */\n  tag_147\n    /* \"#utility.yul\":7109:7114   */\n  dup2\n    /* \"#utility.yul\":7077:7115   */\n  tag_46\n  jump\t// in\ntag_147:\n    /* \"#utility.yul\":7161:7190   */\n  tag_148\n    /* \"#utility.yul\":7179:7189   */\n  dup5\n    /* \"#utility.yul\":7161:7190   */\n  tag_47\n  jump\t// in\ntag_148:\n    /* \"#utility.yul\":7151:7159   */\n  dup2\n    /* \"#utility.yul\":7147:7191   */\n  add\n    /* \"#utility.yul\":7344:7346   */\n  0x20\n    /* \"#utility.yul\":7332:7342   */\n  dup6\n    /* \"#utility.yul\":7329:7347   */\n  lt\n    /* \"#utility.yul\":7326:7375   */\n  iszero\n  tag_149\n  jumpi\n    /* \"#utility.yul\":7365:7373   */\n  dup2\n    /* \"#utility.yul\":7350:7373   */\n  swap1\n  pop\n    /* \"#utility.yul\":7326:7375   */\ntag_149:\n    /* \"#utility.yul\":7388:7468   */\n  tag_150\n    /* \"#utility.yul\":7444:7466   */\n  tag_151\n    /* \"#utility.yul\":7462:7465   */\n  dup6\n    /* \"#utility.yul\":7444:7466   */\n  tag_47\n  jump\t// in\ntag_151:\n    /* \"#utility.yul\":7434:7442   */\n  dup4\n    /* \"#utility.yul\":7430:7467   */\n  add\n    /* \"#utility.yul\":7417:7428   */\n  dup3\n    /* \"#utility.yul\":7388:7468   */\n  tag_56\n  jump\t// in\ntag_150:\n    /* \"#utility.yul\":7047:7478   */\n  pop\n  pop\n    /* \"#utility.yul\":7032:7478   */\ntag_146:\n    /* \"#utility.yul\":6942:7485   */\n  pop\n  pop\n  pop\n  jump\t// out\n    /* \"#utility.yul\":7491:7608   */\ntag_58:\n    /* \"#utility.yul\":7545:7553   */\n  0x00\n    /* \"#utility.yul\":7595:7600   */\n  dup3\n    /* \"#utility.yul\":7589:7593   */\n  dup3\n    /* \"#utility.yul\":7585:7601   */\n  shr\n    /* \"#utility.yul\":7564:7601   */\n  swap1\n  pop\n    /* \"#utility.yul\":7491:7608   */\n  swap3\n  swap2\n  pop\n  pop\n  jump\t// out\n    /* \"#utility.yul\":7614:7783   */\ntag_59:\n    /* \"#utility.yul\":7658:7664   */\n  0x00\n    /* \"#utility.yul\":7691:7742   */\n  tag_154\n    /* \"#utility.yul\":7739:7740   */\n  0x00\n    /* \"#utility.yul\":7735:7741   */\n  not\n    /* \"#utility.yul\":7727:7732   */\n  dup5\n    /* \"#utility.yul\":7724:7725   */\n  0x08\n    /* \"#utility.yul\":7720:7733   */\n  mul\n    /* \"#utility.yul\":7691:7742   */\n  tag_58\n  jump\t// in\ntag_154:\n    /* \"#utility.yul\":7687:7743   */\n  not\n    /* \"#utility.yul\":7772:7776   */\n  dup1\n    /* \"#utility.yul\":7766:7770   */\n  dup4\n    /* \"#utility.yul\":7762:7777   */\n  and\n    /* \"#utility.yul\":7752:7777   */\n  swap2\n  pop\n    /* \"#utility.yul\":7665:7783   */\n  pop\n    /* \"#utility.yul\":7614:7783   */\n  swap3\n  swap2\n  pop\n  pop\n  jump\t// out\n    /* \"#utility.yul\":7788:8083   */\ntag_60:\n    /* \"#utility.yul\":7864:7868   */\n  0x00\n    /* \"#utility.yul\":8010:8039   */\n  tag_156\n    /* \"#utility.yul\":8035:8038   */\n  dup4\n    /* \"#utility.yul\":8029:8033   */\n  dup4\n    /* \"#utility.yul\":8010:8039   */\n  tag_59\n  jump\t// in\ntag_156:\n    /* \"#utility.yul\":8002:8039   */\n  swap2\n  pop\n    /* \"#utility.yul\":8072:8075   */\n  dup3\n    /* \"#utility.yul\":8069:8070   */\n  0x02\n    /* \"#utility.yul\":8065:8076   */\n  mul\n    /* \"#utility.yul\":8059:8063   */\n  dup3\n    /* \"#utility.yul\":8056:8077   */\n  or\n    /* \"#utility.yul\":8048:8077   */\n  swap1\n  pop\n    /* \"#utility.yul\":7788:8083   */\n  swap3\n  swap2\n  pop\n  pop\n  jump\t// out\n    /* \"#utility.yul\":8088:9483   */\ntag_18:\n    /* \"#utility.yul\":8205:8242   */\n  tag_158\n    /* \"#utility.yul\":8238:8241   */\n  dup3\n    /* \"#utility.yul\":8205:8242   */\n  tag_43\n  jump\t// in\ntag_158:\n    /* \"#utility.yul\":8307:8325   */\n  0xffffffffffffffff\n    /* \"#utility.yul\":8299:8305   */\n  dup2\n    /* \"#utility.yul\":8296:8326   */\n  gt\n    /* \"#utility.yul\":8293:8349   */\n  iszero\n  tag_159\n  jumpi\n    /* \"#utility.yul\":8329:8347   */\n  tag_160\n  tag_30\n  jump\t// in\ntag_160:\n    /* \"#utility.yul\":8293:8349   */\ntag_159:\n    /* \"#utility.yul\":8373:8411   */\n  tag_161\n    /* \"#utility.yul\":8405:8409   */\n  dup3\n    /* \"#utility.yul\":8399:8410   */\n  sload\n    /* \"#utility.yul\":8373:8411   */\n  tag_45\n  jump\t// in\ntag_161:\n    /* \"#utility.yul\":8458:8525   */\n  tag_162\n    /* \"#utility.yul\":8518:8524   */\n  dup3\n    /* \"#utility.yul\":8510:8516   */\n  dup3\n    /* \"#utility.yul\":8504:8508   */\n  dup6\n    /* \"#utility.yul\":8458:8525   */\n  tag_57\n  jump\t// in\ntag_162:\n    /* \"#utility.yul\":8552:8553   */\n  0x00\n    /* \"#utility.yul\":8576:8580   */\n  0x20\n    /* \"#utility.yul\":8563:8580   */\n  swap1\n  pop\n    /* \"#utility.yul\":8608:8610   */\n  0x1f\n    /* \"#utility.yul\":8600:8606   */\n  dup4\n    /* \"#utility.yul\":8597:8611   */\n  gt\n    /* \"#utility.yul\":8625:8626   */\n  0x01\n    /* \"#utility.yul\":8620:9238   */\n  dup2\n  eq\n  tag_164\n  jumpi\n    /* \"#utility.yul\":9282:9283   */\n  0x00\n    /* \"#utility.yul\":9299:9305   */\n  dup5\n    /* \"#utility.yul\":9296:9373   */\n  iszero\n  tag_165\n  jumpi\n    /* \"#utility.yul\":9348:9357   */\n  dup3\n    /* \"#utility.yul\":9343:9346   */\n  dup8\n    /* \"#utility.yul\":9339:9358   */\n  add\n    /* \"#utility.yul\":9333:9359   */\n  mload\n    /* \"#utility.yul\":9324:9359   */\n  swap1\n  pop\n    /* \"#utility.yul\":9296:9373   */\ntag_165:\n    /* \"#utility.yul\":9399:9466   */\n  tag_166\n    /* \"#utility.yul\":9459:9465   */\n  dup6\n    /* \"#utility.yul\":9452:9457   */\n  dup3\n    /* \"#utility.yul\":9399:9466   */\n  tag_60\n  jump\t// in\ntag_166:\n    /* \"#utility.yul\":9393:9397   */\n  dup7\n    /* \"#utility.yul\":9386:9467   */\n  sstore\n    /* \"#utility.yul\":9255:9477   */\n  pop\n    /* \"#utility.yul\":8590:9477   */\n  jump(tag_163)\n    /* \"#utility.yul\":8620:9238   */\ntag_164:\n    /* \"#utility.yul\":8672:8676   */\n  0x1f\n    /* \"#utility.yul\":8668:8677   */\n  not\n    /* \"#utility.yul\":8660:8666   */\n  dup5\n    /* \"#utility.yul\":8656:8678   */\n  and\n    /* \"#utility.yul\":8706:8743   */\n  tag_167\n    /* \"#utility.yul\":8738:8742   */\n  dup7\n    /* \"#utility.yul\":8706:8743   */\n  tag_46\n  jump\t// in\ntag_167:\n    /* \"#utility.yul\":8765:8766   */\n  0x00\n    /* \"#utility.yul\":8779:8987   */\ntag_168:\n    /* \"#utility.yul\":8793:8800   */\n  dup3\n    /* \"#utility.yul\":8790:8791   */\n  dup2\n    /* \"#utility.yul\":8787:8801   */\n  lt\n    /* \"#utility.yul\":8779:8987   */\n  iszero\n  tag_170\n  jumpi\n    /* \"#utility.yul\":8872:8881   */\n  dup5\n    /* \"#utility.yul\":8867:8870   */\n  dup10\n    /* \"#utility.yul\":8863:8882   */\n  add\n    /* \"#utility.yul\":8857:8883   */\n  mload\n    /* \"#utility.yul\":8849:8855   */\n  dup3\n    /* \"#utility.yul\":8842:8884   */\n  sstore\n    /* \"#utility.yul\":8923:8924   */\n  0x01\n    /* \"#utility.yul\":8915:8921   */\n  dup3\n    /* \"#utility.yul\":8911:8925   */\n  add\n    /* \"#utility.yul\":8901:8925   */\n  swap2\n  pop\n    /* \"#utility.yul\":8970:8972   */\n  0x20\n    /* \"#utility.yul\":8959:8968   */\n  dup6\n    /* \"#utility.yul\":8955:8973   */\n  add\n    /* \"#utility.yul\":8942:8973   */\n  swap5\n  pop\n    /* \"#utility.yul\":8816:8820   */\n  0x20\n    /* \"#utility.yul\":8813:8814   */\n  dup2\n    /* \"#utility.yul\":8809:8821   */\n  add\n    /* \"#utility.yul\":8804:8821   */\n  swap1\n  pop\n    /* \"#utility.yul\":8779:8987   */\n  jump(tag_168)\ntag_170:\n    /* \"#utility.yul\":9015:9021   */\n  dup7\n    /* \"#utility.yul\":9006:9013   */\n  dup4\n    /* \"#utility.yul\":9003:9022   */\n  lt\n    /* \"#utility.yul\":9000:9179   */\n  iszero\n  tag_171\n  jumpi\n    /* \"#utility.yul\":9073:9082   */\n  dup5\n    /* \"#utility.yul\":9068:9071   */\n  dup10\n    /* \"#utility.yul\":9064:9083   */\n  add\n    /* \"#utility.yul\":9058:9084   */\n  mload\n    /* \"#utility.yul\":9116:9164   */\n  tag_172\n    /* \"#utility.yul\":9158:9162   */\n  0x1f\n    /* \"#utility.yul\":9150:9156   */\n  dup10\n    /* \"#utility.yul\":9146:9163   */\n  and\n    /* \"#utility.yul\":9135:9144   */\n  dup3\n    /* \"#utility.yul\":9116:9164   */\n  tag_59\n  jump\t// in\ntag_172:\n    /* \"#utility.yul\":9108:9114   */\n  dup4\n    /* \"#utility.yul\":9101:9165   */\n  sstore\n    /* \"#utility.yul\":9023:9179   */\n  pop\n    /* \"#utility.yul\":9000:9179   */\ntag_171:\n    /* \"#utility.yul\":9225:9226   */\n  0x01\n    /* \"#utility.yul\":9221:9222   */\n  0x02\n    /* \"#utility.yul\":9213:9219   */\n  dup9\n    /* \"#utility.yul\":9209:9223   */\n  mul\n    /* \"#utility.yul\":9205:9227   */\n  add\n    /* \"#utility.yul\":9199:9203   */\n  dup9\n    /* \"#utility.yul\":9192:9228   */\n  sstore\n    /* \"#utility.yul\":8627:9238   */\n  pop\n  pop\n  pop\n    /* \"#utility.yul\":8590:9477   */\ntag_163:\n  pop\n    /* \"#utility.yul\":8180:9483   */\n  pop\n  pop\n  pop\n    /* \"#utility.yul\":8088:9483   */\n  pop\n  pop\n  jump\t// out\n    /* \"practice.sol\":213:1800  contract LotteryNFT is ERC1155, Ownable {... */\ntag_20:\n  dataSize(sub_0)\n  dup1\n  dataOffset(sub_0)\n  0x00\n  codecopy\n  0x00\n  return\nstop\n\nsub_0: assembly {\n        /* \"practice.sol\":213:1800  contract LotteryNFT is ERC1155, Ownable {... */\n      mstore(0x40, 0x80)\n      jumpi(tag_1, lt(calldatasize, 0x04))\n      shr(0xe0, calldataload(0x00))\n      dup1\n      0x4e1273f4\n      gt\n      tag_17\n      jumpi\n      dup1\n      0xa22cb465\n      gt\n      tag_18\n      jumpi\n      dup1\n      0xa22cb465\n      eq\n      tag_13\n      jumpi\n      dup1\n      0xe985e9c5\n      eq\n      tag_14\n      jumpi\n      dup1\n      0xf242432a\n      eq\n      tag_15\n      jumpi\n      dup1\n      0xf2fde38b\n      eq\n      tag_16\n      jumpi\n      jump(tag_1)\n    tag_18:\n      dup1\n      0x4e1273f4\n      eq\n      tag_9\n      jumpi\n      dup1\n      0x715018a6\n      eq\n      tag_10\n      jumpi\n      dup1\n      0x8da5cb5b\n      eq\n      tag_11\n      jumpi\n      dup1\n      0x95d89b41\n      eq\n      tag_12\n      jumpi\n      jump(tag_1)\n    tag_17:\n      dup1\n      0x0e89341c\n      gt\n      tag_19\n      jumpi\n      dup1\n      0x0e89341c\n      eq\n      tag_5\n      jumpi\n      dup1\n      0x1209b1f6\n      eq\n      tag_6\n      jumpi\n      dup1\n      0x21846c76\n      eq\n      tag_7\n      jumpi\n      dup1\n      0x2eb2c2d6\n      eq\n      tag_8\n      jumpi\n      jump(tag_1)\n    tag_19:\n      dup1\n      0xfdd58e\n      eq\n      tag_2\n      jumpi\n      dup1\n      0x01ffc9a7\n      eq\n      tag_3\n      jumpi\n      dup1\n      0x06fdde03\n      eq\n      tag_4\n      jumpi\n    tag_1:\n      0x00\n      dup1\n      revert\n        /* \"@openzeppelin/contracts/token/ERC1155/ERC1155.sol\":2247:2379  function balanceOf(address account, uint256 id) public view virtual returns (uint256) {... */\n    tag_2:\n      callvalue\n      dup1\n      iszero\n      tag_20\n      jumpi\n      0x00\n      dup1\n      revert\n    tag_20:\n      pop\n      tag_21\n      0x04\n      dup1\n      calldatasize\n      sub\n      dup2\n      add\n      swap1\n      tag_22\n      swap2\n      swap1\n      tag_23\n      jump\t// in\n    tag_22:\n      tag_24\n      jump\t// in\n    tag_21:\n      mload(0x40)\n      tag_25\n      swap2\n      swap1\n      tag_26\n      jump\t// in\n    tag_25:\n      mload(0x40)\n      dup1\n      swap2\n      sub\n      swap1\n      return\n        /* \"@openzeppelin/contracts/token/ERC1155/ERC1155.sol\":1380:1685  function supportsInterface(bytes4 interfaceId) public view virtual override(ERC165, IERC165) returns (bool) {... */\n    tag_3:\n      callvalue\n      dup1\n      iszero\n      tag_27\n      jumpi\n      0x00\n      dup1\n      revert\n    tag_27:\n      pop\n      tag_28\n      0x04\n      dup1\n      calldatasize\n      sub\n      dup2\n      add\n      swap1\n      tag_29\n      swap2\n      swap1\n      tag_30\n      jump\t// in\n    tag_29:\n      tag_31\n      jump\t// in\n    tag_28:\n      mload(0x40)\n      tag_32\n      swap2\n      swap1\n      tag_33\n      jump\t// in\n    tag_32:\n      mload(0x40)\n      dup1\n      swap2\n      sub\n      swap1\n      return\n        /* \"practice.sol\":291:309  string public name */\n    tag_4:\n      callvalue\n      dup1\n      iszero\n      tag_34\n      jumpi\n      0x00\n      dup1\n      revert\n    tag_34:\n      pop\n      tag_35\n      tag_36\n      jump\t// in\n    tag_35:\n      mload(0x40)\n      tag_37\n      swap2\n      swap1\n      tag_38\n      jump\t// in\n    tag_37:\n      mload(0x40)\n      dup1\n      swap2\n      sub\n      swap1\n      return\n        /* \"@openzeppelin/contracts/token/ERC1155/ERC1155.sol\":2084:2187  function uri(uint256 /* id */) public view virtual returns (string memory) {... */\n    tag_5:\n      callvalue\n      dup1\n      iszero\n      tag_39\n      jumpi\n      0x00\n      dup1\n      revert\n    tag_39:\n      pop\n      tag_40\n      0x04\n      dup1\n      calldatasize\n      sub\n      dup2\n      add\n      swap1\n      tag_41\n      swap2\n      swap1\n      tag_42\n      jump\t// in\n    tag_41:\n      tag_43\n      jump\t// in\n    tag_40:\n      mload(0x40)\n      tag_44\n      swap2\n      swap1\n      tag_38\n      jump\t// in\n    tag_44:\n      mload(0x40)\n      dup1\n      swap2\n      sub\n      swap1\n      return\n        /* \"practice.sol\":343:366  uint public ticketPrice */\n    tag_6:\n      callvalue\n      dup1\n      iszero\n      tag_45\n      jumpi\n      0x00\n      dup1\n      revert\n    tag_45:\n      pop\n      tag_46\n      tag_47\n      jump\t// in\n    tag_46:\n      mload(0x40)\n      tag_48\n      swap2\n      swap1\n      tag_26\n      jump\t// in\n    tag_48:\n      mload(0x40)\n      dup1\n      swap2\n      sub\n      swap1\n      return\n        /* \"practice.sol\":929:1714  function purchaseTicket() public payable {... */\n    tag_7:\n      tag_49\n      tag_50\n      jump\t// in\n    tag_49:\n      stop\n        /* \"@openzeppelin/contracts/token/ERC1155/ERC1155.sol\":4014:4443  function safeBatchTransferFrom(... */\n    tag_8:\n      callvalue\n      dup1\n      iszero\n      tag_51\n      jumpi\n      0x00\n      dup1\n      revert\n    tag_51:\n      pop\n      tag_52\n      0x04\n      dup1\n      calldatasize\n      sub\n      dup2\n      add\n      swap1\n      tag_53\n      swap2\n      swap1\n      tag_54\n      jump\t// in\n    tag_53:\n      tag_55\n      jump\t// in\n    tag_52:\n      stop\n        /* \"@openzeppelin/contracts/token/ERC1155/ERC1155.sol\":2536:3088  function balanceOfBatch(... */\n    tag_9:\n      callvalue\n      dup1\n      iszero\n      tag_56\n      jumpi\n      0x00\n      dup1\n      revert\n    tag_56:\n      pop\n      tag_57\n      0x04\n      dup1\n      calldatasize\n      sub\n      dup2\n      add\n      swap1\n      tag_58\n      swap2\n      swap1\n      tag_59\n      jump\t// in\n    tag_58:\n      tag_60\n      jump\t// in\n    tag_57:\n      mload(0x40)\n      tag_61\n      swap2\n      swap1\n      tag_62\n      jump\t// in\n    tag_61:\n      mload(0x40)\n      dup1\n      swap2\n      sub\n      swap1\n      return\n        /* \"@openzeppelin/contracts/access/Ownable.sol\":2293:2394  function renounceOwnership() public virtual onlyOwner {... */\n    tag_10:\n      callvalue\n      dup1\n      iszero\n      tag_63\n      jumpi\n      0x00\n      dup1\n      revert\n    tag_63:\n      pop\n      tag_64\n      tag_65\n      jump\t// in\n    tag_64:\n      stop\n        /* \"@openzeppelin/contracts/access/Ownable.sol\":1638:1723  function owner() public view virtual returns (address) {... */\n    tag_11:\n      callvalue\n      dup1\n      iszero\n      tag_66\n      jumpi\n      0x00\n      dup1\n      revert\n    tag_66:\n      pop\n      tag_67\n      tag_68\n      jump\t// in\n    tag_67:\n      mload(0x40)\n      tag_69\n      swap2\n      swap1\n      tag_70\n      jump\t// in\n    tag_69:\n      mload(0x40)\n      dup1\n      swap2\n      sub\n      swap1\n      return\n        /* \"practice.sol\":316:336  string public symbol */\n    tag_12:\n      callvalue\n      dup1\n      iszero\n      tag_71\n      jumpi\n      0x00\n      dup1\n      revert\n    tag_71:\n      pop\n      tag_72\n      tag_73\n      jump\t// in\n    tag_72:\n      mload(0x40)\n      tag_74\n      swap2\n      swap1\n      tag_38\n      jump\t// in\n    tag_74:\n      mload(0x40)\n      dup1\n      swap2\n      sub\n      swap1\n      return\n        /* \"@openzeppelin/contracts/token/ERC1155/ERC1155.sol\":3156:3300  function setApprovalForAll(address operator, bool approved) public virtual {... */\n    tag_13:\n      callvalue\n      dup1\n      iszero\n      tag_75\n      jumpi\n      0x00\n      dup1\n      revert\n    tag_75:\n      pop\n      tag_76\n      0x04\n      dup1\n      calldatasize\n      sub\n      dup2\n      add\n      swap1\n      tag_77\n      swap2\n      swap1\n      tag_78\n      jump\t// in\n    tag_77:\n      tag_79\n      jump\t// in\n    tag_76:\n      stop\n        /* \"@openzeppelin/contracts/token/ERC1155/ERC1155.sol\":3367:3524  function isApprovedForAll(address account, address operator) public view virtual returns (bool) {... */\n    tag_14:\n      callvalue\n      dup1\n      iszero\n      tag_80\n      jumpi\n      0x00\n      dup1\n      revert\n    tag_80:\n      pop\n      tag_81\n      0x04\n      dup1\n      calldatasize\n      sub\n      dup2\n      add\n      swap1\n      tag_82\n      swap2\n      swap1\n      tag_83\n      jump\t// in\n    tag_82:\n      tag_84\n      jump\t// in\n    tag_81:\n      mload(0x40)\n      tag_85\n      swap2\n      swap1\n      tag_33\n      jump\t// in\n    tag_85:\n      mload(0x40)\n      dup1\n      swap2\n      sub\n      swap1\n      return\n        /* \"@openzeppelin/contracts/token/ERC1155/ERC1155.sol\":3591:3942  function safeTransferFrom(address from, address to, uint256 id, uint256 value, bytes memory data) public virtual {... */\n    tag_15:\n      callvalue\n      dup1\n      iszero\n      tag_86\n      jumpi\n      0x00\n      dup1\n      revert\n    tag_86:\n      pop\n      tag_87\n      0x04\n      dup1\n      calldatasize\n      sub\n      dup2\n      add\n      swap1\n      tag_88\n      swap2\n      swap1\n      tag_89\n      jump\t// in\n    tag_88:\n      tag_90\n      jump\t// in\n    tag_87:\n      stop\n        /* \"@openzeppelin/contracts/access/Ownable.sol\":2543:2758  function transferOwnership(address newOwner) public virtual onlyOwner {... */\n    tag_16:\n      callvalue\n      dup1\n      iszero\n      tag_91\n      jumpi\n      0x00\n      dup1\n      revert\n    tag_91:\n      pop\n      tag_92\n      0x04\n      dup1\n      calldatasize\n      sub\n      dup2\n      add\n      swap1\n      tag_93\n      swap2\n      swap1\n      tag_94\n      jump\t// in\n    tag_93:\n      tag_95\n      jump\t// in\n    tag_92:\n      stop\n        /* \"@openzeppelin/contracts/token/ERC1155/ERC1155.sol\":2247:2379  function balanceOf(address account, uint256 id) public view virtual returns (uint256) {... */\n    tag_24:\n        /* \"@openzeppelin/contracts/token/ERC1155/ERC1155.sol\":2324:2331  uint256 */\n      0x00\n        /* \"@openzeppelin/contracts/token/ERC1155/ERC1155.sol\":2350:2359  _balances */\n      dup1\n        /* \"@openzeppelin/contracts/token/ERC1155/ERC1155.sol\":2350:2363  _balances[id] */\n      0x00\n        /* \"@openzeppelin/contracts/token/ERC1155/ERC1155.sol\":2360:2362  id */\n      dup4\n        /* \"@openzeppelin/contracts/token/ERC1155/ERC1155.sol\":2350:2363  _balances[id] */\n      dup2\n      mstore\n      0x20\n      add\n      swap1\n      dup2\n      mstore\n      0x20\n      add\n      0x00\n      keccak256\n        /* \"@openzeppelin/contracts/token/ERC1155/ERC1155.sol\":2350:2372  _balances[id][account] */\n      0x00\n        /* \"@openzeppelin/contracts/token/ERC1155/ERC1155.sol\":2364:2371  account */\n      dup5\n        /* \"@openzeppelin/contracts/token/ERC1155/ERC1155.sol\":2350:2372  _balances[id][account] */\n      0xffffffffffffffffffffffffffffffffffffffff\n      and\n      0xffffffffffffffffffffffffffffffffffffffff\n      and\n      dup2\n      mstore\n      0x20\n      add\n      swap1\n      dup2\n      mstore\n      0x20\n      add\n      0x00\n      keccak256\n      sload\n        /* \"@openzeppelin/contracts/token/ERC1155/ERC1155.sol\":2343:2372  return _balances[id][account] */\n      swap1\n      pop\n        /* \"@openzeppelin/contracts/token/ERC1155/ERC1155.sol\":2247:2379  function balanceOf(address account, uint256 id) public view virtual returns (uint256) {... */\n      swap3\n      swap2\n      pop\n      pop\n      jump\t// out\n        /* \"@openzeppelin/contracts/token/ERC1155/ERC1155.sol\":1380:1685  function supportsInterface(bytes4 interfaceId) public view virtual override(ERC165, IERC165) returns (bool) {... */\n    tag_31:\n        /* \"@openzeppelin/contracts/token/ERC1155/ERC1155.sol\":1482:1486  bool */\n      0x00\n        /* \"@openzeppelin/contracts/token/ERC1155/ERC1155.sol\":1532:1558  type(IERC1155).interfaceId */\n      0xd9b67a2600000000000000000000000000000000000000000000000000000000\n        /* \"@openzeppelin/contracts/token/ERC1155/ERC1155.sol\":1517:1558  interfaceId == type(IERC1155).interfaceId */\n      not(0xffffffffffffffffffffffffffffffffffffffffffffffffffffffff)\n      and\n        /* \"@openzeppelin/contracts/token/ERC1155/ERC1155.sol\":1517:1528  interfaceId */\n      dup3\n        /* \"@openzeppelin/contracts/token/ERC1155/ERC1155.sol\":1517:1558  interfaceId == type(IERC1155).interfaceId */\n      not(0xffffffffffffffffffffffffffffffffffffffffffffffffffffffff)\n      and\n      eq\n        /* \"@openzeppelin/contracts/token/ERC1155/ERC1155.sol\":1517:1626  interfaceId == type(IERC1155).interfaceId ||... */\n      dup1\n      tag_98\n      jumpi\n      pop\n        /* \"@openzeppelin/contracts/token/ERC1155/ERC1155.sol\":1589:1626  type(IERC1155MetadataURI).interfaceId */\n      0x0e89341c00000000000000000000000000000000000000000000000000000000\n        /* \"@openzeppelin/contracts/token/ERC1155/ERC1155.sol\":1574:1626  interfaceId == type(IERC1155MetadataURI).interfaceId */\n      not(0xffffffffffffffffffffffffffffffffffffffffffffffffffffffff)\n      and\n        /* \"@openzeppelin/contracts/token/ERC1155/ERC1155.sol\":1574:1585  interfaceId */\n      dup3\n        /* \"@openzeppelin/contracts/token/ERC1155/ERC1155.sol\":1574:1626  interfaceId == type(IERC1155MetadataURI).interfaceId */\n      not(0xffffffffffffffffffffffffffffffffffffffffffffffffffffffff)\n      and\n      eq\n        /* \"@openzeppelin/contracts/token/ERC1155/ERC1155.sol\":1517:1626  interfaceId == type(IERC1155).interfaceId ||... */\n    tag_98:\n        /* \"@openzeppelin/contracts/token/ERC1155/ERC1155.sol\":1517:1678  interfaceId == type(IERC1155).interfaceId ||... */\n      dup1\n      tag_99\n      jumpi\n      pop\n        /* \"@openzeppelin/contracts/token/ERC1155/ERC1155.sol\":1642:1678  super.supportsInterface(interfaceId) */\n      tag_100\n        /* \"@openzeppelin/contracts/token/ERC1155/ERC1155.sol\":1666:1677  interfaceId */\n      dup3\n        /* \"@openzeppelin/contracts/token/ERC1155/ERC1155.sol\":1642:1665  super.supportsInterface */\n      tag_101\n        /* \"@openzeppelin/contracts/token/ERC1155/ERC1155.sol\":1642:1678  super.supportsInterface(interfaceId) */\n      jump\t// in\n    tag_100:\n        /* \"@openzeppelin/contracts/token/ERC1155/ERC1155.sol\":1517:1678  interfaceId == type(IERC1155).interfaceId ||... */\n    tag_99:\n        /* \"@openzeppelin/contracts/token/ERC1155/ERC1155.sol\":1498:1678  return... */\n      swap1\n      pop\n        /* \"@openzeppelin/contracts/token/ERC1155/ERC1155.sol\":1380:1685  function supportsInterface(bytes4 interfaceId) public view virtual override(ERC165, IERC165) returns (bool) {... */\n      swap2\n      swap1\n      pop\n      jump\t// out\n        /* \"practice.sol\":291:309  string public name */\n    tag_36:\n      0x04\n      dup1\n      sload\n      tag_102\n      swap1\n      tag_103\n      jump\t// in\n    tag_102:\n      dup1\n      0x1f\n      add\n      0x20\n      dup1\n      swap2\n      div\n      mul\n      0x20\n      add\n      mload(0x40)\n      swap1\n      dup2\n      add\n      0x40\n      mstore\n      dup1\n      swap3\n      swap2\n      swap1\n      dup2\n      dup2\n      mstore\n      0x20\n      add\n      dup3\n      dup1\n      sload\n      tag_104\n      swap1\n      tag_103\n      jump\t// in\n    tag_104:\n      dup1\n      iszero\n      tag_105\n      jumpi\n      dup1\n      0x1f\n      lt\n      tag_106\n      jumpi\n      0x0100\n      dup1\n      dup4\n      sload\n      div\n      mul\n      dup4\n      mstore\n      swap2\n      0x20\n      add\n      swap2\n      jump(tag_105)\n    tag_106:\n      dup3\n      add\n      swap2\n      swap1\n      0x00\n      mstore\n      keccak256(0x00, 0x20)\n      swap1\n    tag_107:\n      dup2\n      sload\n      dup2\n      mstore\n      swap1\n      0x01\n      add\n      swap1\n      0x20\n      add\n      dup1\n      dup4\n      gt\n      tag_107\n      jumpi\n      dup3\n      swap1\n      sub\n      0x1f\n      and\n      dup3\n      add\n      swap2\n    tag_105:\n      pop\n      pop\n      pop\n      pop\n      pop\n      dup2\n      jump\t// out\n        /* \"@openzeppelin/contracts/token/ERC1155/ERC1155.sol\":2084:2187  function uri(uint256 /* id */) public view virtual returns (string memory) {... */\n    tag_43:\n        /* \"@openzeppelin/contracts/token/ERC1155/ERC1155.sol\":2144:2157  string memory */\n      0x60\n        /* \"@openzeppelin/contracts/token/ERC1155/ERC1155.sol\":2176:2180  _uri */\n      0x02\n        /* \"@openzeppelin/contracts/token/ERC1155/ERC1155.sol\":2169:2180  return _uri */\n      dup1\n      sload\n      tag_109\n      swap1\n      tag_103\n      jump\t// in\n    tag_109:\n      dup1\n      0x1f\n      add\n      0x20\n      dup1\n      swap2\n      div\n      mul\n      0x20\n      add\n      mload(0x40)\n      swap1\n      dup2\n      add\n      0x40\n      mstore\n      dup1\n      swap3\n      swap2\n      swap1\n      dup2\n      dup2\n      mstore\n      0x20\n      add\n      dup3\n      dup1\n      sload\n      tag_110\n      swap1\n      tag_103\n      jump\t// in\n    tag_110:\n      dup1\n      iszero\n      tag_111\n      jumpi\n      dup1\n      0x1f\n      lt\n      tag_112\n      jumpi\n      0x0100\n      dup1\n      dup4\n      sload\n      div\n      mul\n      dup4\n      mstore\n      swap2\n      0x20\n      add\n      swap2\n      jump(tag_111)\n    tag_112:\n      dup3\n      add\n      swap2\n      swap1\n      0x00\n      mstore\n      keccak256(0x00, 0x20)\n      swap1\n    tag_113:\n      dup2\n      sload\n      dup2\n      mstore\n      swap1\n      0x01\n      add\n      swap1\n      0x20\n      add\n      dup1\n      dup4\n      gt\n      tag_113\n      jumpi\n      dup3\n      swap1\n      sub\n      0x1f\n      and\n      dup3\n      add\n      swap2\n    tag_111:\n      pop\n      pop\n      pop\n      pop\n      pop\n      swap1\n      pop\n        /* \"@openzeppelin/contracts/token/ERC1155/ERC1155.sol\":2084:2187  function uri(uint256 /* id */) public view virtual returns (string memory) {... */\n      swap2\n      swap1\n      pop\n      jump\t// out\n        /* \"practice.sol\":343:366  uint public ticketPrice */\n    tag_47:\n      sload(0x06)\n      dup2\n      jump\t// out\n        /* \"practice.sol\":929:1714  function purchaseTicket() public payable {... */\n    tag_50:\n        /* \"practice.sol\":981:989  uint fee */\n      0x00\n        /* \"practice.sol\":1027:1031  1000 */\n      0x03e8\n        /* \"practice.sol\":561:563  23 */\n      0x17\n        /* \"practice.sol\":993:1004  ticketPrice */\n      sload(0x06)\n        /* \"practice.sol\":993:1023  ticketPrice * FEE_RATE_BY_1000 */\n      tag_115\n      swap2\n      swap1\n      tag_116\n      jump\t// in\n    tag_115:\n        /* \"practice.sol\":992:1031  (ticketPrice * FEE_RATE_BY_1000) / 1000 */\n      tag_117\n      swap2\n      swap1\n      tag_118\n      jump\t// in\n    tag_117:\n        /* \"practice.sol\":981:1031  uint fee = (ticketPrice * FEE_RATE_BY_1000) / 1000 */\n      swap1\n      pop\n        /* \"practice.sol\":1042:1061  uint netTicketPrice */\n      0x00\n        /* \"practice.sol\":1078:1081  fee */\n      dup2\n        /* \"practice.sol\":1064:1075  ticketPrice */\n      sload(0x06)\n        /* \"practice.sol\":1064:1081  ticketPrice + fee */\n      tag_119\n      swap2\n      swap1\n      tag_120\n      jump\t// in\n    tag_119:\n        /* \"practice.sol\":1042:1081  uint netTicketPrice = ticketPrice + fee */\n      swap1\n      pop\n        /* \"practice.sol\":1113:1127  netTicketPrice */\n      dup1\n        /* \"practice.sol\":1100:1109  msg.value */\n      callvalue\n        /* \"practice.sol\":1100:1127  msg.value == netTicketPrice */\n      eq\n        /* \"practice.sol\":1092:1168  require(msg.value == netTicketPrice, \"Incorrect ticket price including fee\") */\n      tag_121\n      jumpi\n      mload(0x40)\n      0x08c379a000000000000000000000000000000000000000000000000000000000\n      dup2\n      mstore\n      0x04\n      add\n      tag_122\n      swap1\n      tag_123\n      jump\t// in\n    tag_122:\n      mload(0x40)\n      dup1\n      swap2\n      sub\n      swap1\n      revert\n    tag_121:\n        /* \"practice.sol\":1181:1193  uint tokenId */\n      0x00\n        /* \"practice.sol\":1196:1214  determineOutcome() */\n      tag_124\n        /* \"practice.sol\":1196:1212  determineOutcome */\n      tag_125\n        /* \"practice.sol\":1196:1214  determineOutcome() */\n      jump\t// in\n    tag_124:\n        /* \"practice.sol\":1181:1214  uint tokenId = determineOutcome() */\n      swap1\n      pop\n        /* \"practice.sol\":1225:1258  _mint(msg.sender, tokenId, 1, \"\") */\n      tag_126\n        /* \"practice.sol\":1231:1241  msg.sender */\n      caller\n        /* \"practice.sol\":1243:1250  tokenId */\n      dup3\n        /* \"practice.sol\":1252:1253  1 */\n      0x01\n        /* \"practice.sol\":1225:1258  _mint(msg.sender, tokenId, 1, \"\") */\n      mload(0x40)\n      dup1\n      0x20\n      add\n      0x40\n      mstore\n      dup1\n      0x00\n      dup2\n      mstore\n      pop\n        /* \"practice.sol\":1225:1230  _mint */\n      tag_127\n        /* \"practice.sol\":1225:1258  _mint(msg.sender, tokenId, 1, \"\") */\n      jump\t// in\n    tag_126:\n        /* \"practice.sol\":1271:1284  bool isWinner */\n      0x00\n        /* \"practice.sol\":463:464  7 */\n      0x07\n        /* \"practice.sol\":1288:1295  tokenId */\n      dup3\n        /* \"practice.sol\":1288:1315  tokenId == WINNING_TOKEN_ID */\n      eq\n        /* \"practice.sol\":1271:1316  bool isWinner = (tokenId == WINNING_TOKEN_ID) */\n      swap1\n      pop\n        /* \"practice.sol\":1359:1366  tokenId */\n      dup2\n        /* \"practice.sol\":1347:1357  msg.sender */\n      caller\n        /* \"practice.sol\":1332:1377  TiketPurchased(msg.sender, tokenId, isWinner) */\n      0xffffffffffffffffffffffffffffffffffffffff\n      and\n      0xce6f92a6e721497cfafe2dad26bb22a06cb949bc4dda21ccc60203db70f1ed89\n        /* \"practice.sol\":1368:1376  isWinner */\n      dup4\n        /* \"practice.sol\":1332:1377  TiketPurchased(msg.sender, tokenId, isWinner) */\n      mload(0x40)\n      tag_128\n      swap2\n      swap1\n      tag_33\n      jump\t// in\n    tag_128:\n      mload(0x40)\n      dup1\n      swap2\n      sub\n      swap1\n      log3\n        /* \"practice.sol\":1399:1406  owner() */\n      tag_129\n        /* \"practice.sol\":1399:1404  owner */\n      tag_68\n        /* \"practice.sol\":1399:1406  owner() */\n      jump\t// in\n    tag_129:\n        /* \"practice.sol\":1390:1416  payable (owner()).transfer */\n      0xffffffffffffffffffffffffffffffffffffffff\n      and\n        /* \"practice.sol\":1390:1421  payable (owner()).transfer(fee) */\n      0x08fc\n        /* \"practice.sol\":1417:1420  fee */\n      dup6\n        /* \"practice.sol\":1390:1421  payable (owner()).transfer(fee) */\n      swap1\n      dup2\n      iszero\n      mul\n      swap1\n      mload(0x40)\n      0x00\n      mload(0x40)\n      dup1\n      dup4\n      sub\n      dup2\n      dup6\n      dup9\n      dup9\n      call\n      swap4\n      pop\n      pop\n      pop\n      pop\n      iszero\n      dup1\n      iszero\n      tag_131\n      jumpi\n      returndatasize\n      0x00\n      dup1\n      returndatacopy\n      revert(0x00, returndatasize)\n    tag_131:\n      pop\n        /* \"practice.sol\":1437:1445  isWinner */\n      dup1\n        /* \"practice.sol\":1434:1697  if(isWinner) {... */\n      iszero\n      tag_132\n      jumpi\n        /* \"practice.sol\":1462:1472  uint prize */\n      0x00\n        /* \"practice.sol\":512:513  2 */\n      0x02\n        /* \"practice.sol\":1475:1486  ticketPrice */\n      sload(0x06)\n        /* \"practice.sol\":1475:1505  ticketPrice * PRIZE_MULTIPLIER */\n      tag_133\n      swap2\n      swap1\n      tag_116\n      jump\t// in\n    tag_133:\n        /* \"practice.sol\":1462:1505  uint prize = ticketPrice * PRIZE_MULTIPLIER */\n      swap1\n      pop\n        /* \"practice.sol\":1553:1558  prize */\n      dup1\n        /* \"practice.sol\":1528:1549  address(this).balance */\n      selfbalance\n        /* \"practice.sol\":1528:1558  address(this).balance >= prize */\n      lt\n      iszero\n        /* \"practice.sol\":1520:1635  require(address(this).balance >= prize, \"Not enough balance in the prize pool. Please contact support on Discord.\") */\n      tag_134\n      jumpi\n      mload(0x40)\n      0x08c379a000000000000000000000000000000000000000000000000000000000\n      dup2\n      mstore\n      0x04\n      add\n      tag_135\n      swap1\n      tag_136\n      jump\t// in\n    tag_135:\n      mload(0x40)\n      dup1\n      swap2\n      sub\n      swap1\n      revert\n    tag_134:\n        /* \"practice.sol\":1658:1668  msg.sender */\n      caller\n        /* \"practice.sol\":1650:1678  payable(msg.sender).transfer */\n      0xffffffffffffffffffffffffffffffffffffffff\n      and\n        /* \"practice.sol\":1650:1685  payable(msg.sender).transfer(prize) */\n      0x08fc\n        /* \"practice.sol\":1679:1684  prize */\n      dup3\n        /* \"practice.sol\":1650:1685  payable(msg.sender).transfer(prize) */\n      swap1\n      dup2\n      iszero\n      mul\n      swap1\n      mload(0x40)\n      0x00\n      mload(0x40)\n      dup1\n      dup4\n      sub\n      dup2\n      dup6\n      dup9\n      dup9\n      call\n      swap4\n      pop\n      pop\n      pop\n      pop\n      iszero\n      dup1\n      iszero\n      tag_138\n      jumpi\n      returndatasize\n      0x00\n      dup1\n      returndatacopy\n      revert(0x00, returndatasize)\n    tag_138:\n      pop\n        /* \"practice.sol\":1447:1697  {... */\n      pop\n        /* \"practice.sol\":1434:1697  if(isWinner) {... */\n    tag_132:\n        /* \"practice.sol\":970:1714  {... */\n      pop\n      pop\n      pop\n      pop\n        /* \"practice.sol\":929:1714  function purchaseTicket() public payable {... */\n      jump\t// out\n        /* \"@openzeppelin/contracts/token/ERC1155/ERC1155.sol\":4014:4443  function safeBatchTransferFrom(... */\n    tag_55:\n        /* \"@openzeppelin/contracts/token/ERC1155/ERC1155.sol\":4208:4222  address sender */\n      0x00\n        /* \"@openzeppelin/contracts/token/ERC1155/ERC1155.sol\":4225:4237  _msgSender() */\n      tag_140\n        /* \"@openzeppelin/contracts/token/ERC1155/ERC1155.sol\":4225:4235  _msgSender */\n      tag_141\n        /* \"@openzeppelin/contracts/token/ERC1155/ERC1155.sol\":4225:4237  _msgSender() */\n      jump\t// in\n    tag_140:\n        /* \"@openzeppelin/contracts/token/ERC1155/ERC1155.sol\":4208:4237  address sender = _msgSender() */\n      swap1\n      pop\n        /* \"@openzeppelin/contracts/token/ERC1155/ERC1155.sol\":4259:4265  sender */\n      dup1\n        /* \"@openzeppelin/contracts/token/ERC1155/ERC1155.sol\":4251:4265  from != sender */\n      0xffffffffffffffffffffffffffffffffffffffff\n      and\n        /* \"@openzeppelin/contracts/token/ERC1155/ERC1155.sol\":4251:4255  from */\n      dup7\n        /* \"@openzeppelin/contracts/token/ERC1155/ERC1155.sol\":4251:4265  from != sender */\n      0xffffffffffffffffffffffffffffffffffffffff\n      and\n      eq\n      iszero\n        /* \"@openzeppelin/contracts/token/ERC1155/ERC1155.sol\":4251:4300  from != sender && !isApprovedForAll(from, sender) */\n      dup1\n      iszero\n      tag_142\n      jumpi\n      pop\n        /* \"@openzeppelin/contracts/token/ERC1155/ERC1155.sol\":4270:4300  isApprovedForAll(from, sender) */\n      tag_143\n        /* \"@openzeppelin/contracts/token/ERC1155/ERC1155.sol\":4287:4291  from */\n      dup7\n        /* \"@openzeppelin/contracts/token/ERC1155/ERC1155.sol\":4293:4299  sender */\n      dup3\n        /* \"@openzeppelin/contracts/token/ERC1155/ERC1155.sol\":4270:4286  isApprovedForAll */\n      tag_84\n        /* \"@openzeppelin/contracts/token/ERC1155/ERC1155.sol\":4270:4300  isApprovedForAll(from, sender) */\n      jump\t// in\n    tag_143:\n        /* \"@openzeppelin/contracts/token/ERC1155/ERC1155.sol\":4269:4300  !isApprovedForAll(from, sender) */\n      iszero\n        /* \"@openzeppelin/contracts/token/ERC1155/ERC1155.sol\":4251:4300  from != sender && !isApprovedForAll(from, sender) */\n    tag_142:\n        /* \"@openzeppelin/contracts/token/ERC1155/ERC1155.sol\":4247:4376  if (from != sender && !isApprovedForAll(from, sender)) {... */\n      iszero\n      tag_144\n      jumpi\n        /* \"@openzeppelin/contracts/token/ERC1155/ERC1155.sol\":4352:4358  sender */\n      dup1\n        /* \"@openzeppelin/contracts/token/ERC1155/ERC1155.sol\":4360:4364  from */\n      dup7\n        /* \"@openzeppelin/contracts/token/ERC1155/ERC1155.sol\":4323:4365  ERC1155MissingApprovalForAll(sender, from) */\n      mload(0x40)\n      0xe237d92200000000000000000000000000000000000000000000000000000000\n      dup2\n      mstore\n      0x04\n      add\n      tag_145\n      swap3\n      swap2\n      swap1\n      tag_146\n      jump\t// in\n    tag_145:\n      mload(0x40)\n      dup1\n      swap2\n      sub\n      swap1\n      revert\n        /* \"@openzeppelin/contracts/token/ERC1155/ERC1155.sol\":4247:4376  if (from != sender && !isApprovedForAll(from, sender)) {... */\n    tag_144:\n        /* \"@openzeppelin/contracts/token/ERC1155/ERC1155.sol\":4385:4436  _safeBatchTransferFrom(from, to, ids, values, data) */\n      tag_147\n        /* \"@openzeppelin/contracts/token/ERC1155/ERC1155.sol\":4408:4412  from */\n      dup7\n        /* \"@openzeppelin/contracts/token/ERC1155/ERC1155.sol\":4414:4416  to */\n      dup7\n        /* \"@openzeppelin/contracts/token/ERC1155/ERC1155.sol\":4418:4421  ids */\n      dup7\n        /* \"@openzeppelin/contracts/token/ERC1155/ERC1155.sol\":4423:4429  values */\n      dup7\n        /* \"@openzeppelin/contracts/token/ERC1155/ERC1155.sol\":4431:4435  data */\n      dup7\n        /* \"@openzeppelin/contracts/token/ERC1155/ERC1155.sol\":4385:4407  _safeBatchTransferFrom */\n      tag_148\n        /* \"@openzeppelin/contracts/token/ERC1155/ERC1155.sol\":4385:4436  _safeBatchTransferFrom(from, to, ids, values, data) */\n      jump\t// in\n    tag_147:\n        /* \"@openzeppelin/contracts/token/ERC1155/ERC1155.sol\":4198:4443  {... */\n      pop\n        /* \"@openzeppelin/contracts/token/ERC1155/ERC1155.sol\":4014:4443  function safeBatchTransferFrom(... */\n      pop\n      pop\n      pop\n      pop\n      pop\n      jump\t// out\n        /* \"@openzeppelin/contracts/token/ERC1155/ERC1155.sol\":2536:3088  function balanceOfBatch(... */\n    tag_60:\n        /* \"@openzeppelin/contracts/token/ERC1155/ERC1155.sol\":2660:2676  uint256[] memory */\n      0x60\n        /* \"@openzeppelin/contracts/token/ERC1155/ERC1155.sol\":2711:2714  ids */\n      dup2\n        /* \"@openzeppelin/contracts/token/ERC1155/ERC1155.sol\":2711:2721  ids.length */\n      mload\n        /* \"@openzeppelin/contracts/token/ERC1155/ERC1155.sol\":2692:2700  accounts */\n      dup4\n        /* \"@openzeppelin/contracts/token/ERC1155/ERC1155.sol\":2692:2707  accounts.length */\n      mload\n        /* \"@openzeppelin/contracts/token/ERC1155/ERC1155.sol\":2692:2721  accounts.length != ids.length */\n      eq\n        /* \"@openzeppelin/contracts/token/ERC1155/ERC1155.sol\":2688:2809  if (accounts.length != ids.length) {... */\n      tag_150\n      jumpi\n        /* \"@openzeppelin/contracts/token/ERC1155/ERC1155.sol\":2770:2773  ids */\n      dup2\n        /* \"@openzeppelin/contracts/token/ERC1155/ERC1155.sol\":2770:2780  ids.length */\n      mload\n        /* \"@openzeppelin/contracts/token/ERC1155/ERC1155.sol\":2782:2790  accounts */\n      dup4\n        /* \"@openzeppelin/contracts/token/ERC1155/ERC1155.sol\":2782:2797  accounts.length */\n      mload\n        /* \"@openzeppelin/contracts/token/ERC1155/ERC1155.sol\":2744:2798  ERC1155InvalidArrayLength(ids.length, accounts.length) */\n      mload(0x40)\n      0x5b05999100000000000000000000000000000000000000000000000000000000\n      dup2\n      mstore\n      0x04\n      add\n      tag_151\n      swap3\n      swap2\n      swap1\n      tag_152\n      jump\t// in\n    tag_151:\n      mload(0x40)\n      dup1\n      swap2\n      sub\n      swap1\n      revert\n        /* \"@openzeppelin/contracts/token/ERC1155/ERC1155.sol\":2688:2809  if (accounts.length != ids.length) {... */\n    tag_150:\n        /* \"@openzeppelin/contracts/token/ERC1155/ERC1155.sol\":2819:2849  uint256[] memory batchBalances */\n      0x00\n        /* \"@openzeppelin/contracts/token/ERC1155/ERC1155.sol\":2866:2874  accounts */\n      dup4\n        /* \"@openzeppelin/contracts/token/ERC1155/ERC1155.sol\":2866:2881  accounts.length */\n      mload\n        /* \"@openzeppelin/contracts/token/ERC1155/ERC1155.sol\":2852:2882  new uint256[](accounts.length) */\n      0xffffffffffffffff\n      dup2\n      gt\n      iszero\n      tag_153\n      jumpi\n      tag_154\n      tag_155\n      jump\t// in\n    tag_154:\n    tag_153:\n      mload(0x40)\n      swap1\n      dup1\n      dup3\n      mstore\n      dup1\n      0x20\n      mul\n      0x20\n      add\n      dup3\n      add\n      0x40\n      mstore\n      dup1\n      iszero\n      tag_156\n      jumpi\n      dup2\n      0x20\n      add\n      0x20\n      dup3\n      mul\n      dup1\n      calldatasize\n      dup4\n      calldatacopy\n      dup1\n      dup3\n      add\n      swap2\n      pop\n      pop\n      swap1\n      pop\n    tag_156:\n      pop\n        /* \"@openzeppelin/contracts/token/ERC1155/ERC1155.sol\":2819:2882  uint256[] memory batchBalances = new uint256[](accounts.length) */\n      swap1\n      pop\n        /* \"@openzeppelin/contracts/token/ERC1155/ERC1155.sol\":2898:2907  uint256 i */\n      0x00\n        /* \"@openzeppelin/contracts/token/ERC1155/ERC1155.sol\":2893:3051  for (uint256 i = 0; i < accounts.length; ++i) {... */\n    tag_157:\n        /* \"@openzeppelin/contracts/token/ERC1155/ERC1155.sol\":2917:2925  accounts */\n      dup5\n        /* \"@openzeppelin/contracts/token/ERC1155/ERC1155.sol\":2917:2932  accounts.length */\n      mload\n        /* \"@openzeppelin/contracts/token/ERC1155/ERC1155.sol\":2913:2914  i */\n      dup2\n        /* \"@openzeppelin/contracts/token/ERC1155/ERC1155.sol\":2913:2932  i < accounts.length */\n      lt\n        /* \"@openzeppelin/contracts/token/ERC1155/ERC1155.sol\":2893:3051  for (uint256 i = 0; i < accounts.length; ++i) {... */\n      iszero\n      tag_158\n      jumpi\n        /* \"@openzeppelin/contracts/token/ERC1155/ERC1155.sol\":2972:3040  balanceOf(accounts.unsafeMemoryAccess(i), ids.unsafeMemoryAccess(i)) */\n      tag_160\n        /* \"@openzeppelin/contracts/token/ERC1155/ERC1155.sol\":2982:3012  accounts.unsafeMemoryAccess(i) */\n      tag_161\n        /* \"@openzeppelin/contracts/token/ERC1155/ERC1155.sol\":3010:3011  i */\n      dup3\n        /* \"@openzeppelin/contracts/token/ERC1155/ERC1155.sol\":2982:2990  accounts */\n      dup8\n        /* \"@openzeppelin/contracts/token/ERC1155/ERC1155.sol\":2982:3009  accounts.unsafeMemoryAccess */\n      tag_162\n      swap1\n        /* \"@openzeppelin/contracts/token/ERC1155/ERC1155.sol\":2982:3012  accounts.unsafeMemoryAccess(i) */\n      swap2\n      swap1\n      0xffffffff\n      and\n      jump\t// in\n    tag_161:\n        /* \"@openzeppelin/contracts/token/ERC1155/ERC1155.sol\":3014:3039  ids.unsafeMemoryAccess(i) */\n      tag_163\n        /* \"@openzeppelin/contracts/token/ERC1155/ERC1155.sol\":3037:3038  i */\n      dup4\n        /* \"@openzeppelin/contracts/token/ERC1155/ERC1155.sol\":3014:3017  ids */\n      dup8\n        /* \"@openzeppelin/contracts/token/ERC1155/ERC1155.sol\":3014:3036  ids.unsafeMemoryAccess */\n      tag_164\n      swap1\n        /* \"@openzeppelin/contracts/token/ERC1155/ERC1155.sol\":3014:3039  ids.unsafeMemoryAccess(i) */\n      swap2\n      swap1\n      0xffffffff\n      and\n      jump\t// in\n    tag_163:\n        /* \"@openzeppelin/contracts/token/ERC1155/ERC1155.sol\":2972:2981  balanceOf */\n      tag_24\n        /* \"@openzeppelin/contracts/token/ERC1155/ERC1155.sol\":2972:3040  balanceOf(accounts.unsafeMemoryAccess(i), ids.unsafeMemoryAccess(i)) */\n      jump\t// in\n    tag_160:\n        /* \"@openzeppelin/contracts/token/ERC1155/ERC1155.sol\":2953:2966  batchBalances */\n      dup3\n        /* \"@openzeppelin/contracts/token/ERC1155/ERC1155.sol\":2967:2968  i */\n      dup3\n        /* \"@openzeppelin/contracts/token/ERC1155/ERC1155.sol\":2953:2969  batchBalances[i] */\n      dup2\n      mload\n      dup2\n      lt\n      tag_165\n      jumpi\n      tag_166\n      tag_167\n      jump\t// in\n    tag_166:\n    tag_165:\n      0x20\n      mul\n      0x20\n      add\n      add\n        /* \"@openzeppelin/contracts/token/ERC1155/ERC1155.sol\":2953:3040  batchBalances[i] = balanceOf(accounts.unsafeMemoryAccess(i), ids.unsafeMemoryAccess(i)) */\n      dup2\n      dup2\n      mstore\n      pop\n      pop\n        /* \"@openzeppelin/contracts/token/ERC1155/ERC1155.sol\":2934:2937  ++i */\n      dup1\n      0x01\n      add\n      swap1\n      pop\n        /* \"@openzeppelin/contracts/token/ERC1155/ERC1155.sol\":2893:3051  for (uint256 i = 0; i < accounts.length; ++i) {... */\n      jump(tag_157)\n    tag_158:\n      pop\n        /* \"@openzeppelin/contracts/token/ERC1155/ERC1155.sol\":3068:3081  batchBalances */\n      dup1\n        /* \"@openzeppelin/contracts/token/ERC1155/ERC1155.sol\":3061:3081  return batchBalances */\n      swap2\n      pop\n      pop\n        /* \"@openzeppelin/contracts/token/ERC1155/ERC1155.sol\":2536:3088  function balanceOfBatch(... */\n      swap3\n      swap2\n      pop\n      pop\n      jump\t// out\n        /* \"@openzeppelin/contracts/access/Ownable.sol\":2293:2394  function renounceOwnership() public virtual onlyOwner {... */\n    tag_65:\n        /* \"@openzeppelin/contracts/access/Ownable.sol\":1531:1544  _checkOwner() */\n      tag_169\n        /* \"@openzeppelin/contracts/access/Ownable.sol\":1531:1542  _checkOwner */\n      tag_170\n        /* \"@openzeppelin/contracts/access/Ownable.sol\":1531:1544  _checkOwner() */\n      jump\t// in\n    tag_169:\n        /* \"@openzeppelin/contracts/access/Ownable.sol\":2357:2387  _transferOwnership(address(0)) */\n      tag_172\n        /* \"@openzeppelin/contracts/access/Ownable.sol\":2384:2385  0 */\n      0x00\n        /* \"@openzeppelin/contracts/access/Ownable.sol\":2357:2375  _transferOwnership */\n      tag_173\n        /* \"@openzeppelin/contracts/access/Ownable.sol\":2357:2387  _transferOwnership(address(0)) */\n      jump\t// in\n    tag_172:\n        /* \"@openzeppelin/contracts/access/Ownable.sol\":2293:2394  function renounceOwnership() public virtual onlyOwner {... */\n      jump\t// out\n        /* \"@openzeppelin/contracts/access/Ownable.sol\":1638:1723  function owner() public view virtual returns (address) {... */\n    tag_68:\n        /* \"@openzeppelin/contracts/access/Ownable.sol\":1684:1691  address */\n      0x00\n        /* \"@openzeppelin/contracts/access/Ownable.sol\":1710:1716  _owner */\n      0x03\n      0x00\n      swap1\n      sload\n      swap1\n      0x0100\n      exp\n      swap1\n      div\n      0xffffffffffffffffffffffffffffffffffffffff\n      and\n        /* \"@openzeppelin/contracts/access/Ownable.sol\":1703:1716  return _owner */\n      swap1\n      pop\n        /* \"@openzeppelin/contracts/access/Ownable.sol\":1638:1723  function owner() public view virtual returns (address) {... */\n      swap1\n      jump\t// out\n        /* \"practice.sol\":316:336  string public symbol */\n    tag_73:\n      0x05\n      dup1\n      sload\n      tag_175\n      swap1\n      tag_103\n      jump\t// in\n    tag_175:\n      dup1\n      0x1f\n      add\n      0x20\n      dup1\n      swap2\n      div\n      mul\n      0x20\n      add\n      mload(0x40)\n      swap1\n      dup2\n      add\n      0x40\n      mstore\n      dup1\n      swap3\n      swap2\n      swap1\n      dup2\n      dup2\n      mstore\n      0x20\n      add\n      dup3\n      dup1\n      sload\n      tag_176\n      swap1\n      tag_103\n      jump\t// in\n    tag_176:\n      dup1\n      iszero\n      tag_177\n      jumpi\n      dup1\n      0x1f\n      lt\n      tag_178\n      jumpi\n      0x0100\n      dup1\n      dup4\n      sload\n      div\n      mul\n      dup4\n      mstore\n      swap2\n      0x20\n      add\n      swap2\n      jump(tag_177)\n    tag_178:\n      dup3\n      add\n      swap2\n      swap1\n      0x00\n      mstore\n      keccak256(0x00, 0x20)\n      swap1\n    tag_179:\n      dup2\n      sload\n      dup2\n      mstore\n      swap1\n      0x01\n      add\n      swap1\n      0x20\n      add\n      dup1\n      dup4\n      gt\n      tag_179\n      jumpi\n      dup3\n      swap1\n      sub\n      0x1f\n      and\n      dup3\n      add\n      swap2\n    tag_177:\n      pop\n      pop\n      pop\n      pop\n      pop\n      dup2\n      jump\t// out\n        /* \"@openzeppelin/contracts/token/ERC1155/ERC1155.sol\":3156:3300  function setApprovalForAll(address operator, bool approved) public virtual {... */\n    tag_79:\n        /* \"@openzeppelin/contracts/token/ERC1155/ERC1155.sol\":3241:3293  _setApprovalForAll(_msgSender(), operator, approved) */\n      tag_181\n        /* \"@openzeppelin/contracts/token/ERC1155/ERC1155.sol\":3260:3272  _msgSender() */\n      tag_182\n        /* \"@openzeppelin/contracts/token/ERC1155/ERC1155.sol\":3260:3270  _msgSender */\n      tag_141\n        /* \"@openzeppelin/contracts/token/ERC1155/ERC1155.sol\":3260:3272  _msgSender() */\n      jump\t// in\n    tag_182:\n        /* \"@openzeppelin/contracts/token/ERC1155/ERC1155.sol\":3274:3282  operator */\n      dup4\n        /* \"@openzeppelin/contracts/token/ERC1155/ERC1155.sol\":3284:3292  approved */\n      dup4\n        /* \"@openzeppelin/contracts/token/ERC1155/ERC1155.sol\":3241:3259  _setApprovalForAll */\n      tag_183\n        /* \"@openzeppelin/contracts/token/ERC1155/ERC1155.sol\":3241:3293  _setApprovalForAll(_msgSender(), operator, approved) */\n      jump\t// in\n    tag_181:\n        /* \"@openzeppelin/contracts/token/ERC1155/ERC1155.sol\":3156:3300  function setApprovalForAll(address operator, bool approved) public virtual {... */\n      pop\n      pop\n      jump\t// out\n        /* \"@openzeppelin/contracts/token/ERC1155/ERC1155.sol\":3367:3524  function isApprovedForAll(address account, address operator) public view virtual returns (bool) {... */\n    tag_84:\n        /* \"@openzeppelin/contracts/token/ERC1155/ERC1155.sol\":3457:3461  bool */\n      0x00\n        /* \"@openzeppelin/contracts/token/ERC1155/ERC1155.sol\":3480:3498  _operatorApprovals */\n      0x01\n        /* \"@openzeppelin/contracts/token/ERC1155/ERC1155.sol\":3480:3507  _operatorApprovals[account] */\n      0x00\n        /* \"@openzeppelin/contracts/token/ERC1155/ERC1155.sol\":3499:3506  account */\n      dup5\n        /* \"@openzeppelin/contracts/token/ERC1155/ERC1155.sol\":3480:3507  _operatorApprovals[account] */\n      0xffffffffffffffffffffffffffffffffffffffff\n      and\n      0xffffffffffffffffffffffffffffffffffffffff\n      and\n      dup2\n      mstore\n      0x20\n      add\n      swap1\n      dup2\n      mstore\n      0x20\n      add\n      0x00\n      keccak256\n        /* \"@openzeppelin/contracts/token/ERC1155/ERC1155.sol\":3480:3517  _operatorApprovals[account][operator] */\n      0x00\n        /* \"@openzeppelin/contracts/token/ERC1155/ERC1155.sol\":3508:3516  operator */\n      dup4\n        /* \"@openzeppelin/contracts/token/ERC1155/ERC1155.sol\":3480:3517  _operatorApprovals[account][operator] */\n      0xffffffffffffffffffffffffffffffffffffffff\n      and\n      0xffffffffffffffffffffffffffffffffffffffff\n      and\n      dup2\n      mstore\n      0x20\n      add\n      swap1\n      dup2\n      mstore\n      0x20\n      add\n      0x00\n      keccak256\n      0x00\n      swap1\n      sload\n      swap1\n      0x0100\n      exp\n      swap1\n      div\n      0xff\n      and\n        /* \"@openzeppelin/contracts/token/ERC1155/ERC1155.sol\":3473:3517  return _operatorApprovals[account][operator] */\n      swap1\n      pop\n        /* \"@openzeppelin/contracts/token/ERC1155/ERC1155.sol\":3367:3524  function isApprovedForAll(address account, address operator) public view virtual returns (bool) {... */\n      swap3\n      swap2\n      pop\n      pop\n      jump\t// out\n        /* \"@openzeppelin/contracts/token/ERC1155/ERC1155.sol\":3591:3942  function safeTransferFrom(address from, address to, uint256 id, uint256 value, bytes memory data) public virtual {... */\n    tag_90:\n        /* \"@openzeppelin/contracts/token/ERC1155/ERC1155.sol\":3714:3728  address sender */\n      0x00\n        /* \"@openzeppelin/contracts/token/ERC1155/ERC1155.sol\":3731:3743  _msgSender() */\n      tag_186\n        /* \"@openzeppelin/contracts/token/ERC1155/ERC1155.sol\":3731:3741  _msgSender */\n      tag_141\n        /* \"@openzeppelin/contracts/token/ERC1155/ERC1155.sol\":3731:3743  _msgSender() */\n      jump\t// in\n    tag_186:\n        /* \"@openzeppelin/contracts/token/ERC1155/ERC1155.sol\":3714:3743  address sender = _msgSender() */\n      swap1\n      pop\n        /* \"@openzeppelin/contracts/token/ERC1155/ERC1155.sol\":3765:3771  sender */\n      dup1\n        /* \"@openzeppelin/contracts/token/ERC1155/ERC1155.sol\":3757:3771  from != sender */\n      0xffffffffffffffffffffffffffffffffffffffff\n      and\n        /* \"@openzeppelin/contracts/token/ERC1155/ERC1155.sol\":3757:3761  from */\n      dup7\n        /* \"@openzeppelin/contracts/token/ERC1155/ERC1155.sol\":3757:3771  from != sender */\n      0xffffffffffffffffffffffffffffffffffffffff\n      and\n      eq\n      iszero\n        /* \"@openzeppelin/contracts/token/ERC1155/ERC1155.sol\":3757:3806  from != sender && !isApprovedForAll(from, sender) */\n      dup1\n      iszero\n      tag_187\n      jumpi\n      pop\n        /* \"@openzeppelin/contracts/token/ERC1155/ERC1155.sol\":3776:3806  isApprovedForAll(from, sender) */\n      tag_188\n        /* \"@openzeppelin/contracts/token/ERC1155/ERC1155.sol\":3793:3797  from */\n      dup7\n        /* \"@openzeppelin/contracts/token/ERC1155/ERC1155.sol\":3799:3805  sender */\n      dup3\n        /* \"@openzeppelin/contracts/token/ERC1155/ERC1155.sol\":3776:3792  isApprovedForAll */\n      tag_84\n        /* \"@openzeppelin/contracts/token/ERC1155/ERC1155.sol\":3776:3806  isApprovedForAll(from, sender) */\n      jump\t// in\n    tag_188:\n        /* \"@openzeppelin/contracts/token/ERC1155/ERC1155.sol\":3775:3806  !isApprovedForAll(from, sender) */\n      iszero\n        /* \"@openzeppelin/contracts/token/ERC1155/ERC1155.sol\":3757:3806  from != sender && !isApprovedForAll(from, sender) */\n    tag_187:\n        /* \"@openzeppelin/contracts/token/ERC1155/ERC1155.sol\":3753:3882  if (from != sender && !isApprovedForAll(from, sender)) {... */\n      iszero\n      tag_189\n      jumpi\n        /* \"@openzeppelin/contracts/token/ERC1155/ERC1155.sol\":3858:3864  sender */\n      dup1\n        /* \"@openzeppelin/contracts/token/ERC1155/ERC1155.sol\":3866:3870  from */\n      dup7\n        /* \"@openzeppelin/contracts/token/ERC1155/ERC1155.sol\":3829:3871  ERC1155MissingApprovalForAll(sender, from) */\n      mload(0x40)\n      0xe237d92200000000000000000000000000000000000000000000000000000000\n      dup2\n      mstore\n      0x04\n      add\n      tag_190\n      swap3\n      swap2\n      swap1\n      tag_146\n      jump\t// in\n    tag_190:\n      mload(0x40)\n      dup1\n      swap2\n      sub\n      swap1\n      revert\n        /* \"@openzeppelin/contracts/token/ERC1155/ERC1155.sol\":3753:3882  if (from != sender && !isApprovedForAll(from, sender)) {... */\n    tag_189:\n        /* \"@openzeppelin/contracts/token/ERC1155/ERC1155.sol\":3891:3935  _safeTransferFrom(from, to, id, value, data) */\n      tag_191\n        /* \"@openzeppelin/contracts/token/ERC1155/ERC1155.sol\":3909:3913  from */\n      dup7\n        /* \"@openzeppelin/contracts/token/ERC1155/ERC1155.sol\":3915:3917  to */\n      dup7\n        /* \"@openzeppelin/contracts/token/ERC1155/ERC1155.sol\":3919:3921  id */\n      dup7\n        /* \"@openzeppelin/contracts/token/ERC1155/ERC1155.sol\":3923:3928  value */\n      dup7\n        /* \"@openzeppelin/contracts/token/ERC1155/ERC1155.sol\":3930:3934  data */\n      dup7\n        /* \"@openzeppelin/contracts/token/ERC1155/ERC1155.sol\":3891:3908  _safeTransferFrom */\n      tag_192\n        /* \"@openzeppelin/contracts/token/ERC1155/ERC1155.sol\":3891:3935  _safeTransferFrom(from, to, id, value, data) */\n      jump\t// in\n    tag_191:\n        /* \"@openzeppelin/contracts/token/ERC1155/ERC1155.sol\":3704:3942  {... */\n      pop\n        /* \"@openzeppelin/contracts/token/ERC1155/ERC1155.sol\":3591:3942  function safeTransferFrom(address from, address to, uint256 id, uint256 value, bytes memory data) public virtual {... */\n      pop\n      pop\n      pop\n      pop\n      pop\n      jump\t// out\n        /* \"@openzeppelin/contracts/access/Ownable.sol\":2543:2758  function transferOwnership(address newOwner) public virtual onlyOwner {... */\n    tag_95:\n        /* \"@openzeppelin/contracts/access/Ownable.sol\":1531:1544  _checkOwner() */\n      tag_194\n        /* \"@openzeppelin/contracts/access/Ownable.sol\":1531:1542  _checkOwner */\n      tag_170\n        /* \"@openzeppelin/contracts/access/Ownable.sol\":1531:1544  _checkOwner() */\n      jump\t// in\n    tag_194:\n        /* \"@openzeppelin/contracts/access/Ownable.sol\":2647:2648  0 */\n      0x00\n        /* \"@openzeppelin/contracts/access/Ownable.sol\":2627:2649  newOwner == address(0) */\n      0xffffffffffffffffffffffffffffffffffffffff\n      and\n        /* \"@openzeppelin/contracts/access/Ownable.sol\":2627:2635  newOwner */\n      dup2\n        /* \"@openzeppelin/contracts/access/Ownable.sol\":2627:2649  newOwner == address(0) */\n      0xffffffffffffffffffffffffffffffffffffffff\n      and\n      sub\n        /* \"@openzeppelin/contracts/access/Ownable.sol\":2623:2714  if (newOwner == address(0)) {... */\n      tag_196\n      jumpi\n        /* \"@openzeppelin/contracts/access/Ownable.sol\":2700:2701  0 */\n      0x00\n        /* \"@openzeppelin/contracts/access/Ownable.sol\":2672:2703  OwnableInvalidOwner(address(0)) */\n      mload(0x40)\n      0x1e4fbdf700000000000000000000000000000000000000000000000000000000\n      dup2\n      mstore\n      0x04\n      add\n      tag_197\n      swap2\n      swap1\n      tag_70\n      jump\t// in\n    tag_197:\n      mload(0x40)\n      dup1\n      swap2\n      sub\n      swap1\n      revert\n        /* \"@openzeppelin/contracts/access/Ownable.sol\":2623:2714  if (newOwner == address(0)) {... */\n    tag_196:\n        /* \"@openzeppelin/contracts/access/Ownable.sol\":2723:2751  _transferOwnership(newOwner) */\n      tag_198\n        /* \"@openzeppelin/contracts/access/Ownable.sol\":2742:2750  newOwner */\n      dup2\n        /* \"@openzeppelin/contracts/access/Ownable.sol\":2723:2741  _transferOwnership */\n      tag_173\n        /* \"@openzeppelin/contracts/access/Ownable.sol\":2723:2751  _transferOwnership(newOwner) */\n      jump\t// in\n    tag_198:\n        /* \"@openzeppelin/contracts/access/Ownable.sol\":2543:2758  function transferOwnership(address newOwner) public virtual onlyOwner {... */\n      pop\n      jump\t// out\n        /* \"@openzeppelin/contracts/utils/introspection/ERC165.sol\":762:908  function supportsInterface(bytes4 interfaceId) public view virtual returns (bool) {... */\n    tag_101:\n        /* \"@openzeppelin/contracts/utils/introspection/ERC165.sol\":838:842  bool */\n      0x00\n        /* \"@openzeppelin/contracts/utils/introspection/ERC165.sol\":876:901  type(IERC165).interfaceId */\n      0x01ffc9a700000000000000000000000000000000000000000000000000000000\n        /* \"@openzeppelin/contracts/utils/introspection/ERC165.sol\":861:901  interfaceId == type(IERC165).interfaceId */\n      not(0xffffffffffffffffffffffffffffffffffffffffffffffffffffffff)\n      and\n        /* \"@openzeppelin/contracts/utils/introspection/ERC165.sol\":861:872  interfaceId */\n      dup3\n        /* \"@openzeppelin/contracts/utils/introspection/ERC165.sol\":861:901  interfaceId == type(IERC165).interfaceId */\n      not(0xffffffffffffffffffffffffffffffffffffffffffffffffffffffff)\n      and\n      eq\n        /* \"@openzeppelin/contracts/utils/introspection/ERC165.sol\":854:901  return interfaceId == type(IERC165).interfaceId */\n      swap1\n      pop\n        /* \"@openzeppelin/contracts/utils/introspection/ERC165.sol\":762:908  function supportsInterface(bytes4 interfaceId) public view virtual returns (bool) {... */\n      swap2\n      swap1\n      pop\n      jump\t// out\n        /* \"practice.sol\":1722:1795  function determineOutcome() private view returns (uint){... */\n    tag_125:\n        /* \"practice.sol\":1772:1776  uint */\n      0x00\n        /* \"practice.sol\":1722:1795  function determineOutcome() private view returns (uint){... */\n      swap1\n      jump\t// out\n        /* \"@openzeppelin/contracts/token/ERC1155/ERC1155.sol\":10746:11092  function _mint(address to, uint256 id, uint256 value, bytes memory data) internal {... */\n    tag_127:\n        /* \"@openzeppelin/contracts/token/ERC1155/ERC1155.sol\":10856:10857  0 */\n      0x00\n        /* \"@openzeppelin/contracts/token/ERC1155/ERC1155.sol\":10842:10858  to == address(0) */\n      0xffffffffffffffffffffffffffffffffffffffff\n      and\n        /* \"@openzeppelin/contracts/token/ERC1155/ERC1155.sol\":10842:10844  to */\n      dup5\n        /* \"@openzeppelin/contracts/token/ERC1155/ERC1155.sol\":10842:10858  to == address(0) */\n      0xffffffffffffffffffffffffffffffffffffffff\n      and\n      sub\n        /* \"@openzeppelin/contracts/token/ERC1155/ERC1155.sol\":10838:10926  if (to == address(0)) {... */\n      tag_202\n      jumpi\n        /* \"@openzeppelin/contracts/token/ERC1155/ERC1155.sol\":10912:10913  0 */\n      0x00\n        /* \"@openzeppelin/contracts/token/ERC1155/ERC1155.sol\":10881:10915  ERC1155InvalidReceiver(address(0)) */\n      mload(0x40)\n      0x57f447ce00000000000000000000000000000000000000000000000000000000\n      dup2\n      mstore\n      0x04\n      add\n      tag_203\n      swap2\n      swap1\n      tag_70\n      jump\t// in\n    tag_203:\n      mload(0x40)\n      dup1\n      swap2\n      sub\n      swap1\n      revert\n        /* \"@openzeppelin/contracts/token/ERC1155/ERC1155.sol\":10838:10926  if (to == address(0)) {... */\n    tag_202:\n        /* \"@openzeppelin/contracts/token/ERC1155/ERC1155.sol\":10936:10956  uint256[] memory ids */\n      0x00\n        /* \"@openzeppelin/contracts/token/ERC1155/ERC1155.sol\":10958:10981  uint256[] memory values */\n      dup1\n        /* \"@openzeppelin/contracts/token/ERC1155/ERC1155.sol\":10985:11014  _asSingletonArrays(id, value) */\n      tag_204\n        /* \"@openzeppelin/contracts/token/ERC1155/ERC1155.sol\":11004:11006  id */\n      dup6\n        /* \"@openzeppelin/contracts/token/ERC1155/ERC1155.sol\":11008:11013  value */\n      dup6\n        /* \"@openzeppelin/contracts/token/ERC1155/ERC1155.sol\":10985:11003  _asSingletonArrays */\n      tag_205\n        /* \"@openzeppelin/contracts/token/ERC1155/ERC1155.sol\":10985:11014  _asSingletonArrays(id, value) */\n      jump\t// in\n    tag_204:\n        /* \"@openzeppelin/contracts/token/ERC1155/ERC1155.sol\":10935:11014  (uint256[] memory ids, uint256[] memory values) = _asSingletonArrays(id, value) */\n      swap2\n      pop\n      swap2\n      pop\n        /* \"@openzeppelin/contracts/token/ERC1155/ERC1155.sol\":11024:11085  _updateWithAcceptanceCheck(address(0), to, ids, values, data) */\n      tag_206\n        /* \"@openzeppelin/contracts/token/ERC1155/ERC1155.sol\":11059:11060  0 */\n      0x00\n        /* \"@openzeppelin/contracts/token/ERC1155/ERC1155.sol\":11063:11065  to */\n      dup8\n        /* \"@openzeppelin/contracts/token/ERC1155/ERC1155.sol\":11067:11070  ids */\n      dup5\n        /* \"@openzeppelin/contracts/token/ERC1155/ERC1155.sol\":11072:11078  values */\n      dup5\n        /* \"@openzeppelin/contracts/token/ERC1155/ERC1155.sol\":11080:11084  data */\n      dup8\n        /* \"@openzeppelin/contracts/token/ERC1155/ERC1155.sol\":11024:11050  _updateWithAcceptanceCheck */\n      tag_207\n        /* \"@openzeppelin/contracts/token/ERC1155/ERC1155.sol\":11024:11085  _updateWithAcceptanceCheck(address(0), to, ids, values, data) */\n      jump\t// in\n    tag_206:\n        /* \"@openzeppelin/contracts/token/ERC1155/ERC1155.sol\":10828:11092  {... */\n      pop\n      pop\n        /* \"@openzeppelin/contracts/token/ERC1155/ERC1155.sol\":10746:11092  function _mint(address to, uint256 id, uint256 value, bytes memory data) internal {... */\n      pop\n      pop\n      pop\n      pop\n      jump\t// out\n        /* \"@openzeppelin/contracts/utils/Context.sol\":656:752  function _msgSender() internal view virtual returns (address) {... */\n    tag_141:\n        /* \"@openzeppelin/contracts/utils/Context.sol\":709:716  address */\n      0x00\n        /* \"@openzeppelin/contracts/utils/Context.sol\":735:745  msg.sender */\n      caller\n        /* \"@openzeppelin/contracts/utils/Context.sol\":728:745  return msg.sender */\n      swap1\n      pop\n        /* \"@openzeppelin/contracts/utils/Context.sol\":656:752  function _msgSender() internal view virtual returns (address) {... */\n      swap1\n      jump\t// out\n        /* \"@openzeppelin/contracts/token/ERC1155/ERC1155.sol\":9015:9460  function _safeBatchTransferFrom(... */\n    tag_148:\n        /* \"@openzeppelin/contracts/token/ERC1155/ERC1155.sol\":9222:9223  0 */\n      0x00\n        /* \"@openzeppelin/contracts/token/ERC1155/ERC1155.sol\":9208:9224  to == address(0) */\n      0xffffffffffffffffffffffffffffffffffffffff\n      and\n        /* \"@openzeppelin/contracts/token/ERC1155/ERC1155.sol\":9208:9210  to */\n      dup5\n        /* \"@openzeppelin/contracts/token/ERC1155/ERC1155.sol\":9208:9224  to == address(0) */\n      0xffffffffffffffffffffffffffffffffffffffff\n      and\n      sub\n        /* \"@openzeppelin/contracts/token/ERC1155/ERC1155.sol\":9204:9292  if (to == address(0)) {... */\n      tag_210\n      jumpi\n        /* \"@openzeppelin/contracts/token/ERC1155/ERC1155.sol\":9278:9279  0 */\n      0x00\n        /* \"@openzeppelin/contracts/token/ERC1155/ERC1155.sol\":9247:9281  ERC1155InvalidReceiver(address(0)) */\n      mload(0x40)\n      0x57f447ce00000000000000000000000000000000000000000000000000000000\n      dup2\n      mstore\n      0x04\n      add\n      tag_211\n      swap2\n      swap1\n      tag_70\n      jump\t// in\n    tag_211:\n      mload(0x40)\n      dup1\n      swap2\n      sub\n      swap1\n      revert\n        /* \"@openzeppelin/contracts/token/ERC1155/ERC1155.sol\":9204:9292  if (to == address(0)) {... */\n    tag_210:\n        /* \"@openzeppelin/contracts/token/ERC1155/ERC1155.sol\":9321:9322  0 */\n      0x00\n        /* \"@openzeppelin/contracts/token/ERC1155/ERC1155.sol\":9305:9323  from == address(0) */\n      0xffffffffffffffffffffffffffffffffffffffff\n      and\n        /* \"@openzeppelin/contracts/token/ERC1155/ERC1155.sol\":9305:9309  from */\n      dup6\n        /* \"@openzeppelin/contracts/token/ERC1155/ERC1155.sol\":9305:9323  from == address(0) */\n      0xffffffffffffffffffffffffffffffffffffffff\n      and\n      sub\n        /* \"@openzeppelin/contracts/token/ERC1155/ERC1155.sol\":9301:9389  if (from == address(0)) {... */\n      tag_212\n      jumpi\n        /* \"@openzeppelin/contracts/token/ERC1155/ERC1155.sol\":9375:9376  0 */\n      0x00\n        /* \"@openzeppelin/contracts/token/ERC1155/ERC1155.sol\":9346:9378  ERC1155InvalidSender(address(0)) */\n      mload(0x40)\n      0x01a8351400000000000000000000000000000000000000000000000000000000\n      dup2\n      mstore\n      0x04\n      add\n      tag_213\n      swap2\n      swap1\n      tag_70\n      jump\t// in\n    tag_213:\n      mload(0x40)\n      dup1\n      swap2\n      sub\n      swap1\n      revert\n        /* \"@openzeppelin/contracts/token/ERC1155/ERC1155.sol\":9301:9389  if (from == address(0)) {... */\n    tag_212:\n        /* \"@openzeppelin/contracts/token/ERC1155/ERC1155.sol\":9398:9453  _updateWithAcceptanceCheck(from, to, ids, values, data) */\n      tag_214\n        /* \"@openzeppelin/contracts/token/ERC1155/ERC1155.sol\":9425:9429  from */\n      dup6\n        /* \"@openzeppelin/contracts/token/ERC1155/ERC1155.sol\":9431:9433  to */\n      dup6\n        /* \"@openzeppelin/contracts/token/ERC1155/ERC1155.sol\":9435:9438  ids */\n      dup6\n        /* \"@openzeppelin/contracts/token/ERC1155/ERC1155.sol\":9440:9446  values */\n      dup6\n        /* \"@openzeppelin/contracts/token/ERC1155/ERC1155.sol\":9448:9452  data */\n      dup6\n        /* \"@openzeppelin/contracts/token/ERC1155/ERC1155.sol\":9398:9424  _updateWithAcceptanceCheck */\n      tag_207\n        /* \"@openzeppelin/contracts/token/ERC1155/ERC1155.sol\":9398:9453  _updateWithAcceptanceCheck(from, to, ids, values, data) */\n      jump\t// in\n    tag_214:\n        /* \"@openzeppelin/contracts/token/ERC1155/ERC1155.sol\":9015:9460  function _safeBatchTransferFrom(... */\n      pop\n      pop\n      pop\n      pop\n      pop\n      jump\t// out\n        /* \"@openzeppelin/contracts/utils/Arrays.sol\":4603:4800  function unsafeMemoryAccess(address[] memory arr, uint256 pos) internal pure returns (address res) {... */\n    tag_162:\n        /* \"@openzeppelin/contracts/utils/Arrays.sol\":4689:4700  address res */\n      0x00\n        /* \"@openzeppelin/contracts/utils/Arrays.sol\":4777:4781  0x20 */\n      0x20\n        /* \"@openzeppelin/contracts/utils/Arrays.sol\":4772:4775  pos */\n      dup3\n        /* \"@openzeppelin/contracts/utils/Arrays.sol\":4768:4782  mul(pos, 0x20) */\n      mul\n        /* \"@openzeppelin/contracts/utils/Arrays.sol\":4761:4765  0x20 */\n      0x20\n        /* \"@openzeppelin/contracts/utils/Arrays.sol\":4756:4759  arr */\n      dup5\n        /* \"@openzeppelin/contracts/utils/Arrays.sol\":4752:4766  add(arr, 0x20) */\n      add\n        /* \"@openzeppelin/contracts/utils/Arrays.sol\":4748:4783  add(add(arr, 0x20), mul(pos, 0x20)) */\n      add\n        /* \"@openzeppelin/contracts/utils/Arrays.sol\":4742:4784  mload(add(add(arr, 0x20), mul(pos, 0x20))) */\n      mload\n        /* \"@openzeppelin/contracts/utils/Arrays.sol\":4735:4784  res := mload(add(add(arr, 0x20), mul(pos, 0x20))) */\n      swap1\n      pop\n        /* \"@openzeppelin/contracts/utils/Arrays.sol\":4603:4800  function unsafeMemoryAccess(address[] memory arr, uint256 pos) internal pure returns (address res) {... */\n      swap3\n      swap2\n      pop\n      pop\n      jump\t// out\n        /* \"@openzeppelin/contracts/utils/Arrays.sol\":4204:4401  function unsafeMemoryAccess(uint256[] memory arr, uint256 pos) internal pure returns (uint256 res) {... */\n    tag_164:\n        /* \"@openzeppelin/contracts/utils/Arrays.sol\":4290:4301  uint256 res */\n      0x00\n        /* \"@openzeppelin/contracts/utils/Arrays.sol\":4378:4382  0x20 */\n      0x20\n        /* \"@openzeppelin/contracts/utils/Arrays.sol\":4373:4376  pos */\n      dup3\n        /* \"@openzeppelin/contracts/utils/Arrays.sol\":4369:4383  mul(pos, 0x20) */\n      mul\n        /* \"@openzeppelin/contracts/utils/Arrays.sol\":4362:4366  0x20 */\n      0x20\n        /* \"@openzeppelin/contracts/utils/Arrays.sol\":4357:4360  arr */\n      dup5\n        /* \"@openzeppelin/contracts/utils/Arrays.sol\":4353:4367  add(arr, 0x20) */\n      add\n        /* \"@openzeppelin/contracts/utils/Arrays.sol\":4349:4384  add(add(arr, 0x20), mul(pos, 0x20)) */\n      add\n        /* \"@openzeppelin/contracts/utils/Arrays.sol\":4343:4385  mload(add(add(arr, 0x20), mul(pos, 0x20))) */\n      mload\n        /* \"@openzeppelin/contracts/utils/Arrays.sol\":4336:4385  res := mload(add(add(arr, 0x20), mul(pos, 0x20))) */\n      swap1\n      pop\n        /* \"@openzeppelin/contracts/utils/Arrays.sol\":4204:4401  function unsafeMemoryAccess(uint256[] memory arr, uint256 pos) internal pure returns (uint256 res) {... */\n      swap3\n      swap2\n      pop\n      pop\n      jump\t// out\n        /* \"@openzeppelin/contracts/access/Ownable.sol\":1796:1958  function _checkOwner() internal view virtual {... */\n    tag_170:\n        /* \"@openzeppelin/contracts/access/Ownable.sol\":1866:1878  _msgSender() */\n      tag_218\n        /* \"@openzeppelin/contracts/access/Ownable.sol\":1866:1876  _msgSender */\n      tag_141\n        /* \"@openzeppelin/contracts/access/Ownable.sol\":1866:1878  _msgSender() */\n      jump\t// in\n    tag_218:\n        /* \"@openzeppelin/contracts/access/Ownable.sol\":1855:1878  owner() != _msgSender() */\n      0xffffffffffffffffffffffffffffffffffffffff\n      and\n        /* \"@openzeppelin/contracts/access/Ownable.sol\":1855:1862  owner() */\n      tag_219\n        /* \"@openzeppelin/contracts/access/Ownable.sol\":1855:1860  owner */\n      tag_68\n        /* \"@openzeppelin/contracts/access/Ownable.sol\":1855:1862  owner() */\n      jump\t// in\n    tag_219:\n        /* \"@openzeppelin/contracts/access/Ownable.sol\":1855:1878  owner() != _msgSender() */\n      0xffffffffffffffffffffffffffffffffffffffff\n      and\n      eq\n        /* \"@openzeppelin/contracts/access/Ownable.sol\":1851:1952  if (owner() != _msgSender()) {... */\n      tag_220\n      jumpi\n        /* \"@openzeppelin/contracts/access/Ownable.sol\":1928:1940  _msgSender() */\n      tag_221\n        /* \"@openzeppelin/contracts/access/Ownable.sol\":1928:1938  _msgSender */\n      tag_141\n        /* \"@openzeppelin/contracts/access/Ownable.sol\":1928:1940  _msgSender() */\n      jump\t// in\n    tag_221:\n        /* \"@openzeppelin/contracts/access/Ownable.sol\":1901:1941  OwnableUnauthorizedAccount(_msgSender()) */\n      mload(0x40)\n      0x118cdaa700000000000000000000000000000000000000000000000000000000\n      dup2\n      mstore\n      0x04\n      add\n      tag_222\n      swap2\n      swap1\n      tag_70\n      jump\t// in\n    tag_222:\n      mload(0x40)\n      dup1\n      swap2\n      sub\n      swap1\n      revert\n        /* \"@openzeppelin/contracts/access/Ownable.sol\":1851:1952  if (owner() != _msgSender()) {... */\n    tag_220:\n        /* \"@openzeppelin/contracts/access/Ownable.sol\":1796:1958  function _checkOwner() internal view virtual {... */\n      jump\t// out\n        /* \"@openzeppelin/contracts/access/Ownable.sol\":2912:3099  function _transferOwnership(address newOwner) internal virtual {... */\n    tag_173:\n        /* \"@openzeppelin/contracts/access/Ownable.sol\":2985:3001  address oldOwner */\n      0x00\n        /* \"@openzeppelin/contracts/access/Ownable.sol\":3004:3010  _owner */\n      0x03\n      0x00\n      swap1\n      sload\n      swap1\n      0x0100\n      exp\n      swap1\n      div\n      0xffffffffffffffffffffffffffffffffffffffff\n      and\n        /* \"@openzeppelin/contracts/access/Ownable.sol\":2985:3010  address oldOwner = _owner */\n      swap1\n      pop\n        /* \"@openzeppelin/contracts/access/Ownable.sol\":3029:3037  newOwner */\n      dup2\n        /* \"@openzeppelin/contracts/access/Ownable.sol\":3020:3026  _owner */\n      0x03\n      0x00\n        /* \"@openzeppelin/contracts/access/Ownable.sol\":3020:3037  _owner = newOwner */\n      0x0100\n      exp\n      dup2\n      sload\n      dup2\n      0xffffffffffffffffffffffffffffffffffffffff\n      mul\n      not\n      and\n      swap1\n      dup4\n      0xffffffffffffffffffffffffffffffffffffffff\n      and\n      mul\n      or\n      swap1\n      sstore\n      pop\n        /* \"@openzeppelin/contracts/access/Ownable.sol\":3083:3091  newOwner */\n      dup2\n        /* \"@openzeppelin/contracts/access/Ownable.sol\":3052:3092  OwnershipTransferred(oldOwner, newOwner) */\n      0xffffffffffffffffffffffffffffffffffffffff\n      and\n        /* \"@openzeppelin/contracts/access/Ownable.sol\":3073:3081  oldOwner */\n      dup2\n        /* \"@openzeppelin/contracts/access/Ownable.sol\":3052:3092  OwnershipTransferred(oldOwner, newOwner) */\n      0xffffffffffffffffffffffffffffffffffffffff\n      and\n      0x8be0079c531659141344cd1fd0a4f28419497f9722a3daafe3b4186f6b6457e0\n      mload(0x40)\n      mload(0x40)\n      dup1\n      swap2\n      sub\n      swap1\n      log3\n        /* \"@openzeppelin/contracts/access/Ownable.sol\":2975:3099  {... */\n      pop\n        /* \"@openzeppelin/contracts/access/Ownable.sol\":2912:3099  function _transferOwnership(address newOwner) internal virtual {... */\n      pop\n      jump\t// out\n        /* \"@openzeppelin/contracts/token/ERC1155/ERC1155.sol\":13268:13583  function _setApprovalForAll(address owner, address operator, bool approved) internal virtual {... */\n    tag_183:\n        /* \"@openzeppelin/contracts/token/ERC1155/ERC1155.sol\":13395:13396  0 */\n      0x00\n        /* \"@openzeppelin/contracts/token/ERC1155/ERC1155.sol\":13375:13397  operator == address(0) */\n      0xffffffffffffffffffffffffffffffffffffffff\n      and\n        /* \"@openzeppelin/contracts/token/ERC1155/ERC1155.sol\":13375:13383  operator */\n      dup3\n        /* \"@openzeppelin/contracts/token/ERC1155/ERC1155.sol\":13375:13397  operator == address(0) */\n      0xffffffffffffffffffffffffffffffffffffffff\n      and\n      sub\n        /* \"@openzeppelin/contracts/token/ERC1155/ERC1155.sol\":13371:13465  if (operator == address(0)) {... */\n      tag_225\n      jumpi\n        /* \"@openzeppelin/contracts/token/ERC1155/ERC1155.sol\":13451:13452  0 */\n      0x00\n        /* \"@openzeppelin/contracts/token/ERC1155/ERC1155.sol\":13420:13454  ERC1155InvalidOperator(address(0)) */\n      mload(0x40)\n      0xced3e10000000000000000000000000000000000000000000000000000000000\n      dup2\n      mstore\n      0x04\n      add\n      tag_226\n      swap2\n      swap1\n      tag_70\n      jump\t// in\n    tag_226:\n      mload(0x40)\n      dup1\n      swap2\n      sub\n      swap1\n      revert\n        /* \"@openzeppelin/contracts/token/ERC1155/ERC1155.sol\":13371:13465  if (operator == address(0)) {... */\n    tag_225:\n        /* \"@openzeppelin/contracts/token/ERC1155/ERC1155.sol\":13512:13520  approved */\n      dup1\n        /* \"@openzeppelin/contracts/token/ERC1155/ERC1155.sol\":13474:13492  _operatorApprovals */\n      0x01\n        /* \"@openzeppelin/contracts/token/ERC1155/ERC1155.sol\":13474:13499  _operatorApprovals[owner] */\n      0x00\n        /* \"@openzeppelin/contracts/token/ERC1155/ERC1155.sol\":13493:13498  owner */\n      dup6\n        /* \"@openzeppelin/contracts/token/ERC1155/ERC1155.sol\":13474:13499  _operatorApprovals[owner] */\n      0xffffffffffffffffffffffffffffffffffffffff\n      and\n      0xffffffffffffffffffffffffffffffffffffffff\n      and\n      dup2\n      mstore\n      0x20\n      add\n      swap1\n      dup2\n      mstore\n      0x20\n      add\n      0x00\n      keccak256\n        /* \"@openzeppelin/contracts/token/ERC1155/ERC1155.sol\":13474:13509  _operatorApprovals[owner][operator] */\n      0x00\n        /* \"@openzeppelin/contracts/token/ERC1155/ERC1155.sol\":13500:13508  operator */\n      dup5\n        /* \"@openzeppelin/contracts/token/ERC1155/ERC1155.sol\":13474:13509  _operatorApprovals[owner][operator] */\n      0xffffffffffffffffffffffffffffffffffffffff\n      and\n      0xffffffffffffffffffffffffffffffffffffffff\n      and\n      dup2\n      mstore\n      0x20\n      add\n      swap1\n      dup2\n      mstore\n      0x20\n      add\n      0x00\n      keccak256\n      0x00\n        /* \"@openzeppelin/contracts/token/ERC1155/ERC1155.sol\":13474:13520  _operatorApprovals[owner][operator] = approved */\n      0x0100\n      exp\n      dup2\n      sload\n      dup2\n      0xff\n      mul\n      not\n      and\n      swap1\n      dup4\n      iszero\n      iszero\n      mul\n      or\n      swap1\n      sstore\n      pop\n        /* \"@openzeppelin/contracts/token/ERC1155/ERC1155.sol\":13557:13565  operator */\n      dup2\n        /* \"@openzeppelin/contracts/token/ERC1155/ERC1155.sol\":13535:13576  ApprovalForAll(owner, operator, approved) */\n      0xffffffffffffffffffffffffffffffffffffffff\n      and\n        /* \"@openzeppelin/contracts/token/ERC1155/ERC1155.sol\":13550:13555  owner */\n      dup4\n        /* \"@openzeppelin/contracts/token/ERC1155/ERC1155.sol\":13535:13576  ApprovalForAll(owner, operator, approved) */\n      0xffffffffffffffffffffffffffffffffffffffff\n      and\n      0x17307eab39ab6107e8899845ad3d59bd9653f200f220920489ca2b5937696c31\n        /* \"@openzeppelin/contracts/token/ERC1155/ERC1155.sol\":13567:13575  approved */\n      dup4\n        /* \"@openzeppelin/contracts/token/ERC1155/ERC1155.sol\":13535:13576  ApprovalForAll(owner, operator, approved) */\n      mload(0x40)\n      tag_227\n      swap2\n      swap1\n      tag_33\n      jump\t// in\n    tag_227:\n      mload(0x40)\n      dup1\n      swap2\n      sub\n      swap1\n      log3\n        /* \"@openzeppelin/contracts/token/ERC1155/ERC1155.sol\":13268:13583  function _setApprovalForAll(address owner, address operator, bool approved) internal virtual {... */\n      pop\n      pop\n      pop\n      jump\t// out\n        /* \"@openzeppelin/contracts/token/ERC1155/ERC1155.sol\":8151:8614  function _safeTransferFrom(address from, address to, uint256 id, uint256 value, bytes memory data) internal {... */\n    tag_192:\n        /* \"@openzeppelin/contracts/token/ERC1155/ERC1155.sol\":8287:8288  0 */\n      0x00\n        /* \"@openzeppelin/contracts/token/ERC1155/ERC1155.sol\":8273:8289  to == address(0) */\n      0xffffffffffffffffffffffffffffffffffffffff\n      and\n        /* \"@openzeppelin/contracts/token/ERC1155/ERC1155.sol\":8273:8275  to */\n      dup5\n        /* \"@openzeppelin/contracts/token/ERC1155/ERC1155.sol\":8273:8289  to == address(0) */\n      0xffffffffffffffffffffffffffffffffffffffff\n      and\n      sub\n        /* \"@openzeppelin/contracts/token/ERC1155/ERC1155.sol\":8269:8357  if (to == address(0)) {... */\n      tag_229\n      jumpi\n        /* \"@openzeppelin/contracts/token/ERC1155/ERC1155.sol\":8343:8344  0 */\n      0x00\n        /* \"@openzeppelin/contracts/token/ERC1155/ERC1155.sol\":8312:8346  ERC1155InvalidReceiver(address(0)) */\n      mload(0x40)\n      0x57f447ce00000000000000000000000000000000000000000000000000000000\n      dup2\n      mstore\n      0x04\n      add\n      tag_230\n      swap2\n      swap1\n      tag_70\n      jump\t// in\n    tag_230:\n      mload(0x40)\n      dup1\n      swap2\n      sub\n      swap1\n      revert\n        /* \"@openzeppelin/contracts/token/ERC1155/ERC1155.sol\":8269:8357  if (to == address(0)) {... */\n    tag_229:\n        /* \"@openzeppelin/contracts/token/ERC1155/ERC1155.sol\":8386:8387  0 */\n      0x00\n        /* \"@openzeppelin/contracts/token/ERC1155/ERC1155.sol\":8370:8388  from == address(0) */\n      0xffffffffffffffffffffffffffffffffffffffff\n      and\n        /* \"@openzeppelin/contracts/token/ERC1155/ERC1155.sol\":8370:8374  from */\n      dup6\n        /* \"@openzeppelin/contracts/token/ERC1155/ERC1155.sol\":8370:8388  from == address(0) */\n      0xffffffffffffffffffffffffffffffffffffffff\n      and\n      sub\n        /* \"@openzeppelin/contracts/token/ERC1155/ERC1155.sol\":8366:8454  if (from == address(0)) {... */\n      tag_231\n      jumpi\n        /* \"@openzeppelin/contracts/token/ERC1155/ERC1155.sol\":8440:8441  0 */\n      0x00\n        /* \"@openzeppelin/contracts/token/ERC1155/ERC1155.sol\":8411:8443  ERC1155InvalidSender(address(0)) */\n      mload(0x40)\n      0x01a8351400000000000000000000000000000000000000000000000000000000\n      dup2\n      mstore\n      0x04\n      add\n      tag_232\n      swap2\n      swap1\n      tag_70\n      jump\t// in\n    tag_232:\n      mload(0x40)\n      dup1\n      swap2\n      sub\n      swap1\n      revert\n        /* \"@openzeppelin/contracts/token/ERC1155/ERC1155.sol\":8366:8454  if (from == address(0)) {... */\n    tag_231:\n        /* \"@openzeppelin/contracts/token/ERC1155/ERC1155.sol\":8464:8484  uint256[] memory ids */\n      0x00\n        /* \"@openzeppelin/contracts/token/ERC1155/ERC1155.sol\":8486:8509  uint256[] memory values */\n      dup1\n        /* \"@openzeppelin/contracts/token/ERC1155/ERC1155.sol\":8513:8542  _asSingletonArrays(id, value) */\n      tag_233\n        /* \"@openzeppelin/contracts/token/ERC1155/ERC1155.sol\":8532:8534  id */\n      dup6\n        /* \"@openzeppelin/contracts/token/ERC1155/ERC1155.sol\":8536:8541  value */\n      dup6\n        /* \"@openzeppelin/contracts/token/ERC1155/ERC1155.sol\":8513:8531  _asSingletonArrays */\n      tag_205\n        /* \"@openzeppelin/contracts/token/ERC1155/ERC1155.sol\":8513:8542  _asSingletonArrays(id, value) */\n      jump\t// in\n    tag_233:\n        /* \"@openzeppelin/contracts/token/ERC1155/ERC1155.sol\":8463:8542  (uint256[] memory ids, uint256[] memory values) = _asSingletonArrays(id, value) */\n      swap2\n      pop\n      swap2\n      pop\n        /* \"@openzeppelin/contracts/token/ERC1155/ERC1155.sol\":8552:8607  _updateWithAcceptanceCheck(from, to, ids, values, data) */\n      tag_234\n        /* \"@openzeppelin/contracts/token/ERC1155/ERC1155.sol\":8579:8583  from */\n      dup8\n        /* \"@openzeppelin/contracts/token/ERC1155/ERC1155.sol\":8585:8587  to */\n      dup8\n        /* \"@openzeppelin/contracts/token/ERC1155/ERC1155.sol\":8589:8592  ids */\n      dup5\n        /* \"@openzeppelin/contracts/token/ERC1155/ERC1155.sol\":8594:8600  values */\n      dup5\n        /* \"@openzeppelin/contracts/token/ERC1155/ERC1155.sol\":8602:8606  data */\n      dup8\n        /* \"@openzeppelin/contracts/token/ERC1155/ERC1155.sol\":8552:8578  _updateWithAcceptanceCheck */\n      tag_207\n        /* \"@openzeppelin/contracts/token/ERC1155/ERC1155.sol\":8552:8607  _updateWithAcceptanceCheck(from, to, ids, values, data) */\n      jump\t// in\n    tag_234:\n        /* \"@openzeppelin/contracts/token/ERC1155/ERC1155.sol\":8259:8614  {... */\n      pop\n      pop\n        /* \"@openzeppelin/contracts/token/ERC1155/ERC1155.sol\":8151:8614  function _safeTransferFrom(address from, address to, uint256 id, uint256 value, bytes memory data) internal {... */\n      pop\n      pop\n      pop\n      pop\n      pop\n      jump\t// out\n        /* \"@openzeppelin/contracts/token/ERC1155/ERC1155.sol\":16080:16929  function _asSingletonArrays(... */\n    tag_205:\n        /* \"@openzeppelin/contracts/token/ERC1155/ERC1155.sol\":16188:16211  uint256[] memory array1 */\n      0x60\n        /* \"@openzeppelin/contracts/token/ERC1155/ERC1155.sol\":16213:16236  uint256[] memory array2 */\n      dup1\n        /* \"@openzeppelin/contracts/token/ERC1155/ERC1155.sol\":16374:16378  0x40 */\n      0x40\n        /* \"@openzeppelin/contracts/token/ERC1155/ERC1155.sol\":16368:16379  mload(0x40) */\n      mload\n        /* \"@openzeppelin/contracts/token/ERC1155/ERC1155.sol\":16358:16379  array1 := mload(0x40) */\n      swap2\n      pop\n        /* \"@openzeppelin/contracts/token/ERC1155/ERC1155.sol\":16444:16445  1 */\n      0x01\n        /* \"@openzeppelin/contracts/token/ERC1155/ERC1155.sol\":16436:16442  array1 */\n      dup3\n        /* \"@openzeppelin/contracts/token/ERC1155/ERC1155.sol\":16429:16446  mstore(array1, 1) */\n      mstore\n        /* \"@openzeppelin/contracts/token/ERC1155/ERC1155.sol\":16582:16590  element1 */\n      dup4\n        /* \"@openzeppelin/contracts/token/ERC1155/ERC1155.sol\":16575:16579  0x20 */\n      0x20\n        /* \"@openzeppelin/contracts/token/ERC1155/ERC1155.sol\":16567:16573  array1 */\n      dup4\n        /* \"@openzeppelin/contracts/token/ERC1155/ERC1155.sol\":16563:16580  add(array1, 0x20) */\n      add\n        /* \"@openzeppelin/contracts/token/ERC1155/ERC1155.sol\":16556:16591  mstore(add(array1, 0x20), element1) */\n      mstore\n        /* \"@openzeppelin/contracts/token/ERC1155/ERC1155.sol\":16704:16708  0x40 */\n      0x40\n        /* \"@openzeppelin/contracts/token/ERC1155/ERC1155.sol\":16696:16702  array1 */\n      dup3\n        /* \"@openzeppelin/contracts/token/ERC1155/ERC1155.sol\":16692:16709  add(array1, 0x40) */\n      add\n        /* \"@openzeppelin/contracts/token/ERC1155/ERC1155.sol\":16682:16709  array2 := add(array1, 0x40) */\n      swap1\n      pop\n        /* \"@openzeppelin/contracts/token/ERC1155/ERC1155.sol\":16737:16738  1 */\n      0x01\n        /* \"@openzeppelin/contracts/token/ERC1155/ERC1155.sol\":16729:16735  array2 */\n      dup2\n        /* \"@openzeppelin/contracts/token/ERC1155/ERC1155.sol\":16722:16739  mstore(array2, 1) */\n      mstore\n        /* \"@openzeppelin/contracts/token/ERC1155/ERC1155.sol\":16778:16786  element2 */\n      dup3\n        /* \"@openzeppelin/contracts/token/ERC1155/ERC1155.sol\":16771:16775  0x20 */\n      0x20\n        /* \"@openzeppelin/contracts/token/ERC1155/ERC1155.sol\":16763:16769  array2 */\n      dup3\n        /* \"@openzeppelin/contracts/token/ERC1155/ERC1155.sol\":16759:16776  add(array2, 0x20) */\n      add\n        /* \"@openzeppelin/contracts/token/ERC1155/ERC1155.sol\":16752:16787  mstore(add(array2, 0x20), element2) */\n      mstore\n        /* \"@openzeppelin/contracts/token/ERC1155/ERC1155.sol\":16907:16911  0x40 */\n      0x40\n        /* \"@openzeppelin/contracts/token/ERC1155/ERC1155.sol\":16899:16905  array2 */\n      dup2\n        /* \"@openzeppelin/contracts/token/ERC1155/ERC1155.sol\":16895:16912  add(array2, 0x40) */\n      add\n        /* \"@openzeppelin/contracts/token/ERC1155/ERC1155.sol\":16889:16893  0x40 */\n      0x40\n        /* \"@openzeppelin/contracts/token/ERC1155/ERC1155.sol\":16882:16913  mstore(0x40, add(array2, 0x40)) */\n      mstore\n        /* \"@openzeppelin/contracts/token/ERC1155/ERC1155.sol\":16080:16929  function _asSingletonArrays(... */\n      swap3\n      pop\n      swap3\n      swap1\n      pop\n      jump\t// out\n        /* \"@openzeppelin/contracts/token/ERC1155/ERC1155.sol\":7004:7694  function _updateWithAcceptanceCheck(... */\n    tag_207:\n        /* \"@openzeppelin/contracts/token/ERC1155/ERC1155.sol\":7205:7235  _update(from, to, ids, values) */\n      tag_237\n        /* \"@openzeppelin/contracts/token/ERC1155/ERC1155.sol\":7213:7217  from */\n      dup6\n        /* \"@openzeppelin/contracts/token/ERC1155/ERC1155.sol\":7219:7221  to */\n      dup6\n        /* \"@openzeppelin/contracts/token/ERC1155/ERC1155.sol\":7223:7226  ids */\n      dup6\n        /* \"@openzeppelin/contracts/token/ERC1155/ERC1155.sol\":7228:7234  values */\n      dup6\n        /* \"@openzeppelin/contracts/token/ERC1155/ERC1155.sol\":7205:7212  _update */\n      tag_238\n        /* \"@openzeppelin/contracts/token/ERC1155/ERC1155.sol\":7205:7235  _update(from, to, ids, values) */\n      jump\t// in\n    tag_237:\n        /* \"@openzeppelin/contracts/token/ERC1155/ERC1155.sol\":7263:7264  0 */\n      0x00\n        /* \"@openzeppelin/contracts/token/ERC1155/ERC1155.sol\":7249:7265  to != address(0) */\n      0xffffffffffffffffffffffffffffffffffffffff\n      and\n        /* \"@openzeppelin/contracts/token/ERC1155/ERC1155.sol\":7249:7251  to */\n      dup5\n        /* \"@openzeppelin/contracts/token/ERC1155/ERC1155.sol\":7249:7265  to != address(0) */\n      0xffffffffffffffffffffffffffffffffffffffff\n      and\n      eq\n        /* \"@openzeppelin/contracts/token/ERC1155/ERC1155.sol\":7245:7688  if (to != address(0)) {... */\n      tag_239\n      jumpi\n        /* \"@openzeppelin/contracts/token/ERC1155/ERC1155.sol\":7281:7297  address operator */\n      0x00\n        /* \"@openzeppelin/contracts/token/ERC1155/ERC1155.sol\":7300:7312  _msgSender() */\n      tag_240\n        /* \"@openzeppelin/contracts/token/ERC1155/ERC1155.sol\":7300:7310  _msgSender */\n      tag_141\n        /* \"@openzeppelin/contracts/token/ERC1155/ERC1155.sol\":7300:7312  _msgSender() */\n      jump\t// in\n    tag_240:\n        /* \"@openzeppelin/contracts/token/ERC1155/ERC1155.sol\":7281:7312  address operator = _msgSender() */\n      swap1\n      pop\n        /* \"@openzeppelin/contracts/token/ERC1155/ERC1155.sol\":7344:7345  1 */\n      0x01\n        /* \"@openzeppelin/contracts/token/ERC1155/ERC1155.sol\":7330:7333  ids */\n      dup5\n        /* \"@openzeppelin/contracts/token/ERC1155/ERC1155.sol\":7330:7340  ids.length */\n      mload\n        /* \"@openzeppelin/contracts/token/ERC1155/ERC1155.sol\":7330:7345  ids.length == 1 */\n      sub\n        /* \"@openzeppelin/contracts/token/ERC1155/ERC1155.sol\":7326:7678  if (ids.length == 1) {... */\n      tag_241\n      jumpi\n        /* \"@openzeppelin/contracts/token/ERC1155/ERC1155.sol\":7365:7375  uint256 id */\n      0x00\n        /* \"@openzeppelin/contracts/token/ERC1155/ERC1155.sol\":7378:7403  ids.unsafeMemoryAccess(0) */\n      tag_242\n        /* \"@openzeppelin/contracts/token/ERC1155/ERC1155.sol\":7401:7402  0 */\n      0x00\n        /* \"@openzeppelin/contracts/token/ERC1155/ERC1155.sol\":7378:7381  ids */\n      dup7\n        /* \"@openzeppelin/contracts/token/ERC1155/ERC1155.sol\":7378:7400  ids.unsafeMemoryAccess */\n      tag_164\n      swap1\n        /* \"@openzeppelin/contracts/token/ERC1155/ERC1155.sol\":7378:7403  ids.unsafeMemoryAccess(0) */\n      swap2\n      swap1\n      0xffffffff\n      and\n      jump\t// in\n    tag_242:\n        /* \"@openzeppelin/contracts/token/ERC1155/ERC1155.sol\":7365:7403  uint256 id = ids.unsafeMemoryAccess(0) */\n      swap1\n      pop\n        /* \"@openzeppelin/contracts/token/ERC1155/ERC1155.sol\":7421:7434  uint256 value */\n      0x00\n        /* \"@openzeppelin/contracts/token/ERC1155/ERC1155.sol\":7437:7465  values.unsafeMemoryAccess(0) */\n      tag_243\n        /* \"@openzeppelin/contracts/token/ERC1155/ERC1155.sol\":7463:7464  0 */\n      0x00\n        /* \"@openzeppelin/contracts/token/ERC1155/ERC1155.sol\":7437:7443  values */\n      dup7\n        /* \"@openzeppelin/contracts/token/ERC1155/ERC1155.sol\":7437:7462  values.unsafeMemoryAccess */\n      tag_164\n      swap1\n        /* \"@openzeppelin/contracts/token/ERC1155/ERC1155.sol\":7437:7465  values.unsafeMemoryAccess(0) */\n      swap2\n      swap1\n      0xffffffff\n      and\n      jump\t// in\n    tag_243:\n        /* \"@openzeppelin/contracts/token/ERC1155/ERC1155.sol\":7421:7465  uint256 value = values.unsafeMemoryAccess(0) */\n      swap1\n      pop\n        /* \"@openzeppelin/contracts/token/ERC1155/ERC1155.sol\":7483:7550  _doSafeTransferAcceptanceCheck(operator, from, to, id, value, data) */\n      tag_244\n        /* \"@openzeppelin/contracts/token/ERC1155/ERC1155.sol\":7514:7522  operator */\n      dup4\n        /* \"@openzeppelin/contracts/token/ERC1155/ERC1155.sol\":7524:7528  from */\n      dup10\n        /* \"@openzeppelin/contracts/token/ERC1155/ERC1155.sol\":7530:7532  to */\n      dup10\n        /* \"@openzeppelin/contracts/token/ERC1155/ERC1155.sol\":7534:7536  id */\n      dup6\n        /* \"@openzeppelin/contracts/token/ERC1155/ERC1155.sol\":7538:7543  value */\n      dup6\n        /* \"@openzeppelin/contracts/token/ERC1155/ERC1155.sol\":7545:7549  data */\n      dup10\n        /* \"@openzeppelin/contracts/token/ERC1155/ERC1155.sol\":7483:7513  _doSafeTransferAcceptanceCheck */\n      tag_245\n        /* \"@openzeppelin/contracts/token/ERC1155/ERC1155.sol\":7483:7550  _doSafeTransferAcceptanceCheck(operator, from, to, id, value, data) */\n      jump\t// in\n    tag_244:\n        /* \"@openzeppelin/contracts/token/ERC1155/ERC1155.sol\":7347:7565  {... */\n      pop\n      pop\n        /* \"@openzeppelin/contracts/token/ERC1155/ERC1155.sol\":7326:7678  if (ids.length == 1) {... */\n      jump(tag_246)\n    tag_241:\n        /* \"@openzeppelin/contracts/token/ERC1155/ERC1155.sol\":7589:7663  _doSafeBatchTransferAcceptanceCheck(operator, from, to, ids, values, data) */\n      tag_247\n        /* \"@openzeppelin/contracts/token/ERC1155/ERC1155.sol\":7625:7633  operator */\n      dup2\n        /* \"@openzeppelin/contracts/token/ERC1155/ERC1155.sol\":7635:7639  from */\n      dup8\n        /* \"@openzeppelin/contracts/token/ERC1155/ERC1155.sol\":7641:7643  to */\n      dup8\n        /* \"@openzeppelin/contracts/token/ERC1155/ERC1155.sol\":7645:7648  ids */\n      dup8\n        /* \"@openzeppelin/contracts/token/ERC1155/ERC1155.sol\":7650:7656  values */\n      dup8\n        /* \"@openzeppelin/contracts/token/ERC1155/ERC1155.sol\":7658:7662  data */\n      dup8\n        /* \"@openzeppelin/contracts/token/ERC1155/ERC1155.sol\":7589:7624  _doSafeBatchTransferAcceptanceCheck */\n      tag_248\n        /* \"@openzeppelin/contracts/token/ERC1155/ERC1155.sol\":7589:7663  _doSafeBatchTransferAcceptanceCheck(operator, from, to, ids, values, data) */\n      jump\t// in\n    tag_247:\n        /* \"@openzeppelin/contracts/token/ERC1155/ERC1155.sol\":7326:7678  if (ids.length == 1) {... */\n    tag_246:\n        /* \"@openzeppelin/contracts/token/ERC1155/ERC1155.sol\":7267:7688  {... */\n      pop\n        /* \"@openzeppelin/contracts/token/ERC1155/ERC1155.sol\":7245:7688  if (to != address(0)) {... */\n    tag_239:\n        /* \"@openzeppelin/contracts/token/ERC1155/ERC1155.sol\":7004:7694  function _updateWithAcceptanceCheck(... */\n      pop\n      pop\n      pop\n      pop\n      pop\n      jump\t// out\n        /* \"@openzeppelin/contracts/token/ERC1155/ERC1155.sol\":5144:6425  function _update(address from, address to, uint256[] memory ids, uint256[] memory values) internal virtual {... */\n    tag_238:\n        /* \"@openzeppelin/contracts/token/ERC1155/ERC1155.sol\":5279:5285  values */\n      dup1\n        /* \"@openzeppelin/contracts/token/ERC1155/ERC1155.sol\":5279:5292  values.length */\n      mload\n        /* \"@openzeppelin/contracts/token/ERC1155/ERC1155.sol\":5265:5268  ids */\n      dup3\n        /* \"@openzeppelin/contracts/token/ERC1155/ERC1155.sol\":5265:5275  ids.length */\n      mload\n        /* \"@openzeppelin/contracts/token/ERC1155/ERC1155.sol\":5265:5292  ids.length != values.length */\n      eq\n        /* \"@openzeppelin/contracts/token/ERC1155/ERC1155.sol\":5261:5378  if (ids.length != values.length) {... */\n      tag_250\n      jumpi\n        /* \"@openzeppelin/contracts/token/ERC1155/ERC1155.sol\":5341:5344  ids */\n      dup2\n        /* \"@openzeppelin/contracts/token/ERC1155/ERC1155.sol\":5341:5351  ids.length */\n      mload\n        /* \"@openzeppelin/contracts/token/ERC1155/ERC1155.sol\":5353:5359  values */\n      dup2\n        /* \"@openzeppelin/contracts/token/ERC1155/ERC1155.sol\":5353:5366  values.length */\n      mload\n        /* \"@openzeppelin/contracts/token/ERC1155/ERC1155.sol\":5315:5367  ERC1155InvalidArrayLength(ids.length, values.length) */\n      mload(0x40)\n      0x5b05999100000000000000000000000000000000000000000000000000000000\n      dup2\n      mstore\n      0x04\n      add\n      tag_251\n      swap3\n      swap2\n      swap1\n      tag_152\n      jump\t// in\n    tag_251:\n      mload(0x40)\n      dup1\n      swap2\n      sub\n      swap1\n      revert\n        /* \"@openzeppelin/contracts/token/ERC1155/ERC1155.sol\":5261:5378  if (ids.length != values.length) {... */\n    tag_250:\n        /* \"@openzeppelin/contracts/token/ERC1155/ERC1155.sol\":5388:5404  address operator */\n      0x00\n        /* \"@openzeppelin/contracts/token/ERC1155/ERC1155.sol\":5407:5419  _msgSender() */\n      tag_252\n        /* \"@openzeppelin/contracts/token/ERC1155/ERC1155.sol\":5407:5417  _msgSender */\n      tag_141\n        /* \"@openzeppelin/contracts/token/ERC1155/ERC1155.sol\":5407:5419  _msgSender() */\n      jump\t// in\n    tag_252:\n        /* \"@openzeppelin/contracts/token/ERC1155/ERC1155.sol\":5388:5419  address operator = _msgSender() */\n      swap1\n      pop\n        /* \"@openzeppelin/contracts/token/ERC1155/ERC1155.sol\":5435:5444  uint256 i */\n      0x00\n        /* \"@openzeppelin/contracts/token/ERC1155/ERC1155.sol\":5430:6121  for (uint256 i = 0; i < ids.length; ++i) {... */\n    tag_253:\n        /* \"@openzeppelin/contracts/token/ERC1155/ERC1155.sol\":5454:5457  ids */\n      dup4\n        /* \"@openzeppelin/contracts/token/ERC1155/ERC1155.sol\":5454:5464  ids.length */\n      mload\n        /* \"@openzeppelin/contracts/token/ERC1155/ERC1155.sol\":5450:5451  i */\n      dup2\n        /* \"@openzeppelin/contracts/token/ERC1155/ERC1155.sol\":5450:5464  i < ids.length */\n      lt\n        /* \"@openzeppelin/contracts/token/ERC1155/ERC1155.sol\":5430:6121  for (uint256 i = 0; i < ids.length; ++i) {... */\n      iszero\n      tag_254\n      jumpi\n        /* \"@openzeppelin/contracts/token/ERC1155/ERC1155.sol\":5485:5495  uint256 id */\n      0x00\n        /* \"@openzeppelin/contracts/token/ERC1155/ERC1155.sol\":5498:5523  ids.unsafeMemoryAccess(i) */\n      tag_256\n        /* \"@openzeppelin/contracts/token/ERC1155/ERC1155.sol\":5521:5522  i */\n      dup3\n        /* \"@openzeppelin/contracts/token/ERC1155/ERC1155.sol\":5498:5501  ids */\n      dup7\n        /* \"@openzeppelin/contracts/token/ERC1155/ERC1155.sol\":5498:5520  ids.unsafeMemoryAccess */\n      tag_164\n      swap1\n        /* \"@openzeppelin/contracts/token/ERC1155/ERC1155.sol\":5498:5523  ids.unsafeMemoryAccess(i) */\n      swap2\n      swap1\n      0xffffffff\n      and\n      jump\t// in\n    tag_256:\n        /* \"@openzeppelin/contracts/token/ERC1155/ERC1155.sol\":5485:5523  uint256 id = ids.unsafeMemoryAccess(i) */\n      swap1\n      pop\n        /* \"@openzeppelin/contracts/token/ERC1155/ERC1155.sol\":5537:5550  uint256 value */\n      0x00\n        /* \"@openzeppelin/contracts/token/ERC1155/ERC1155.sol\":5553:5581  values.unsafeMemoryAccess(i) */\n      tag_257\n        /* \"@openzeppelin/contracts/token/ERC1155/ERC1155.sol\":5579:5580  i */\n      dup4\n        /* \"@openzeppelin/contracts/token/ERC1155/ERC1155.sol\":5553:5559  values */\n      dup7\n        /* \"@openzeppelin/contracts/token/ERC1155/ERC1155.sol\":5553:5578  values.unsafeMemoryAccess */\n      tag_164\n      swap1\n        /* \"@openzeppelin/contracts/token/ERC1155/ERC1155.sol\":5553:5581  values.unsafeMemoryAccess(i) */\n      swap2\n      swap1\n      0xffffffff\n      and\n      jump\t// in\n    tag_257:\n        /* \"@openzeppelin/contracts/token/ERC1155/ERC1155.sol\":5537:5581  uint256 value = values.unsafeMemoryAccess(i) */\n      swap1\n      pop\n        /* \"@openzeppelin/contracts/token/ERC1155/ERC1155.sol\":5616:5617  0 */\n      0x00\n        /* \"@openzeppelin/contracts/token/ERC1155/ERC1155.sol\":5600:5618  from != address(0) */\n      0xffffffffffffffffffffffffffffffffffffffff\n      and\n        /* \"@openzeppelin/contracts/token/ERC1155/ERC1155.sol\":5600:5604  from */\n      dup9\n        /* \"@openzeppelin/contracts/token/ERC1155/ERC1155.sol\":5600:5618  from != address(0) */\n      0xffffffffffffffffffffffffffffffffffffffff\n      and\n      eq\n        /* \"@openzeppelin/contracts/token/ERC1155/ERC1155.sol\":5596:6016  if (from != address(0)) {... */\n      tag_258\n      jumpi\n        /* \"@openzeppelin/contracts/token/ERC1155/ERC1155.sol\":5638:5657  uint256 fromBalance */\n      0x00\n        /* \"@openzeppelin/contracts/token/ERC1155/ERC1155.sol\":5660:5669  _balances */\n      dup1\n        /* \"@openzeppelin/contracts/token/ERC1155/ERC1155.sol\":5660:5673  _balances[id] */\n      0x00\n        /* \"@openzeppelin/contracts/token/ERC1155/ERC1155.sol\":5670:5672  id */\n      dup5\n        /* \"@openzeppelin/contracts/token/ERC1155/ERC1155.sol\":5660:5673  _balances[id] */\n      dup2\n      mstore\n      0x20\n      add\n      swap1\n      dup2\n      mstore\n      0x20\n      add\n      0x00\n      keccak256\n        /* \"@openzeppelin/contracts/token/ERC1155/ERC1155.sol\":5660:5679  _balances[id][from] */\n      0x00\n        /* \"@openzeppelin/contracts/token/ERC1155/ERC1155.sol\":5674:5678  from */\n      dup11\n        /* \"@openzeppelin/contracts/token/ERC1155/ERC1155.sol\":5660:5679  _balances[id][from] */\n      0xffffffffffffffffffffffffffffffffffffffff\n      and\n      0xffffffffffffffffffffffffffffffffffffffff\n      and\n      dup2\n      mstore\n      0x20\n      add\n      swap1\n      dup2\n      mstore\n      0x20\n      add\n      0x00\n      keccak256\n      sload\n        /* \"@openzeppelin/contracts/token/ERC1155/ERC1155.sol\":5638:5679  uint256 fromBalance = _balances[id][from] */\n      swap1\n      pop\n        /* \"@openzeppelin/contracts/token/ERC1155/ERC1155.sol\":5715:5720  value */\n      dup2\n        /* \"@openzeppelin/contracts/token/ERC1155/ERC1155.sol\":5701:5712  fromBalance */\n      dup2\n        /* \"@openzeppelin/contracts/token/ERC1155/ERC1155.sol\":5701:5720  fromBalance < value */\n      lt\n        /* \"@openzeppelin/contracts/token/ERC1155/ERC1155.sol\":5697:5826  if (fromBalance < value) {... */\n      iszero\n      tag_259\n      jumpi\n        /* \"@openzeppelin/contracts/token/ERC1155/ERC1155.sol\":5778:5782  from */\n      dup9\n        /* \"@openzeppelin/contracts/token/ERC1155/ERC1155.sol\":5784:5795  fromBalance */\n      dup2\n        /* \"@openzeppelin/contracts/token/ERC1155/ERC1155.sol\":5797:5802  value */\n      dup4\n        /* \"@openzeppelin/contracts/token/ERC1155/ERC1155.sol\":5804:5806  id */\n      dup6\n        /* \"@openzeppelin/contracts/token/ERC1155/ERC1155.sol\":5751:5807  ERC1155InsufficientBalance(from, fromBalance, value, id) */\n      mload(0x40)\n      0x03dee4c500000000000000000000000000000000000000000000000000000000\n      dup2\n      mstore\n      0x04\n      add\n      tag_260\n      swap5\n      swap4\n      swap3\n      swap2\n      swap1\n      tag_261\n      jump\t// in\n    tag_260:\n      mload(0x40)\n      dup1\n      swap2\n      sub\n      swap1\n      revert\n        /* \"@openzeppelin/contracts/token/ERC1155/ERC1155.sol\":5697:5826  if (fromBalance < value) {... */\n    tag_259:\n        /* \"@openzeppelin/contracts/token/ERC1155/ERC1155.sol\":5978:5983  value */\n      dup2\n        /* \"@openzeppelin/contracts/token/ERC1155/ERC1155.sol\":5964:5975  fromBalance */\n      dup2\n        /* \"@openzeppelin/contracts/token/ERC1155/ERC1155.sol\":5964:5983  fromBalance - value */\n      sub\n        /* \"@openzeppelin/contracts/token/ERC1155/ERC1155.sol\":5942:5951  _balances */\n      0x00\n        /* \"@openzeppelin/contracts/token/ERC1155/ERC1155.sol\":5942:5955  _balances[id] */\n      dup1\n        /* \"@openzeppelin/contracts/token/ERC1155/ERC1155.sol\":5952:5954  id */\n      dup6\n        /* \"@openzeppelin/contracts/token/ERC1155/ERC1155.sol\":5942:5955  _balances[id] */\n      dup2\n      mstore\n      0x20\n      add\n      swap1\n      dup2\n      mstore\n      0x20\n      add\n      0x00\n      keccak256\n        /* \"@openzeppelin/contracts/token/ERC1155/ERC1155.sol\":5942:5961  _balances[id][from] */\n      0x00\n        /* \"@openzeppelin/contracts/token/ERC1155/ERC1155.sol\":5956:5960  from */\n      dup12\n        /* \"@openzeppelin/contracts/token/ERC1155/ERC1155.sol\":5942:5961  _balances[id][from] */\n      0xffffffffffffffffffffffffffffffffffffffff\n      and\n      0xffffffffffffffffffffffffffffffffffffffff\n      and\n      dup2\n      mstore\n      0x20\n      add\n      swap1\n      dup2\n      mstore\n      0x20\n      add\n      0x00\n      keccak256\n        /* \"@openzeppelin/contracts/token/ERC1155/ERC1155.sol\":5942:5983  _balances[id][from] = fromBalance - value */\n      dup2\n      swap1\n      sstore\n      pop\n        /* \"@openzeppelin/contracts/token/ERC1155/ERC1155.sol\":5620:6016  {... */\n      pop\n        /* \"@openzeppelin/contracts/token/ERC1155/ERC1155.sol\":5596:6016  if (from != address(0)) {... */\n    tag_258:\n        /* \"@openzeppelin/contracts/token/ERC1155/ERC1155.sol\":6048:6049  0 */\n      0x00\n        /* \"@openzeppelin/contracts/token/ERC1155/ERC1155.sol\":6034:6050  to != address(0) */\n      0xffffffffffffffffffffffffffffffffffffffff\n      and\n        /* \"@openzeppelin/contracts/token/ERC1155/ERC1155.sol\":6034:6036  to */\n      dup8\n        /* \"@openzeppelin/contracts/token/ERC1155/ERC1155.sol\":6034:6050  to != address(0) */\n      0xffffffffffffffffffffffffffffffffffffffff\n      and\n      eq\n        /* \"@openzeppelin/contracts/token/ERC1155/ERC1155.sol\":6030:6111  if (to != address(0)) {... */\n      tag_262\n      jumpi\n        /* \"@openzeppelin/contracts/token/ERC1155/ERC1155.sol\":6091:6096  value */\n      dup1\n        /* \"@openzeppelin/contracts/token/ERC1155/ERC1155.sol\":6070:6079  _balances */\n      0x00\n        /* \"@openzeppelin/contracts/token/ERC1155/ERC1155.sol\":6070:6083  _balances[id] */\n      dup1\n        /* \"@openzeppelin/contracts/token/ERC1155/ERC1155.sol\":6080:6082  id */\n      dup5\n        /* \"@openzeppelin/contracts/token/ERC1155/ERC1155.sol\":6070:6083  _balances[id] */\n      dup2\n      mstore\n      0x20\n      add\n      swap1\n      dup2\n      mstore\n      0x20\n      add\n      0x00\n      keccak256\n        /* \"@openzeppelin/contracts/token/ERC1155/ERC1155.sol\":6070:6087  _balances[id][to] */\n      0x00\n        /* \"@openzeppelin/contracts/token/ERC1155/ERC1155.sol\":6084:6086  to */\n      dup10\n        /* \"@openzeppelin/contracts/token/ERC1155/ERC1155.sol\":6070:6087  _balances[id][to] */\n      0xffffffffffffffffffffffffffffffffffffffff\n      and\n      0xffffffffffffffffffffffffffffffffffffffff\n      and\n      dup2\n      mstore\n      0x20\n      add\n      swap1\n      dup2\n      mstore\n      0x20\n      add\n      0x00\n      keccak256\n      0x00\n        /* \"@openzeppelin/contracts/token/ERC1155/ERC1155.sol\":6070:6096  _balances[id][to] += value */\n      dup3\n      dup3\n      sload\n      tag_263\n      swap2\n      swap1\n      tag_120\n      jump\t// in\n    tag_263:\n      swap3\n      pop\n      pop\n      dup2\n      swap1\n      sstore\n      pop\n        /* \"@openzeppelin/contracts/token/ERC1155/ERC1155.sol\":6030:6111  if (to != address(0)) {... */\n    tag_262:\n        /* \"@openzeppelin/contracts/token/ERC1155/ERC1155.sol\":5471:6121  {... */\n      pop\n      pop\n        /* \"@openzeppelin/contracts/token/ERC1155/ERC1155.sol\":5466:5469  ++i */\n      dup1\n      0x01\n      add\n      swap1\n      pop\n        /* \"@openzeppelin/contracts/token/ERC1155/ERC1155.sol\":5430:6121  for (uint256 i = 0; i < ids.length; ++i) {... */\n      jump(tag_253)\n    tag_254:\n      pop\n        /* \"@openzeppelin/contracts/token/ERC1155/ERC1155.sol\":6149:6150  1 */\n      0x01\n        /* \"@openzeppelin/contracts/token/ERC1155/ERC1155.sol\":6135:6138  ids */\n      dup4\n        /* \"@openzeppelin/contracts/token/ERC1155/ERC1155.sol\":6135:6145  ids.length */\n      mload\n        /* \"@openzeppelin/contracts/token/ERC1155/ERC1155.sol\":6135:6150  ids.length == 1 */\n      sub\n        /* \"@openzeppelin/contracts/token/ERC1155/ERC1155.sol\":6131:6419  if (ids.length == 1) {... */\n      tag_264\n      jumpi\n        /* \"@openzeppelin/contracts/token/ERC1155/ERC1155.sol\":6166:6176  uint256 id */\n      0x00\n        /* \"@openzeppelin/contracts/token/ERC1155/ERC1155.sol\":6179:6204  ids.unsafeMemoryAccess(0) */\n      tag_265\n        /* \"@openzeppelin/contracts/token/ERC1155/ERC1155.sol\":6202:6203  0 */\n      0x00\n        /* \"@openzeppelin/contracts/token/ERC1155/ERC1155.sol\":6179:6182  ids */\n      dup6\n        /* \"@openzeppelin/contracts/token/ERC1155/ERC1155.sol\":6179:6201  ids.unsafeMemoryAccess */\n      tag_164\n      swap1\n        /* \"@openzeppelin/contracts/token/ERC1155/ERC1155.sol\":6179:6204  ids.unsafeMemoryAccess(0) */\n      swap2\n      swap1\n      0xffffffff\n      and\n      jump\t// in\n    tag_265:\n        /* \"@openzeppelin/contracts/token/ERC1155/ERC1155.sol\":6166:6204  uint256 id = ids.unsafeMemoryAccess(0) */\n      swap1\n      pop\n        /* \"@openzeppelin/contracts/token/ERC1155/ERC1155.sol\":6218:6231  uint256 value */\n      0x00\n        /* \"@openzeppelin/contracts/token/ERC1155/ERC1155.sol\":6234:6262  values.unsafeMemoryAccess(0) */\n      tag_266\n        /* \"@openzeppelin/contracts/token/ERC1155/ERC1155.sol\":6260:6261  0 */\n      0x00\n        /* \"@openzeppelin/contracts/token/ERC1155/ERC1155.sol\":6234:6240  values */\n      dup6\n        /* \"@openzeppelin/contracts/token/ERC1155/ERC1155.sol\":6234:6259  values.unsafeMemoryAccess */\n      tag_164\n      swap1\n        /* \"@openzeppelin/contracts/token/ERC1155/ERC1155.sol\":6234:6262  values.unsafeMemoryAccess(0) */\n      swap2\n      swap1\n      0xffffffff\n      and\n      jump\t// in\n    tag_266:\n        /* \"@openzeppelin/contracts/token/ERC1155/ERC1155.sol\":6218:6262  uint256 value = values.unsafeMemoryAccess(0) */\n      swap1\n      pop\n        /* \"@openzeppelin/contracts/token/ERC1155/ERC1155.sol\":6312:6314  to */\n      dup6\n        /* \"@openzeppelin/contracts/token/ERC1155/ERC1155.sol\":6281:6326  TransferSingle(operator, from, to, id, value) */\n      0xffffffffffffffffffffffffffffffffffffffff\n      and\n        /* \"@openzeppelin/contracts/token/ERC1155/ERC1155.sol\":6306:6310  from */\n      dup8\n        /* \"@openzeppelin/contracts/token/ERC1155/ERC1155.sol\":6281:6326  TransferSingle(operator, from, to, id, value) */\n      0xffffffffffffffffffffffffffffffffffffffff\n      and\n        /* \"@openzeppelin/contracts/token/ERC1155/ERC1155.sol\":6296:6304  operator */\n      dup5\n        /* \"@openzeppelin/contracts/token/ERC1155/ERC1155.sol\":6281:6326  TransferSingle(operator, from, to, id, value) */\n      0xffffffffffffffffffffffffffffffffffffffff\n      and\n      0xc3d58168c5ae7397731d063d5bbf3d657854427343f4c083240f7aacaa2d0f62\n        /* \"@openzeppelin/contracts/token/ERC1155/ERC1155.sol\":6316:6318  id */\n      dup6\n        /* \"@openzeppelin/contracts/token/ERC1155/ERC1155.sol\":6320:6325  value */\n      dup6\n        /* \"@openzeppelin/contracts/token/ERC1155/ERC1155.sol\":6281:6326  TransferSingle(operator, from, to, id, value) */\n      mload(0x40)\n      tag_267\n      swap3\n      swap2\n      swap1\n      tag_152\n      jump\t// in\n    tag_267:\n      mload(0x40)\n      dup1\n      swap2\n      sub\n      swap1\n      log4\n        /* \"@openzeppelin/contracts/token/ERC1155/ERC1155.sol\":6152:6337  {... */\n      pop\n      pop\n        /* \"@openzeppelin/contracts/token/ERC1155/ERC1155.sol\":6131:6419  if (ids.length == 1) {... */\n      jump(tag_268)\n    tag_264:\n        /* \"@openzeppelin/contracts/token/ERC1155/ERC1155.sol\":6392:6394  to */\n      dup4\n        /* \"@openzeppelin/contracts/token/ERC1155/ERC1155.sol\":6362:6408  TransferBatch(operator, from, to, ids, values) */\n      0xffffffffffffffffffffffffffffffffffffffff\n      and\n        /* \"@openzeppelin/contracts/token/ERC1155/ERC1155.sol\":6386:6390  from */\n      dup6\n        /* \"@openzeppelin/contracts/token/ERC1155/ERC1155.sol\":6362:6408  TransferBatch(operator, from, to, ids, values) */\n      0xffffffffffffffffffffffffffffffffffffffff\n      and\n        /* \"@openzeppelin/contracts/token/ERC1155/ERC1155.sol\":6376:6384  operator */\n      dup3\n        /* \"@openzeppelin/contracts/token/ERC1155/ERC1155.sol\":6362:6408  TransferBatch(operator, from, to, ids, values) */\n      0xffffffffffffffffffffffffffffffffffffffff\n      and\n      0x4a39dc06d4c0dbc64b70af90fd698a233a518aa5d07e595d983b8c0526c8f7fb\n        /* \"@openzeppelin/contracts/token/ERC1155/ERC1155.sol\":6396:6399  ids */\n      dup7\n        /* \"@openzeppelin/contracts/token/ERC1155/ERC1155.sol\":6401:6407  values */\n      dup7\n        /* \"@openzeppelin/contracts/token/ERC1155/ERC1155.sol\":6362:6408  TransferBatch(operator, from, to, ids, values) */\n      mload(0x40)\n      tag_269\n      swap3\n      swap2\n      swap1\n      tag_270\n      jump\t// in\n    tag_269:\n      mload(0x40)\n      dup1\n      swap2\n      sub\n      swap1\n      log4\n        /* \"@openzeppelin/contracts/token/ERC1155/ERC1155.sol\":6131:6419  if (ids.length == 1) {... */\n    tag_268:\n        /* \"@openzeppelin/contracts/token/ERC1155/ERC1155.sol\":5251:6425  {... */\n      pop\n        /* \"@openzeppelin/contracts/token/ERC1155/ERC1155.sol\":5144:6425  function _update(address from, address to, uint256[] memory ids, uint256[] memory values) internal virtual {... */\n      pop\n      pop\n      pop\n      pop\n      jump\t// out\n        /* \"@openzeppelin/contracts/token/ERC1155/ERC1155.sol\":13761:14735  function _doSafeTransferAcceptanceCheck(... */\n    tag_245:\n        /* \"@openzeppelin/contracts/token/ERC1155/ERC1155.sol\":13984:13985  0 */\n      0x00\n        /* \"@openzeppelin/contracts/token/ERC1155/ERC1155.sol\":13967:13969  to */\n      dup5\n        /* \"@openzeppelin/contracts/token/ERC1155/ERC1155.sol\":13967:13981  to.code.length */\n      0xffffffffffffffffffffffffffffffffffffffff\n      and\n      extcodesize\n        /* \"@openzeppelin/contracts/token/ERC1155/ERC1155.sol\":13967:13985  to.code.length > 0 */\n      gt\n        /* \"@openzeppelin/contracts/token/ERC1155/ERC1155.sol\":13963:14729  if (to.code.length > 0) {... */\n      iszero\n      tag_272\n      jumpi\n        /* \"@openzeppelin/contracts/token/ERC1155/ERC1155.sol\":14022:14024  to */\n      dup4\n        /* \"@openzeppelin/contracts/token/ERC1155/ERC1155.sol\":14005:14043  IERC1155Receiver(to).onERC1155Received */\n      0xffffffffffffffffffffffffffffffffffffffff\n      and\n      0xf23a6e61\n        /* \"@openzeppelin/contracts/token/ERC1155/ERC1155.sol\":14044:14052  operator */\n      dup8\n        /* \"@openzeppelin/contracts/token/ERC1155/ERC1155.sol\":14054:14058  from */\n      dup8\n        /* \"@openzeppelin/contracts/token/ERC1155/ERC1155.sol\":14060:14062  id */\n      dup7\n        /* \"@openzeppelin/contracts/token/ERC1155/ERC1155.sol\":14064:14069  value */\n      dup7\n        /* \"@openzeppelin/contracts/token/ERC1155/ERC1155.sol\":14071:14075  data */\n      dup7\n        /* \"@openzeppelin/contracts/token/ERC1155/ERC1155.sol\":14005:14076  IERC1155Receiver(to).onERC1155Received(operator, from, id, value, data) */\n      mload(0x40)\n      dup7\n      0xffffffff\n      and\n      0xe0\n      shl\n      dup2\n      mstore\n      0x04\n      add\n      tag_273\n      swap6\n      swap5\n      swap4\n      swap3\n      swap2\n      swap1\n      tag_274\n      jump\t// in\n    tag_273:\n      0x20\n      mload(0x40)\n      dup1\n      dup4\n      sub\n      dup2\n      0x00\n      dup8\n      gas\n      call\n      swap3\n      pop\n      pop\n      pop\n      dup1\n      iszero\n      tag_275\n      jumpi\n      pop\n      mload(0x40)\n      returndatasize\n      not(0x1f)\n      0x1f\n      dup3\n      add\n      and\n      dup3\n      add\n      dup1\n      0x40\n      mstore\n      pop\n      dup2\n      add\n      swap1\n      tag_276\n      swap2\n      swap1\n      tag_277\n      jump\t// in\n    tag_276:\n      0x01\n    tag_275:\n        /* \"@openzeppelin/contracts/token/ERC1155/ERC1155.sol\":14001:14719  try IERC1155Receiver(to).onERC1155Received(operator, from, id, value, data) returns (bytes4 response) {... */\n      tag_278\n      jumpi\n      returndatasize\n      dup1\n      0x00\n      dup2\n      eq\n      tag_283\n      jumpi\n      mload(0x40)\n      swap2\n      pop\n      and(add(returndatasize, 0x3f), not(0x1f))\n      dup3\n      add\n      0x40\n      mstore\n      returndatasize\n      dup3\n      mstore\n      returndatasize\n      0x00\n      0x20\n      dup5\n      add\n      returndatacopy\n      jump(tag_282)\n    tag_283:\n      0x60\n      swap2\n      pop\n    tag_282:\n      pop\n        /* \"@openzeppelin/contracts/token/ERC1155/ERC1155.sol\":14377:14378  0 */\n      0x00\n        /* \"@openzeppelin/contracts/token/ERC1155/ERC1155.sol\":14360:14366  reason */\n      dup2\n        /* \"@openzeppelin/contracts/token/ERC1155/ERC1155.sol\":14360:14373  reason.length */\n      mload\n        /* \"@openzeppelin/contracts/token/ERC1155/ERC1155.sol\":14360:14378  reason.length == 0 */\n      sub\n        /* \"@openzeppelin/contracts/token/ERC1155/ERC1155.sol\":14356:14705  if (reason.length == 0) {... */\n      tag_284\n      jumpi\n        /* \"@openzeppelin/contracts/token/ERC1155/ERC1155.sol\":14487:14489  to */\n      dup5\n        /* \"@openzeppelin/contracts/token/ERC1155/ERC1155.sol\":14464:14490  ERC1155InvalidReceiver(to) */\n      mload(0x40)\n      0x57f447ce00000000000000000000000000000000000000000000000000000000\n      dup2\n      mstore\n      0x04\n      add\n      tag_285\n      swap2\n      swap1\n      tag_70\n      jump\t// in\n    tag_285:\n      mload(0x40)\n      dup1\n      swap2\n      sub\n      swap1\n      revert\n        /* \"@openzeppelin/contracts/token/ERC1155/ERC1155.sol\":14356:14705  if (reason.length == 0) {... */\n    tag_284:\n        /* \"@openzeppelin/contracts/token/ERC1155/ERC1155.sol\":14657:14663  reason */\n      dup1\n        /* \"@openzeppelin/contracts/token/ERC1155/ERC1155.sol\":14651:14664  mload(reason) */\n      mload\n        /* \"@openzeppelin/contracts/token/ERC1155/ERC1155.sol\":14642:14648  reason */\n      dup2\n        /* \"@openzeppelin/contracts/token/ERC1155/ERC1155.sol\":14638:14640  32 */\n      0x20\n        /* \"@openzeppelin/contracts/token/ERC1155/ERC1155.sol\":14634:14649  add(32, reason) */\n      add\n        /* \"@openzeppelin/contracts/token/ERC1155/ERC1155.sol\":14627:14665  revert(add(32, reason), mload(reason)) */\n      revert\n        /* \"@openzeppelin/contracts/token/ERC1155/ERC1155.sol\":14001:14719  try IERC1155Receiver(to).onERC1155Received(operator, from, id, value, data) returns (bytes4 response) {... */\n    tag_278:\n        /* \"@openzeppelin/contracts/token/ERC1155/ERC1155.sol\":14137:14180  IERC1155Receiver.onERC1155Received.selector */\n      shl(0xe0, 0xf23a6e61)\n        /* \"@openzeppelin/contracts/token/ERC1155/ERC1155.sol\":14125:14180  response != IERC1155Receiver.onERC1155Received.selector */\n      not(0xffffffffffffffffffffffffffffffffffffffffffffffffffffffff)\n      and\n        /* \"@openzeppelin/contracts/token/ERC1155/ERC1155.sol\":14125:14133  response */\n      dup2\n        /* \"@openzeppelin/contracts/token/ERC1155/ERC1155.sol\":14125:14180  response != IERC1155Receiver.onERC1155Received.selector */\n      not(0xffffffffffffffffffffffffffffffffffffffffffffffffffffffff)\n      and\n      eq\n        /* \"@openzeppelin/contracts/token/ERC1155/ERC1155.sol\":14121:14295  if (response != IERC1155Receiver.onERC1155Received.selector) {... */\n      tag_288\n      jumpi\n        /* \"@openzeppelin/contracts/token/ERC1155/ERC1155.sol\":14273:14275  to */\n      dup5\n        /* \"@openzeppelin/contracts/token/ERC1155/ERC1155.sol\":14250:14276  ERC1155InvalidReceiver(to) */\n      mload(0x40)\n      0x57f447ce00000000000000000000000000000000000000000000000000000000\n      dup2\n      mstore\n      0x04\n      add\n      tag_289\n      swap2\n      swap1\n      tag_70\n      jump\t// in\n    tag_289:\n      mload(0x40)\n      dup1\n      swap2\n      sub\n      swap1\n      revert\n        /* \"@openzeppelin/contracts/token/ERC1155/ERC1155.sol\":14121:14295  if (response != IERC1155Receiver.onERC1155Received.selector) {... */\n    tag_288:\n        /* \"@openzeppelin/contracts/token/ERC1155/ERC1155.sol\":14077:14309  returns (bytes4 response) {... */\n      pop\n        /* \"@openzeppelin/contracts/token/ERC1155/ERC1155.sol\":13963:14729  if (to.code.length > 0) {... */\n    tag_272:\n        /* \"@openzeppelin/contracts/token/ERC1155/ERC1155.sol\":13761:14735  function _doSafeTransferAcceptanceCheck(... */\n      pop\n      pop\n      pop\n      pop\n      pop\n      pop\n      jump\t// out\n        /* \"@openzeppelin/contracts/token/ERC1155/ERC1155.sol\":14923:15964  function _doSafeBatchTransferAcceptanceCheck(... */\n    tag_248:\n        /* \"@openzeppelin/contracts/token/ERC1155/ERC1155.sol\":15171:15172  0 */\n      0x00\n        /* \"@openzeppelin/contracts/token/ERC1155/ERC1155.sol\":15154:15156  to */\n      dup5\n        /* \"@openzeppelin/contracts/token/ERC1155/ERC1155.sol\":15154:15168  to.code.length */\n      0xffffffffffffffffffffffffffffffffffffffff\n      and\n      extcodesize\n        /* \"@openzeppelin/contracts/token/ERC1155/ERC1155.sol\":15154:15172  to.code.length > 0 */\n      gt\n        /* \"@openzeppelin/contracts/token/ERC1155/ERC1155.sol\":15150:15958  if (to.code.length > 0) {... */\n      iszero\n      tag_291\n      jumpi\n        /* \"@openzeppelin/contracts/token/ERC1155/ERC1155.sol\":15209:15211  to */\n      dup4\n        /* \"@openzeppelin/contracts/token/ERC1155/ERC1155.sol\":15192:15235  IERC1155Receiver(to).onERC1155BatchReceived */\n      0xffffffffffffffffffffffffffffffffffffffff\n      and\n      0xbc197c81\n        /* \"@openzeppelin/contracts/token/ERC1155/ERC1155.sol\":15236:15244  operator */\n      dup8\n        /* \"@openzeppelin/contracts/token/ERC1155/ERC1155.sol\":15246:15250  from */\n      dup8\n        /* \"@openzeppelin/contracts/token/ERC1155/ERC1155.sol\":15252:15255  ids */\n      dup7\n        /* \"@openzeppelin/contracts/token/ERC1155/ERC1155.sol\":15257:15263  values */\n      dup7\n        /* \"@openzeppelin/contracts/token/ERC1155/ERC1155.sol\":15265:15269  data */\n      dup7\n        /* \"@openzeppelin/contracts/token/ERC1155/ERC1155.sol\":15192:15270  IERC1155Receiver(to).onERC1155BatchReceived(operator, from, ids, values, data) */\n      mload(0x40)\n      dup7\n      0xffffffff\n      and\n      0xe0\n      shl\n      dup2\n      mstore\n      0x04\n      add\n      tag_292\n      swap6\n      swap5\n      swap4\n      swap3\n      swap2\n      swap1\n      tag_293\n      jump\t// in\n    tag_292:\n      0x20\n      mload(0x40)\n      dup1\n      dup4\n      sub\n      dup2\n      0x00\n      dup8\n      gas\n      call\n      swap3\n      pop\n      pop\n      pop\n      dup1\n      iszero\n      tag_294\n      jumpi\n      pop\n      mload(0x40)\n      returndatasize\n      not(0x1f)\n      0x1f\n      dup3\n      add\n      and\n      dup3\n      add\n      dup1\n      0x40\n      mstore\n      pop\n      dup2\n      add\n      swap1\n      tag_295\n      swap2\n      swap1\n      tag_277\n      jump\t// in\n    tag_295:\n      0x01\n    tag_294:\n        /* \"@openzeppelin/contracts/token/ERC1155/ERC1155.sol\":15188:15948  try IERC1155Receiver(to).onERC1155BatchReceived(operator, from, ids, values, data) returns (... */\n      tag_296\n      jumpi\n      returndatasize\n      dup1\n      0x00\n      dup2\n      eq\n      tag_301\n      jumpi\n      mload(0x40)\n      swap2\n      pop\n      and(add(returndatasize, 0x3f), not(0x1f))\n      dup3\n      add\n      0x40\n      mstore\n      returndatasize\n      dup3\n      mstore\n      returndatasize\n      0x00\n      0x20\n      dup5\n      add\n      returndatacopy\n      jump(tag_300)\n    tag_301:\n      0x60\n      swap2\n      pop\n    tag_300:\n      pop\n        /* \"@openzeppelin/contracts/token/ERC1155/ERC1155.sol\":15606:15607  0 */\n      0x00\n        /* \"@openzeppelin/contracts/token/ERC1155/ERC1155.sol\":15589:15595  reason */\n      dup2\n        /* \"@openzeppelin/contracts/token/ERC1155/ERC1155.sol\":15589:15602  reason.length */\n      mload\n        /* \"@openzeppelin/contracts/token/ERC1155/ERC1155.sol\":15589:15607  reason.length == 0 */\n      sub\n        /* \"@openzeppelin/contracts/token/ERC1155/ERC1155.sol\":15585:15934  if (reason.length == 0) {... */\n      tag_302\n      jumpi\n        /* \"@openzeppelin/contracts/token/ERC1155/ERC1155.sol\":15716:15718  to */\n      dup5\n        /* \"@openzeppelin/contracts/token/ERC1155/ERC1155.sol\":15693:15719  ERC1155InvalidReceiver(to) */\n      mload(0x40)\n      0x57f447ce00000000000000000000000000000000000000000000000000000000\n      dup2\n      mstore\n      0x04\n      add\n      tag_303\n      swap2\n      swap1\n      tag_70\n      jump\t// in\n    tag_303:\n      mload(0x40)\n      dup1\n      swap2\n      sub\n      swap1\n      revert\n        /* \"@openzeppelin/contracts/token/ERC1155/ERC1155.sol\":15585:15934  if (reason.length == 0) {... */\n    tag_302:\n        /* \"@openzeppelin/contracts/token/ERC1155/ERC1155.sol\":15886:15892  reason */\n      dup1\n        /* \"@openzeppelin/contracts/token/ERC1155/ERC1155.sol\":15880:15893  mload(reason) */\n      mload\n        /* \"@openzeppelin/contracts/token/ERC1155/ERC1155.sol\":15871:15877  reason */\n      dup2\n        /* \"@openzeppelin/contracts/token/ERC1155/ERC1155.sol\":15867:15869  32 */\n      0x20\n        /* \"@openzeppelin/contracts/token/ERC1155/ERC1155.sol\":15863:15878  add(32, reason) */\n      add\n        /* \"@openzeppelin/contracts/token/ERC1155/ERC1155.sol\":15856:15894  revert(add(32, reason), mload(reason)) */\n      revert\n        /* \"@openzeppelin/contracts/token/ERC1155/ERC1155.sol\":15188:15948  try IERC1155Receiver(to).onERC1155BatchReceived(operator, from, ids, values, data) returns (... */\n    tag_296:\n        /* \"@openzeppelin/contracts/token/ERC1155/ERC1155.sol\":15361:15409  IERC1155Receiver.onERC1155BatchReceived.selector */\n      shl(0xe0, 0xbc197c81)\n        /* \"@openzeppelin/contracts/token/ERC1155/ERC1155.sol\":15349:15409  response != IERC1155Receiver.onERC1155BatchReceived.selector */\n      not(0xffffffffffffffffffffffffffffffffffffffffffffffffffffffff)\n      and\n        /* \"@openzeppelin/contracts/token/ERC1155/ERC1155.sol\":15349:15357  response */\n      dup2\n        /* \"@openzeppelin/contracts/token/ERC1155/ERC1155.sol\":15349:15409  response != IERC1155Receiver.onERC1155BatchReceived.selector */\n      not(0xffffffffffffffffffffffffffffffffffffffffffffffffffffffff)\n      and\n      eq\n        /* \"@openzeppelin/contracts/token/ERC1155/ERC1155.sol\":15345:15524  if (response != IERC1155Receiver.onERC1155BatchReceived.selector) {... */\n      tag_306\n      jumpi\n        /* \"@openzeppelin/contracts/token/ERC1155/ERC1155.sol\":15502:15504  to */\n      dup5\n        /* \"@openzeppelin/contracts/token/ERC1155/ERC1155.sol\":15479:15505  ERC1155InvalidReceiver(to) */\n      mload(0x40)\n      0x57f447ce00000000000000000000000000000000000000000000000000000000\n      dup2\n      mstore\n      0x04\n      add\n      tag_307\n      swap2\n      swap1\n      tag_70\n      jump\t// in\n    tag_307:\n      mload(0x40)\n      dup1\n      swap2\n      sub\n      swap1\n      revert\n        /* \"@openzeppelin/contracts/token/ERC1155/ERC1155.sol\":15345:15524  if (response != IERC1155Receiver.onERC1155BatchReceived.selector) {... */\n    tag_306:\n        /* \"@openzeppelin/contracts/token/ERC1155/ERC1155.sol\":15271:15538  returns (... */\n      pop\n        /* \"@openzeppelin/contracts/token/ERC1155/ERC1155.sol\":15150:15958  if (to.code.length > 0) {... */\n    tag_291:\n        /* \"@openzeppelin/contracts/token/ERC1155/ERC1155.sol\":14923:15964  function _doSafeBatchTransferAcceptanceCheck(... */\n      pop\n      pop\n      pop\n      pop\n      pop\n      pop\n      jump\t// out\n        /* \"#utility.yul\":7:82   */\n    tag_308:\n        /* \"#utility.yul\":40:46   */\n      0x00\n        /* \"#utility.yul\":73:75   */\n      0x40\n        /* \"#utility.yul\":67:76   */\n      mload\n        /* \"#utility.yul\":57:76   */\n      swap1\n      pop\n        /* \"#utility.yul\":7:82   */\n      swap1\n      jump\t// out\n        /* \"#utility.yul\":88:205   */\n    tag_309:\n        /* \"#utility.yul\":197:198   */\n      0x00\n        /* \"#utility.yul\":194:195   */\n      dup1\n        /* \"#utility.yul\":187:199   */\n      revert\n        /* \"#utility.yul\":211:328   */\n    tag_310:\n        /* \"#utility.yul\":320:321   */\n      0x00\n        /* \"#utility.yul\":317:318   */\n      dup1\n        /* \"#utility.yul\":310:322   */\n      revert\n        /* \"#utility.yul\":334:460   */\n    tag_311:\n        /* \"#utility.yul\":371:378   */\n      0x00\n        /* \"#utility.yul\":411:453   */\n      0xffffffffffffffffffffffffffffffffffffffff\n        /* \"#utility.yul\":404:409   */\n      dup3\n        /* \"#utility.yul\":400:454   */\n      and\n        /* \"#utility.yul\":389:454   */\n      swap1\n      pop\n        /* \"#utility.yul\":334:460   */\n      swap2\n      swap1\n      pop\n      jump\t// out\n        /* \"#utility.yul\":466:562   */\n    tag_312:\n        /* \"#utility.yul\":503:510   */\n      0x00\n        /* \"#utility.yul\":532:556   */\n      tag_371\n        /* \"#utility.yul\":550:555   */\n      dup3\n        /* \"#utility.yul\":532:556   */\n      tag_311\n      jump\t// in\n    tag_371:\n        /* \"#utility.yul\":521:556   */\n      swap1\n      pop\n        /* \"#utility.yul\":466:562   */\n      swap2\n      swap1\n      pop\n      jump\t// out\n        /* \"#utility.yul\":568:690   */\n    tag_313:\n        /* \"#utility.yul\":641:665   */\n      tag_373\n        /* \"#utility.yul\":659:664   */\n      dup2\n        /* \"#utility.yul\":641:665   */\n      tag_312\n      jump\t// in\n    tag_373:\n        /* \"#utility.yul\":634:639   */\n      dup2\n        /* \"#utility.yul\":631:666   */\n      eq\n        /* \"#utility.yul\":621:684   */\n      tag_374\n      jumpi\n        /* \"#utility.yul\":680:681   */\n      0x00\n        /* \"#utility.yul\":677:678   */\n      dup1\n        /* \"#utility.yul\":670:682   */\n      revert\n        /* \"#utility.yul\":621:684   */\n    tag_374:\n        /* \"#utility.yul\":568:690   */\n      pop\n      jump\t// out\n        /* \"#utility.yul\":696:835   */\n    tag_314:\n        /* \"#utility.yul\":742:747   */\n      0x00\n        /* \"#utility.yul\":780:786   */\n      dup2\n        /* \"#utility.yul\":767:787   */\n      calldataload\n        /* \"#utility.yul\":758:787   */\n      swap1\n      pop\n        /* \"#utility.yul\":796:829   */\n      tag_376\n        /* \"#utility.yul\":823:828   */\n      dup2\n        /* \"#utility.yul\":796:829   */\n      tag_313\n      jump\t// in\n    tag_376:\n        /* \"#utility.yul\":696:835   */\n      swap3\n      swap2\n      pop\n      pop\n      jump\t// out\n        /* \"#utility.yul\":841:918   */\n    tag_315:\n        /* \"#utility.yul\":878:885   */\n      0x00\n        /* \"#utility.yul\":907:912   */\n      dup2\n        /* \"#utility.yul\":896:912   */\n      swap1\n      pop\n        /* \"#utility.yul\":841:918   */\n      swap2\n      swap1\n      pop\n      jump\t// out\n        /* \"#utility.yul\":924:1046   */\n    tag_316:\n        /* \"#utility.yul\":997:1021   */\n      tag_379\n        /* \"#utility.yul\":1015:1020   */\n      dup2\n        /* \"#utility.yul\":997:1021   */\n      tag_315\n      jump\t// in\n    tag_379:\n        /* \"#utility.yul\":990:995   */\n      dup2\n        /* \"#utility.yul\":987:1022   */\n      eq\n        /* \"#utility.yul\":977:1040   */\n      tag_380\n      jumpi\n        /* \"#utility.yul\":1036:1037   */\n      0x00\n        /* \"#utility.yul\":1033:1034   */\n      dup1\n        /* \"#utility.yul\":1026:1038   */\n      revert\n        /* \"#utility.yul\":977:1040   */\n    tag_380:\n        /* \"#utility.yul\":924:1046   */\n      pop\n      jump\t// out\n        /* \"#utility.yul\":1052:1191   */\n    tag_317:\n        /* \"#utility.yul\":1098:1103   */\n      0x00\n        /* \"#utility.yul\":1136:1142   */\n      dup2\n        /* \"#utility.yul\":1123:1143   */\n      calldataload\n        /* \"#utility.yul\":1114:1143   */\n      swap1\n      pop\n        /* \"#utility.yul\":1152:1185   */\n      tag_382\n        /* \"#utility.yul\":1179:1184   */\n      dup2\n        /* \"#utility.yul\":1152:1185   */\n      tag_316\n      jump\t// in\n    tag_382:\n        /* \"#utility.yul\":1052:1191   */\n      swap3\n      swap2\n      pop\n      pop\n      jump\t// out\n        /* \"#utility.yul\":1197:1671   */\n    tag_23:\n        /* \"#utility.yul\":1265:1271   */\n      0x00\n        /* \"#utility.yul\":1273:1279   */\n      dup1\n        /* \"#utility.yul\":1322:1324   */\n      0x40\n        /* \"#utility.yul\":1310:1319   */\n      dup4\n        /* \"#utility.yul\":1301:1308   */\n      dup6\n        /* \"#utility.yul\":1297:1320   */\n      sub\n        /* \"#utility.yul\":1293:1325   */\n      slt\n        /* \"#utility.yul\":1290:1409   */\n      iszero\n      tag_384\n      jumpi\n        /* \"#utility.yul\":1328:1407   */\n      tag_385\n      tag_309\n      jump\t// in\n    tag_385:\n        /* \"#utility.yul\":1290:1409   */\n    tag_384:\n        /* \"#utility.yul\":1448:1449   */\n      0x00\n        /* \"#utility.yul\":1473:1526   */\n      tag_386\n        /* \"#utility.yul\":1518:1525   */\n      dup6\n        /* \"#utility.yul\":1509:1515   */\n      dup3\n        /* \"#utility.yul\":1498:1507   */\n      dup7\n        /* \"#utility.yul\":1494:1516   */\n      add\n        /* \"#utility.yul\":1473:1526   */\n      tag_314\n      jump\t// in\n    tag_386:\n        /* \"#utility.yul\":1463:1526   */\n      swap3\n      pop\n        /* \"#utility.yul\":1419:1536   */\n      pop\n        /* \"#utility.yul\":1575:1577   */\n      0x20\n        /* \"#utility.yul\":1601:1654   */\n      tag_387\n        /* \"#utility.yul\":1646:1653   */\n      dup6\n        /* \"#utility.yul\":1637:1643   */\n      dup3\n        /* \"#utility.yul\":1626:1635   */\n      dup7\n        /* \"#utility.yul\":1622:1644   */\n      add\n        /* \"#utility.yul\":1601:1654   */\n      tag_317\n      jump\t// in\n    tag_387:\n        /* \"#utility.yul\":1591:1654   */\n      swap2\n      pop\n        /* \"#utility.yul\":1546:1664   */\n      pop\n        /* \"#utility.yul\":1197:1671   */\n      swap3\n      pop\n      swap3\n      swap1\n      pop\n      jump\t// out\n        /* \"#utility.yul\":1677:1795   */\n    tag_318:\n        /* \"#utility.yul\":1764:1788   */\n      tag_389\n        /* \"#utility.yul\":1782:1787   */\n      dup2\n        /* \"#utility.yul\":1764:1788   */\n      tag_315\n      jump\t// in\n    tag_389:\n        /* \"#utility.yul\":1759:1762   */\n      dup3\n        /* \"#utility.yul\":1752:1789   */\n      mstore\n        /* \"#utility.yul\":1677:1795   */\n      pop\n      pop\n      jump\t// out\n        /* \"#utility.yul\":1801:2023   */\n    tag_26:\n        /* \"#utility.yul\":1894:1898   */\n      0x00\n        /* \"#utility.yul\":1932:1934   */\n      0x20\n        /* \"#utility.yul\":1921:1930   */\n      dup3\n        /* \"#utility.yul\":1917:1935   */\n      add\n        /* \"#utility.yul\":1909:1935   */\n      swap1\n      pop\n        /* \"#utility.yul\":1945:2016   */\n      tag_391\n        /* \"#utility.yul\":2013:2014   */\n      0x00\n        /* \"#utility.yul\":2002:2011   */\n      dup4\n        /* \"#utility.yul\":1998:2015   */\n      add\n        /* \"#utility.yul\":1989:1995   */\n      dup5\n        /* \"#utility.yul\":1945:2016   */\n      tag_318\n      jump\t// in\n    tag_391:\n        /* \"#utility.yul\":1801:2023   */\n      swap3\n      swap2\n      pop\n      pop\n      jump\t// out\n        /* \"#utility.yul\":2029:2178   */\n    tag_319:\n        /* \"#utility.yul\":2065:2072   */\n      0x00\n        /* \"#utility.yul\":2105:2171   */\n      0xffffffff00000000000000000000000000000000000000000000000000000000\n        /* \"#utility.yul\":2098:2103   */\n      dup3\n        /* \"#utility.yul\":2094:2172   */\n      and\n        /* \"#utility.yul\":2083:2172   */\n      swap1\n      pop\n        /* \"#utility.yul\":2029:2178   */\n      swap2\n      swap1\n      pop\n      jump\t// out\n        /* \"#utility.yul\":2184:2304   */\n    tag_320:\n        /* \"#utility.yul\":2256:2279   */\n      tag_394\n        /* \"#utility.yul\":2273:2278   */\n      dup2\n        /* \"#utility.yul\":2256:2279   */\n      tag_319\n      jump\t// in\n    tag_394:\n        /* \"#utility.yul\":2249:2254   */\n      dup2\n        /* \"#utility.yul\":2246:2280   */\n      eq\n        /* \"#utility.yul\":2236:2298   */\n      tag_395\n      jumpi\n        /* \"#utility.yul\":2294:2295   */\n      0x00\n        /* \"#utility.yul\":2291:2292   */\n      dup1\n        /* \"#utility.yul\":2284:2296   */\n      revert\n        /* \"#utility.yul\":2236:2298   */\n    tag_395:\n        /* \"#utility.yul\":2184:2304   */\n      pop\n      jump\t// out\n        /* \"#utility.yul\":2310:2447   */\n    tag_321:\n        /* \"#utility.yul\":2355:2360   */\n      0x00\n        /* \"#utility.yul\":2393:2399   */\n      dup2\n        /* \"#utility.yul\":2380:2400   */\n      calldataload\n        /* \"#utility.yul\":2371:2400   */\n      swap1\n      pop\n        /* \"#utility.yul\":2409:2441   */\n      tag_397\n        /* \"#utility.yul\":2435:2440   */\n      dup2\n        /* \"#utility.yul\":2409:2441   */\n      tag_320\n      jump\t// in\n    tag_397:\n        /* \"#utility.yul\":2310:2447   */\n      swap3\n      swap2\n      pop\n      pop\n      jump\t// out\n        /* \"#utility.yul\":2453:2780   */\n    tag_30:\n        /* \"#utility.yul\":2511:2517   */\n      0x00\n        /* \"#utility.yul\":2560:2562   */\n      0x20\n        /* \"#utility.yul\":2548:2557   */\n      dup3\n        /* \"#utility.yul\":2539:2546   */\n      dup5\n        /* \"#utility.yul\":2535:2558   */\n      sub\n        /* \"#utility.yul\":2531:2563   */\n      slt\n        /* \"#utility.yul\":2528:2647   */\n      iszero\n      tag_399\n      jumpi\n        /* \"#utility.yul\":2566:2645   */\n      tag_400\n      tag_309\n      jump\t// in\n    tag_400:\n        /* \"#utility.yul\":2528:2647   */\n    tag_399:\n        /* \"#utility.yul\":2686:2687   */\n      0x00\n        /* \"#utility.yul\":2711:2763   */\n      tag_401\n        /* \"#utility.yul\":2755:2762   */\n      dup5\n        /* \"#utility.yul\":2746:2752   */\n      dup3\n        /* \"#utility.yul\":2735:2744   */\n      dup6\n        /* \"#utility.yul\":2731:2753   */\n      add\n        /* \"#utility.yul\":2711:2763   */\n      tag_321\n      jump\t// in\n    tag_401:\n        /* \"#utility.yul\":2701:2763   */\n      swap2\n      pop\n        /* \"#utility.yul\":2657:2773   */\n      pop\n        /* \"#utility.yul\":2453:2780   */\n      swap3\n      swap2\n      pop\n      pop\n      jump\t// out\n        /* \"#utility.yul\":2786:2876   */\n    tag_322:\n        /* \"#utility.yul\":2820:2827   */\n      0x00\n        /* \"#utility.yul\":2863:2868   */\n      dup2\n        /* \"#utility.yul\":2856:2869   */\n      iszero\n        /* \"#utility.yul\":2849:2870   */\n      iszero\n        /* \"#utility.yul\":2838:2870   */\n      swap1\n      pop\n        /* \"#utility.yul\":2786:2876   */\n      swap2\n      swap1\n      pop\n      jump\t// out\n        /* \"#utility.yul\":2882:2991   */\n    tag_323:\n        /* \"#utility.yul\":2963:2984   */\n      tag_404\n        /* \"#utility.yul\":2978:2983   */\n      dup2\n        /* \"#utility.yul\":2963:2984   */\n      tag_322\n      jump\t// in\n    tag_404:\n        /* \"#utility.yul\":2958:2961   */\n      dup3\n        /* \"#utility.yul\":2951:2985   */\n      mstore\n        /* \"#utility.yul\":2882:2991   */\n      pop\n      pop\n      jump\t// out\n        /* \"#utility.yul\":2997:3207   */\n    tag_33:\n        /* \"#utility.yul\":3084:3088   */\n      0x00\n        /* \"#utility.yul\":3122:3124   */\n      0x20\n        /* \"#utility.yul\":3111:3120   */\n      dup3\n        /* \"#utility.yul\":3107:3125   */\n      add\n        /* \"#utility.yul\":3099:3125   */\n      swap1\n      pop\n        /* \"#utility.yul\":3135:3200   */\n      tag_406\n        /* \"#utility.yul\":3197:3198   */\n      0x00\n        /* \"#utility.yul\":3186:3195   */\n      dup4\n        /* \"#utility.yul\":3182:3199   */\n      add\n        /* \"#utility.yul\":3173:3179   */\n      dup5\n        /* \"#utility.yul\":3135:3200   */\n      tag_323\n      jump\t// in\n    tag_406:\n        /* \"#utility.yul\":2997:3207   */\n      swap3\n      swap2\n      pop\n      pop\n      jump\t// out\n        /* \"#utility.yul\":3213:3312   */\n    tag_324:\n        /* \"#utility.yul\":3265:3271   */\n      0x00\n        /* \"#utility.yul\":3299:3304   */\n      dup2\n        /* \"#utility.yul\":3293:3305   */\n      mload\n        /* \"#utility.yul\":3283:3305   */\n      swap1\n      pop\n        /* \"#utility.yul\":3213:3312   */\n      swap2\n      swap1\n      pop\n      jump\t// out\n        /* \"#utility.yul\":3318:3487   */\n    tag_325:\n        /* \"#utility.yul\":3402:3413   */\n      0x00\n        /* \"#utility.yul\":3436:3442   */\n      dup3\n        /* \"#utility.yul\":3431:3434   */\n      dup3\n        /* \"#utility.yul\":3424:3443   */\n      mstore\n        /* \"#utility.yul\":3476:3480   */\n      0x20\n        /* \"#utility.yul\":3471:3474   */\n      dup3\n        /* \"#utility.yul\":3467:3481   */\n      add\n        /* \"#utility.yul\":3452:3481   */\n      swap1\n      pop\n        /* \"#utility.yul\":3318:3487   */\n      swap3\n      swap2\n      pop\n      pop\n      jump\t// out\n        /* \"#utility.yul\":3493:3632   */\n    tag_326:\n        /* \"#utility.yul\":3582:3588   */\n      dup3\n        /* \"#utility.yul\":3577:3580   */\n      dup2\n        /* \"#utility.yul\":3572:3575   */\n      dup4\n        /* \"#utility.yul\":3566:3589   */\n      mcopy\n        /* \"#utility.yul\":3623:3624   */\n      0x00\n        /* \"#utility.yul\":3614:3620   */\n      dup4\n        /* \"#utility.yul\":3609:3612   */\n      dup4\n        /* \"#utility.yul\":3605:3621   */\n      add\n        /* \"#utility.yul\":3598:3625   */\n      mstore\n        /* \"#utility.yul\":3493:3632   */\n      pop\n      pop\n      pop\n      jump\t// out\n        /* \"#utility.yul\":3638:3740   */\n    tag_327:\n        /* \"#utility.yul\":3679:3685   */\n      0x00\n        /* \"#utility.yul\":3730:3732   */\n      0x1f\n        /* \"#utility.yul\":3726:3733   */\n      not\n        /* \"#utility.yul\":3721:3723   */\n      0x1f\n        /* \"#utility.yul\":3714:3719   */\n      dup4\n        /* \"#utility.yul\":3710:3724   */\n      add\n        /* \"#utility.yul\":3706:3734   */\n      and\n        /* \"#utility.yul\":3696:3734   */\n      swap1\n      pop\n        /* \"#utility.yul\":3638:3740   */\n      swap2\n      swap1\n      pop\n      jump\t// out\n        /* \"#utility.yul\":3746:4123   */\n    tag_328:\n        /* \"#utility.yul\":3834:3837   */\n      0x00\n        /* \"#utility.yul\":3862:3901   */\n      tag_412\n        /* \"#utility.yul\":3895:3900   */\n      dup3\n        /* \"#utility.yul\":3862:3901   */\n      tag_324\n      jump\t// in\n    tag_412:\n        /* \"#utility.yul\":3917:3988   */\n      tag_413\n        /* \"#utility.yul\":3981:3987   */\n      dup2\n        /* \"#utility.yul\":3976:3979   */\n      dup6\n        /* \"#utility.yul\":3917:3988   */\n      tag_325\n      jump\t// in\n    tag_413:\n        /* \"#utility.yul\":3910:3988   */\n      swap4\n      pop\n        /* \"#utility.yul\":3997:4062   */\n      tag_414\n        /* \"#utility.yul\":4055:4061   */\n      dup2\n        /* \"#utility.yul\":4050:4053   */\n      dup6\n        /* \"#utility.yul\":4043:4047   */\n      0x20\n        /* \"#utility.yul\":4036:4041   */\n      dup7\n        /* \"#utility.yul\":4032:4048   */\n      add\n        /* \"#utility.yul\":3997:4062   */\n      tag_326\n      jump\t// in\n    tag_414:\n        /* \"#utility.yul\":4087:4116   */\n      tag_415\n        /* \"#utility.yul\":4109:4115   */\n      dup2\n        /* \"#utility.yul\":4087:4116   */\n      tag_327\n      jump\t// in\n    tag_415:\n        /* \"#utility.yul\":4082:4085   */\n      dup5\n        /* \"#utility.yul\":4078:4117   */\n      add\n        /* \"#utility.yul\":4071:4117   */\n      swap2\n      pop\n        /* \"#utility.yul\":3838:4123   */\n      pop\n        /* \"#utility.yul\":3746:4123   */\n      swap3\n      swap2\n      pop\n      pop\n      jump\t// out\n        /* \"#utility.yul\":4129:4442   */\n    tag_38:\n        /* \"#utility.yul\":4242:4246   */\n      0x00\n        /* \"#utility.yul\":4280:4282   */\n      0x20\n        /* \"#utility.yul\":4269:4278   */\n      dup3\n        /* \"#utility.yul\":4265:4283   */\n      add\n        /* \"#utility.yul\":4257:4283   */\n      swap1\n      pop\n        /* \"#utility.yul\":4329:4338   */\n      dup2\n        /* \"#utility.yul\":4323:4327   */\n      dup2\n        /* \"#utility.yul\":4319:4339   */\n      sub\n        /* \"#utility.yul\":4315:4316   */\n      0x00\n        /* \"#utility.yul\":4304:4313   */\n      dup4\n        /* \"#utility.yul\":4300:4317   */\n      add\n        /* \"#utility.yul\":4293:4340   */\n      mstore\n        /* \"#utility.yul\":4357:4435   */\n      tag_417\n        /* \"#utility.yul\":4430:4434   */\n      dup2\n        /* \"#utility.yul\":4421:4427   */\n      dup5\n        /* \"#utility.yul\":4357:4435   */\n      tag_328\n      jump\t// in\n    tag_417:\n        /* \"#utility.yul\":4349:4435   */\n      swap1\n      pop\n        /* \"#utility.yul\":4129:4442   */\n      swap3\n      swap2\n      pop\n      pop\n      jump\t// out\n        /* \"#utility.yul\":4448:4777   */\n    tag_42:\n        /* \"#utility.yul\":4507:4513   */\n      0x00\n        /* \"#utility.yul\":4556:4558   */\n      0x20\n        /* \"#utility.yul\":4544:4553   */\n      dup3\n        /* \"#utility.yul\":4535:4542   */\n      dup5\n        /* \"#utility.yul\":4531:4554   */\n      sub\n        /* \"#utility.yul\":4527:4559   */\n      slt\n        /* \"#utility.yul\":4524:4643   */\n      iszero\n      tag_419\n      jumpi\n        /* \"#utility.yul\":4562:4641   */\n      tag_420\n      tag_309\n      jump\t// in\n    tag_420:\n        /* \"#utility.yul\":4524:4643   */\n    tag_419:\n        /* \"#utility.yul\":4682:4683   */\n      0x00\n        /* \"#utility.yul\":4707:4760   */\n      tag_421\n        /* \"#utility.yul\":4752:4759   */\n      dup5\n        /* \"#utility.yul\":4743:4749   */\n      dup3\n        /* \"#utility.yul\":4732:4741   */\n      dup6\n        /* \"#utility.yul\":4728:4750   */\n      add\n        /* \"#utility.yul\":4707:4760   */\n      tag_317\n      jump\t// in\n    tag_421:\n        /* \"#utility.yul\":4697:4760   */\n      swap2\n      pop\n        /* \"#utility.yul\":4653:4770   */\n      pop\n        /* \"#utility.yul\":4448:4777   */\n      swap3\n      swap2\n      pop\n      pop\n      jump\t// out\n        /* \"#utility.yul\":4783:4900   */\n    tag_329:\n        /* \"#utility.yul\":4892:4893   */\n      0x00\n        /* \"#utility.yul\":4889:4890   */\n      dup1\n        /* \"#utility.yul\":4882:4894   */\n      revert\n        /* \"#utility.yul\":4906:5086   */\n    tag_155:\n        /* \"#utility.yul\":4954:5031   */\n      0x4e487b7100000000000000000000000000000000000000000000000000000000\n        /* \"#utility.yul\":4951:4952   */\n      0x00\n        /* \"#utility.yul\":4944:5032   */\n      mstore\n        /* \"#utility.yul\":5051:5055   */\n      0x41\n        /* \"#utility.yul\":5048:5049   */\n      0x04\n        /* \"#utility.yul\":5041:5056   */\n      mstore\n        /* \"#utility.yul\":5075:5079   */\n      0x24\n        /* \"#utility.yul\":5072:5073   */\n      0x00\n        /* \"#utility.yul\":5065:5080   */\n      revert\n        /* \"#utility.yul\":5092:5373   */\n    tag_330:\n        /* \"#utility.yul\":5175:5202   */\n      tag_425\n        /* \"#utility.yul\":5197:5201   */\n      dup3\n        /* \"#utility.yul\":5175:5202   */\n      tag_327\n      jump\t// in\n    tag_425:\n        /* \"#utility.yul\":5167:5173   */\n      dup2\n        /* \"#utility.yul\":5163:5203   */\n      add\n        /* \"#utility.yul\":5305:5311   */\n      dup2\n        /* \"#utility.yul\":5293:5303   */\n      dup2\n        /* \"#utility.yul\":5290:5312   */\n      lt\n        /* \"#utility.yul\":5269:5287   */\n      0xffffffffffffffff\n        /* \"#utility.yul\":5257:5267   */\n      dup3\n        /* \"#utility.yul\":5254:5288   */\n      gt\n        /* \"#utility.yul\":5251:5313   */\n      or\n        /* \"#utility.yul\":5248:5336   */\n      iszero\n      tag_426\n      jumpi\n        /* \"#utility.yul\":5316:5334   */\n      tag_427\n      tag_155\n      jump\t// in\n    tag_427:\n        /* \"#utility.yul\":5248:5336   */\n    tag_426:\n        /* \"#utility.yul\":5356:5366   */\n      dup1\n        /* \"#utility.yul\":5352:5354   */\n      0x40\n        /* \"#utility.yul\":5345:5367   */\n      mstore\n        /* \"#utility.yul\":5135:5373   */\n      pop\n        /* \"#utility.yul\":5092:5373   */\n      pop\n      pop\n      jump\t// out\n        /* \"#utility.yul\":5379:5508   */\n    tag_331:\n        /* \"#utility.yul\":5413:5419   */\n      0x00\n        /* \"#utility.yul\":5440:5460   */\n      tag_429\n      tag_308\n      jump\t// in\n    tag_429:\n        /* \"#utility.yul\":5430:5460   */\n      swap1\n      pop\n        /* \"#utility.yul\":5469:5502   */\n      tag_430\n        /* \"#utility.yul\":5497:5501   */\n      dup3\n        /* \"#utility.yul\":5489:5495   */\n      dup3\n        /* \"#utility.yul\":5469:5502   */\n      tag_330\n      jump\t// in\n    tag_430:\n        /* \"#utility.yul\":5379:5508   */\n      swap2\n      swap1\n      pop\n      jump\t// out\n        /* \"#utility.yul\":5514:5825   */\n    tag_332:\n        /* \"#utility.yul\":5591:5595   */\n      0x00\n        /* \"#utility.yul\":5681:5699   */\n      0xffffffffffffffff\n        /* \"#utility.yul\":5673:5679   */\n      dup3\n        /* \"#utility.yul\":5670:5700   */\n      gt\n        /* \"#utility.yul\":5667:5723   */\n      iszero\n      tag_432\n      jumpi\n        /* \"#utility.yul\":5703:5721   */\n      tag_433\n      tag_155\n      jump\t// in\n    tag_433:\n        /* \"#utility.yul\":5667:5723   */\n    tag_432:\n        /* \"#utility.yul\":5753:5757   */\n      0x20\n        /* \"#utility.yul\":5745:5751   */\n      dup3\n        /* \"#utility.yul\":5741:5758   */\n      mul\n        /* \"#utility.yul\":5733:5758   */\n      swap1\n      pop\n        /* \"#utility.yul\":5813:5817   */\n      0x20\n        /* \"#utility.yul\":5807:5811   */\n      dup2\n        /* \"#utility.yul\":5803:5818   */\n      add\n        /* \"#utility.yul\":5795:5818   */\n      swap1\n      pop\n        /* \"#utility.yul\":5514:5825   */\n      swap2\n      swap1\n      pop\n      jump\t// out\n        /* \"#utility.yul\":5831:5948   */\n    tag_333:\n        /* \"#utility.yul\":5940:5941   */\n      0x00\n        /* \"#utility.yul\":5937:5938   */\n      dup1\n        /* \"#utility.yul\":5930:5942   */\n      revert\n        /* \"#utility.yul\":5971:6681   */\n    tag_334:\n        /* \"#utility.yul\":6067:6072   */\n      0x00\n        /* \"#utility.yul\":6092:6173   */\n      tag_436\n        /* \"#utility.yul\":6108:6172   */\n      tag_437\n        /* \"#utility.yul\":6165:6171   */\n      dup5\n        /* \"#utility.yul\":6108:6172   */\n      tag_332\n      jump\t// in\n    tag_437:\n        /* \"#utility.yul\":6092:6173   */\n      tag_331\n      jump\t// in\n    tag_436:\n        /* \"#utility.yul\":6083:6173   */\n      swap1\n      pop\n        /* \"#utility.yul\":6193:6198   */\n      dup1\n        /* \"#utility.yul\":6222:6228   */\n      dup4\n        /* \"#utility.yul\":6215:6220   */\n      dup3\n        /* \"#utility.yul\":6208:6229   */\n      mstore\n        /* \"#utility.yul\":6256:6260   */\n      0x20\n        /* \"#utility.yul\":6249:6254   */\n      dup3\n        /* \"#utility.yul\":6245:6261   */\n      add\n        /* \"#utility.yul\":6238:6261   */\n      swap1\n      pop\n        /* \"#utility.yul\":6309:6313   */\n      0x20\n        /* \"#utility.yul\":6301:6307   */\n      dup5\n        /* \"#utility.yul\":6297:6314   */\n      mul\n        /* \"#utility.yul\":6289:6295   */\n      dup4\n        /* \"#utility.yul\":6285:6315   */\n      add\n        /* \"#utility.yul\":6338:6341   */\n      dup6\n        /* \"#utility.yul\":6330:6336   */\n      dup2\n        /* \"#utility.yul\":6327:6342   */\n      gt\n        /* \"#utility.yul\":6324:6446   */\n      iszero\n      tag_438\n      jumpi\n        /* \"#utility.yul\":6357:6436   */\n      tag_439\n      tag_333\n      jump\t// in\n    tag_439:\n        /* \"#utility.yul\":6324:6446   */\n    tag_438:\n        /* \"#utility.yul\":6472:6478   */\n      dup4\n        /* \"#utility.yul\":6455:6675   */\n    tag_440:\n        /* \"#utility.yul\":6489:6495   */\n      dup2\n        /* \"#utility.yul\":6484:6487   */\n      dup2\n        /* \"#utility.yul\":6481:6496   */\n      lt\n        /* \"#utility.yul\":6455:6675   */\n      iszero\n      tag_442\n      jumpi\n        /* \"#utility.yul\":6564:6567   */\n      dup1\n        /* \"#utility.yul\":6593:6630   */\n      tag_443\n        /* \"#utility.yul\":6626:6629   */\n      dup9\n        /* \"#utility.yul\":6614:6624   */\n      dup3\n        /* \"#utility.yul\":6593:6630   */\n      tag_317\n      jump\t// in\n    tag_443:\n        /* \"#utility.yul\":6588:6591   */\n      dup5\n        /* \"#utility.yul\":6581:6631   */\n      mstore\n        /* \"#utility.yul\":6660:6664   */\n      0x20\n        /* \"#utility.yul\":6655:6658   */\n      dup5\n        /* \"#utility.yul\":6651:6665   */\n      add\n        /* \"#utility.yul\":6644:6665   */\n      swap4\n      pop\n        /* \"#utility.yul\":6531:6675   */\n      pop\n        /* \"#utility.yul\":6515:6519   */\n      0x20\n        /* \"#utility.yul\":6510:6513   */\n      dup2\n        /* \"#utility.yul\":6506:6520   */\n      add\n        /* \"#utility.yul\":6499:6520   */\n      swap1\n      pop\n        /* \"#utility.yul\":6455:6675   */\n      jump(tag_440)\n    tag_442:\n        /* \"#utility.yul\":6459:6480   */\n      pop\n        /* \"#utility.yul\":6073:6681   */\n      pop\n      pop\n        /* \"#utility.yul\":5971:6681   */\n      swap4\n      swap3\n      pop\n      pop\n      pop\n      jump\t// out\n        /* \"#utility.yul\":6704:7074   */\n    tag_335:\n        /* \"#utility.yul\":6775:6780   */\n      0x00\n        /* \"#utility.yul\":6824:6827   */\n      dup3\n        /* \"#utility.yul\":6817:6821   */\n      0x1f\n        /* \"#utility.yul\":6809:6815   */\n      dup4\n        /* \"#utility.yul\":6805:6822   */\n      add\n        /* \"#utility.yul\":6801:6828   */\n      slt\n        /* \"#utility.yul\":6791:6913   */\n      tag_445\n      jumpi\n        /* \"#utility.yul\":6832:6911   */\n      tag_446\n      tag_329\n      jump\t// in\n    tag_446:\n        /* \"#utility.yul\":6791:6913   */\n    tag_445:\n        /* \"#utility.yul\":6949:6955   */\n      dup2\n        /* \"#utility.yul\":6936:6956   */\n      calldataload\n        /* \"#utility.yul\":6974:7068   */\n      tag_447\n        /* \"#utility.yul\":7064:7067   */\n      dup5\n        /* \"#utility.yul\":7056:7062   */\n      dup3\n        /* \"#utility.yul\":7049:7053   */\n      0x20\n        /* \"#utility.yul\":7041:7047   */\n      dup7\n        /* \"#utility.yul\":7037:7054   */\n      add\n        /* \"#utility.yul\":6974:7068   */\n      tag_334\n      jump\t// in\n    tag_447:\n        /* \"#utility.yul\":6965:7068   */\n      swap2\n      pop\n        /* \"#utility.yul\":6781:7074   */\n      pop\n        /* \"#utility.yul\":6704:7074   */\n      swap3\n      swap2\n      pop\n      pop\n      jump\t// out\n        /* \"#utility.yul\":7080:7197   */\n    tag_336:\n        /* \"#utility.yul\":7189:7190   */\n      0x00\n        /* \"#utility.yul\":7186:7187   */\n      dup1\n        /* \"#utility.yul\":7179:7191   */\n      revert\n        /* \"#utility.yul\":7203:7510   */\n    tag_337:\n        /* \"#utility.yul\":7264:7268   */\n      0x00\n        /* \"#utility.yul\":7354:7372   */\n      0xffffffffffffffff\n        /* \"#utility.yul\":7346:7352   */\n      dup3\n        /* \"#utility.yul\":7343:7373   */\n      gt\n        /* \"#utility.yul\":7340:7396   */\n      iszero\n      tag_450\n      jumpi\n        /* \"#utility.yul\":7376:7394   */\n      tag_451\n      tag_155\n      jump\t// in\n    tag_451:\n        /* \"#utility.yul\":7340:7396   */\n    tag_450:\n        /* \"#utility.yul\":7414:7443   */\n      tag_452\n        /* \"#utility.yul\":7436:7442   */\n      dup3\n        /* \"#utility.yul\":7414:7443   */\n      tag_327\n      jump\t// in\n    tag_452:\n        /* \"#utility.yul\":7406:7443   */\n      swap1\n      pop\n        /* \"#utility.yul\":7498:7502   */\n      0x20\n        /* \"#utility.yul\":7492:7496   */\n      dup2\n        /* \"#utility.yul\":7488:7503   */\n      add\n        /* \"#utility.yul\":7480:7503   */\n      swap1\n      pop\n        /* \"#utility.yul\":7203:7510   */\n      swap2\n      swap1\n      pop\n      jump\t// out\n        /* \"#utility.yul\":7516:7664   */\n    tag_338:\n        /* \"#utility.yul\":7614:7620   */\n      dup3\n        /* \"#utility.yul\":7609:7612   */\n      dup2\n        /* \"#utility.yul\":7604:7607   */\n      dup4\n        /* \"#utility.yul\":7591:7621   */\n      calldatacopy\n        /* \"#utility.yul\":7655:7656   */\n      0x00\n        /* \"#utility.yul\":7646:7652   */\n      dup4\n        /* \"#utility.yul\":7641:7644   */\n      dup4\n        /* \"#utility.yul\":7637:7653   */\n      add\n        /* \"#utility.yul\":7630:7657   */\n      mstore\n        /* \"#utility.yul\":7516:7664   */\n      pop\n      pop\n      pop\n      jump\t// out\n        /* \"#utility.yul\":7670:8093   */\n    tag_339:\n        /* \"#utility.yul\":7747:7752   */\n      0x00\n        /* \"#utility.yul\":7772:7837   */\n      tag_455\n        /* \"#utility.yul\":7788:7836   */\n      tag_456\n        /* \"#utility.yul\":7829:7835   */\n      dup5\n        /* \"#utility.yul\":7788:7836   */\n      tag_337\n      jump\t// in\n    tag_456:\n        /* \"#utility.yul\":7772:7837   */\n      tag_331\n      jump\t// in\n    tag_455:\n        /* \"#utility.yul\":7763:7837   */\n      swap1\n      pop\n        /* \"#utility.yul\":7860:7866   */\n      dup3\n        /* \"#utility.yul\":7853:7858   */\n      dup2\n        /* \"#utility.yul\":7846:7867   */\n      mstore\n        /* \"#utility.yul\":7898:7902   */\n      0x20\n        /* \"#utility.yul\":7891:7896   */\n      dup2\n        /* \"#utility.yul\":7887:7903   */\n      add\n        /* \"#utility.yul\":7936:7939   */\n      dup5\n        /* \"#utility.yul\":7927:7933   */\n      dup5\n        /* \"#utility.yul\":7922:7925   */\n      dup5\n        /* \"#utility.yul\":7918:7934   */\n      add\n        /* \"#utility.yul\":7915:7940   */\n      gt\n        /* \"#utility.yul\":7912:8024   */\n      iszero\n      tag_457\n      jumpi\n        /* \"#utility.yul\":7943:8022   */\n      tag_458\n      tag_336\n      jump\t// in\n    tag_458:\n        /* \"#utility.yul\":7912:8024   */\n    tag_457:\n        /* \"#utility.yul\":8033:8087   */\n      tag_459\n        /* \"#utility.yul\":8080:8086   */\n      dup5\n        /* \"#utility.yul\":8075:8078   */\n      dup3\n        /* \"#utility.yul\":8070:8073   */\n      dup6\n        /* \"#utility.yul\":8033:8087   */\n      tag_338\n      jump\t// in\n    tag_459:\n        /* \"#utility.yul\":7753:8093   */\n      pop\n        /* \"#utility.yul\":7670:8093   */\n      swap4\n      swap3\n      pop\n      pop\n      pop\n      jump\t// out\n        /* \"#utility.yul\":8112:8450   */\n    tag_340:\n        /* \"#utility.yul\":8167:8172   */\n      0x00\n        /* \"#utility.yul\":8216:8219   */\n      dup3\n        /* \"#utility.yul\":8209:8213   */\n      0x1f\n        /* \"#utility.yul\":8201:8207   */\n      dup4\n        /* \"#utility.yul\":8197:8214   */\n      add\n        /* \"#utility.yul\":8193:8220   */\n      slt\n        /* \"#utility.yul\":8183:8305   */\n      tag_461\n      jumpi\n        /* \"#utility.yul\":8224:8303   */\n      tag_462\n      tag_329\n      jump\t// in\n    tag_462:\n        /* \"#utility.yul\":8183:8305   */\n    tag_461:\n        /* \"#utility.yul\":8341:8347   */\n      dup2\n        /* \"#utility.yul\":8328:8348   */\n      calldataload\n        /* \"#utility.yul\":8366:8444   */\n      tag_463\n        /* \"#utility.yul\":8440:8443   */\n      dup5\n        /* \"#utility.yul\":8432:8438   */\n      dup3\n        /* \"#utility.yul\":8425:8429   */\n      0x20\n        /* \"#utility.yul\":8417:8423   */\n      dup7\n        /* \"#utility.yul\":8413:8430   */\n      add\n        /* \"#utility.yul\":8366:8444   */\n      tag_339\n      jump\t// in\n    tag_463:\n        /* \"#utility.yul\":8357:8444   */\n      swap2\n      pop\n        /* \"#utility.yul\":8173:8450   */\n      pop\n        /* \"#utility.yul\":8112:8450   */\n      swap3\n      swap2\n      pop\n      pop\n      jump\t// out\n        /* \"#utility.yul\":8456:9965   */\n    tag_54:\n        /* \"#utility.yul\":8610:8616   */\n      0x00\n        /* \"#utility.yul\":8618:8624   */\n      dup1\n        /* \"#utility.yul\":8626:8632   */\n      0x00\n        /* \"#utility.yul\":8634:8640   */\n      dup1\n        /* \"#utility.yul\":8642:8648   */\n      0x00\n        /* \"#utility.yul\":8691:8694   */\n      0xa0\n        /* \"#utility.yul\":8679:8688   */\n      dup7\n        /* \"#utility.yul\":8670:8677   */\n      dup9\n        /* \"#utility.yul\":8666:8689   */\n      sub\n        /* \"#utility.yul\":8662:8695   */\n      slt\n        /* \"#utility.yul\":8659:8779   */\n      iszero\n      tag_465\n      jumpi\n        /* \"#utility.yul\":8698:8777   */\n      tag_466\n      tag_309\n      jump\t// in\n    tag_466:\n        /* \"#utility.yul\":8659:8779   */\n    tag_465:\n        /* \"#utility.yul\":8818:8819   */\n      0x00\n        /* \"#utility.yul\":8843:8896   */\n      tag_467\n        /* \"#utility.yul\":8888:8895   */\n      dup9\n        /* \"#utility.yul\":8879:8885   */\n      dup3\n        /* \"#utility.yul\":8868:8877   */\n      dup10\n        /* \"#utility.yul\":8864:8886   */\n      add\n        /* \"#utility.yul\":8843:8896   */\n      tag_314\n      jump\t// in\n    tag_467:\n        /* \"#utility.yul\":8833:8896   */\n      swap6\n      pop\n        /* \"#utility.yul\":8789:8906   */\n      pop\n        /* \"#utility.yul\":8945:8947   */\n      0x20\n        /* \"#utility.yul\":8971:9024   */\n      tag_468\n        /* \"#utility.yul\":9016:9023   */\n      dup9\n        /* \"#utility.yul\":9007:9013   */\n      dup3\n        /* \"#utility.yul\":8996:9005   */\n      dup10\n        /* \"#utility.yul\":8992:9014   */\n      add\n        /* \"#utility.yul\":8971:9024   */\n      tag_314\n      jump\t// in\n    tag_468:\n        /* \"#utility.yul\":8961:9024   */\n      swap5\n      pop\n        /* \"#utility.yul\":8916:9034   */\n      pop\n        /* \"#utility.yul\":9101:9103   */\n      0x40\n        /* \"#utility.yul\":9090:9099   */\n      dup7\n        /* \"#utility.yul\":9086:9104   */\n      add\n        /* \"#utility.yul\":9073:9105   */\n      calldataload\n        /* \"#utility.yul\":9132:9150   */\n      0xffffffffffffffff\n        /* \"#utility.yul\":9124:9130   */\n      dup2\n        /* \"#utility.yul\":9121:9151   */\n      gt\n        /* \"#utility.yul\":9118:9235   */\n      iszero\n      tag_469\n      jumpi\n        /* \"#utility.yul\":9154:9233   */\n      tag_470\n      tag_310\n      jump\t// in\n    tag_470:\n        /* \"#utility.yul\":9118:9235   */\n    tag_469:\n        /* \"#utility.yul\":9259:9337   */\n      tag_471\n        /* \"#utility.yul\":9329:9336   */\n      dup9\n        /* \"#utility.yul\":9320:9326   */\n      dup3\n        /* \"#utility.yul\":9309:9318   */\n      dup10\n        /* \"#utility.yul\":9305:9327   */\n      add\n        /* \"#utility.yul\":9259:9337   */\n      tag_335\n      jump\t// in\n    tag_471:\n        /* \"#utility.yul\":9249:9337   */\n      swap4\n      pop\n        /* \"#utility.yul\":9044:9347   */\n      pop\n        /* \"#utility.yul\":9414:9416   */\n      0x60\n        /* \"#utility.yul\":9403:9412   */\n      dup7\n        /* \"#utility.yul\":9399:9417   */\n      add\n        /* \"#utility.yul\":9386:9418   */\n      calldataload\n        /* \"#utility.yul\":9445:9463   */\n      0xffffffffffffffff\n        /* \"#utility.yul\":9437:9443   */\n      dup2\n        /* \"#utility.yul\":9434:9464   */\n      gt\n        /* \"#utility.yul\":9431:9548   */\n      iszero\n      tag_472\n      jumpi\n        /* \"#utility.yul\":9467:9546   */\n      tag_473\n      tag_310\n      jump\t// in\n    tag_473:\n        /* \"#utility.yul\":9431:9548   */\n    tag_472:\n        /* \"#utility.yul\":9572:9650   */\n      tag_474\n        /* \"#utility.yul\":9642:9649   */\n      dup9\n        /* \"#utility.yul\":9633:9639   */\n      dup3\n        /* \"#utility.yul\":9622:9631   */\n      dup10\n        /* \"#utility.yul\":9618:9640   */\n      add\n        /* \"#utility.yul\":9572:9650   */\n      tag_335\n      jump\t// in\n    tag_474:\n        /* \"#utility.yul\":9562:9650   */\n      swap3\n      pop\n        /* \"#utility.yul\":9357:9660   */\n      pop\n        /* \"#utility.yul\":9727:9730   */\n      0x80\n        /* \"#utility.yul\":9716:9725   */\n      dup7\n        /* \"#utility.yul\":9712:9731   */\n      add\n        /* \"#utility.yul\":9699:9732   */\n      calldataload\n        /* \"#utility.yul\":9759:9777   */\n      0xffffffffffffffff\n        /* \"#utility.yul\":9751:9757   */\n      dup2\n        /* \"#utility.yul\":9748:9778   */\n      gt\n        /* \"#utility.yul\":9745:9862   */\n      iszero\n      tag_475\n      jumpi\n        /* \"#utility.yul\":9781:9860   */\n      tag_476\n      tag_310\n      jump\t// in\n    tag_476:\n        /* \"#utility.yul\":9745:9862   */\n    tag_475:\n        /* \"#utility.yul\":9886:9948   */\n      tag_477\n        /* \"#utility.yul\":9940:9947   */\n      dup9\n        /* \"#utility.yul\":9931:9937   */\n      dup3\n        /* \"#utility.yul\":9920:9929   */\n      dup10\n        /* \"#utility.yul\":9916:9938   */\n      add\n        /* \"#utility.yul\":9886:9948   */\n      tag_340\n      jump\t// in\n    tag_477:\n        /* \"#utility.yul\":9876:9948   */\n      swap2\n      pop\n        /* \"#utility.yul\":9670:9958   */\n      pop\n        /* \"#utility.yul\":8456:9965   */\n      swap3\n      swap6\n      pop\n      swap3\n      swap6\n      swap1\n      swap4\n      pop\n      jump\t// out\n        /* \"#utility.yul\":9971:10282   */\n    tag_341:\n        /* \"#utility.yul\":10048:10052   */\n      0x00\n        /* \"#utility.yul\":10138:10156   */\n      0xffffffffffffffff\n        /* \"#utility.yul\":10130:10136   */\n      dup3\n        /* \"#utility.yul\":10127:10157   */\n      gt\n        /* \"#utility.yul\":10124:10180   */\n      iszero\n      tag_479\n      jumpi\n        /* \"#utility.yul\":10160:10178   */\n      tag_480\n      tag_155\n      jump\t// in\n    tag_480:\n        /* \"#utility.yul\":10124:10180   */\n    tag_479:\n        /* \"#utility.yul\":10210:10214   */\n      0x20\n        /* \"#utility.yul\":10202:10208   */\n      dup3\n        /* \"#utility.yul\":10198:10215   */\n      mul\n        /* \"#utility.yul\":10190:10215   */\n      swap1\n      pop\n        /* \"#utility.yul\":10270:10274   */\n      0x20\n        /* \"#utility.yul\":10264:10268   */\n      dup2\n        /* \"#utility.yul\":10260:10275   */\n      add\n        /* \"#utility.yul\":10252:10275   */\n      swap1\n      pop\n        /* \"#utility.yul\":9971:10282   */\n      swap2\n      swap1\n      pop\n      jump\t// out\n        /* \"#utility.yul\":10305:11015   */\n    tag_342:\n        /* \"#utility.yul\":10401:10406   */\n      0x00\n        /* \"#utility.yul\":10426:10507   */\n      tag_482\n        /* \"#utility.yul\":10442:10506   */\n      tag_483\n        /* \"#utility.yul\":10499:10505   */\n      dup5\n        /* \"#utility.yul\":10442:10506   */\n      tag_341\n      jump\t// in\n    tag_483:\n        /* \"#utility.yul\":10426:10507   */\n      tag_331\n      jump\t// in\n    tag_482:\n        /* \"#utility.yul\":10417:10507   */\n      swap1\n      pop\n        /* \"#utility.yul\":10527:10532   */\n      dup1\n        /* \"#utility.yul\":10556:10562   */\n      dup4\n        /* \"#utility.yul\":10549:10554   */\n      dup3\n        /* \"#utility.yul\":10542:10563   */\n      mstore\n        /* \"#utility.yul\":10590:10594   */\n      0x20\n        /* \"#utility.yul\":10583:10588   */\n      dup3\n        /* \"#utility.yul\":10579:10595   */\n      add\n        /* \"#utility.yul\":10572:10595   */\n      swap1\n      pop\n        /* \"#utility.yul\":10643:10647   */\n      0x20\n        /* \"#utility.yul\":10635:10641   */\n      dup5\n        /* \"#utility.yul\":10631:10648   */\n      mul\n        /* \"#utility.yul\":10623:10629   */\n      dup4\n        /* \"#utility.yul\":10619:10649   */\n      add\n        /* \"#utility.yul\":10672:10675   */\n      dup6\n        /* \"#utility.yul\":10664:10670   */\n      dup2\n        /* \"#utility.yul\":10661:10676   */\n      gt\n        /* \"#utility.yul\":10658:10780   */\n      iszero\n      tag_484\n      jumpi\n        /* \"#utility.yul\":10691:10770   */\n      tag_485\n      tag_333\n      jump\t// in\n    tag_485:\n        /* \"#utility.yul\":10658:10780   */\n    tag_484:\n        /* \"#utility.yul\":10806:10812   */\n      dup4\n        /* \"#utility.yul\":10789:11009   */\n    tag_486:\n        /* \"#utility.yul\":10823:10829   */\n      dup2\n        /* \"#utility.yul\":10818:10821   */\n      dup2\n        /* \"#utility.yul\":10815:10830   */\n      lt\n        /* \"#utility.yul\":10789:11009   */\n      iszero\n      tag_488\n      jumpi\n        /* \"#utility.yul\":10898:10901   */\n      dup1\n        /* \"#utility.yul\":10927:10964   */\n      tag_489\n        /* \"#utility.yul\":10960:10963   */\n      dup9\n        /* \"#utility.yul\":10948:10958   */\n      dup3\n        /* \"#utility.yul\":10927:10964   */\n      tag_314\n      jump\t// in\n    tag_489:\n        /* \"#utility.yul\":10922:10925   */\n      dup5\n        /* \"#utility.yul\":10915:10965   */\n      mstore\n        /* \"#utility.yul\":10994:10998   */\n      0x20\n        /* \"#utility.yul\":10989:10992   */\n      dup5\n        /* \"#utility.yul\":10985:10999   */\n      add\n        /* \"#utility.yul\":10978:10999   */\n      swap4\n      pop\n        /* \"#utility.yul\":10865:11009   */\n      pop\n        /* \"#utility.yul\":10849:10853   */\n      0x20\n        /* \"#utility.yul\":10844:10847   */\n      dup2\n        /* \"#utility.yul\":10840:10854   */\n      add\n        /* \"#utility.yul\":10833:10854   */\n      swap1\n      pop\n        /* \"#utility.yul\":10789:11009   */\n      jump(tag_486)\n    tag_488:\n        /* \"#utility.yul\":10793:10814   */\n      pop\n        /* \"#utility.yul\":10407:11015   */\n      pop\n      pop\n        /* \"#utility.yul\":10305:11015   */\n      swap4\n      swap3\n      pop\n      pop\n      pop\n      jump\t// out\n        /* \"#utility.yul\":11038:11408   */\n    tag_343:\n        /* \"#utility.yul\":11109:11114   */\n      0x00\n        /* \"#utility.yul\":11158:11161   */\n      dup3\n        /* \"#utility.yul\":11151:11155   */\n      0x1f\n        /* \"#utility.yul\":11143:11149   */\n      dup4\n        /* \"#utility.yul\":11139:11156   */\n      add\n        /* \"#utility.yul\":11135:11162   */\n      slt\n        /* \"#utility.yul\":11125:11247   */\n      tag_491\n      jumpi\n        /* \"#utility.yul\":11166:11245   */\n      tag_492\n      tag_329\n      jump\t// in\n    tag_492:\n        /* \"#utility.yul\":11125:11247   */\n    tag_491:\n        /* \"#utility.yul\":11283:11289   */\n      dup2\n        /* \"#utility.yul\":11270:11290   */\n      calldataload\n        /* \"#utility.yul\":11308:11402   */\n      tag_493\n        /* \"#utility.yul\":11398:11401   */\n      dup5\n        /* \"#utility.yul\":11390:11396   */\n      dup3\n        /* \"#utility.yul\":11383:11387   */\n      0x20\n        /* \"#utility.yul\":11375:11381   */\n      dup7\n        /* \"#utility.yul\":11371:11388   */\n      add\n        /* \"#utility.yul\":11308:11402   */\n      tag_342\n      jump\t// in\n    tag_493:\n        /* \"#utility.yul\":11299:11402   */\n      swap2\n      pop\n        /* \"#utility.yul\":11115:11408   */\n      pop\n        /* \"#utility.yul\":11038:11408   */\n      swap3\n      swap2\n      pop\n      pop\n      jump\t// out\n        /* \"#utility.yul\":11414:12308   */\n    tag_59:\n        /* \"#utility.yul\":11532:11538   */\n      0x00\n        /* \"#utility.yul\":11540:11546   */\n      dup1\n        /* \"#utility.yul\":11589:11591   */\n      0x40\n        /* \"#utility.yul\":11577:11586   */\n      dup4\n        /* \"#utility.yul\":11568:11575   */\n      dup6\n        /* \"#utility.yul\":11564:11587   */\n      sub\n        /* \"#utility.yul\":11560:11592   */\n      slt\n        /* \"#utility.yul\":11557:11676   */\n      iszero\n      tag_495\n      jumpi\n        /* \"#utility.yul\":11595:11674   */\n      tag_496\n      tag_309\n      jump\t// in\n    tag_496:\n        /* \"#utility.yul\":11557:11676   */\n    tag_495:\n        /* \"#utility.yul\":11743:11744   */\n      0x00\n        /* \"#utility.yul\":11732:11741   */\n      dup4\n        /* \"#utility.yul\":11728:11745   */\n      add\n        /* \"#utility.yul\":11715:11746   */\n      calldataload\n        /* \"#utility.yul\":11773:11791   */\n      0xffffffffffffffff\n        /* \"#utility.yul\":11765:11771   */\n      dup2\n        /* \"#utility.yul\":11762:11792   */\n      gt\n        /* \"#utility.yul\":11759:11876   */\n      iszero\n      tag_497\n      jumpi\n        /* \"#utility.yul\":11795:11874   */\n      tag_498\n      tag_310\n      jump\t// in\n    tag_498:\n        /* \"#utility.yul\":11759:11876   */\n    tag_497:\n        /* \"#utility.yul\":11900:11978   */\n      tag_499\n        /* \"#utility.yul\":11970:11977   */\n      dup6\n        /* \"#utility.yul\":11961:11967   */\n      dup3\n        /* \"#utility.yul\":11950:11959   */\n      dup7\n        /* \"#utility.yul\":11946:11968   */\n      add\n        /* \"#utility.yul\":11900:11978   */\n      tag_343\n      jump\t// in\n    tag_499:\n        /* \"#utility.yul\":11890:11978   */\n      swap3\n      pop\n        /* \"#utility.yul\":11686:11988   */\n      pop\n        /* \"#utility.yul\":12055:12057   */\n      0x20\n        /* \"#utility.yul\":12044:12053   */\n      dup4\n        /* \"#utility.yul\":12040:12058   */\n      add\n        /* \"#utility.yul\":12027:12059   */\n      calldataload\n        /* \"#utility.yul\":12086:12104   */\n      0xffffffffffffffff\n        /* \"#utility.yul\":12078:12084   */\n      dup2\n        /* \"#utility.yul\":12075:12105   */\n      gt\n        /* \"#utility.yul\":12072:12189   */\n      iszero\n      tag_500\n      jumpi\n        /* \"#utility.yul\":12108:12187   */\n      tag_501\n      tag_310\n      jump\t// in\n    tag_501:\n        /* \"#utility.yul\":12072:12189   */\n    tag_500:\n        /* \"#utility.yul\":12213:12291   */\n      tag_502\n        /* \"#utility.yul\":12283:12290   */\n      dup6\n        /* \"#utility.yul\":12274:12280   */\n      dup3\n        /* \"#utility.yul\":12263:12272   */\n      dup7\n        /* \"#utility.yul\":12259:12281   */\n      add\n        /* \"#utility.yul\":12213:12291   */\n      tag_335\n      jump\t// in\n    tag_502:\n        /* \"#utility.yul\":12203:12291   */\n      swap2\n      pop\n        /* \"#utility.yul\":11998:12301   */\n      pop\n        /* \"#utility.yul\":11414:12308   */\n      swap3\n      pop\n      swap3\n      swap1\n      pop\n      jump\t// out\n        /* \"#utility.yul\":12314:12428   */\n    tag_344:\n        /* \"#utility.yul\":12381:12387   */\n      0x00\n        /* \"#utility.yul\":12415:12420   */\n      dup2\n        /* \"#utility.yul\":12409:12421   */\n      mload\n        /* \"#utility.yul\":12399:12421   */\n      swap1\n      pop\n        /* \"#utility.yul\":12314:12428   */\n      swap2\n      swap1\n      pop\n      jump\t// out\n        /* \"#utility.yul\":12434:12618   */\n    tag_345:\n        /* \"#utility.yul\":12533:12544   */\n      0x00\n        /* \"#utility.yul\":12567:12573   */\n      dup3\n        /* \"#utility.yul\":12562:12565   */\n      dup3\n        /* \"#utility.yul\":12555:12574   */\n      mstore\n        /* \"#utility.yul\":12607:12611   */\n      0x20\n        /* \"#utility.yul\":12602:12605   */\n      dup3\n        /* \"#utility.yul\":12598:12612   */\n      add\n        /* \"#utility.yul\":12583:12612   */\n      swap1\n      pop\n        /* \"#utility.yul\":12434:12618   */\n      swap3\n      swap2\n      pop\n      pop\n      jump\t// out\n        /* \"#utility.yul\":12624:12756   */\n    tag_346:\n        /* \"#utility.yul\":12691:12695   */\n      0x00\n        /* \"#utility.yul\":12714:12717   */\n      dup2\n        /* \"#utility.yul\":12706:12717   */\n      swap1\n      pop\n        /* \"#utility.yul\":12744:12748   */\n      0x20\n        /* \"#utility.yul\":12739:12742   */\n      dup3\n        /* \"#utility.yul\":12735:12749   */\n      add\n        /* \"#utility.yul\":12727:12749   */\n      swap1\n      pop\n        /* \"#utility.yul\":12624:12756   */\n      swap2\n      swap1\n      pop\n      jump\t// out\n        /* \"#utility.yul\":12762:12870   */\n    tag_347:\n        /* \"#utility.yul\":12839:12863   */\n      tag_507\n        /* \"#utility.yul\":12857:12862   */\n      dup2\n        /* \"#utility.yul\":12839:12863   */\n      tag_315\n      jump\t// in\n    tag_507:\n        /* \"#utility.yul\":12834:12837   */\n      dup3\n        /* \"#utility.yul\":12827:12864   */\n      mstore\n        /* \"#utility.yul\":12762:12870   */\n      pop\n      pop\n      jump\t// out\n        /* \"#utility.yul\":12876:13055   */\n    tag_348:\n        /* \"#utility.yul\":12945:12955   */\n      0x00\n        /* \"#utility.yul\":12966:13012   */\n      tag_509\n        /* \"#utility.yul\":13008:13011   */\n      dup4\n        /* \"#utility.yul\":13000:13006   */\n      dup4\n        /* \"#utility.yul\":12966:13012   */\n      tag_347\n      jump\t// in\n    tag_509:\n        /* \"#utility.yul\":13044:13048   */\n      0x20\n        /* \"#utility.yul\":13039:13042   */\n      dup4\n        /* \"#utility.yul\":13035:13049   */\n      add\n        /* \"#utility.yul\":13021:13049   */\n      swap1\n      pop\n        /* \"#utility.yul\":12876:13055   */\n      swap3\n      swap2\n      pop\n      pop\n      jump\t// out\n        /* \"#utility.yul\":13061:13174   */\n    tag_349:\n        /* \"#utility.yul\":13131:13135   */\n      0x00\n        /* \"#utility.yul\":13163:13167   */\n      0x20\n        /* \"#utility.yul\":13158:13161   */\n      dup3\n        /* \"#utility.yul\":13154:13168   */\n      add\n        /* \"#utility.yul\":13146:13168   */\n      swap1\n      pop\n        /* \"#utility.yul\":13061:13174   */\n      swap2\n      swap1\n      pop\n      jump\t// out\n        /* \"#utility.yul\":13210:13942   */\n    tag_350:\n        /* \"#utility.yul\":13329:13332   */\n      0x00\n        /* \"#utility.yul\":13358:13412   */\n      tag_512\n        /* \"#utility.yul\":13406:13411   */\n      dup3\n        /* \"#utility.yul\":13358:13412   */\n      tag_344\n      jump\t// in\n    tag_512:\n        /* \"#utility.yul\":13428:13514   */\n      tag_513\n        /* \"#utility.yul\":13507:13513   */\n      dup2\n        /* \"#utility.yul\":13502:13505   */\n      dup6\n        /* \"#utility.yul\":13428:13514   */\n      tag_345\n      jump\t// in\n    tag_513:\n        /* \"#utility.yul\":13421:13514   */\n      swap4\n      pop\n        /* \"#utility.yul\":13538:13594   */\n      tag_514\n        /* \"#utility.yul\":13588:13593   */\n      dup4\n        /* \"#utility.yul\":13538:13594   */\n      tag_346\n      jump\t// in\n    tag_514:\n        /* \"#utility.yul\":13617:13624   */\n      dup1\n        /* \"#utility.yul\":13648:13649   */\n      0x00\n        /* \"#utility.yul\":13633:13917   */\n    tag_515:\n        /* \"#utility.yul\":13658:13664   */\n      dup4\n        /* \"#utility.yul\":13655:13656   */\n      dup2\n        /* \"#utility.yul\":13652:13665   */\n      lt\n        /* \"#utility.yul\":13633:13917   */\n      iszero\n      tag_517\n      jumpi\n        /* \"#utility.yul\":13734:13740   */\n      dup2\n        /* \"#utility.yul\":13728:13741   */\n      mload\n        /* \"#utility.yul\":13761:13824   */\n      tag_518\n        /* \"#utility.yul\":13820:13823   */\n      dup9\n        /* \"#utility.yul\":13805:13818   */\n      dup3\n        /* \"#utility.yul\":13761:13824   */\n      tag_348\n      jump\t// in\n    tag_518:\n        /* \"#utility.yul\":13754:13824   */\n      swap8\n      pop\n        /* \"#utility.yul\":13847:13907   */\n      tag_519\n        /* \"#utility.yul\":13900:13906   */\n      dup4\n        /* \"#utility.yul\":13847:13907   */\n      tag_349\n      jump\t// in\n    tag_519:\n        /* \"#utility.yul\":13837:13907   */\n      swap3\n      pop\n        /* \"#utility.yul\":13693:13917   */\n      pop\n        /* \"#utility.yul\":13680:13681   */\n      0x01\n        /* \"#utility.yul\":13677:13678   */\n      dup2\n        /* \"#utility.yul\":13673:13682   */\n      add\n        /* \"#utility.yul\":13668:13682   */\n      swap1\n      pop\n        /* \"#utility.yul\":13633:13917   */\n      jump(tag_515)\n    tag_517:\n        /* \"#utility.yul\":13637:13651   */\n      pop\n        /* \"#utility.yul\":13933:13936   */\n      dup6\n        /* \"#utility.yul\":13926:13936   */\n      swap4\n      pop\n        /* \"#utility.yul\":13334:13942   */\n      pop\n      pop\n      pop\n        /* \"#utility.yul\":13210:13942   */\n      swap3\n      swap2\n      pop\n      pop\n      jump\t// out\n        /* \"#utility.yul\":13948:14321   */\n    tag_62:\n        /* \"#utility.yul\":14091:14095   */\n      0x00\n        /* \"#utility.yul\":14129:14131   */\n      0x20\n        /* \"#utility.yul\":14118:14127   */\n      dup3\n        /* \"#utility.yul\":14114:14132   */\n      add\n        /* \"#utility.yul\":14106:14132   */\n      swap1\n      pop\n        /* \"#utility.yul\":14178:14187   */\n      dup2\n        /* \"#utility.yul\":14172:14176   */\n      dup2\n        /* \"#utility.yul\":14168:14188   */\n      sub\n        /* \"#utility.yul\":14164:14165   */\n      0x00\n        /* \"#utility.yul\":14153:14162   */\n      dup4\n        /* \"#utility.yul\":14149:14166   */\n      add\n        /* \"#utility.yul\":14142:14189   */\n      mstore\n        /* \"#utility.yul\":14206:14314   */\n      tag_521\n        /* \"#utility.yul\":14309:14313   */\n      dup2\n        /* \"#utility.yul\":14300:14306   */\n      dup5\n        /* \"#utility.yul\":14206:14314   */\n      tag_350\n      jump\t// in\n    tag_521:\n        /* \"#utility.yul\":14198:14314   */\n      swap1\n      pop\n        /* \"#utility.yul\":13948:14321   */\n      swap3\n      swap2\n      pop\n      pop\n      jump\t// out\n        /* \"#utility.yul\":14327:14445   */\n    tag_351:\n        /* \"#utility.yul\":14414:14438   */\n      tag_523\n        /* \"#utility.yul\":14432:14437   */\n      dup2\n        /* \"#utility.yul\":14414:14438   */\n      tag_312\n      jump\t// in\n    tag_523:\n        /* \"#utility.yul\":14409:14412   */\n      dup3\n        /* \"#utility.yul\":14402:14439   */\n      mstore\n        /* \"#utility.yul\":14327:14445   */\n      pop\n      pop\n      jump\t// out\n        /* \"#utility.yul\":14451:14673   */\n    tag_70:\n        /* \"#utility.yul\":14544:14548   */\n      0x00\n        /* \"#utility.yul\":14582:14584   */\n      0x20\n        /* \"#utility.yul\":14571:14580   */\n      dup3\n        /* \"#utility.yul\":14567:14585   */\n      add\n        /* \"#utility.yul\":14559:14585   */\n      swap1\n      pop\n        /* \"#utility.yul\":14595:14666   */\n      tag_525\n        /* \"#utility.yul\":14663:14664   */\n      0x00\n        /* \"#utility.yul\":14652:14661   */\n      dup4\n        /* \"#utility.yul\":14648:14665   */\n      add\n        /* \"#utility.yul\":14639:14645   */\n      dup5\n        /* \"#utility.yul\":14595:14666   */\n      tag_351\n      jump\t// in\n    tag_525:\n        /* \"#utility.yul\":14451:14673   */\n      swap3\n      swap2\n      pop\n      pop\n      jump\t// out\n        /* \"#utility.yul\":14679:14795   */\n    tag_352:\n        /* \"#utility.yul\":14749:14770   */\n      tag_527\n        /* \"#utility.yul\":14764:14769   */\n      dup2\n        /* \"#utility.yul\":14749:14770   */\n      tag_322\n      jump\t// in\n    tag_527:\n        /* \"#utility.yul\":14742:14747   */\n      dup2\n        /* \"#utility.yul\":14739:14771   */\n      eq\n        /* \"#utility.yul\":14729:14789   */\n      tag_528\n      jumpi\n        /* \"#utility.yul\":14785:14786   */\n      0x00\n        /* \"#utility.yul\":14782:14783   */\n      dup1\n        /* \"#utility.yul\":14775:14787   */\n      revert\n        /* \"#utility.yul\":14729:14789   */\n    tag_528:\n        /* \"#utility.yul\":14679:14795   */\n      pop\n      jump\t// out\n        /* \"#utility.yul\":14801:14934   */\n    tag_353:\n        /* \"#utility.yul\":14844:14849   */\n      0x00\n        /* \"#utility.yul\":14882:14888   */\n      dup2\n        /* \"#utility.yul\":14869:14889   */\n      calldataload\n        /* \"#utility.yul\":14860:14889   */\n      swap1\n      pop\n        /* \"#utility.yul\":14898:14928   */\n      tag_530\n        /* \"#utility.yul\":14922:14927   */\n      dup2\n        /* \"#utility.yul\":14898:14928   */\n      tag_352\n      jump\t// in\n    tag_530:\n        /* \"#utility.yul\":14801:14934   */\n      swap3\n      swap2\n      pop\n      pop\n      jump\t// out\n        /* \"#utility.yul\":14940:15408   */\n    tag_78:\n        /* \"#utility.yul\":15005:15011   */\n      0x00\n        /* \"#utility.yul\":15013:15019   */\n      dup1\n        /* \"#utility.yul\":15062:15064   */\n      0x40\n        /* \"#utility.yul\":15050:15059   */\n      dup4\n        /* \"#utility.yul\":15041:15048   */\n      dup6\n        /* \"#utility.yul\":15037:15060   */\n      sub\n        /* \"#utility.yul\":15033:15065   */\n      slt\n        /* \"#utility.yul\":15030:15149   */\n      iszero\n      tag_532\n      jumpi\n        /* \"#utility.yul\":15068:15147   */\n      tag_533\n      tag_309\n      jump\t// in\n    tag_533:\n        /* \"#utility.yul\":15030:15149   */\n    tag_532:\n        /* \"#utility.yul\":15188:15189   */\n      0x00\n        /* \"#utility.yul\":15213:15266   */\n      tag_534\n        /* \"#utility.yul\":15258:15265   */\n      dup6\n        /* \"#utility.yul\":15249:15255   */\n      dup3\n        /* \"#utility.yul\":15238:15247   */\n      dup7\n        /* \"#utility.yul\":15234:15256   */\n      add\n        /* \"#utility.yul\":15213:15266   */\n      tag_314\n      jump\t// in\n    tag_534:\n        /* \"#utility.yul\":15203:15266   */\n      swap3\n      pop\n        /* \"#utility.yul\":15159:15276   */\n      pop\n        /* \"#utility.yul\":15315:15317   */\n      0x20\n        /* \"#utility.yul\":15341:15391   */\n      tag_535\n        /* \"#utility.yul\":15383:15390   */\n      dup6\n        /* \"#utility.yul\":15374:15380   */\n      dup3\n        /* \"#utility.yul\":15363:15372   */\n      dup7\n        /* \"#utility.yul\":15359:15381   */\n      add\n        /* \"#utility.yul\":15341:15391   */\n      tag_353\n      jump\t// in\n    tag_535:\n        /* \"#utility.yul\":15331:15391   */\n      swap2\n      pop\n        /* \"#utility.yul\":15286:15401   */\n      pop\n        /* \"#utility.yul\":14940:15408   */\n      swap3\n      pop\n      swap3\n      swap1\n      pop\n      jump\t// out\n        /* \"#utility.yul\":15414:15888   */\n    tag_83:\n        /* \"#utility.yul\":15482:15488   */\n      0x00\n        /* \"#utility.yul\":15490:15496   */\n      dup1\n        /* \"#utility.yul\":15539:15541   */\n      0x40\n        /* \"#utility.yul\":15527:15536   */\n      dup4\n        /* \"#utility.yul\":15518:15525   */\n      dup6\n        /* \"#utility.yul\":15514:15537   */\n      sub\n        /* \"#utility.yul\":15510:15542   */\n      slt\n        /* \"#utility.yul\":15507:15626   */\n      iszero\n      tag_537\n      jumpi\n        /* \"#utility.yul\":15545:15624   */\n      tag_538\n      tag_309\n      jump\t// in\n    tag_538:\n        /* \"#utility.yul\":15507:15626   */\n    tag_537:\n        /* \"#utility.yul\":15665:15666   */\n      0x00\n        /* \"#utility.yul\":15690:15743   */\n      tag_539\n        /* \"#utility.yul\":15735:15742   */\n      dup6\n        /* \"#utility.yul\":15726:15732   */\n      dup3\n        /* \"#utility.yul\":15715:15724   */\n      dup7\n        /* \"#utility.yul\":15711:15733   */\n      add\n        /* \"#utility.yul\":15690:15743   */\n      tag_314\n      jump\t// in\n    tag_539:\n        /* \"#utility.yul\":15680:15743   */\n      swap3\n      pop\n        /* \"#utility.yul\":15636:15753   */\n      pop\n        /* \"#utility.yul\":15792:15794   */\n      0x20\n        /* \"#utility.yul\":15818:15871   */\n      tag_540\n        /* \"#utility.yul\":15863:15870   */\n      dup6\n        /* \"#utility.yul\":15854:15860   */\n      dup3\n        /* \"#utility.yul\":15843:15852   */\n      dup7\n        /* \"#utility.yul\":15839:15861   */\n      add\n        /* \"#utility.yul\":15818:15871   */\n      tag_314\n      jump\t// in\n    tag_540:\n        /* \"#utility.yul\":15808:15871   */\n      swap2\n      pop\n        /* \"#utility.yul\":15763:15881   */\n      pop\n        /* \"#utility.yul\":15414:15888   */\n      swap3\n      pop\n      swap3\n      swap1\n      pop\n      jump\t// out\n        /* \"#utility.yul\":15894:16983   */\n    tag_89:\n        /* \"#utility.yul\":15998:16004   */\n      0x00\n        /* \"#utility.yul\":16006:16012   */\n      dup1\n        /* \"#utility.yul\":16014:16020   */\n      0x00\n        /* \"#utility.yul\":16022:16028   */\n      dup1\n        /* \"#utility.yul\":16030:16036   */\n      0x00\n        /* \"#utility.yul\":16079:16082   */\n      0xa0\n        /* \"#utility.yul\":16067:16076   */\n      dup7\n        /* \"#utility.yul\":16058:16065   */\n      dup9\n        /* \"#utility.yul\":16054:16077   */\n      sub\n        /* \"#utility.yul\":16050:16083   */\n      slt\n        /* \"#utility.yul\":16047:16167   */\n      iszero\n      tag_542\n      jumpi\n        /* \"#utility.yul\":16086:16165   */\n      tag_543\n      tag_309\n      jump\t// in\n    tag_543:\n        /* \"#utility.yul\":16047:16167   */\n    tag_542:\n        /* \"#utility.yul\":16206:16207   */\n      0x00\n        /* \"#utility.yul\":16231:16284   */\n      tag_544\n        /* \"#utility.yul\":16276:16283   */\n      dup9\n        /* \"#utility.yul\":16267:16273   */\n      dup3\n        /* \"#utility.yul\":16256:16265   */\n      dup10\n        /* \"#utility.yul\":16252:16274   */\n      add\n        /* \"#utility.yul\":16231:16284   */\n      tag_314\n      jump\t// in\n    tag_544:\n        /* \"#utility.yul\":16221:16284   */\n      swap6\n      pop\n        /* \"#utility.yul\":16177:16294   */\n      pop\n        /* \"#utility.yul\":16333:16335   */\n      0x20\n        /* \"#utility.yul\":16359:16412   */\n      tag_545\n        /* \"#utility.yul\":16404:16411   */\n      dup9\n        /* \"#utility.yul\":16395:16401   */\n      dup3\n        /* \"#utility.yul\":16384:16393   */\n      dup10\n        /* \"#utility.yul\":16380:16402   */\n      add\n        /* \"#utility.yul\":16359:16412   */\n      tag_314\n      jump\t// in\n    tag_545:\n        /* \"#utility.yul\":16349:16412   */\n      swap5\n      pop\n        /* \"#utility.yul\":16304:16422   */\n      pop\n        /* \"#utility.yul\":16461:16463   */\n      0x40\n        /* \"#utility.yul\":16487:16540   */\n      tag_546\n        /* \"#utility.yul\":16532:16539   */\n      dup9\n        /* \"#utility.yul\":16523:16529   */\n      dup3\n        /* \"#utility.yul\":16512:16521   */\n      dup10\n        /* \"#utility.yul\":16508:16530   */\n      add\n        /* \"#utility.yul\":16487:16540   */\n      tag_317\n      jump\t// in\n    tag_546:\n        /* \"#utility.yul\":16477:16540   */\n      swap4\n      pop\n        /* \"#utility.yul\":16432:16550   */\n      pop\n        /* \"#utility.yul\":16589:16591   */\n      0x60\n        /* \"#utility.yul\":16615:16668   */\n      tag_547\n        /* \"#utility.yul\":16660:16667   */\n      dup9\n        /* \"#utility.yul\":16651:16657   */\n      dup3\n        /* \"#utility.yul\":16640:16649   */\n      dup10\n        /* \"#utility.yul\":16636:16658   */\n      add\n        /* \"#utility.yul\":16615:16668   */\n      tag_317\n      jump\t// in\n    tag_547:\n        /* \"#utility.yul\":16605:16668   */\n      swap3\n      pop\n        /* \"#utility.yul\":16560:16678   */\n      pop\n        /* \"#utility.yul\":16745:16748   */\n      0x80\n        /* \"#utility.yul\":16734:16743   */\n      dup7\n        /* \"#utility.yul\":16730:16749   */\n      add\n        /* \"#utility.yul\":16717:16750   */\n      calldataload\n        /* \"#utility.yul\":16777:16795   */\n      0xffffffffffffffff\n        /* \"#utility.yul\":16769:16775   */\n      dup2\n        /* \"#utility.yul\":16766:16796   */\n      gt\n        /* \"#utility.yul\":16763:16880   */\n      iszero\n      tag_548\n      jumpi\n        /* \"#utility.yul\":16799:16878   */\n      tag_549\n      tag_310\n      jump\t// in\n    tag_549:\n        /* \"#utility.yul\":16763:16880   */\n    tag_548:\n        /* \"#utility.yul\":16904:16966   */\n      tag_550\n        /* \"#utility.yul\":16958:16965   */\n      dup9\n        /* \"#utility.yul\":16949:16955   */\n      dup3\n        /* \"#utility.yul\":16938:16947   */\n      dup10\n        /* \"#utility.yul\":16934:16956   */\n      add\n        /* \"#utility.yul\":16904:16966   */\n      tag_340\n      jump\t// in\n    tag_550:\n        /* \"#utility.yul\":16894:16966   */\n      swap2\n      pop\n        /* \"#utility.yul\":16688:16976   */\n      pop\n        /* \"#utility.yul\":15894:16983   */\n      swap3\n      swap6\n      pop\n      swap3\n      swap6\n      swap1\n      swap4\n      pop\n      jump\t// out\n        /* \"#utility.yul\":16989:17318   */\n    tag_94:\n        /* \"#utility.yul\":17048:17054   */\n      0x00\n        /* \"#utility.yul\":17097:17099   */\n      0x20\n        /* \"#utility.yul\":17085:17094   */\n      dup3\n        /* \"#utility.yul\":17076:17083   */\n      dup5\n        /* \"#utility.yul\":17072:17095   */\n      sub\n        /* \"#utility.yul\":17068:17100   */\n      slt\n        /* \"#utility.yul\":17065:17184   */\n      iszero\n      tag_552\n      jumpi\n        /* \"#utility.yul\":17103:17182   */\n      tag_553\n      tag_309\n      jump\t// in\n    tag_553:\n        /* \"#utility.yul\":17065:17184   */\n    tag_552:\n        /* \"#utility.yul\":17223:17224   */\n      0x00\n        /* \"#utility.yul\":17248:17301   */\n      tag_554\n        /* \"#utility.yul\":17293:17300   */\n      dup5\n        /* \"#utility.yul\":17284:17290   */\n      dup3\n        /* \"#utility.yul\":17273:17282   */\n      dup6\n        /* \"#utility.yul\":17269:17291   */\n      add\n        /* \"#utility.yul\":17248:17301   */\n      tag_314\n      jump\t// in\n    tag_554:\n        /* \"#utility.yul\":17238:17301   */\n      swap2\n      pop\n        /* \"#utility.yul\":17194:17311   */\n      pop\n        /* \"#utility.yul\":16989:17318   */\n      swap3\n      swap2\n      pop\n      pop\n      jump\t// out\n        /* \"#utility.yul\":17324:17504   */\n    tag_354:\n        /* \"#utility.yul\":17372:17449   */\n      0x4e487b7100000000000000000000000000000000000000000000000000000000\n        /* \"#utility.yul\":17369:17370   */\n      0x00\n        /* \"#utility.yul\":17362:17450   */\n      mstore\n        /* \"#utility.yul\":17469:17473   */\n      0x22\n        /* \"#utility.yul\":17466:17467   */\n      0x04\n        /* \"#utility.yul\":17459:17474   */\n      mstore\n        /* \"#utility.yul\":17493:17497   */\n      0x24\n        /* \"#utility.yul\":17490:17491   */\n      0x00\n        /* \"#utility.yul\":17483:17498   */\n      revert\n        /* \"#utility.yul\":17510:17830   */\n    tag_103:\n        /* \"#utility.yul\":17554:17560   */\n      0x00\n        /* \"#utility.yul\":17591:17592   */\n      0x02\n        /* \"#utility.yul\":17585:17589   */\n      dup3\n        /* \"#utility.yul\":17581:17593   */\n      div\n        /* \"#utility.yul\":17571:17593   */\n      swap1\n      pop\n        /* \"#utility.yul\":17638:17639   */\n      0x01\n        /* \"#utility.yul\":17632:17636   */\n      dup3\n        /* \"#utility.yul\":17628:17640   */\n      and\n        /* \"#utility.yul\":17659:17677   */\n      dup1\n        /* \"#utility.yul\":17649:17730   */\n      tag_557\n      jumpi\n        /* \"#utility.yul\":17715:17719   */\n      0x7f\n        /* \"#utility.yul\":17707:17713   */\n      dup3\n        /* \"#utility.yul\":17703:17720   */\n      and\n        /* \"#utility.yul\":17693:17720   */\n      swap2\n      pop\n        /* \"#utility.yul\":17649:17730   */\n    tag_557:\n        /* \"#utility.yul\":17777:17779   */\n      0x20\n        /* \"#utility.yul\":17769:17775   */\n      dup3\n        /* \"#utility.yul\":17766:17780   */\n      lt\n        /* \"#utility.yul\":17746:17764   */\n      dup2\n        /* \"#utility.yul\":17743:17781   */\n      sub\n        /* \"#utility.yul\":17740:17824   */\n      tag_558\n      jumpi\n        /* \"#utility.yul\":17796:17814   */\n      tag_559\n      tag_354\n      jump\t// in\n    tag_559:\n        /* \"#utility.yul\":17740:17824   */\n    tag_558:\n        /* \"#utility.yul\":17561:17830   */\n      pop\n        /* \"#utility.yul\":17510:17830   */\n      swap2\n      swap1\n      pop\n      jump\t// out\n        /* \"#utility.yul\":17836:18016   */\n    tag_355:\n        /* \"#utility.yul\":17884:17961   */\n      0x4e487b7100000000000000000000000000000000000000000000000000000000\n        /* \"#utility.yul\":17881:17882   */\n      0x00\n        /* \"#utility.yul\":17874:17962   */\n      mstore\n        /* \"#utility.yul\":17981:17985   */\n      0x11\n        /* \"#utility.yul\":17978:17979   */\n      0x04\n        /* \"#utility.yul\":17971:17986   */\n      mstore\n        /* \"#utility.yul\":18005:18009   */\n      0x24\n        /* \"#utility.yul\":18002:18003   */\n      0x00\n        /* \"#utility.yul\":17995:18010   */\n      revert\n        /* \"#utility.yul\":18022:18432   */\n    tag_116:\n        /* \"#utility.yul\":18062:18069   */\n      0x00\n        /* \"#utility.yul\":18085:18105   */\n      tag_562\n        /* \"#utility.yul\":18103:18104   */\n      dup3\n        /* \"#utility.yul\":18085:18105   */\n      tag_315\n      jump\t// in\n    tag_562:\n        /* \"#utility.yul\":18080:18105   */\n      swap2\n      pop\n        /* \"#utility.yul\":18119:18139   */\n      tag_563\n        /* \"#utility.yul\":18137:18138   */\n      dup4\n        /* \"#utility.yul\":18119:18139   */\n      tag_315\n      jump\t// in\n    tag_563:\n        /* \"#utility.yul\":18114:18139   */\n      swap3\n      pop\n        /* \"#utility.yul\":18174:18175   */\n      dup3\n        /* \"#utility.yul\":18171:18172   */\n      dup3\n        /* \"#utility.yul\":18167:18176   */\n      mul\n        /* \"#utility.yul\":18196:18226   */\n      tag_564\n        /* \"#utility.yul\":18214:18225   */\n      dup2\n        /* \"#utility.yul\":18196:18226   */\n      tag_315\n      jump\t// in\n    tag_564:\n        /* \"#utility.yul\":18185:18226   */\n      swap2\n      pop\n        /* \"#utility.yul\":18375:18376   */\n      dup3\n        /* \"#utility.yul\":18366:18373   */\n      dup3\n        /* \"#utility.yul\":18362:18377   */\n      div\n        /* \"#utility.yul\":18359:18360   */\n      dup5\n        /* \"#utility.yul\":18356:18378   */\n      eq\n        /* \"#utility.yul\":18336:18337   */\n      dup4\n        /* \"#utility.yul\":18329:18338   */\n      iszero\n        /* \"#utility.yul\":18309:18392   */\n      or\n        /* \"#utility.yul\":18286:18425   */\n      tag_565\n      jumpi\n        /* \"#utility.yul\":18405:18423   */\n      tag_566\n      tag_355\n      jump\t// in\n    tag_566:\n        /* \"#utility.yul\":18286:18425   */\n    tag_565:\n        /* \"#utility.yul\":18070:18432   */\n      pop\n        /* \"#utility.yul\":18022:18432   */\n      swap3\n      swap2\n      pop\n      pop\n      jump\t// out\n        /* \"#utility.yul\":18438:18618   */\n    tag_356:\n        /* \"#utility.yul\":18486:18563   */\n      0x4e487b7100000000000000000000000000000000000000000000000000000000\n        /* \"#utility.yul\":18483:18484   */\n      0x00\n        /* \"#utility.yul\":18476:18564   */\n      mstore\n        /* \"#utility.yul\":18583:18587   */\n      0x12\n        /* \"#utility.yul\":18580:18581   */\n      0x04\n        /* \"#utility.yul\":18573:18588   */\n      mstore\n        /* \"#utility.yul\":18607:18611   */\n      0x24\n        /* \"#utility.yul\":18604:18605   */\n      0x00\n        /* \"#utility.yul\":18597:18612   */\n      revert\n        /* \"#utility.yul\":18624:18809   */\n    tag_118:\n        /* \"#utility.yul\":18664:18665   */\n      0x00\n        /* \"#utility.yul\":18681:18701   */\n      tag_569\n        /* \"#utility.yul\":18699:18700   */\n      dup3\n        /* \"#utility.yul\":18681:18701   */\n      tag_315\n      jump\t// in\n    tag_569:\n        /* \"#utility.yul\":18676:18701   */\n      swap2\n      pop\n        /* \"#utility.yul\":18715:18735   */\n      tag_570\n        /* \"#utility.yul\":18733:18734   */\n      dup4\n        /* \"#utility.yul\":18715:18735   */\n      tag_315\n      jump\t// in\n    tag_570:\n        /* \"#utility.yul\":18710:18735   */\n      swap3\n      pop\n        /* \"#utility.yul\":18754:18755   */\n      dup3\n        /* \"#utility.yul\":18744:18779   */\n      tag_571\n      jumpi\n        /* \"#utility.yul\":18759:18777   */\n      tag_572\n      tag_356\n      jump\t// in\n    tag_572:\n        /* \"#utility.yul\":18744:18779   */\n    tag_571:\n        /* \"#utility.yul\":18801:18802   */\n      dup3\n        /* \"#utility.yul\":18798:18799   */\n      dup3\n        /* \"#utility.yul\":18794:18803   */\n      div\n        /* \"#utility.yul\":18789:18803   */\n      swap1\n      pop\n        /* \"#utility.yul\":18624:18809   */\n      swap3\n      swap2\n      pop\n      pop\n      jump\t// out\n        /* \"#utility.yul\":18815:19006   */\n    tag_120:\n        /* \"#utility.yul\":18855:18858   */\n      0x00\n        /* \"#utility.yul\":18874:18894   */\n      tag_574\n        /* \"#utility.yul\":18892:18893   */\n      dup3\n        /* \"#utility.yul\":18874:18894   */\n      tag_315\n      jump\t// in\n    tag_574:\n        /* \"#utility.yul\":18869:18894   */\n      swap2\n      pop\n        /* \"#utility.yul\":18908:18928   */\n      tag_575\n        /* \"#utility.yul\":18926:18927   */\n      dup4\n        /* \"#utility.yul\":18908:18928   */\n      tag_315\n      jump\t// in\n    tag_575:\n        /* \"#utility.yul\":18903:18928   */\n      swap3\n      pop\n        /* \"#utility.yul\":18951:18952   */\n      dup3\n        /* \"#utility.yul\":18948:18949   */\n      dup3\n        /* \"#utility.yul\":18944:18953   */\n      add\n        /* \"#utility.yul\":18937:18953   */\n      swap1\n      pop\n        /* \"#utility.yul\":18972:18975   */\n      dup1\n        /* \"#utility.yul\":18969:18970   */\n      dup3\n        /* \"#utility.yul\":18966:18976   */\n      gt\n        /* \"#utility.yul\":18963:18999   */\n      iszero\n      tag_576\n      jumpi\n        /* \"#utility.yul\":18979:18997   */\n      tag_577\n      tag_355\n      jump\t// in\n    tag_577:\n        /* \"#utility.yul\":18963:18999   */\n    tag_576:\n        /* \"#utility.yul\":18815:19006   */\n      swap3\n      swap2\n      pop\n      pop\n      jump\t// out\n        /* \"#utility.yul\":19012:19235   */\n    tag_357:\n        /* \"#utility.yul\":19152:19186   */\n      0x496e636f7272656374207469636b657420707269636520696e636c7564696e67\n        /* \"#utility.yul\":19148:19149   */\n      0x00\n        /* \"#utility.yul\":19140:19146   */\n      dup3\n        /* \"#utility.yul\":19136:19150   */\n      add\n        /* \"#utility.yul\":19129:19187   */\n      mstore\n        /* \"#utility.yul\":19221:19227   */\n      0x2066656500000000000000000000000000000000000000000000000000000000\n        /* \"#utility.yul\":19216:19218   */\n      0x20\n        /* \"#utility.yul\":19208:19214   */\n      dup3\n        /* \"#utility.yul\":19204:19219   */\n      add\n        /* \"#utility.yul\":19197:19228   */\n      mstore\n        /* \"#utility.yul\":19012:19235   */\n      pop\n      jump\t// out\n        /* \"#utility.yul\":19241:19607   */\n    tag_358:\n        /* \"#utility.yul\":19383:19386   */\n      0x00\n        /* \"#utility.yul\":19404:19471   */\n      tag_580\n        /* \"#utility.yul\":19468:19470   */\n      0x24\n        /* \"#utility.yul\":19463:19466   */\n      dup4\n        /* \"#utility.yul\":19404:19471   */\n      tag_325\n      jump\t// in\n    tag_580:\n        /* \"#utility.yul\":19397:19471   */\n      swap2\n      pop\n        /* \"#utility.yul\":19480:19573   */\n      tag_581\n        /* \"#utility.yul\":19569:19572   */\n      dup3\n        /* \"#utility.yul\":19480:19573   */\n      tag_357\n      jump\t// in\n    tag_581:\n        /* \"#utility.yul\":19598:19600   */\n      0x40\n        /* \"#utility.yul\":19593:19596   */\n      dup3\n        /* \"#utility.yul\":19589:19601   */\n      add\n        /* \"#utility.yul\":19582:19601   */\n      swap1\n      pop\n        /* \"#utility.yul\":19241:19607   */\n      swap2\n      swap1\n      pop\n      jump\t// out\n        /* \"#utility.yul\":19613:20032   */\n    tag_123:\n        /* \"#utility.yul\":19779:19783   */\n      0x00\n        /* \"#utility.yul\":19817:19819   */\n      0x20\n        /* \"#utility.yul\":19806:19815   */\n      dup3\n        /* \"#utility.yul\":19802:19820   */\n      add\n        /* \"#utility.yul\":19794:19820   */\n      swap1\n      pop\n        /* \"#utility.yul\":19866:19875   */\n      dup2\n        /* \"#utility.yul\":19860:19864   */\n      dup2\n        /* \"#utility.yul\":19856:19876   */\n      sub\n        /* \"#utility.yul\":19852:19853   */\n      0x00\n        /* \"#utility.yul\":19841:19850   */\n      dup4\n        /* \"#utility.yul\":19837:19854   */\n      add\n        /* \"#utility.yul\":19830:19877   */\n      mstore\n        /* \"#utility.yul\":19894:20025   */\n      tag_583\n        /* \"#utility.yul\":20020:20024   */\n      dup2\n        /* \"#utility.yul\":19894:20025   */\n      tag_358\n      jump\t// in\n    tag_583:\n        /* \"#utility.yul\":19886:20025   */\n      swap1\n      pop\n        /* \"#utility.yul\":19613:20032   */\n      swap2\n      swap1\n      pop\n      jump\t// out\n        /* \"#utility.yul\":20038:20334   */\n    tag_359:\n        /* \"#utility.yul\":20178:20212   */\n      0x4e6f7420656e6f7567682062616c616e636520696e20746865207072697a6520\n        /* \"#utility.yul\":20174:20175   */\n      0x00\n        /* \"#utility.yul\":20166:20172   */\n      dup3\n        /* \"#utility.yul\":20162:20176   */\n      add\n        /* \"#utility.yul\":20155:20213   */\n      mstore\n        /* \"#utility.yul\":20247:20281   */\n      0x706f6f6c2e20506c6561736520636f6e7461637420737570706f7274206f6e20\n        /* \"#utility.yul\":20242:20244   */\n      0x20\n        /* \"#utility.yul\":20234:20240   */\n      dup3\n        /* \"#utility.yul\":20230:20245   */\n      add\n        /* \"#utility.yul\":20223:20282   */\n      mstore\n        /* \"#utility.yul\":20316:20326   */\n      0x446973636f72642e000000000000000000000000000000000000000000000000\n        /* \"#utility.yul\":20311:20313   */\n      0x40\n        /* \"#utility.yul\":20303:20309   */\n      dup3\n        /* \"#utility.yul\":20299:20314   */\n      add\n        /* \"#utility.yul\":20292:20327   */\n      mstore\n        /* \"#utility.yul\":20038:20334   */\n      pop\n      jump\t// out\n        /* \"#utility.yul\":20340:20706   */\n    tag_360:\n        /* \"#utility.yul\":20482:20485   */\n      0x00\n        /* \"#utility.yul\":20503:20570   */\n      tag_586\n        /* \"#utility.yul\":20567:20569   */\n      0x48\n        /* \"#utility.yul\":20562:20565   */\n      dup4\n        /* \"#utility.yul\":20503:20570   */\n      tag_325\n      jump\t// in\n    tag_586:\n        /* \"#utility.yul\":20496:20570   */\n      swap2\n      pop\n        /* \"#utility.yul\":20579:20672   */\n      tag_587\n        /* \"#utility.yul\":20668:20671   */\n      dup3\n        /* \"#utility.yul\":20579:20672   */\n      tag_359\n      jump\t// in\n    tag_587:\n        /* \"#utility.yul\":20697:20699   */\n      0x60\n        /* \"#utility.yul\":20692:20695   */\n      dup3\n        /* \"#utility.yul\":20688:20700   */\n      add\n        /* \"#utility.yul\":20681:20700   */\n      swap1\n      pop\n        /* \"#utility.yul\":20340:20706   */\n      swap2\n      swap1\n      pop\n      jump\t// out\n        /* \"#utility.yul\":20712:21131   */\n    tag_136:\n        /* \"#utility.yul\":20878:20882   */\n      0x00\n        /* \"#utility.yul\":20916:20918   */\n      0x20\n        /* \"#utility.yul\":20905:20914   */\n      dup3\n        /* \"#utility.yul\":20901:20919   */\n      add\n        /* \"#utility.yul\":20893:20919   */\n      swap1\n      pop\n        /* \"#utility.yul\":20965:20974   */\n      dup2\n        /* \"#utility.yul\":20959:20963   */\n      dup2\n        /* \"#utility.yul\":20955:20975   */\n      sub\n        /* \"#utility.yul\":20951:20952   */\n      0x00\n        /* \"#utility.yul\":20940:20949   */\n      dup4\n        /* \"#utility.yul\":20936:20953   */\n      add\n        /* \"#utility.yul\":20929:20976   */\n      mstore\n        /* \"#utility.yul\":20993:21124   */\n      tag_589\n        /* \"#utility.yul\":21119:21123   */\n      dup2\n        /* \"#utility.yul\":20993:21124   */\n      tag_360\n      jump\t// in\n    tag_589:\n        /* \"#utility.yul\":20985:21124   */\n      swap1\n      pop\n        /* \"#utility.yul\":20712:21131   */\n      swap2\n      swap1\n      pop\n      jump\t// out\n        /* \"#utility.yul\":21137:21469   */\n    tag_146:\n        /* \"#utility.yul\":21258:21262   */\n      0x00\n        /* \"#utility.yul\":21296:21298   */\n      0x40\n        /* \"#utility.yul\":21285:21294   */\n      dup3\n        /* \"#utility.yul\":21281:21299   */\n      add\n        /* \"#utility.yul\":21273:21299   */\n      swap1\n      pop\n        /* \"#utility.yul\":21309:21380   */\n      tag_591\n        /* \"#utility.yul\":21377:21378   */\n      0x00\n        /* \"#utility.yul\":21366:21375   */\n      dup4\n        /* \"#utility.yul\":21362:21379   */\n      add\n        /* \"#utility.yul\":21353:21359   */\n      dup6\n        /* \"#utility.yul\":21309:21380   */\n      tag_351\n      jump\t// in\n    tag_591:\n        /* \"#utility.yul\":21390:21462   */\n      tag_592\n        /* \"#utility.yul\":21458:21460   */\n      0x20\n        /* \"#utility.yul\":21447:21456   */\n      dup4\n        /* \"#utility.yul\":21443:21461   */\n      add\n        /* \"#utility.yul\":21434:21440   */\n      dup5\n        /* \"#utility.yul\":21390:21462   */\n      tag_351\n      jump\t// in\n    tag_592:\n        /* \"#utility.yul\":21137:21469   */\n      swap4\n      swap3\n      pop\n      pop\n      pop\n      jump\t// out\n        /* \"#utility.yul\":21475:21807   */\n    tag_152:\n        /* \"#utility.yul\":21596:21600   */\n      0x00\n        /* \"#utility.yul\":21634:21636   */\n      0x40\n        /* \"#utility.yul\":21623:21632   */\n      dup3\n        /* \"#utility.yul\":21619:21637   */\n      add\n        /* \"#utility.yul\":21611:21637   */\n      swap1\n      pop\n        /* \"#utility.yul\":21647:21718   */\n      tag_594\n        /* \"#utility.yul\":21715:21716   */\n      0x00\n        /* \"#utility.yul\":21704:21713   */\n      dup4\n        /* \"#utility.yul\":21700:21717   */\n      add\n        /* \"#utility.yul\":21691:21697   */\n      dup6\n        /* \"#utility.yul\":21647:21718   */\n      tag_318\n      jump\t// in\n    tag_594:\n        /* \"#utility.yul\":21728:21800   */\n      tag_595\n        /* \"#utility.yul\":21796:21798   */\n      0x20\n        /* \"#utility.yul\":21785:21794   */\n      dup4\n        /* \"#utility.yul\":21781:21799   */\n      add\n        /* \"#utility.yul\":21772:21778   */\n      dup5\n        /* \"#utility.yul\":21728:21800   */\n      tag_318\n      jump\t// in\n    tag_595:\n        /* \"#utility.yul\":21475:21807   */\n      swap4\n      swap3\n      pop\n      pop\n      pop\n      jump\t// out\n        /* \"#utility.yul\":21813:21993   */\n    tag_167:\n        /* \"#utility.yul\":21861:21938   */\n      0x4e487b7100000000000000000000000000000000000000000000000000000000\n        /* \"#utility.yul\":21858:21859   */\n      0x00\n        /* \"#utility.yul\":21851:21939   */\n      mstore\n        /* \"#utility.yul\":21958:21962   */\n      0x32\n        /* \"#utility.yul\":21955:21956   */\n      0x04\n        /* \"#utility.yul\":21948:21963   */\n      mstore\n        /* \"#utility.yul\":21982:21986   */\n      0x24\n        /* \"#utility.yul\":21979:21980   */\n      0x00\n        /* \"#utility.yul\":21972:21987   */\n      revert\n        /* \"#utility.yul\":21999:22552   */\n    tag_261:\n        /* \"#utility.yul\":22176:22180   */\n      0x00\n        /* \"#utility.yul\":22214:22217   */\n      0x80\n        /* \"#utility.yul\":22203:22212   */\n      dup3\n        /* \"#utility.yul\":22199:22218   */\n      add\n        /* \"#utility.yul\":22191:22218   */\n      swap1\n      pop\n        /* \"#utility.yul\":22228:22299   */\n      tag_598\n        /* \"#utility.yul\":22296:22297   */\n      0x00\n        /* \"#utility.yul\":22285:22294   */\n      dup4\n        /* \"#utility.yul\":22281:22298   */\n      add\n        /* \"#utility.yul\":22272:22278   */\n      dup8\n        /* \"#utility.yul\":22228:22299   */\n      tag_351\n      jump\t// in\n    tag_598:\n        /* \"#utility.yul\":22309:22381   */\n      tag_599\n        /* \"#utility.yul\":22377:22379   */\n      0x20\n        /* \"#utility.yul\":22366:22375   */\n      dup4\n        /* \"#utility.yul\":22362:22380   */\n      add\n        /* \"#utility.yul\":22353:22359   */\n      dup7\n        /* \"#utility.yul\":22309:22381   */\n      tag_318\n      jump\t// in\n    tag_599:\n        /* \"#utility.yul\":22391:22463   */\n      tag_600\n        /* \"#utility.yul\":22459:22461   */\n      0x40\n        /* \"#utility.yul\":22448:22457   */\n      dup4\n        /* \"#utility.yul\":22444:22462   */\n      add\n        /* \"#utility.yul\":22435:22441   */\n      dup6\n        /* \"#utility.yul\":22391:22463   */\n      tag_318\n      jump\t// in\n    tag_600:\n        /* \"#utility.yul\":22473:22545   */\n      tag_601\n        /* \"#utility.yul\":22541:22543   */\n      0x60\n        /* \"#utility.yul\":22530:22539   */\n      dup4\n        /* \"#utility.yul\":22526:22544   */\n      add\n        /* \"#utility.yul\":22517:22523   */\n      dup5\n        /* \"#utility.yul\":22473:22545   */\n      tag_318\n      jump\t// in\n    tag_601:\n        /* \"#utility.yul\":21999:22552   */\n      swap6\n      swap5\n      pop\n      pop\n      pop\n      pop\n      pop\n      jump\t// out\n        /* \"#utility.yul\":22558:23192   */\n    tag_270:\n        /* \"#utility.yul\":22779:22783   */\n      0x00\n        /* \"#utility.yul\":22817:22819   */\n      0x40\n        /* \"#utility.yul\":22806:22815   */\n      dup3\n        /* \"#utility.yul\":22802:22820   */\n      add\n        /* \"#utility.yul\":22794:22820   */\n      swap1\n      pop\n        /* \"#utility.yul\":22866:22875   */\n      dup2\n        /* \"#utility.yul\":22860:22864   */\n      dup2\n        /* \"#utility.yul\":22856:22876   */\n      sub\n        /* \"#utility.yul\":22852:22853   */\n      0x00\n        /* \"#utility.yul\":22841:22850   */\n      dup4\n        /* \"#utility.yul\":22837:22854   */\n      add\n        /* \"#utility.yul\":22830:22877   */\n      mstore\n        /* \"#utility.yul\":22894:23002   */\n      tag_603\n        /* \"#utility.yul\":22997:23001   */\n      dup2\n        /* \"#utility.yul\":22988:22994   */\n      dup6\n        /* \"#utility.yul\":22894:23002   */\n      tag_350\n      jump\t// in\n    tag_603:\n        /* \"#utility.yul\":22886:23002   */\n      swap1\n      pop\n        /* \"#utility.yul\":23049:23058   */\n      dup2\n        /* \"#utility.yul\":23043:23047   */\n      dup2\n        /* \"#utility.yul\":23039:23059   */\n      sub\n        /* \"#utility.yul\":23034:23036   */\n      0x20\n        /* \"#utility.yul\":23023:23032   */\n      dup4\n        /* \"#utility.yul\":23019:23037   */\n      add\n        /* \"#utility.yul\":23012:23060   */\n      mstore\n        /* \"#utility.yul\":23077:23185   */\n      tag_604\n        /* \"#utility.yul\":23180:23184   */\n      dup2\n        /* \"#utility.yul\":23171:23177   */\n      dup5\n        /* \"#utility.yul\":23077:23185   */\n      tag_350\n      jump\t// in\n    tag_604:\n        /* \"#utility.yul\":23069:23185   */\n      swap1\n      pop\n        /* \"#utility.yul\":22558:23192   */\n      swap4\n      swap3\n      pop\n      pop\n      pop\n      jump\t// out\n        /* \"#utility.yul\":23198:23296   */\n    tag_361:\n        /* \"#utility.yul\":23249:23255   */\n      0x00\n        /* \"#utility.yul\":23283:23288   */\n      dup2\n        /* \"#utility.yul\":23277:23289   */\n      mload\n        /* \"#utility.yul\":23267:23289   */\n      swap1\n      pop\n        /* \"#utility.yul\":23198:23296   */\n      swap2\n      swap1\n      pop\n      jump\t// out\n        /* \"#utility.yul\":23302:23470   */\n    tag_362:\n        /* \"#utility.yul\":23385:23396   */\n      0x00\n        /* \"#utility.yul\":23419:23425   */\n      dup3\n        /* \"#utility.yul\":23414:23417   */\n      dup3\n        /* \"#utility.yul\":23407:23426   */\n      mstore\n        /* \"#utility.yul\":23459:23463   */\n      0x20\n        /* \"#utility.yul\":23454:23457   */\n      dup3\n        /* \"#utility.yul\":23450:23464   */\n      add\n        /* \"#utility.yul\":23435:23464   */\n      swap1\n      pop\n        /* \"#utility.yul\":23302:23470   */\n      swap3\n      swap2\n      pop\n      pop\n      jump\t// out\n        /* \"#utility.yul\":23476:23849   */\n    tag_363:\n        /* \"#utility.yul\":23562:23565   */\n      0x00\n        /* \"#utility.yul\":23590:23628   */\n      tag_608\n        /* \"#utility.yul\":23622:23627   */\n      dup3\n        /* \"#utility.yul\":23590:23628   */\n      tag_361\n      jump\t// in\n    tag_608:\n        /* \"#utility.yul\":23644:23714   */\n      tag_609\n        /* \"#utility.yul\":23707:23713   */\n      dup2\n        /* \"#utility.yul\":23702:23705   */\n      dup6\n        /* \"#utility.yul\":23644:23714   */\n      tag_362\n      jump\t// in\n    tag_609:\n        /* \"#utility.yul\":23637:23714   */\n      swap4\n      pop\n        /* \"#utility.yul\":23723:23788   */\n      tag_610\n        /* \"#utility.yul\":23781:23787   */\n      dup2\n        /* \"#utility.yul\":23776:23779   */\n      dup6\n        /* \"#utility.yul\":23769:23773   */\n      0x20\n        /* \"#utility.yul\":23762:23767   */\n      dup7\n        /* \"#utility.yul\":23758:23774   */\n      add\n        /* \"#utility.yul\":23723:23788   */\n      tag_326\n      jump\t// in\n    tag_610:\n        /* \"#utility.yul\":23813:23842   */\n      tag_611\n        /* \"#utility.yul\":23835:23841   */\n      dup2\n        /* \"#utility.yul\":23813:23842   */\n      tag_327\n      jump\t// in\n    tag_611:\n        /* \"#utility.yul\":23808:23811   */\n      dup5\n        /* \"#utility.yul\":23804:23843   */\n      add\n        /* \"#utility.yul\":23797:23843   */\n      swap2\n      pop\n        /* \"#utility.yul\":23566:23849   */\n      pop\n        /* \"#utility.yul\":23476:23849   */\n      swap3\n      swap2\n      pop\n      pop\n      jump\t// out\n        /* \"#utility.yul\":23855:24606   */\n    tag_274:\n        /* \"#utility.yul\":24078:24082   */\n      0x00\n        /* \"#utility.yul\":24116:24119   */\n      0xa0\n        /* \"#utility.yul\":24105:24114   */\n      dup3\n        /* \"#utility.yul\":24101:24120   */\n      add\n        /* \"#utility.yul\":24093:24120   */\n      swap1\n      pop\n        /* \"#utility.yul\":24130:24201   */\n      tag_613\n        /* \"#utility.yul\":24198:24199   */\n      0x00\n        /* \"#utility.yul\":24187:24196   */\n      dup4\n        /* \"#utility.yul\":24183:24200   */\n      add\n        /* \"#utility.yul\":24174:24180   */\n      dup9\n        /* \"#utility.yul\":24130:24201   */\n      tag_351\n      jump\t// in\n    tag_613:\n        /* \"#utility.yul\":24211:24283   */\n      tag_614\n        /* \"#utility.yul\":24279:24281   */\n      0x20\n        /* \"#utility.yul\":24268:24277   */\n      dup4\n        /* \"#utility.yul\":24264:24282   */\n      add\n        /* \"#utility.yul\":24255:24261   */\n      dup8\n        /* \"#utility.yul\":24211:24283   */\n      tag_351\n      jump\t// in\n    tag_614:\n        /* \"#utility.yul\":24293:24365   */\n      tag_615\n        /* \"#utility.yul\":24361:24363   */\n      0x40\n        /* \"#utility.yul\":24350:24359   */\n      dup4\n        /* \"#utility.yul\":24346:24364   */\n      add\n        /* \"#utility.yul\":24337:24343   */\n      dup7\n        /* \"#utility.yul\":24293:24365   */\n      tag_318\n      jump\t// in\n    tag_615:\n        /* \"#utility.yul\":24375:24447   */\n      tag_616\n        /* \"#utility.yul\":24443:24445   */\n      0x60\n        /* \"#utility.yul\":24432:24441   */\n      dup4\n        /* \"#utility.yul\":24428:24446   */\n      add\n        /* \"#utility.yul\":24419:24425   */\n      dup6\n        /* \"#utility.yul\":24375:24447   */\n      tag_318\n      jump\t// in\n    tag_616:\n        /* \"#utility.yul\":24495:24504   */\n      dup2\n        /* \"#utility.yul\":24489:24493   */\n      dup2\n        /* \"#utility.yul\":24485:24505   */\n      sub\n        /* \"#utility.yul\":24479:24482   */\n      0x80\n        /* \"#utility.yul\":24468:24477   */\n      dup4\n        /* \"#utility.yul\":24464:24483   */\n      add\n        /* \"#utility.yul\":24457:24506   */\n      mstore\n        /* \"#utility.yul\":24523:24599   */\n      tag_617\n        /* \"#utility.yul\":24594:24598   */\n      dup2\n        /* \"#utility.yul\":24585:24591   */\n      dup5\n        /* \"#utility.yul\":24523:24599   */\n      tag_363\n      jump\t// in\n    tag_617:\n        /* \"#utility.yul\":24515:24599   */\n      swap1\n      pop\n        /* \"#utility.yul\":23855:24606   */\n      swap7\n      swap6\n      pop\n      pop\n      pop\n      pop\n      pop\n      pop\n      jump\t// out\n        /* \"#utility.yul\":24612:24753   */\n    tag_364:\n        /* \"#utility.yul\":24668:24673   */\n      0x00\n        /* \"#utility.yul\":24699:24705   */\n      dup2\n        /* \"#utility.yul\":24693:24706   */\n      mload\n        /* \"#utility.yul\":24684:24706   */\n      swap1\n      pop\n        /* \"#utility.yul\":24715:24747   */\n      tag_619\n        /* \"#utility.yul\":24741:24746   */\n      dup2\n        /* \"#utility.yul\":24715:24747   */\n      tag_320\n      jump\t// in\n    tag_619:\n        /* \"#utility.yul\":24612:24753   */\n      swap3\n      swap2\n      pop\n      pop\n      jump\t// out\n        /* \"#utility.yul\":24759:25108   */\n    tag_277:\n        /* \"#utility.yul\":24828:24834   */\n      0x00\n        /* \"#utility.yul\":24877:24879   */\n      0x20\n        /* \"#utility.yul\":24865:24874   */\n      dup3\n        /* \"#utility.yul\":24856:24863   */\n      dup5\n        /* \"#utility.yul\":24852:24875   */\n      sub\n        /* \"#utility.yul\":24848:24880   */\n      slt\n        /* \"#utility.yul\":24845:24964   */\n      iszero\n      tag_621\n      jumpi\n        /* \"#utility.yul\":24883:24962   */\n      tag_622\n      tag_309\n      jump\t// in\n    tag_622:\n        /* \"#utility.yul\":24845:24964   */\n    tag_621:\n        /* \"#utility.yul\":25003:25004   */\n      0x00\n        /* \"#utility.yul\":25028:25091   */\n      tag_623\n        /* \"#utility.yul\":25083:25090   */\n      dup5\n        /* \"#utility.yul\":25074:25080   */\n      dup3\n        /* \"#utility.yul\":25063:25072   */\n      dup6\n        /* \"#utility.yul\":25059:25081   */\n      add\n        /* \"#utility.yul\":25028:25091   */\n      tag_364\n      jump\t// in\n    tag_623:\n        /* \"#utility.yul\":25018:25091   */\n      swap2\n      pop\n        /* \"#utility.yul\":24974:25101   */\n      pop\n        /* \"#utility.yul\":24759:25108   */\n      swap3\n      swap2\n      pop\n      pop\n      jump\t// out\n        /* \"#utility.yul\":25114:26167   */\n    tag_293:\n        /* \"#utility.yul\":25437:25441   */\n      0x00\n        /* \"#utility.yul\":25475:25478   */\n      0xa0\n        /* \"#utility.yul\":25464:25473   */\n      dup3\n        /* \"#utility.yul\":25460:25479   */\n      add\n        /* \"#utility.yul\":25452:25479   */\n      swap1\n      pop\n        /* \"#utility.yul\":25489:25560   */\n      tag_625\n        /* \"#utility.yul\":25557:25558   */\n      0x00\n        /* \"#utility.yul\":25546:25555   */\n      dup4\n        /* \"#utility.yul\":25542:25559   */\n      add\n        /* \"#utility.yul\":25533:25539   */\n      dup9\n        /* \"#utility.yul\":25489:25560   */\n      tag_351\n      jump\t// in\n    tag_625:\n        /* \"#utility.yul\":25570:25642   */\n      tag_626\n        /* \"#utility.yul\":25638:25640   */\n      0x20\n        /* \"#utility.yul\":25627:25636   */\n      dup4\n        /* \"#utility.yul\":25623:25641   */\n      add\n        /* \"#utility.yul\":25614:25620   */\n      dup8\n        /* \"#utility.yul\":25570:25642   */\n      tag_351\n      jump\t// in\n    tag_626:\n        /* \"#utility.yul\":25689:25698   */\n      dup2\n        /* \"#utility.yul\":25683:25687   */\n      dup2\n        /* \"#utility.yul\":25679:25699   */\n      sub\n        /* \"#utility.yul\":25674:25676   */\n      0x40\n        /* \"#utility.yul\":25663:25672   */\n      dup4\n        /* \"#utility.yul\":25659:25677   */\n      add\n        /* \"#utility.yul\":25652:25700   */\n      mstore\n        /* \"#utility.yul\":25717:25825   */\n      tag_627\n        /* \"#utility.yul\":25820:25824   */\n      dup2\n        /* \"#utility.yul\":25811:25817   */\n      dup7\n        /* \"#utility.yul\":25717:25825   */\n      tag_350\n      jump\t// in\n    tag_627:\n        /* \"#utility.yul\":25709:25825   */\n      swap1\n      pop\n        /* \"#utility.yul\":25872:25881   */\n      dup2\n        /* \"#utility.yul\":25866:25870   */\n      dup2\n        /* \"#utility.yul\":25862:25882   */\n      sub\n        /* \"#utility.yul\":25857:25859   */\n      0x60\n        /* \"#utility.yul\":25846:25855   */\n      dup4\n        /* \"#utility.yul\":25842:25860   */\n      add\n        /* \"#utility.yul\":25835:25883   */\n      mstore\n        /* \"#utility.yul\":25900:26008   */\n      tag_628\n        /* \"#utility.yul\":26003:26007   */\n      dup2\n        /* \"#utility.yul\":25994:26000   */\n      dup6\n        /* \"#utility.yul\":25900:26008   */\n      tag_350\n      jump\t// in\n    tag_628:\n        /* \"#utility.yul\":25892:26008   */\n      swap1\n      pop\n        /* \"#utility.yul\":26056:26065   */\n      dup2\n        /* \"#utility.yul\":26050:26054   */\n      dup2\n        /* \"#utility.yul\":26046:26066   */\n      sub\n        /* \"#utility.yul\":26040:26043   */\n      0x80\n        /* \"#utility.yul\":26029:26038   */\n      dup4\n        /* \"#utility.yul\":26025:26044   */\n      add\n        /* \"#utility.yul\":26018:26067   */\n      mstore\n        /* \"#utility.yul\":26084:26160   */\n      tag_629\n        /* \"#utility.yul\":26155:26159   */\n      dup2\n        /* \"#utility.yul\":26146:26152   */\n      dup5\n        /* \"#utility.yul\":26084:26160   */\n      tag_363\n      jump\t// in\n    tag_629:\n        /* \"#utility.yul\":26076:26160   */\n      swap1\n      pop\n        /* \"#utility.yul\":25114:26167   */\n      swap7\n      swap6\n      pop\n      pop\n      pop\n      pop\n      pop\n      pop\n      jump\t// out\n\n    auxdata: 0xa26469706673582212208f7e85addf0fbdf795224622769e607d4aede04cb6dec783b568a9d39f7e8fa264736f6c634300081a0033\n}\n",
				"bytecode": {
					"linkReferences": {},
					"object": "608060405234801561000f575f80fd5b50604051612e93380380612e9383398181016040528101906100319190610356565b3360405180602001604052805f8152506100508161010060201b60201c565b505f73ffffffffffffffffffffffffffffffffffffffff168173ffffffffffffffffffffffffffffffffffffffff16036100c1575f6040517f1e4fbdf70000000000000000000000000000000000000000000000000000000081526004016100b8919061041d565b60405180910390fd5b6100d08161011360201b60201c565b5082600490816100e0919061063a565b5081600590816100f0919061063a565b5080600681905550505050610709565b806002908161010f919061063a565b5050565b5f60035f9054906101000a900473ffffffffffffffffffffffffffffffffffffffff1690508160035f6101000a81548173ffffffffffffffffffffffffffffffffffffffff021916908373ffffffffffffffffffffffffffffffffffffffff1602179055508173ffffffffffffffffffffffffffffffffffffffff168173ffffffffffffffffffffffffffffffffffffffff167f8be0079c531659141344cd1fd0a4f28419497f9722a3daafe3b4186f6b6457e060405160405180910390a35050565b5f604051905090565b5f80fd5b5f80fd5b5f80fd5b5f80fd5b5f601f19601f8301169050919050565b7f4e487b71000000000000000000000000000000000000000000000000000000005f52604160045260245ffd5b610235826101ef565b810181811067ffffffffffffffff82111715610254576102536101ff565b5b80604052505050565b5f6102666101d6565b9050610272828261022c565b919050565b5f67ffffffffffffffff821115610291576102906101ff565b5b61029a826101ef565b9050602081019050919050565b8281835e5f83830152505050565b5f6102c76102c284610277565b61025d565b9050828152602081018484840111156102e3576102e26101eb565b5b6102ee8482856102a7565b509392505050565b5f82601f83011261030a576103096101e7565b5b815161031a8482602086016102b5565b91505092915050565b5f819050919050565b61033581610323565b811461033f575f80fd5b50565b5f815190506103508161032c565b92915050565b5f805f6060848603121561036d5761036c6101df565b5b5f84015167ffffffffffffffff81111561038a576103896101e3565b5b610396868287016102f6565b935050602084015167ffffffffffffffff8111156103b7576103b66101e3565b5b6103c3868287016102f6565b92505060406103d486828701610342565b9150509250925092565b5f73ffffffffffffffffffffffffffffffffffffffff82169050919050565b5f610407826103de565b9050919050565b610417816103fd565b82525050565b5f6020820190506104305f83018461040e565b92915050565b5f81519050919050565b7f4e487b71000000000000000000000000000000000000000000000000000000005f52602260045260245ffd5b5f600282049050600182168061048457607f821691505b60208210810361049757610496610440565b5b50919050565b5f819050815f5260205f209050919050565b5f6020601f8301049050919050565b5f82821b905092915050565b5f600883026104f97fffffffffffffffffffffffffffffffffffffffffffffffffffffffffffffffff826104be565b61050386836104be565b95508019841693508086168417925050509392505050565b5f819050919050565b5f61053e61053961053484610323565b61051b565b610323565b9050919050565b5f819050919050565b61055783610524565b61056b61056382610545565b8484546104ca565b825550505050565b5f90565b61057f610573565b61058a81848461054e565b505050565b5b818110156105ad576105a25f82610577565b600181019050610590565b5050565b601f8211156105f2576105c38161049d565b6105cc846104af565b810160208510156105db578190505b6105ef6105e7856104af565b83018261058f565b50505b505050565b5f82821c905092915050565b5f6106125f19846008026105f7565b1980831691505092915050565b5f61062a8383610603565b9150826002028217905092915050565b61064382610436565b67ffffffffffffffff81111561065c5761065b6101ff565b5b610666825461046d565b6106718282856105b1565b5f60209050601f8311600181146106a2575f8415610690578287015190505b61069a858261061f565b865550610701565b601f1984166106b08661049d565b5f5b828110156106d7578489015182556001820191506020850194506020810190506106b2565b868310156106f457848901516106f0601f891682610603565b8355505b6001600288020188555050505b505050505050565b61277d806107165f395ff3fe6080604052600436106100e6575f3560e01c80634e1273f411610089578063a22cb46511610058578063a22cb465146102ca578063e985e9c5146102f2578063f242432a1461032e578063f2fde38b14610356576100e6565b80634e1273f414610224578063715018a6146102605780638da5cb5b1461027657806395d89b41146102a0576100e6565b80630e89341c116100c55780630e89341c1461018c5780631209b1f6146101c857806321846c76146101f25780632eb2c2d6146101fc576100e6565b8062fdd58e146100ea57806301ffc9a71461012657806306fdde0314610162575b5f80fd5b3480156100f5575f80fd5b50610110600480360381019061010b9190611a40565b61037e565b60405161011d9190611a8d565b60405180910390f35b348015610131575f80fd5b5061014c60048036038101906101479190611afb565b6103d3565b6040516101599190611b40565b60405180910390f35b34801561016d575f80fd5b506101766104b4565b6040516101839190611bc9565b60405180910390f35b348015610197575f80fd5b506101b260048036038101906101ad9190611be9565b610540565b6040516101bf9190611bc9565b60405180910390f35b3480156101d3575f80fd5b506101dc6105d2565b6040516101e99190611a8d565b60405180910390f35b6101fa6105d8565b005b348015610207575f80fd5b50610222600480360381019061021d9190611e04565b6107b8565b005b34801561022f575f80fd5b5061024a60048036038101906102459190611f8f565b61085f565b60405161025791906120bc565b60405180910390f35b34801561026b575f80fd5b50610274610966565b005b348015610281575f80fd5b5061028a610979565b60405161029791906120eb565b60405180910390f35b3480156102ab575f80fd5b506102b46109a1565b6040516102c19190611bc9565b60405180910390f35b3480156102d5575f80fd5b506102f060048036038101906102eb919061212e565b610a2d565b005b3480156102fd575f80fd5b506103186004803603810190610313919061216c565b610a43565b6040516103259190611b40565b60405180910390f35b348015610339575f80fd5b50610354600480360381019061034f91906121aa565b610ad1565b005b348015610361575f80fd5b5061037c6004803603810190610377919061223d565b610b78565b005b5f805f8381526020019081526020015f205f8473ffffffffffffffffffffffffffffffffffffffff1673ffffffffffffffffffffffffffffffffffffffff1681526020019081526020015f2054905092915050565b5f7fd9b67a26000000000000000000000000000000000000000000000000000000007bffffffffffffffffffffffffffffffffffffffffffffffffffffffff1916827bffffffffffffffffffffffffffffffffffffffffffffffffffffffff1916148061049d57507f0e89341c000000000000000000000000000000000000000000000000000000007bffffffffffffffffffffffffffffffffffffffffffffffffffffffff1916827bffffffffffffffffffffffffffffffffffffffffffffffffffffffff1916145b806104ad57506104ac82610bfc565b5b9050919050565b600480546104c190612295565b80601f01602080910402602001604051908101604052809291908181526020018280546104ed90612295565b80156105385780601f1061050f57610100808354040283529160200191610538565b820191905f5260205f20905b81548152906001019060200180831161051b57829003601f168201915b505050505081565b60606002805461054f90612295565b80601f016020809104026020016040519081016040528092919081815260200182805461057b90612295565b80156105c65780601f1061059d576101008083540402835291602001916105c6565b820191905f5260205f20905b8154815290600101906020018083116105a957829003601f168201915b50505050509050919050565b60065481565b5f6103e860176006546105eb91906122f2565b6105f59190612360565b90505f816006546106069190612390565b905080341461064a576040517f08c379a000000000000000000000000000000000000000000000000000000000815260040161064190612433565b60405180910390fd5b5f610653610c65565b90506106703382600160405180602001604052805f815250610c69565b5f600782149050813373ffffffffffffffffffffffffffffffffffffffff167fce6f92a6e721497cfafe2dad26bb22a06cb949bc4dda21ccc60203db70f1ed89836040516106be9190611b40565b60405180910390a36106ce610979565b73ffffffffffffffffffffffffffffffffffffffff166108fc8590811502906040515f60405180830381858888f19350505050158015610710573d5f803e3d5ffd5b5080156107b2575f600260065461072791906122f2565b90508047101561076c576040517f08c379a0000000000000000000000000000000000000000000000000000000008152600401610763906124e7565b60405180910390fd5b3373ffffffffffffffffffffffffffffffffffffffff166108fc8290811502906040515f60405180830381858888f193505050501580156107af573d5f803e3d5ffd5b50505b50505050565b5f6107c1610cfe565b90508073ffffffffffffffffffffffffffffffffffffffff168673ffffffffffffffffffffffffffffffffffffffff161415801561080657506108048682610a43565b155b1561084a5780866040517fe237d922000000000000000000000000000000000000000000000000000000008152600401610841929190612505565b60405180910390fd5b6108578686868686610d05565b505050505050565b606081518351146108ab57815183516040517f5b0599910000000000000000000000000000000000000000000000000000000081526004016108a292919061252c565b60405180910390fd5b5f835167ffffffffffffffff8111156108c7576108c6611c18565b5b6040519080825280602002602001820160405280156108f55781602001602082028036833780820191505090505b5090505f5b845181101561095b576109316109198287610df990919063ffffffff16565b61092c8387610e0c90919063ffffffff16565b61037e565b82828151811061094457610943612553565b5b6020026020010181815250508060010190506108fa565b508091505092915050565b61096e610e1f565b6109775f610ea6565b565b5f60035f9054906101000a900473ffffffffffffffffffffffffffffffffffffffff16905090565b600580546109ae90612295565b80601f01602080910402602001604051908101604052809291908181526020018280546109da90612295565b8015610a255780601f106109fc57610100808354040283529160200191610a25565b820191905f5260205f20905b815481529060010190602001808311610a0857829003601f168201915b505050505081565b610a3f610a38610cfe565b8383610f69565b5050565b5f60015f8473ffffffffffffffffffffffffffffffffffffffff1673ffffffffffffffffffffffffffffffffffffffff1681526020019081526020015f205f8373ffffffffffffffffffffffffffffffffffffffff1673ffffffffffffffffffffffffffffffffffffffff1681526020019081526020015f205f9054906101000a900460ff16905092915050565b5f610ada610cfe565b90508073ffffffffffffffffffffffffffffffffffffffff168673ffffffffffffffffffffffffffffffffffffffff1614158015610b1f5750610b1d8682610a43565b155b15610b635780866040517fe237d922000000000000000000000000000000000000000000000000000000008152600401610b5a929190612505565b60405180910390fd5b610b7086868686866110d2565b505050505050565b610b80610e1f565b5f73ffffffffffffffffffffffffffffffffffffffff168173ffffffffffffffffffffffffffffffffffffffff1603610bf0575f6040517f1e4fbdf7000000000000000000000000000000000000000000000000000000008152600401610be791906120eb565b60405180910390fd5b610bf981610ea6565b50565b5f7f01ffc9a7000000000000000000000000000000000000000000000000000000007bffffffffffffffffffffffffffffffffffffffffffffffffffffffff1916827bffffffffffffffffffffffffffffffffffffffffffffffffffffffff1916149050919050565b5f90565b5f73ffffffffffffffffffffffffffffffffffffffff168473ffffffffffffffffffffffffffffffffffffffff1603610cd9575f6040517f57f447ce000000000000000000000000000000000000000000000000000000008152600401610cd091906120eb565b60405180910390fd5b5f80610ce585856111d8565b91509150610cf65f87848487611208565b505050505050565b5f33905090565b5f73ffffffffffffffffffffffffffffffffffffffff168473ffffffffffffffffffffffffffffffffffffffff1603610d75575f6040517f57f447ce000000000000000000000000000000000000000000000000000000008152600401610d6c91906120eb565b60405180910390fd5b5f73ffffffffffffffffffffffffffffffffffffffff168573ffffffffffffffffffffffffffffffffffffffff1603610de5575f6040517f01a83514000000000000000000000000000000000000000000000000000000008152600401610ddc91906120eb565b60405180910390fd5b610df28585858585611208565b5050505050565b5f60208202602084010151905092915050565b5f60208202602084010151905092915050565b610e27610cfe565b73ffffffffffffffffffffffffffffffffffffffff16610e45610979565b73ffffffffffffffffffffffffffffffffffffffff1614610ea457610e68610cfe565b6040517f118cdaa7000000000000000000000000000000000000000000000000000000008152600401610e9b91906120eb565b60405180910390fd5b565b5f60035f9054906101000a900473ffffffffffffffffffffffffffffffffffffffff1690508160035f6101000a81548173ffffffffffffffffffffffffffffffffffffffff021916908373ffffffffffffffffffffffffffffffffffffffff1602179055508173ffffffffffffffffffffffffffffffffffffffff168173ffffffffffffffffffffffffffffffffffffffff167f8be0079c531659141344cd1fd0a4f28419497f9722a3daafe3b4186f6b6457e060405160405180910390a35050565b5f73ffffffffffffffffffffffffffffffffffffffff168273ffffffffffffffffffffffffffffffffffffffff1603610fd9575f6040517fced3e100000000000000000000000000000000000000000000000000000000008152600401610fd091906120eb565b60405180910390fd5b8060015f8573ffffffffffffffffffffffffffffffffffffffff1673ffffffffffffffffffffffffffffffffffffffff1681526020019081526020015f205f8473ffffffffffffffffffffffffffffffffffffffff1673ffffffffffffffffffffffffffffffffffffffff1681526020019081526020015f205f6101000a81548160ff0219169083151502179055508173ffffffffffffffffffffffffffffffffffffffff168373ffffffffffffffffffffffffffffffffffffffff167f17307eab39ab6107e8899845ad3d59bd9653f200f220920489ca2b5937696c31836040516110c59190611b40565b60405180910390a3505050565b5f73ffffffffffffffffffffffffffffffffffffffff168473ffffffffffffffffffffffffffffffffffffffff1603611142575f6040517f57f447ce00000000000000000000000000000000000000000000000000000000815260040161113991906120eb565b60405180910390fd5b5f73ffffffffffffffffffffffffffffffffffffffff168573ffffffffffffffffffffffffffffffffffffffff16036111b2575f6040517f01a835140000000000000000000000000000000000000000000000000000000081526004016111a991906120eb565b60405180910390fd5b5f806111be85856111d8565b915091506111cf8787848487611208565b50505050505050565b60608060405191506001825283602083015260408201905060018152826020820152604081016040529250929050565b611214858585856112b4565b5f73ffffffffffffffffffffffffffffffffffffffff168473ffffffffffffffffffffffffffffffffffffffff16146112ad575f611250610cfe565b9050600184510361129c575f61126f5f86610e0c90919063ffffffff16565b90505f6112855f86610e0c90919063ffffffff16565b9050611295838989858589611644565b50506112ab565b6112aa8187878787876117f3565b5b505b5050505050565b80518251146112fe57815181516040517f5b0599910000000000000000000000000000000000000000000000000000000081526004016112f592919061252c565b60405180910390fd5b5f611307610cfe565b90505f5b8351811015611503575f6113288286610e0c90919063ffffffff16565b90505f61133e8386610e0c90919063ffffffff16565b90505f73ffffffffffffffffffffffffffffffffffffffff168873ffffffffffffffffffffffffffffffffffffffff1614611461575f805f8481526020019081526020015f205f8a73ffffffffffffffffffffffffffffffffffffffff1673ffffffffffffffffffffffffffffffffffffffff1681526020019081526020015f205490508181101561140d57888183856040517f03dee4c50000000000000000000000000000000000000000000000000000000081526004016114049493929190612580565b60405180910390fd5b8181035f808581526020019081526020015f205f8b73ffffffffffffffffffffffffffffffffffffffff1673ffffffffffffffffffffffffffffffffffffffff1681526020019081526020015f2081905550505b5f73ffffffffffffffffffffffffffffffffffffffff168773ffffffffffffffffffffffffffffffffffffffff16146114f657805f808481526020019081526020015f205f8973ffffffffffffffffffffffffffffffffffffffff1673ffffffffffffffffffffffffffffffffffffffff1681526020019081526020015f205f8282546114ee9190612390565b925050819055505b505080600101905061130b565b5060018351036115be575f6115215f85610e0c90919063ffffffff16565b90505f6115375f85610e0c90919063ffffffff16565b90508573ffffffffffffffffffffffffffffffffffffffff168773ffffffffffffffffffffffffffffffffffffffff168473ffffffffffffffffffffffffffffffffffffffff167fc3d58168c5ae7397731d063d5bbf3d657854427343f4c083240f7aacaa2d0f6285856040516115af92919061252c565b60405180910390a4505061163d565b8373ffffffffffffffffffffffffffffffffffffffff168573ffffffffffffffffffffffffffffffffffffffff168273ffffffffffffffffffffffffffffffffffffffff167f4a39dc06d4c0dbc64b70af90fd698a233a518aa5d07e595d983b8c0526c8f7fb86866040516116349291906125c3565b60405180910390a45b5050505050565b5f8473ffffffffffffffffffffffffffffffffffffffff163b11156117eb578373ffffffffffffffffffffffffffffffffffffffff1663f23a6e6187878686866040518663ffffffff1660e01b81526004016116a495949392919061264a565b6020604051808303815f875af19250505080156116df57506040513d601f19601f820116820180604052508101906116dc91906126b6565b60015b611760573d805f811461170d576040519150601f19603f3d011682016040523d82523d5f602084013e611712565b606091505b505f81510361175857846040517f57f447ce00000000000000000000000000000000000000000000000000000000815260040161174f91906120eb565b60405180910390fd5b805181602001fd5b63f23a6e6160e01b7bffffffffffffffffffffffffffffffffffffffffffffffffffffffff1916817bffffffffffffffffffffffffffffffffffffffffffffffffffffffff1916146117e957846040517f57f447ce0000000000000000000000000000000000000000000000000000000081526004016117e091906120eb565b60405180910390fd5b505b505050505050565b5f8473ffffffffffffffffffffffffffffffffffffffff163b111561199a578373ffffffffffffffffffffffffffffffffffffffff1663bc197c8187878686866040518663ffffffff1660e01b81526004016118539594939291906126e1565b6020604051808303815f875af192505050801561188e57506040513d601f19601f8201168201806040525081019061188b91906126b6565b60015b61190f573d805f81146118bc576040519150601f19603f3d011682016040523d82523d5f602084013e6118c1565b606091505b505f81510361190757846040517f57f447ce0000000000000000000000000000000000000000000000000000000081526004016118fe91906120eb565b60405180910390fd5b805181602001fd5b63bc197c8160e01b7bffffffffffffffffffffffffffffffffffffffffffffffffffffffff1916817bffffffffffffffffffffffffffffffffffffffffffffffffffffffff19161461199857846040517f57f447ce00000000000000000000000000000000000000000000000000000000815260040161198f91906120eb565b60405180910390fd5b505b505050505050565b5f604051905090565b5f80fd5b5f80fd5b5f73ffffffffffffffffffffffffffffffffffffffff82169050919050565b5f6119dc826119b3565b9050919050565b6119ec816119d2565b81146119f6575f80fd5b50565b5f81359050611a07816119e3565b92915050565b5f819050919050565b611a1f81611a0d565b8114611a29575f80fd5b50565b5f81359050611a3a81611a16565b92915050565b5f8060408385031215611a5657611a556119ab565b5b5f611a63858286016119f9565b9250506020611a7485828601611a2c565b9150509250929050565b611a8781611a0d565b82525050565b5f602082019050611aa05f830184611a7e565b92915050565b5f7fffffffff0000000000000000000000000000000000000000000000000000000082169050919050565b611ada81611aa6565b8114611ae4575f80fd5b50565b5f81359050611af581611ad1565b92915050565b5f60208284031215611b1057611b0f6119ab565b5b5f611b1d84828501611ae7565b91505092915050565b5f8115159050919050565b611b3a81611b26565b82525050565b5f602082019050611b535f830184611b31565b92915050565b5f81519050919050565b5f82825260208201905092915050565b8281835e5f83830152505050565b5f601f19601f8301169050919050565b5f611b9b82611b59565b611ba58185611b63565b9350611bb5818560208601611b73565b611bbe81611b81565b840191505092915050565b5f6020820190508181035f830152611be18184611b91565b905092915050565b5f60208284031215611bfe57611bfd6119ab565b5b5f611c0b84828501611a2c565b91505092915050565b5f80fd5b7f4e487b71000000000000000000000000000000000000000000000000000000005f52604160045260245ffd5b611c4e82611b81565b810181811067ffffffffffffffff82111715611c6d57611c6c611c18565b5b80604052505050565b5f611c7f6119a2565b9050611c8b8282611c45565b919050565b5f67ffffffffffffffff821115611caa57611ca9611c18565b5b602082029050602081019050919050565b5f80fd5b5f611cd1611ccc84611c90565b611c76565b90508083825260208201905060208402830185811115611cf457611cf3611cbb565b5b835b81811015611d1d5780611d098882611a2c565b845260208401935050602081019050611cf6565b5050509392505050565b5f82601f830112611d3b57611d3a611c14565b5b8135611d4b848260208601611cbf565b91505092915050565b5f80fd5b5f67ffffffffffffffff821115611d7257611d71611c18565b5b611d7b82611b81565b9050602081019050919050565b828183375f83830152505050565b5f611da8611da384611d58565b611c76565b905082815260208101848484011115611dc457611dc3611d54565b5b611dcf848285611d88565b509392505050565b5f82601f830112611deb57611dea611c14565b5b8135611dfb848260208601611d96565b91505092915050565b5f805f805f60a08688031215611e1d57611e1c6119ab565b5b5f611e2a888289016119f9565b9550506020611e3b888289016119f9565b945050604086013567ffffffffffffffff811115611e5c57611e5b6119af565b5b611e6888828901611d27565b935050606086013567ffffffffffffffff811115611e8957611e886119af565b5b611e9588828901611d27565b925050608086013567ffffffffffffffff811115611eb657611eb56119af565b5b611ec288828901611dd7565b9150509295509295909350565b5f67ffffffffffffffff821115611ee957611ee8611c18565b5b602082029050602081019050919050565b5f611f0c611f0784611ecf565b611c76565b90508083825260208201905060208402830185811115611f2f57611f2e611cbb565b5b835b81811015611f585780611f4488826119f9565b845260208401935050602081019050611f31565b5050509392505050565b5f82601f830112611f7657611f75611c14565b5b8135611f86848260208601611efa565b91505092915050565b5f8060408385031215611fa557611fa46119ab565b5b5f83013567ffffffffffffffff811115611fc257611fc16119af565b5b611fce85828601611f62565b925050602083013567ffffffffffffffff811115611fef57611fee6119af565b5b611ffb85828601611d27565b9150509250929050565b5f81519050919050565b5f82825260208201905092915050565b5f819050602082019050919050565b61203781611a0d565b82525050565b5f612048838361202e565b60208301905092915050565b5f602082019050919050565b5f61206a82612005565b612074818561200f565b935061207f8361201f565b805f5b838110156120af578151612096888261203d565b97506120a183612054565b925050600181019050612082565b5085935050505092915050565b5f6020820190508181035f8301526120d48184612060565b905092915050565b6120e5816119d2565b82525050565b5f6020820190506120fe5f8301846120dc565b92915050565b61210d81611b26565b8114612117575f80fd5b50565b5f8135905061212881612104565b92915050565b5f8060408385031215612144576121436119ab565b5b5f612151858286016119f9565b92505060206121628582860161211a565b9150509250929050565b5f8060408385031215612182576121816119ab565b5b5f61218f858286016119f9565b92505060206121a0858286016119f9565b9150509250929050565b5f805f805f60a086880312156121c3576121c26119ab565b5b5f6121d0888289016119f9565b95505060206121e1888289016119f9565b94505060406121f288828901611a2c565b935050606061220388828901611a2c565b925050608086013567ffffffffffffffff811115612224576122236119af565b5b61223088828901611dd7565b9150509295509295909350565b5f60208284031215612252576122516119ab565b5b5f61225f848285016119f9565b91505092915050565b7f4e487b71000000000000000000000000000000000000000000000000000000005f52602260045260245ffd5b5f60028204905060018216806122ac57607f821691505b6020821081036122bf576122be612268565b5b50919050565b7f4e487b71000000000000000000000000000000000000000000000000000000005f52601160045260245ffd5b5f6122fc82611a0d565b915061230783611a0d565b925082820261231581611a0d565b9150828204841483151761232c5761232b6122c5565b5b5092915050565b7f4e487b71000000000000000000000000000000000000000000000000000000005f52601260045260245ffd5b5f61236a82611a0d565b915061237583611a0d565b92508261238557612384612333565b5b828204905092915050565b5f61239a82611a0d565b91506123a583611a0d565b92508282019050808211156123bd576123bc6122c5565b5b92915050565b7f496e636f7272656374207469636b657420707269636520696e636c7564696e675f8201527f2066656500000000000000000000000000000000000000000000000000000000602082015250565b5f61241d602483611b63565b9150612428826123c3565b604082019050919050565b5f6020820190508181035f83015261244a81612411565b9050919050565b7f4e6f7420656e6f7567682062616c616e636520696e20746865207072697a65205f8201527f706f6f6c2e20506c6561736520636f6e7461637420737570706f7274206f6e2060208201527f446973636f72642e000000000000000000000000000000000000000000000000604082015250565b5f6124d1604883611b63565b91506124dc82612451565b606082019050919050565b5f6020820190508181035f8301526124fe816124c5565b9050919050565b5f6040820190506125185f8301856120dc565b61252560208301846120dc565b9392505050565b5f60408201905061253f5f830185611a7e565b61254c6020830184611a7e565b9392505050565b7f4e487b71000000000000000000000000000000000000000000000000000000005f52603260045260245ffd5b5f6080820190506125935f8301876120dc565b6125a06020830186611a7e565b6125ad6040830185611a7e565b6125ba6060830184611a7e565b95945050505050565b5f6040820190508181035f8301526125db8185612060565b905081810360208301526125ef8184612060565b90509392505050565b5f81519050919050565b5f82825260208201905092915050565b5f61261c826125f8565b6126268185612602565b9350612636818560208601611b73565b61263f81611b81565b840191505092915050565b5f60a08201905061265d5f8301886120dc565b61266a60208301876120dc565b6126776040830186611a7e565b6126846060830185611a7e565b81810360808301526126968184612612565b90509695505050505050565b5f815190506126b081611ad1565b92915050565b5f602082840312156126cb576126ca6119ab565b5b5f6126d8848285016126a2565b91505092915050565b5f60a0820190506126f45f8301886120dc565b61270160208301876120dc565b81810360408301526127138186612060565b905081810360608301526127278185612060565b9050818103608083015261273b8184612612565b9050969550505050505056fea26469706673582212208f7e85addf0fbdf795224622769e607d4aede04cb6dec783b568a9d39f7e8fa264736f6c634300081a0033",
					"opcodes": "PUSH1 0x80 PUSH1 0x40 MSTORE CALLVALUE DUP1 ISZERO PUSH2 0xF JUMPI PUSH0 DUP1 REVERT JUMPDEST POP PUSH1 0x40 MLOAD PUSH2 0x2E93 CODESIZE SUB DUP1 PUSH2 0x2E93 DUP4 CODECOPY DUP2 DUP2 ADD PUSH1 0x40 MSTORE DUP2 ADD SWAP1 PUSH2 0x31 SWAP2 SWAP1 PUSH2 0x356 JUMP JUMPDEST CALLER PUSH1 0x40 MLOAD DUP1 PUSH1 0x20 ADD PUSH1 0x40 MSTORE DUP1 PUSH0 DUP2 MSTORE POP PUSH2 0x50 DUP2 PUSH2 0x100 PUSH1 0x20 SHL PUSH1 0x20 SHR JUMP JUMPDEST POP PUSH0 PUSH20 0xFFFFFFFFFFFFFFFFFFFFFFFFFFFFFFFFFFFFFFFF AND DUP2 PUSH20 0xFFFFFFFFFFFFFFFFFFFFFFFFFFFFFFFFFFFFFFFF AND SUB PUSH2 0xC1 JUMPI PUSH0 PUSH1 0x40 MLOAD PUSH32 0x1E4FBDF700000000000000000000000000000000000000000000000000000000 DUP2 MSTORE PUSH1 0x4 ADD PUSH2 0xB8 SWAP2 SWAP1 PUSH2 0x41D JUMP JUMPDEST PUSH1 0x40 MLOAD DUP1 SWAP2 SUB SWAP1 REVERT JUMPDEST PUSH2 0xD0 DUP2 PUSH2 0x113 PUSH1 0x20 SHL PUSH1 0x20 SHR JUMP JUMPDEST POP DUP3 PUSH1 0x4 SWAP1 DUP2 PUSH2 0xE0 SWAP2 SWAP1 PUSH2 0x63A JUMP JUMPDEST POP DUP2 PUSH1 0x5 SWAP1 DUP2 PUSH2 0xF0 SWAP2 SWAP1 PUSH2 0x63A JUMP JUMPDEST POP DUP1 PUSH1 0x6 DUP2 SWAP1 SSTORE POP POP POP POP PUSH2 0x709 JUMP JUMPDEST DUP1 PUSH1 0x2 SWAP1 DUP2 PUSH2 0x10F SWAP2 SWAP1 PUSH2 0x63A JUMP JUMPDEST POP POP JUMP JUMPDEST PUSH0 PUSH1 0x3 PUSH0 SWAP1 SLOAD SWAP1 PUSH2 0x100 EXP SWAP1 DIV PUSH20 0xFFFFFFFFFFFFFFFFFFFFFFFFFFFFFFFFFFFFFFFF AND SWAP1 POP DUP2 PUSH1 0x3 PUSH0 PUSH2 0x100 EXP DUP2 SLOAD DUP2 PUSH20 0xFFFFFFFFFFFFFFFFFFFFFFFFFFFFFFFFFFFFFFFF MUL NOT AND SWAP1 DUP4 PUSH20 0xFFFFFFFFFFFFFFFFFFFFFFFFFFFFFFFFFFFFFFFF AND MUL OR SWAP1 SSTORE POP DUP2 PUSH20 0xFFFFFFFFFFFFFFFFFFFFFFFFFFFFFFFFFFFFFFFF AND DUP2 PUSH20 0xFFFFFFFFFFFFFFFFFFFFFFFFFFFFFFFFFFFFFFFF AND PUSH32 0x8BE0079C531659141344CD1FD0A4F28419497F9722A3DAAFE3B4186F6B6457E0 PUSH1 0x40 MLOAD PUSH1 0x40 MLOAD DUP1 SWAP2 SUB SWAP1 LOG3 POP POP JUMP JUMPDEST PUSH0 PUSH1 0x40 MLOAD SWAP1 POP SWAP1 JUMP JUMPDEST PUSH0 DUP1 REVERT JUMPDEST PUSH0 DUP1 REVERT JUMPDEST PUSH0 DUP1 REVERT JUMPDEST PUSH0 DUP1 REVERT JUMPDEST PUSH0 PUSH1 0x1F NOT PUSH1 0x1F DUP4 ADD AND SWAP1 POP SWAP2 SWAP1 POP JUMP JUMPDEST PUSH32 0x4E487B7100000000000000000000000000000000000000000000000000000000 PUSH0 MSTORE PUSH1 0x41 PUSH1 0x4 MSTORE PUSH1 0x24 PUSH0 REVERT JUMPDEST PUSH2 0x235 DUP3 PUSH2 0x1EF JUMP JUMPDEST DUP2 ADD DUP2 DUP2 LT PUSH8 0xFFFFFFFFFFFFFFFF DUP3 GT OR ISZERO PUSH2 0x254 JUMPI PUSH2 0x253 PUSH2 0x1FF JUMP JUMPDEST JUMPDEST DUP1 PUSH1 0x40 MSTORE POP POP POP JUMP JUMPDEST PUSH0 PUSH2 0x266 PUSH2 0x1D6 JUMP JUMPDEST SWAP1 POP PUSH2 0x272 DUP3 DUP3 PUSH2 0x22C JUMP JUMPDEST SWAP2 SWAP1 POP JUMP JUMPDEST PUSH0 PUSH8 0xFFFFFFFFFFFFFFFF DUP3 GT ISZERO PUSH2 0x291 JUMPI PUSH2 0x290 PUSH2 0x1FF JUMP JUMPDEST JUMPDEST PUSH2 0x29A DUP3 PUSH2 0x1EF JUMP JUMPDEST SWAP1 POP PUSH1 0x20 DUP2 ADD SWAP1 POP SWAP2 SWAP1 POP JUMP JUMPDEST DUP3 DUP2 DUP4 MCOPY PUSH0 DUP4 DUP4 ADD MSTORE POP POP POP JUMP JUMPDEST PUSH0 PUSH2 0x2C7 PUSH2 0x2C2 DUP5 PUSH2 0x277 JUMP JUMPDEST PUSH2 0x25D JUMP JUMPDEST SWAP1 POP DUP3 DUP2 MSTORE PUSH1 0x20 DUP2 ADD DUP5 DUP5 DUP5 ADD GT ISZERO PUSH2 0x2E3 JUMPI PUSH2 0x2E2 PUSH2 0x1EB JUMP JUMPDEST JUMPDEST PUSH2 0x2EE DUP5 DUP3 DUP6 PUSH2 0x2A7 JUMP JUMPDEST POP SWAP4 SWAP3 POP POP POP JUMP JUMPDEST PUSH0 DUP3 PUSH1 0x1F DUP4 ADD SLT PUSH2 0x30A JUMPI PUSH2 0x309 PUSH2 0x1E7 JUMP JUMPDEST JUMPDEST DUP2 MLOAD PUSH2 0x31A DUP5 DUP3 PUSH1 0x20 DUP7 ADD PUSH2 0x2B5 JUMP JUMPDEST SWAP2 POP POP SWAP3 SWAP2 POP POP JUMP JUMPDEST PUSH0 DUP2 SWAP1 POP SWAP2 SWAP1 POP JUMP JUMPDEST PUSH2 0x335 DUP2 PUSH2 0x323 JUMP JUMPDEST DUP2 EQ PUSH2 0x33F JUMPI PUSH0 DUP1 REVERT JUMPDEST POP JUMP JUMPDEST PUSH0 DUP2 MLOAD SWAP1 POP PUSH2 0x350 DUP2 PUSH2 0x32C JUMP JUMPDEST SWAP3 SWAP2 POP POP JUMP JUMPDEST PUSH0 DUP1 PUSH0 PUSH1 0x60 DUP5 DUP7 SUB SLT ISZERO PUSH2 0x36D JUMPI PUSH2 0x36C PUSH2 0x1DF JUMP JUMPDEST JUMPDEST PUSH0 DUP5 ADD MLOAD PUSH8 0xFFFFFFFFFFFFFFFF DUP2 GT ISZERO PUSH2 0x38A JUMPI PUSH2 0x389 PUSH2 0x1E3 JUMP JUMPDEST JUMPDEST PUSH2 0x396 DUP7 DUP3 DUP8 ADD PUSH2 0x2F6 JUMP JUMPDEST SWAP4 POP POP PUSH1 0x20 DUP5 ADD MLOAD PUSH8 0xFFFFFFFFFFFFFFFF DUP2 GT ISZERO PUSH2 0x3B7 JUMPI PUSH2 0x3B6 PUSH2 0x1E3 JUMP JUMPDEST JUMPDEST PUSH2 0x3C3 DUP7 DUP3 DUP8 ADD PUSH2 0x2F6 JUMP JUMPDEST SWAP3 POP POP PUSH1 0x40 PUSH2 0x3D4 DUP7 DUP3 DUP8 ADD PUSH2 0x342 JUMP JUMPDEST SWAP2 POP POP SWAP3 POP SWAP3 POP SWAP3 JUMP JUMPDEST PUSH0 PUSH20 0xFFFFFFFFFFFFFFFFFFFFFFFFFFFFFFFFFFFFFFFF DUP3 AND SWAP1 POP SWAP2 SWAP1 POP JUMP JUMPDEST PUSH0 PUSH2 0x407 DUP3 PUSH2 0x3DE JUMP JUMPDEST SWAP1 POP SWAP2 SWAP1 POP JUMP JUMPDEST PUSH2 0x417 DUP2 PUSH2 0x3FD JUMP JUMPDEST DUP3 MSTORE POP POP JUMP JUMPDEST PUSH0 PUSH1 0x20 DUP3 ADD SWAP1 POP PUSH2 0x430 PUSH0 DUP4 ADD DUP5 PUSH2 0x40E JUMP JUMPDEST SWAP3 SWAP2 POP POP JUMP JUMPDEST PUSH0 DUP2 MLOAD SWAP1 POP SWAP2 SWAP1 POP JUMP JUMPDEST PUSH32 0x4E487B7100000000000000000000000000000000000000000000000000000000 PUSH0 MSTORE PUSH1 0x22 PUSH1 0x4 MSTORE PUSH1 0x24 PUSH0 REVERT JUMPDEST PUSH0 PUSH1 0x2 DUP3 DIV SWAP1 POP PUSH1 0x1 DUP3 AND DUP1 PUSH2 0x484 JUMPI PUSH1 0x7F DUP3 AND SWAP2 POP JUMPDEST PUSH1 0x20 DUP3 LT DUP2 SUB PUSH2 0x497 JUMPI PUSH2 0x496 PUSH2 0x440 JUMP JUMPDEST JUMPDEST POP SWAP2 SWAP1 POP JUMP JUMPDEST PUSH0 DUP2 SWAP1 POP DUP2 PUSH0 MSTORE PUSH1 0x20 PUSH0 KECCAK256 SWAP1 POP SWAP2 SWAP1 POP JUMP JUMPDEST PUSH0 PUSH1 0x20 PUSH1 0x1F DUP4 ADD DIV SWAP1 POP SWAP2 SWAP1 POP JUMP JUMPDEST PUSH0 DUP3 DUP3 SHL SWAP1 POP SWAP3 SWAP2 POP POP JUMP JUMPDEST PUSH0 PUSH1 0x8 DUP4 MUL PUSH2 0x4F9 PUSH32 0xFFFFFFFFFFFFFFFFFFFFFFFFFFFFFFFFFFFFFFFFFFFFFFFFFFFFFFFFFFFFFFFF DUP3 PUSH2 0x4BE JUMP JUMPDEST PUSH2 0x503 DUP7 DUP4 PUSH2 0x4BE JUMP JUMPDEST SWAP6 POP DUP1 NOT DUP5 AND SWAP4 POP DUP1 DUP7 AND DUP5 OR SWAP3 POP POP POP SWAP4 SWAP3 POP POP POP JUMP JUMPDEST PUSH0 DUP2 SWAP1 POP SWAP2 SWAP1 POP JUMP JUMPDEST PUSH0 PUSH2 0x53E PUSH2 0x539 PUSH2 0x534 DUP5 PUSH2 0x323 JUMP JUMPDEST PUSH2 0x51B JUMP JUMPDEST PUSH2 0x323 JUMP JUMPDEST SWAP1 POP SWAP2 SWAP1 POP JUMP JUMPDEST PUSH0 DUP2 SWAP1 POP SWAP2 SWAP1 POP JUMP JUMPDEST PUSH2 0x557 DUP4 PUSH2 0x524 JUMP JUMPDEST PUSH2 0x56B PUSH2 0x563 DUP3 PUSH2 0x545 JUMP JUMPDEST DUP5 DUP5 SLOAD PUSH2 0x4CA JUMP JUMPDEST DUP3 SSTORE POP POP POP POP JUMP JUMPDEST PUSH0 SWAP1 JUMP JUMPDEST PUSH2 0x57F PUSH2 0x573 JUMP JUMPDEST PUSH2 0x58A DUP2 DUP5 DUP5 PUSH2 0x54E JUMP JUMPDEST POP POP POP JUMP JUMPDEST JUMPDEST DUP2 DUP2 LT ISZERO PUSH2 0x5AD JUMPI PUSH2 0x5A2 PUSH0 DUP3 PUSH2 0x577 JUMP JUMPDEST PUSH1 0x1 DUP2 ADD SWAP1 POP PUSH2 0x590 JUMP JUMPDEST POP POP JUMP JUMPDEST PUSH1 0x1F DUP3 GT ISZERO PUSH2 0x5F2 JUMPI PUSH2 0x5C3 DUP2 PUSH2 0x49D JUMP JUMPDEST PUSH2 0x5CC DUP5 PUSH2 0x4AF JUMP JUMPDEST DUP2 ADD PUSH1 0x20 DUP6 LT ISZERO PUSH2 0x5DB JUMPI DUP2 SWAP1 POP JUMPDEST PUSH2 0x5EF PUSH2 0x5E7 DUP6 PUSH2 0x4AF JUMP JUMPDEST DUP4 ADD DUP3 PUSH2 0x58F JUMP JUMPDEST POP POP JUMPDEST POP POP POP JUMP JUMPDEST PUSH0 DUP3 DUP3 SHR SWAP1 POP SWAP3 SWAP2 POP POP JUMP JUMPDEST PUSH0 PUSH2 0x612 PUSH0 NOT DUP5 PUSH1 0x8 MUL PUSH2 0x5F7 JUMP JUMPDEST NOT DUP1 DUP4 AND SWAP2 POP POP SWAP3 SWAP2 POP POP JUMP JUMPDEST PUSH0 PUSH2 0x62A DUP4 DUP4 PUSH2 0x603 JUMP JUMPDEST SWAP2 POP DUP3 PUSH1 0x2 MUL DUP3 OR SWAP1 POP SWAP3 SWAP2 POP POP JUMP JUMPDEST PUSH2 0x643 DUP3 PUSH2 0x436 JUMP JUMPDEST PUSH8 0xFFFFFFFFFFFFFFFF DUP2 GT ISZERO PUSH2 0x65C JUMPI PUSH2 0x65B PUSH2 0x1FF JUMP JUMPDEST JUMPDEST PUSH2 0x666 DUP3 SLOAD PUSH2 0x46D JUMP JUMPDEST PUSH2 0x671 DUP3 DUP3 DUP6 PUSH2 0x5B1 JUMP JUMPDEST PUSH0 PUSH1 0x20 SWAP1 POP PUSH1 0x1F DUP4 GT PUSH1 0x1 DUP2 EQ PUSH2 0x6A2 JUMPI PUSH0 DUP5 ISZERO PUSH2 0x690 JUMPI DUP3 DUP8 ADD MLOAD SWAP1 POP JUMPDEST PUSH2 0x69A DUP6 DUP3 PUSH2 0x61F JUMP JUMPDEST DUP7 SSTORE POP PUSH2 0x701 JUMP JUMPDEST PUSH1 0x1F NOT DUP5 AND PUSH2 0x6B0 DUP7 PUSH2 0x49D JUMP JUMPDEST PUSH0 JUMPDEST DUP3 DUP2 LT ISZERO PUSH2 0x6D7 JUMPI DUP5 DUP10 ADD MLOAD DUP3 SSTORE PUSH1 0x1 DUP3 ADD SWAP2 POP PUSH1 0x20 DUP6 ADD SWAP5 POP PUSH1 0x20 DUP2 ADD SWAP1 POP PUSH2 0x6B2 JUMP JUMPDEST DUP7 DUP4 LT ISZERO PUSH2 0x6F4 JUMPI DUP5 DUP10 ADD MLOAD PUSH2 0x6F0 PUSH1 0x1F DUP10 AND DUP3 PUSH2 0x603 JUMP JUMPDEST DUP4 SSTORE POP JUMPDEST PUSH1 0x1 PUSH1 0x2 DUP9 MUL ADD DUP9 SSTORE POP POP POP JUMPDEST POP POP POP POP POP POP JUMP JUMPDEST PUSH2 0x277D DUP1 PUSH2 0x716 PUSH0 CODECOPY PUSH0 RETURN INVALID PUSH1 0x80 PUSH1 0x40 MSTORE PUSH1 0x4 CALLDATASIZE LT PUSH2 0xE6 JUMPI PUSH0 CALLDATALOAD PUSH1 0xE0 SHR DUP1 PUSH4 0x4E1273F4 GT PUSH2 0x89 JUMPI DUP1 PUSH4 0xA22CB465 GT PUSH2 0x58 JUMPI DUP1 PUSH4 0xA22CB465 EQ PUSH2 0x2CA JUMPI DUP1 PUSH4 0xE985E9C5 EQ PUSH2 0x2F2 JUMPI DUP1 PUSH4 0xF242432A EQ PUSH2 0x32E JUMPI DUP1 PUSH4 0xF2FDE38B EQ PUSH2 0x356 JUMPI PUSH2 0xE6 JUMP JUMPDEST DUP1 PUSH4 0x4E1273F4 EQ PUSH2 0x224 JUMPI DUP1 PUSH4 0x715018A6 EQ PUSH2 0x260 JUMPI DUP1 PUSH4 0x8DA5CB5B EQ PUSH2 0x276 JUMPI DUP1 PUSH4 0x95D89B41 EQ PUSH2 0x2A0 JUMPI PUSH2 0xE6 JUMP JUMPDEST DUP1 PUSH4 0xE89341C GT PUSH2 0xC5 JUMPI DUP1 PUSH4 0xE89341C EQ PUSH2 0x18C JUMPI DUP1 PUSH4 0x1209B1F6 EQ PUSH2 0x1C8 JUMPI DUP1 PUSH4 0x21846C76 EQ PUSH2 0x1F2 JUMPI DUP1 PUSH4 0x2EB2C2D6 EQ PUSH2 0x1FC JUMPI PUSH2 0xE6 JUMP JUMPDEST DUP1 PUSH3 0xFDD58E EQ PUSH2 0xEA JUMPI DUP1 PUSH4 0x1FFC9A7 EQ PUSH2 0x126 JUMPI DUP1 PUSH4 0x6FDDE03 EQ PUSH2 0x162 JUMPI JUMPDEST PUSH0 DUP1 REVERT JUMPDEST CALLVALUE DUP1 ISZERO PUSH2 0xF5 JUMPI PUSH0 DUP1 REVERT JUMPDEST POP PUSH2 0x110 PUSH1 0x4 DUP1 CALLDATASIZE SUB DUP2 ADD SWAP1 PUSH2 0x10B SWAP2 SWAP1 PUSH2 0x1A40 JUMP JUMPDEST PUSH2 0x37E JUMP JUMPDEST PUSH1 0x40 MLOAD PUSH2 0x11D SWAP2 SWAP1 PUSH2 0x1A8D JUMP JUMPDEST PUSH1 0x40 MLOAD DUP1 SWAP2 SUB SWAP1 RETURN JUMPDEST CALLVALUE DUP1 ISZERO PUSH2 0x131 JUMPI PUSH0 DUP1 REVERT JUMPDEST POP PUSH2 0x14C PUSH1 0x4 DUP1 CALLDATASIZE SUB DUP2 ADD SWAP1 PUSH2 0x147 SWAP2 SWAP1 PUSH2 0x1AFB JUMP JUMPDEST PUSH2 0x3D3 JUMP JUMPDEST PUSH1 0x40 MLOAD PUSH2 0x159 SWAP2 SWAP1 PUSH2 0x1B40 JUMP JUMPDEST PUSH1 0x40 MLOAD DUP1 SWAP2 SUB SWAP1 RETURN JUMPDEST CALLVALUE DUP1 ISZERO PUSH2 0x16D JUMPI PUSH0 DUP1 REVERT JUMPDEST POP PUSH2 0x176 PUSH2 0x4B4 JUMP JUMPDEST PUSH1 0x40 MLOAD PUSH2 0x183 SWAP2 SWAP1 PUSH2 0x1BC9 JUMP JUMPDEST PUSH1 0x40 MLOAD DUP1 SWAP2 SUB SWAP1 RETURN JUMPDEST CALLVALUE DUP1 ISZERO PUSH2 0x197 JUMPI PUSH0 DUP1 REVERT JUMPDEST POP PUSH2 0x1B2 PUSH1 0x4 DUP1 CALLDATASIZE SUB DUP2 ADD SWAP1 PUSH2 0x1AD SWAP2 SWAP1 PUSH2 0x1BE9 JUMP JUMPDEST PUSH2 0x540 JUMP JUMPDEST PUSH1 0x40 MLOAD PUSH2 0x1BF SWAP2 SWAP1 PUSH2 0x1BC9 JUMP JUMPDEST PUSH1 0x40 MLOAD DUP1 SWAP2 SUB SWAP1 RETURN JUMPDEST CALLVALUE DUP1 ISZERO PUSH2 0x1D3 JUMPI PUSH0 DUP1 REVERT JUMPDEST POP PUSH2 0x1DC PUSH2 0x5D2 JUMP JUMPDEST PUSH1 0x40 MLOAD PUSH2 0x1E9 SWAP2 SWAP1 PUSH2 0x1A8D JUMP JUMPDEST PUSH1 0x40 MLOAD DUP1 SWAP2 SUB SWAP1 RETURN JUMPDEST PUSH2 0x1FA PUSH2 0x5D8 JUMP JUMPDEST STOP JUMPDEST CALLVALUE DUP1 ISZERO PUSH2 0x207 JUMPI PUSH0 DUP1 REVERT JUMPDEST POP PUSH2 0x222 PUSH1 0x4 DUP1 CALLDATASIZE SUB DUP2 ADD SWAP1 PUSH2 0x21D SWAP2 SWAP1 PUSH2 0x1E04 JUMP JUMPDEST PUSH2 0x7B8 JUMP JUMPDEST STOP JUMPDEST CALLVALUE DUP1 ISZERO PUSH2 0x22F JUMPI PUSH0 DUP1 REVERT JUMPDEST POP PUSH2 0x24A PUSH1 0x4 DUP1 CALLDATASIZE SUB DUP2 ADD SWAP1 PUSH2 0x245 SWAP2 SWAP1 PUSH2 0x1F8F JUMP JUMPDEST PUSH2 0x85F JUMP JUMPDEST PUSH1 0x40 MLOAD PUSH2 0x257 SWAP2 SWAP1 PUSH2 0x20BC JUMP JUMPDEST PUSH1 0x40 MLOAD DUP1 SWAP2 SUB SWAP1 RETURN JUMPDEST CALLVALUE DUP1 ISZERO PUSH2 0x26B JUMPI PUSH0 DUP1 REVERT JUMPDEST POP PUSH2 0x274 PUSH2 0x966 JUMP JUMPDEST STOP JUMPDEST CALLVALUE DUP1 ISZERO PUSH2 0x281 JUMPI PUSH0 DUP1 REVERT JUMPDEST POP PUSH2 0x28A PUSH2 0x979 JUMP JUMPDEST PUSH1 0x40 MLOAD PUSH2 0x297 SWAP2 SWAP1 PUSH2 0x20EB JUMP JUMPDEST PUSH1 0x40 MLOAD DUP1 SWAP2 SUB SWAP1 RETURN JUMPDEST CALLVALUE DUP1 ISZERO PUSH2 0x2AB JUMPI PUSH0 DUP1 REVERT JUMPDEST POP PUSH2 0x2B4 PUSH2 0x9A1 JUMP JUMPDEST PUSH1 0x40 MLOAD PUSH2 0x2C1 SWAP2 SWAP1 PUSH2 0x1BC9 JUMP JUMPDEST PUSH1 0x40 MLOAD DUP1 SWAP2 SUB SWAP1 RETURN JUMPDEST CALLVALUE DUP1 ISZERO PUSH2 0x2D5 JUMPI PUSH0 DUP1 REVERT JUMPDEST POP PUSH2 0x2F0 PUSH1 0x4 DUP1 CALLDATASIZE SUB DUP2 ADD SWAP1 PUSH2 0x2EB SWAP2 SWAP1 PUSH2 0x212E JUMP JUMPDEST PUSH2 0xA2D JUMP JUMPDEST STOP JUMPDEST CALLVALUE DUP1 ISZERO PUSH2 0x2FD JUMPI PUSH0 DUP1 REVERT JUMPDEST POP PUSH2 0x318 PUSH1 0x4 DUP1 CALLDATASIZE SUB DUP2 ADD SWAP1 PUSH2 0x313 SWAP2 SWAP1 PUSH2 0x216C JUMP JUMPDEST PUSH2 0xA43 JUMP JUMPDEST PUSH1 0x40 MLOAD PUSH2 0x325 SWAP2 SWAP1 PUSH2 0x1B40 JUMP JUMPDEST PUSH1 0x40 MLOAD DUP1 SWAP2 SUB SWAP1 RETURN JUMPDEST CALLVALUE DUP1 ISZERO PUSH2 0x339 JUMPI PUSH0 DUP1 REVERT JUMPDEST POP PUSH2 0x354 PUSH1 0x4 DUP1 CALLDATASIZE SUB DUP2 ADD SWAP1 PUSH2 0x34F SWAP2 SWAP1 PUSH2 0x21AA JUMP JUMPDEST PUSH2 0xAD1 JUMP JUMPDEST STOP JUMPDEST CALLVALUE DUP1 ISZERO PUSH2 0x361 JUMPI PUSH0 DUP1 REVERT JUMPDEST POP PUSH2 0x37C PUSH1 0x4 DUP1 CALLDATASIZE SUB DUP2 ADD SWAP1 PUSH2 0x377 SWAP2 SWAP1 PUSH2 0x223D JUMP JUMPDEST PUSH2 0xB78 JUMP JUMPDEST STOP JUMPDEST PUSH0 DUP1 PUSH0 DUP4 DUP2 MSTORE PUSH1 0x20 ADD SWAP1 DUP2 MSTORE PUSH1 0x20 ADD PUSH0 KECCAK256 PUSH0 DUP5 PUSH20 0xFFFFFFFFFFFFFFFFFFFFFFFFFFFFFFFFFFFFFFFF AND PUSH20 0xFFFFFFFFFFFFFFFFFFFFFFFFFFFFFFFFFFFFFFFF AND DUP2 MSTORE PUSH1 0x20 ADD SWAP1 DUP2 MSTORE PUSH1 0x20 ADD PUSH0 KECCAK256 SLOAD SWAP1 POP SWAP3 SWAP2 POP POP JUMP JUMPDEST PUSH0 PUSH32 0xD9B67A2600000000000000000000000000000000000000000000000000000000 PUSH28 0xFFFFFFFFFFFFFFFFFFFFFFFFFFFFFFFFFFFFFFFFFFFFFFFFFFFFFFFF NOT AND DUP3 PUSH28 0xFFFFFFFFFFFFFFFFFFFFFFFFFFFFFFFFFFFFFFFFFFFFFFFFFFFFFFFF NOT AND EQ DUP1 PUSH2 0x49D JUMPI POP PUSH32 0xE89341C00000000000000000000000000000000000000000000000000000000 PUSH28 0xFFFFFFFFFFFFFFFFFFFFFFFFFFFFFFFFFFFFFFFFFFFFFFFFFFFFFFFF NOT AND DUP3 PUSH28 0xFFFFFFFFFFFFFFFFFFFFFFFFFFFFFFFFFFFFFFFFFFFFFFFFFFFFFFFF NOT AND EQ JUMPDEST DUP1 PUSH2 0x4AD JUMPI POP PUSH2 0x4AC DUP3 PUSH2 0xBFC JUMP JUMPDEST JUMPDEST SWAP1 POP SWAP2 SWAP1 POP JUMP JUMPDEST PUSH1 0x4 DUP1 SLOAD PUSH2 0x4C1 SWAP1 PUSH2 0x2295 JUMP JUMPDEST DUP1 PUSH1 0x1F ADD PUSH1 0x20 DUP1 SWAP2 DIV MUL PUSH1 0x20 ADD PUSH1 0x40 MLOAD SWAP1 DUP2 ADD PUSH1 0x40 MSTORE DUP1 SWAP3 SWAP2 SWAP1 DUP2 DUP2 MSTORE PUSH1 0x20 ADD DUP3 DUP1 SLOAD PUSH2 0x4ED SWAP1 PUSH2 0x2295 JUMP JUMPDEST DUP1 ISZERO PUSH2 0x538 JUMPI DUP1 PUSH1 0x1F LT PUSH2 0x50F JUMPI PUSH2 0x100 DUP1 DUP4 SLOAD DIV MUL DUP4 MSTORE SWAP2 PUSH1 0x20 ADD SWAP2 PUSH2 0x538 JUMP JUMPDEST DUP3 ADD SWAP2 SWAP1 PUSH0 MSTORE PUSH1 0x20 PUSH0 KECCAK256 SWAP1 JUMPDEST DUP2 SLOAD DUP2 MSTORE SWAP1 PUSH1 0x1 ADD SWAP1 PUSH1 0x20 ADD DUP1 DUP4 GT PUSH2 0x51B JUMPI DUP3 SWAP1 SUB PUSH1 0x1F AND DUP3 ADD SWAP2 JUMPDEST POP POP POP POP POP DUP2 JUMP JUMPDEST PUSH1 0x60 PUSH1 0x2 DUP1 SLOAD PUSH2 0x54F SWAP1 PUSH2 0x2295 JUMP JUMPDEST DUP1 PUSH1 0x1F ADD PUSH1 0x20 DUP1 SWAP2 DIV MUL PUSH1 0x20 ADD PUSH1 0x40 MLOAD SWAP1 DUP2 ADD PUSH1 0x40 MSTORE DUP1 SWAP3 SWAP2 SWAP1 DUP2 DUP2 MSTORE PUSH1 0x20 ADD DUP3 DUP1 SLOAD PUSH2 0x57B SWAP1 PUSH2 0x2295 JUMP JUMPDEST DUP1 ISZERO PUSH2 0x5C6 JUMPI DUP1 PUSH1 0x1F LT PUSH2 0x59D JUMPI PUSH2 0x100 DUP1 DUP4 SLOAD DIV MUL DUP4 MSTORE SWAP2 PUSH1 0x20 ADD SWAP2 PUSH2 0x5C6 JUMP JUMPDEST DUP3 ADD SWAP2 SWAP1 PUSH0 MSTORE PUSH1 0x20 PUSH0 KECCAK256 SWAP1 JUMPDEST DUP2 SLOAD DUP2 MSTORE SWAP1 PUSH1 0x1 ADD SWAP1 PUSH1 0x20 ADD DUP1 DUP4 GT PUSH2 0x5A9 JUMPI DUP3 SWAP1 SUB PUSH1 0x1F AND DUP3 ADD SWAP2 JUMPDEST POP POP POP POP POP SWAP1 POP SWAP2 SWAP1 POP JUMP JUMPDEST PUSH1 0x6 SLOAD DUP2 JUMP JUMPDEST PUSH0 PUSH2 0x3E8 PUSH1 0x17 PUSH1 0x6 SLOAD PUSH2 0x5EB SWAP2 SWAP1 PUSH2 0x22F2 JUMP JUMPDEST PUSH2 0x5F5 SWAP2 SWAP1 PUSH2 0x2360 JUMP JUMPDEST SWAP1 POP PUSH0 DUP2 PUSH1 0x6 SLOAD PUSH2 0x606 SWAP2 SWAP1 PUSH2 0x2390 JUMP JUMPDEST SWAP1 POP DUP1 CALLVALUE EQ PUSH2 0x64A JUMPI PUSH1 0x40 MLOAD PUSH32 0x8C379A000000000000000000000000000000000000000000000000000000000 DUP2 MSTORE PUSH1 0x4 ADD PUSH2 0x641 SWAP1 PUSH2 0x2433 JUMP JUMPDEST PUSH1 0x40 MLOAD DUP1 SWAP2 SUB SWAP1 REVERT JUMPDEST PUSH0 PUSH2 0x653 PUSH2 0xC65 JUMP JUMPDEST SWAP1 POP PUSH2 0x670 CALLER DUP3 PUSH1 0x1 PUSH1 0x40 MLOAD DUP1 PUSH1 0x20 ADD PUSH1 0x40 MSTORE DUP1 PUSH0 DUP2 MSTORE POP PUSH2 0xC69 JUMP JUMPDEST PUSH0 PUSH1 0x7 DUP3 EQ SWAP1 POP DUP2 CALLER PUSH20 0xFFFFFFFFFFFFFFFFFFFFFFFFFFFFFFFFFFFFFFFF AND PUSH32 0xCE6F92A6E721497CFAFE2DAD26BB22A06CB949BC4DDA21CCC60203DB70F1ED89 DUP4 PUSH1 0x40 MLOAD PUSH2 0x6BE SWAP2 SWAP1 PUSH2 0x1B40 JUMP JUMPDEST PUSH1 0x40 MLOAD DUP1 SWAP2 SUB SWAP1 LOG3 PUSH2 0x6CE PUSH2 0x979 JUMP JUMPDEST PUSH20 0xFFFFFFFFFFFFFFFFFFFFFFFFFFFFFFFFFFFFFFFF AND PUSH2 0x8FC DUP6 SWAP1 DUP2 ISZERO MUL SWAP1 PUSH1 0x40 MLOAD PUSH0 PUSH1 0x40 MLOAD DUP1 DUP4 SUB DUP2 DUP6 DUP9 DUP9 CALL SWAP4 POP POP POP POP ISZERO DUP1 ISZERO PUSH2 0x710 JUMPI RETURNDATASIZE PUSH0 DUP1 RETURNDATACOPY RETURNDATASIZE PUSH0 REVERT JUMPDEST POP DUP1 ISZERO PUSH2 0x7B2 JUMPI PUSH0 PUSH1 0x2 PUSH1 0x6 SLOAD PUSH2 0x727 SWAP2 SWAP1 PUSH2 0x22F2 JUMP JUMPDEST SWAP1 POP DUP1 SELFBALANCE LT ISZERO PUSH2 0x76C JUMPI PUSH1 0x40 MLOAD PUSH32 0x8C379A000000000000000000000000000000000000000000000000000000000 DUP2 MSTORE PUSH1 0x4 ADD PUSH2 0x763 SWAP1 PUSH2 0x24E7 JUMP JUMPDEST PUSH1 0x40 MLOAD DUP1 SWAP2 SUB SWAP1 REVERT JUMPDEST CALLER PUSH20 0xFFFFFFFFFFFFFFFFFFFFFFFFFFFFFFFFFFFFFFFF AND PUSH2 0x8FC DUP3 SWAP1 DUP2 ISZERO MUL SWAP1 PUSH1 0x40 MLOAD PUSH0 PUSH1 0x40 MLOAD DUP1 DUP4 SUB DUP2 DUP6 DUP9 DUP9 CALL SWAP4 POP POP POP POP ISZERO DUP1 ISZERO PUSH2 0x7AF JUMPI RETURNDATASIZE PUSH0 DUP1 RETURNDATACOPY RETURNDATASIZE PUSH0 REVERT JUMPDEST POP POP JUMPDEST POP POP POP POP JUMP JUMPDEST PUSH0 PUSH2 0x7C1 PUSH2 0xCFE JUMP JUMPDEST SWAP1 POP DUP1 PUSH20 0xFFFFFFFFFFFFFFFFFFFFFFFFFFFFFFFFFFFFFFFF AND DUP7 PUSH20 0xFFFFFFFFFFFFFFFFFFFFFFFFFFFFFFFFFFFFFFFF AND EQ ISZERO DUP1 ISZERO PUSH2 0x806 JUMPI POP PUSH2 0x804 DUP7 DUP3 PUSH2 0xA43 JUMP JUMPDEST ISZERO JUMPDEST ISZERO PUSH2 0x84A JUMPI DUP1 DUP7 PUSH1 0x40 MLOAD PUSH32 0xE237D92200000000000000000000000000000000000000000000000000000000 DUP2 MSTORE PUSH1 0x4 ADD PUSH2 0x841 SWAP3 SWAP2 SWAP1 PUSH2 0x2505 JUMP JUMPDEST PUSH1 0x40 MLOAD DUP1 SWAP2 SUB SWAP1 REVERT JUMPDEST PUSH2 0x857 DUP7 DUP7 DUP7 DUP7 DUP7 PUSH2 0xD05 JUMP JUMPDEST POP POP POP POP POP POP JUMP JUMPDEST PUSH1 0x60 DUP2 MLOAD DUP4 MLOAD EQ PUSH2 0x8AB JUMPI DUP2 MLOAD DUP4 MLOAD PUSH1 0x40 MLOAD PUSH32 0x5B05999100000000000000000000000000000000000000000000000000000000 DUP2 MSTORE PUSH1 0x4 ADD PUSH2 0x8A2 SWAP3 SWAP2 SWAP1 PUSH2 0x252C JUMP JUMPDEST PUSH1 0x40 MLOAD DUP1 SWAP2 SUB SWAP1 REVERT JUMPDEST PUSH0 DUP4 MLOAD PUSH8 0xFFFFFFFFFFFFFFFF DUP2 GT ISZERO PUSH2 0x8C7 JUMPI PUSH2 0x8C6 PUSH2 0x1C18 JUMP JUMPDEST JUMPDEST PUSH1 0x40 MLOAD SWAP1 DUP1 DUP3 MSTORE DUP1 PUSH1 0x20 MUL PUSH1 0x20 ADD DUP3 ADD PUSH1 0x40 MSTORE DUP1 ISZERO PUSH2 0x8F5 JUMPI DUP2 PUSH1 0x20 ADD PUSH1 0x20 DUP3 MUL DUP1 CALLDATASIZE DUP4 CALLDATACOPY DUP1 DUP3 ADD SWAP2 POP POP SWAP1 POP JUMPDEST POP SWAP1 POP PUSH0 JUMPDEST DUP5 MLOAD DUP2 LT ISZERO PUSH2 0x95B JUMPI PUSH2 0x931 PUSH2 0x919 DUP3 DUP8 PUSH2 0xDF9 SWAP1 SWAP2 SWAP1 PUSH4 0xFFFFFFFF AND JUMP JUMPDEST PUSH2 0x92C DUP4 DUP8 PUSH2 0xE0C SWAP1 SWAP2 SWAP1 PUSH4 0xFFFFFFFF AND JUMP JUMPDEST PUSH2 0x37E JUMP JUMPDEST DUP3 DUP3 DUP2 MLOAD DUP2 LT PUSH2 0x944 JUMPI PUSH2 0x943 PUSH2 0x2553 JUMP JUMPDEST JUMPDEST PUSH1 0x20 MUL PUSH1 0x20 ADD ADD DUP2 DUP2 MSTORE POP POP DUP1 PUSH1 0x1 ADD SWAP1 POP PUSH2 0x8FA JUMP JUMPDEST POP DUP1 SWAP2 POP POP SWAP3 SWAP2 POP POP JUMP JUMPDEST PUSH2 0x96E PUSH2 0xE1F JUMP JUMPDEST PUSH2 0x977 PUSH0 PUSH2 0xEA6 JUMP JUMPDEST JUMP JUMPDEST PUSH0 PUSH1 0x3 PUSH0 SWAP1 SLOAD SWAP1 PUSH2 0x100 EXP SWAP1 DIV PUSH20 0xFFFFFFFFFFFFFFFFFFFFFFFFFFFFFFFFFFFFFFFF AND SWAP1 POP SWAP1 JUMP JUMPDEST PUSH1 0x5 DUP1 SLOAD PUSH2 0x9AE SWAP1 PUSH2 0x2295 JUMP JUMPDEST DUP1 PUSH1 0x1F ADD PUSH1 0x20 DUP1 SWAP2 DIV MUL PUSH1 0x20 ADD PUSH1 0x40 MLOAD SWAP1 DUP2 ADD PUSH1 0x40 MSTORE DUP1 SWAP3 SWAP2 SWAP1 DUP2 DUP2 MSTORE PUSH1 0x20 ADD DUP3 DUP1 SLOAD PUSH2 0x9DA SWAP1 PUSH2 0x2295 JUMP JUMPDEST DUP1 ISZERO PUSH2 0xA25 JUMPI DUP1 PUSH1 0x1F LT PUSH2 0x9FC JUMPI PUSH2 0x100 DUP1 DUP4 SLOAD DIV MUL DUP4 MSTORE SWAP2 PUSH1 0x20 ADD SWAP2 PUSH2 0xA25 JUMP JUMPDEST DUP3 ADD SWAP2 SWAP1 PUSH0 MSTORE PUSH1 0x20 PUSH0 KECCAK256 SWAP1 JUMPDEST DUP2 SLOAD DUP2 MSTORE SWAP1 PUSH1 0x1 ADD SWAP1 PUSH1 0x20 ADD DUP1 DUP4 GT PUSH2 0xA08 JUMPI DUP3 SWAP1 SUB PUSH1 0x1F AND DUP3 ADD SWAP2 JUMPDEST POP POP POP POP POP DUP2 JUMP JUMPDEST PUSH2 0xA3F PUSH2 0xA38 PUSH2 0xCFE JUMP JUMPDEST DUP4 DUP4 PUSH2 0xF69 JUMP JUMPDEST POP POP JUMP JUMPDEST PUSH0 PUSH1 0x1 PUSH0 DUP5 PUSH20 0xFFFFFFFFFFFFFFFFFFFFFFFFFFFFFFFFFFFFFFFF AND PUSH20 0xFFFFFFFFFFFFFFFFFFFFFFFFFFFFFFFFFFFFFFFF AND DUP2 MSTORE PUSH1 0x20 ADD SWAP1 DUP2 MSTORE PUSH1 0x20 ADD PUSH0 KECCAK256 PUSH0 DUP4 PUSH20 0xFFFFFFFFFFFFFFFFFFFFFFFFFFFFFFFFFFFFFFFF AND PUSH20 0xFFFFFFFFFFFFFFFFFFFFFFFFFFFFFFFFFFFFFFFF AND DUP2 MSTORE PUSH1 0x20 ADD SWAP1 DUP2 MSTORE PUSH1 0x20 ADD PUSH0 KECCAK256 PUSH0 SWAP1 SLOAD SWAP1 PUSH2 0x100 EXP SWAP1 DIV PUSH1 0xFF AND SWAP1 POP SWAP3 SWAP2 POP POP JUMP JUMPDEST PUSH0 PUSH2 0xADA PUSH2 0xCFE JUMP JUMPDEST SWAP1 POP DUP1 PUSH20 0xFFFFFFFFFFFFFFFFFFFFFFFFFFFFFFFFFFFFFFFF AND DUP7 PUSH20 0xFFFFFFFFFFFFFFFFFFFFFFFFFFFFFFFFFFFFFFFF AND EQ ISZERO DUP1 ISZERO PUSH2 0xB1F JUMPI POP PUSH2 0xB1D DUP7 DUP3 PUSH2 0xA43 JUMP JUMPDEST ISZERO JUMPDEST ISZERO PUSH2 0xB63 JUMPI DUP1 DUP7 PUSH1 0x40 MLOAD PUSH32 0xE237D92200000000000000000000000000000000000000000000000000000000 DUP2 MSTORE PUSH1 0x4 ADD PUSH2 0xB5A SWAP3 SWAP2 SWAP1 PUSH2 0x2505 JUMP JUMPDEST PUSH1 0x40 MLOAD DUP1 SWAP2 SUB SWAP1 REVERT JUMPDEST PUSH2 0xB70 DUP7 DUP7 DUP7 DUP7 DUP7 PUSH2 0x10D2 JUMP JUMPDEST POP POP POP POP POP POP JUMP JUMPDEST PUSH2 0xB80 PUSH2 0xE1F JUMP JUMPDEST PUSH0 PUSH20 0xFFFFFFFFFFFFFFFFFFFFFFFFFFFFFFFFFFFFFFFF AND DUP2 PUSH20 0xFFFFFFFFFFFFFFFFFFFFFFFFFFFFFFFFFFFFFFFF AND SUB PUSH2 0xBF0 JUMPI PUSH0 PUSH1 0x40 MLOAD PUSH32 0x1E4FBDF700000000000000000000000000000000000000000000000000000000 DUP2 MSTORE PUSH1 0x4 ADD PUSH2 0xBE7 SWAP2 SWAP1 PUSH2 0x20EB JUMP JUMPDEST PUSH1 0x40 MLOAD DUP1 SWAP2 SUB SWAP1 REVERT JUMPDEST PUSH2 0xBF9 DUP2 PUSH2 0xEA6 JUMP JUMPDEST POP JUMP JUMPDEST PUSH0 PUSH32 0x1FFC9A700000000000000000000000000000000000000000000000000000000 PUSH28 0xFFFFFFFFFFFFFFFFFFFFFFFFFFFFFFFFFFFFFFFFFFFFFFFFFFFFFFFF NOT AND DUP3 PUSH28 0xFFFFFFFFFFFFFFFFFFFFFFFFFFFFFFFFFFFFFFFFFFFFFFFFFFFFFFFF NOT AND EQ SWAP1 POP SWAP2 SWAP1 POP JUMP JUMPDEST PUSH0 SWAP1 JUMP JUMPDEST PUSH0 PUSH20 0xFFFFFFFFFFFFFFFFFFFFFFFFFFFFFFFFFFFFFFFF AND DUP5 PUSH20 0xFFFFFFFFFFFFFFFFFFFFFFFFFFFFFFFFFFFFFFFF AND SUB PUSH2 0xCD9 JUMPI PUSH0 PUSH1 0x40 MLOAD PUSH32 0x57F447CE00000000000000000000000000000000000000000000000000000000 DUP2 MSTORE PUSH1 0x4 ADD PUSH2 0xCD0 SWAP2 SWAP1 PUSH2 0x20EB JUMP JUMPDEST PUSH1 0x40 MLOAD DUP1 SWAP2 SUB SWAP1 REVERT JUMPDEST PUSH0 DUP1 PUSH2 0xCE5 DUP6 DUP6 PUSH2 0x11D8 JUMP JUMPDEST SWAP2 POP SWAP2 POP PUSH2 0xCF6 PUSH0 DUP8 DUP5 DUP5 DUP8 PUSH2 0x1208 JUMP JUMPDEST POP POP POP POP POP POP JUMP JUMPDEST PUSH0 CALLER SWAP1 POP SWAP1 JUMP JUMPDEST PUSH0 PUSH20 0xFFFFFFFFFFFFFFFFFFFFFFFFFFFFFFFFFFFFFFFF AND DUP5 PUSH20 0xFFFFFFFFFFFFFFFFFFFFFFFFFFFFFFFFFFFFFFFF AND SUB PUSH2 0xD75 JUMPI PUSH0 PUSH1 0x40 MLOAD PUSH32 0x57F447CE00000000000000000000000000000000000000000000000000000000 DUP2 MSTORE PUSH1 0x4 ADD PUSH2 0xD6C SWAP2 SWAP1 PUSH2 0x20EB JUMP JUMPDEST PUSH1 0x40 MLOAD DUP1 SWAP2 SUB SWAP1 REVERT JUMPDEST PUSH0 PUSH20 0xFFFFFFFFFFFFFFFFFFFFFFFFFFFFFFFFFFFFFFFF AND DUP6 PUSH20 0xFFFFFFFFFFFFFFFFFFFFFFFFFFFFFFFFFFFFFFFF AND SUB PUSH2 0xDE5 JUMPI PUSH0 PUSH1 0x40 MLOAD PUSH32 0x1A8351400000000000000000000000000000000000000000000000000000000 DUP2 MSTORE PUSH1 0x4 ADD PUSH2 0xDDC SWAP2 SWAP1 PUSH2 0x20EB JUMP JUMPDEST PUSH1 0x40 MLOAD DUP1 SWAP2 SUB SWAP1 REVERT JUMPDEST PUSH2 0xDF2 DUP6 DUP6 DUP6 DUP6 DUP6 PUSH2 0x1208 JUMP JUMPDEST POP POP POP POP POP JUMP JUMPDEST PUSH0 PUSH1 0x20 DUP3 MUL PUSH1 0x20 DUP5 ADD ADD MLOAD SWAP1 POP SWAP3 SWAP2 POP POP JUMP JUMPDEST PUSH0 PUSH1 0x20 DUP3 MUL PUSH1 0x20 DUP5 ADD ADD MLOAD SWAP1 POP SWAP3 SWAP2 POP POP JUMP JUMPDEST PUSH2 0xE27 PUSH2 0xCFE JUMP JUMPDEST PUSH20 0xFFFFFFFFFFFFFFFFFFFFFFFFFFFFFFFFFFFFFFFF AND PUSH2 0xE45 PUSH2 0x979 JUMP JUMPDEST PUSH20 0xFFFFFFFFFFFFFFFFFFFFFFFFFFFFFFFFFFFFFFFF AND EQ PUSH2 0xEA4 JUMPI PUSH2 0xE68 PUSH2 0xCFE JUMP JUMPDEST PUSH1 0x40 MLOAD PUSH32 0x118CDAA700000000000000000000000000000000000000000000000000000000 DUP2 MSTORE PUSH1 0x4 ADD PUSH2 0xE9B SWAP2 SWAP1 PUSH2 0x20EB JUMP JUMPDEST PUSH1 0x40 MLOAD DUP1 SWAP2 SUB SWAP1 REVERT JUMPDEST JUMP JUMPDEST PUSH0 PUSH1 0x3 PUSH0 SWAP1 SLOAD SWAP1 PUSH2 0x100 EXP SWAP1 DIV PUSH20 0xFFFFFFFFFFFFFFFFFFFFFFFFFFFFFFFFFFFFFFFF AND SWAP1 POP DUP2 PUSH1 0x3 PUSH0 PUSH2 0x100 EXP DUP2 SLOAD DUP2 PUSH20 0xFFFFFFFFFFFFFFFFFFFFFFFFFFFFFFFFFFFFFFFF MUL NOT AND SWAP1 DUP4 PUSH20 0xFFFFFFFFFFFFFFFFFFFFFFFFFFFFFFFFFFFFFFFF AND MUL OR SWAP1 SSTORE POP DUP2 PUSH20 0xFFFFFFFFFFFFFFFFFFFFFFFFFFFFFFFFFFFFFFFF AND DUP2 PUSH20 0xFFFFFFFFFFFFFFFFFFFFFFFFFFFFFFFFFFFFFFFF AND PUSH32 0x8BE0079C531659141344CD1FD0A4F28419497F9722A3DAAFE3B4186F6B6457E0 PUSH1 0x40 MLOAD PUSH1 0x40 MLOAD DUP1 SWAP2 SUB SWAP1 LOG3 POP POP JUMP JUMPDEST PUSH0 PUSH20 0xFFFFFFFFFFFFFFFFFFFFFFFFFFFFFFFFFFFFFFFF AND DUP3 PUSH20 0xFFFFFFFFFFFFFFFFFFFFFFFFFFFFFFFFFFFFFFFF AND SUB PUSH2 0xFD9 JUMPI PUSH0 PUSH1 0x40 MLOAD PUSH32 0xCED3E10000000000000000000000000000000000000000000000000000000000 DUP2 MSTORE PUSH1 0x4 ADD PUSH2 0xFD0 SWAP2 SWAP1 PUSH2 0x20EB JUMP JUMPDEST PUSH1 0x40 MLOAD DUP1 SWAP2 SUB SWAP1 REVERT JUMPDEST DUP1 PUSH1 0x1 PUSH0 DUP6 PUSH20 0xFFFFFFFFFFFFFFFFFFFFFFFFFFFFFFFFFFFFFFFF AND PUSH20 0xFFFFFFFFFFFFFFFFFFFFFFFFFFFFFFFFFFFFFFFF AND DUP2 MSTORE PUSH1 0x20 ADD SWAP1 DUP2 MSTORE PUSH1 0x20 ADD PUSH0 KECCAK256 PUSH0 DUP5 PUSH20 0xFFFFFFFFFFFFFFFFFFFFFFFFFFFFFFFFFFFFFFFF AND PUSH20 0xFFFFFFFFFFFFFFFFFFFFFFFFFFFFFFFFFFFFFFFF AND DUP2 MSTORE PUSH1 0x20 ADD SWAP1 DUP2 MSTORE PUSH1 0x20 ADD PUSH0 KECCAK256 PUSH0 PUSH2 0x100 EXP DUP2 SLOAD DUP2 PUSH1 0xFF MUL NOT AND SWAP1 DUP4 ISZERO ISZERO MUL OR SWAP1 SSTORE POP DUP2 PUSH20 0xFFFFFFFFFFFFFFFFFFFFFFFFFFFFFFFFFFFFFFFF AND DUP4 PUSH20 0xFFFFFFFFFFFFFFFFFFFFFFFFFFFFFFFFFFFFFFFF AND PUSH32 0x17307EAB39AB6107E8899845AD3D59BD9653F200F220920489CA2B5937696C31 DUP4 PUSH1 0x40 MLOAD PUSH2 0x10C5 SWAP2 SWAP1 PUSH2 0x1B40 JUMP JUMPDEST PUSH1 0x40 MLOAD DUP1 SWAP2 SUB SWAP1 LOG3 POP POP POP JUMP JUMPDEST PUSH0 PUSH20 0xFFFFFFFFFFFFFFFFFFFFFFFFFFFFFFFFFFFFFFFF AND DUP5 PUSH20 0xFFFFFFFFFFFFFFFFFFFFFFFFFFFFFFFFFFFFFFFF AND SUB PUSH2 0x1142 JUMPI PUSH0 PUSH1 0x40 MLOAD PUSH32 0x57F447CE00000000000000000000000000000000000000000000000000000000 DUP2 MSTORE PUSH1 0x4 ADD PUSH2 0x1139 SWAP2 SWAP1 PUSH2 0x20EB JUMP JUMPDEST PUSH1 0x40 MLOAD DUP1 SWAP2 SUB SWAP1 REVERT JUMPDEST PUSH0 PUSH20 0xFFFFFFFFFFFFFFFFFFFFFFFFFFFFFFFFFFFFFFFF AND DUP6 PUSH20 0xFFFFFFFFFFFFFFFFFFFFFFFFFFFFFFFFFFFFFFFF AND SUB PUSH2 0x11B2 JUMPI PUSH0 PUSH1 0x40 MLOAD PUSH32 0x1A8351400000000000000000000000000000000000000000000000000000000 DUP2 MSTORE PUSH1 0x4 ADD PUSH2 0x11A9 SWAP2 SWAP1 PUSH2 0x20EB JUMP JUMPDEST PUSH1 0x40 MLOAD DUP1 SWAP2 SUB SWAP1 REVERT JUMPDEST PUSH0 DUP1 PUSH2 0x11BE DUP6 DUP6 PUSH2 0x11D8 JUMP JUMPDEST SWAP2 POP SWAP2 POP PUSH2 0x11CF DUP8 DUP8 DUP5 DUP5 DUP8 PUSH2 0x1208 JUMP JUMPDEST POP POP POP POP POP POP POP JUMP JUMPDEST PUSH1 0x60 DUP1 PUSH1 0x40 MLOAD SWAP2 POP PUSH1 0x1 DUP3 MSTORE DUP4 PUSH1 0x20 DUP4 ADD MSTORE PUSH1 0x40 DUP3 ADD SWAP1 POP PUSH1 0x1 DUP2 MSTORE DUP3 PUSH1 0x20 DUP3 ADD MSTORE PUSH1 0x40 DUP2 ADD PUSH1 0x40 MSTORE SWAP3 POP SWAP3 SWAP1 POP JUMP JUMPDEST PUSH2 0x1214 DUP6 DUP6 DUP6 DUP6 PUSH2 0x12B4 JUMP JUMPDEST PUSH0 PUSH20 0xFFFFFFFFFFFFFFFFFFFFFFFFFFFFFFFFFFFFFFFF AND DUP5 PUSH20 0xFFFFFFFFFFFFFFFFFFFFFFFFFFFFFFFFFFFFFFFF AND EQ PUSH2 0x12AD JUMPI PUSH0 PUSH2 0x1250 PUSH2 0xCFE JUMP JUMPDEST SWAP1 POP PUSH1 0x1 DUP5 MLOAD SUB PUSH2 0x129C JUMPI PUSH0 PUSH2 0x126F PUSH0 DUP7 PUSH2 0xE0C SWAP1 SWAP2 SWAP1 PUSH4 0xFFFFFFFF AND JUMP JUMPDEST SWAP1 POP PUSH0 PUSH2 0x1285 PUSH0 DUP7 PUSH2 0xE0C SWAP1 SWAP2 SWAP1 PUSH4 0xFFFFFFFF AND JUMP JUMPDEST SWAP1 POP PUSH2 0x1295 DUP4 DUP10 DUP10 DUP6 DUP6 DUP10 PUSH2 0x1644 JUMP JUMPDEST POP POP PUSH2 0x12AB JUMP JUMPDEST PUSH2 0x12AA DUP2 DUP8 DUP8 DUP8 DUP8 DUP8 PUSH2 0x17F3 JUMP JUMPDEST JUMPDEST POP JUMPDEST POP POP POP POP POP JUMP JUMPDEST DUP1 MLOAD DUP3 MLOAD EQ PUSH2 0x12FE JUMPI DUP2 MLOAD DUP2 MLOAD PUSH1 0x40 MLOAD PUSH32 0x5B05999100000000000000000000000000000000000000000000000000000000 DUP2 MSTORE PUSH1 0x4 ADD PUSH2 0x12F5 SWAP3 SWAP2 SWAP1 PUSH2 0x252C JUMP JUMPDEST PUSH1 0x40 MLOAD DUP1 SWAP2 SUB SWAP1 REVERT JUMPDEST PUSH0 PUSH2 0x1307 PUSH2 0xCFE JUMP JUMPDEST SWAP1 POP PUSH0 JUMPDEST DUP4 MLOAD DUP2 LT ISZERO PUSH2 0x1503 JUMPI PUSH0 PUSH2 0x1328 DUP3 DUP7 PUSH2 0xE0C SWAP1 SWAP2 SWAP1 PUSH4 0xFFFFFFFF AND JUMP JUMPDEST SWAP1 POP PUSH0 PUSH2 0x133E DUP4 DUP7 PUSH2 0xE0C SWAP1 SWAP2 SWAP1 PUSH4 0xFFFFFFFF AND JUMP JUMPDEST SWAP1 POP PUSH0 PUSH20 0xFFFFFFFFFFFFFFFFFFFFFFFFFFFFFFFFFFFFFFFF AND DUP9 PUSH20 0xFFFFFFFFFFFFFFFFFFFFFFFFFFFFFFFFFFFFFFFF AND EQ PUSH2 0x1461 JUMPI PUSH0 DUP1 PUSH0 DUP5 DUP2 MSTORE PUSH1 0x20 ADD SWAP1 DUP2 MSTORE PUSH1 0x20 ADD PUSH0 KECCAK256 PUSH0 DUP11 PUSH20 0xFFFFFFFFFFFFFFFFFFFFFFFFFFFFFFFFFFFFFFFF AND PUSH20 0xFFFFFFFFFFFFFFFFFFFFFFFFFFFFFFFFFFFFFFFF AND DUP2 MSTORE PUSH1 0x20 ADD SWAP1 DUP2 MSTORE PUSH1 0x20 ADD PUSH0 KECCAK256 SLOAD SWAP1 POP DUP2 DUP2 LT ISZERO PUSH2 0x140D JUMPI DUP9 DUP2 DUP4 DUP6 PUSH1 0x40 MLOAD PUSH32 0x3DEE4C500000000000000000000000000000000000000000000000000000000 DUP2 MSTORE PUSH1 0x4 ADD PUSH2 0x1404 SWAP5 SWAP4 SWAP3 SWAP2 SWAP1 PUSH2 0x2580 JUMP JUMPDEST PUSH1 0x40 MLOAD DUP1 SWAP2 SUB SWAP1 REVERT JUMPDEST DUP2 DUP2 SUB PUSH0 DUP1 DUP6 DUP2 MSTORE PUSH1 0x20 ADD SWAP1 DUP2 MSTORE PUSH1 0x20 ADD PUSH0 KECCAK256 PUSH0 DUP12 PUSH20 0xFFFFFFFFFFFFFFFFFFFFFFFFFFFFFFFFFFFFFFFF AND PUSH20 0xFFFFFFFFFFFFFFFFFFFFFFFFFFFFFFFFFFFFFFFF AND DUP2 MSTORE PUSH1 0x20 ADD SWAP1 DUP2 MSTORE PUSH1 0x20 ADD PUSH0 KECCAK256 DUP2 SWAP1 SSTORE POP POP JUMPDEST PUSH0 PUSH20 0xFFFFFFFFFFFFFFFFFFFFFFFFFFFFFFFFFFFFFFFF AND DUP8 PUSH20 0xFFFFFFFFFFFFFFFFFFFFFFFFFFFFFFFFFFFFFFFF AND EQ PUSH2 0x14F6 JUMPI DUP1 PUSH0 DUP1 DUP5 DUP2 MSTORE PUSH1 0x20 ADD SWAP1 DUP2 MSTORE PUSH1 0x20 ADD PUSH0 KECCAK256 PUSH0 DUP10 PUSH20 0xFFFFFFFFFFFFFFFFFFFFFFFFFFFFFFFFFFFFFFFF AND PUSH20 0xFFFFFFFFFFFFFFFFFFFFFFFFFFFFFFFFFFFFFFFF AND DUP2 MSTORE PUSH1 0x20 ADD SWAP1 DUP2 MSTORE PUSH1 0x20 ADD PUSH0 KECCAK256 PUSH0 DUP3 DUP3 SLOAD PUSH2 0x14EE SWAP2 SWAP1 PUSH2 0x2390 JUMP JUMPDEST SWAP3 POP POP DUP2 SWAP1 SSTORE POP JUMPDEST POP POP DUP1 PUSH1 0x1 ADD SWAP1 POP PUSH2 0x130B JUMP JUMPDEST POP PUSH1 0x1 DUP4 MLOAD SUB PUSH2 0x15BE JUMPI PUSH0 PUSH2 0x1521 PUSH0 DUP6 PUSH2 0xE0C SWAP1 SWAP2 SWAP1 PUSH4 0xFFFFFFFF AND JUMP JUMPDEST SWAP1 POP PUSH0 PUSH2 0x1537 PUSH0 DUP6 PUSH2 0xE0C SWAP1 SWAP2 SWAP1 PUSH4 0xFFFFFFFF AND JUMP JUMPDEST SWAP1 POP DUP6 PUSH20 0xFFFFFFFFFFFFFFFFFFFFFFFFFFFFFFFFFFFFFFFF AND DUP8 PUSH20 0xFFFFFFFFFFFFFFFFFFFFFFFFFFFFFFFFFFFFFFFF AND DUP5 PUSH20 0xFFFFFFFFFFFFFFFFFFFFFFFFFFFFFFFFFFFFFFFF AND PUSH32 0xC3D58168C5AE7397731D063D5BBF3D657854427343F4C083240F7AACAA2D0F62 DUP6 DUP6 PUSH1 0x40 MLOAD PUSH2 0x15AF SWAP3 SWAP2 SWAP1 PUSH2 0x252C JUMP JUMPDEST PUSH1 0x40 MLOAD DUP1 SWAP2 SUB SWAP1 LOG4 POP POP PUSH2 0x163D JUMP JUMPDEST DUP4 PUSH20 0xFFFFFFFFFFFFFFFFFFFFFFFFFFFFFFFFFFFFFFFF AND DUP6 PUSH20 0xFFFFFFFFFFFFFFFFFFFFFFFFFFFFFFFFFFFFFFFF AND DUP3 PUSH20 0xFFFFFFFFFFFFFFFFFFFFFFFFFFFFFFFFFFFFFFFF AND PUSH32 0x4A39DC06D4C0DBC64B70AF90FD698A233A518AA5D07E595D983B8C0526C8F7FB DUP7 DUP7 PUSH1 0x40 MLOAD PUSH2 0x1634 SWAP3 SWAP2 SWAP1 PUSH2 0x25C3 JUMP JUMPDEST PUSH1 0x40 MLOAD DUP1 SWAP2 SUB SWAP1 LOG4 JUMPDEST POP POP POP POP POP JUMP JUMPDEST PUSH0 DUP5 PUSH20 0xFFFFFFFFFFFFFFFFFFFFFFFFFFFFFFFFFFFFFFFF AND EXTCODESIZE GT ISZERO PUSH2 0x17EB JUMPI DUP4 PUSH20 0xFFFFFFFFFFFFFFFFFFFFFFFFFFFFFFFFFFFFFFFF AND PUSH4 0xF23A6E61 DUP8 DUP8 DUP7 DUP7 DUP7 PUSH1 0x40 MLOAD DUP7 PUSH4 0xFFFFFFFF AND PUSH1 0xE0 SHL DUP2 MSTORE PUSH1 0x4 ADD PUSH2 0x16A4 SWAP6 SWAP5 SWAP4 SWAP3 SWAP2 SWAP1 PUSH2 0x264A JUMP JUMPDEST PUSH1 0x20 PUSH1 0x40 MLOAD DUP1 DUP4 SUB DUP2 PUSH0 DUP8 GAS CALL SWAP3 POP POP POP DUP1 ISZERO PUSH2 0x16DF JUMPI POP PUSH1 0x40 MLOAD RETURNDATASIZE PUSH1 0x1F NOT PUSH1 0x1F DUP3 ADD AND DUP3 ADD DUP1 PUSH1 0x40 MSTORE POP DUP2 ADD SWAP1 PUSH2 0x16DC SWAP2 SWAP1 PUSH2 0x26B6 JUMP JUMPDEST PUSH1 0x1 JUMPDEST PUSH2 0x1760 JUMPI RETURNDATASIZE DUP1 PUSH0 DUP2 EQ PUSH2 0x170D JUMPI PUSH1 0x40 MLOAD SWAP2 POP PUSH1 0x1F NOT PUSH1 0x3F RETURNDATASIZE ADD AND DUP3 ADD PUSH1 0x40 MSTORE RETURNDATASIZE DUP3 MSTORE RETURNDATASIZE PUSH0 PUSH1 0x20 DUP5 ADD RETURNDATACOPY PUSH2 0x1712 JUMP JUMPDEST PUSH1 0x60 SWAP2 POP JUMPDEST POP PUSH0 DUP2 MLOAD SUB PUSH2 0x1758 JUMPI DUP5 PUSH1 0x40 MLOAD PUSH32 0x57F447CE00000000000000000000000000000000000000000000000000000000 DUP2 MSTORE PUSH1 0x4 ADD PUSH2 0x174F SWAP2 SWAP1 PUSH2 0x20EB JUMP JUMPDEST PUSH1 0x40 MLOAD DUP1 SWAP2 SUB SWAP1 REVERT JUMPDEST DUP1 MLOAD DUP2 PUSH1 0x20 ADD REVERT JUMPDEST PUSH4 0xF23A6E61 PUSH1 0xE0 SHL PUSH28 0xFFFFFFFFFFFFFFFFFFFFFFFFFFFFFFFFFFFFFFFFFFFFFFFFFFFFFFFF NOT AND DUP2 PUSH28 0xFFFFFFFFFFFFFFFFFFFFFFFFFFFFFFFFFFFFFFFFFFFFFFFFFFFFFFFF NOT AND EQ PUSH2 0x17E9 JUMPI DUP5 PUSH1 0x40 MLOAD PUSH32 0x57F447CE00000000000000000000000000000000000000000000000000000000 DUP2 MSTORE PUSH1 0x4 ADD PUSH2 0x17E0 SWAP2 SWAP1 PUSH2 0x20EB JUMP JUMPDEST PUSH1 0x40 MLOAD DUP1 SWAP2 SUB SWAP1 REVERT JUMPDEST POP JUMPDEST POP POP POP POP POP POP JUMP JUMPDEST PUSH0 DUP5 PUSH20 0xFFFFFFFFFFFFFFFFFFFFFFFFFFFFFFFFFFFFFFFF AND EXTCODESIZE GT ISZERO PUSH2 0x199A JUMPI DUP4 PUSH20 0xFFFFFFFFFFFFFFFFFFFFFFFFFFFFFFFFFFFFFFFF AND PUSH4 0xBC197C81 DUP8 DUP8 DUP7 DUP7 DUP7 PUSH1 0x40 MLOAD DUP7 PUSH4 0xFFFFFFFF AND PUSH1 0xE0 SHL DUP2 MSTORE PUSH1 0x4 ADD PUSH2 0x1853 SWAP6 SWAP5 SWAP4 SWAP3 SWAP2 SWAP1 PUSH2 0x26E1 JUMP JUMPDEST PUSH1 0x20 PUSH1 0x40 MLOAD DUP1 DUP4 SUB DUP2 PUSH0 DUP8 GAS CALL SWAP3 POP POP POP DUP1 ISZERO PUSH2 0x188E JUMPI POP PUSH1 0x40 MLOAD RETURNDATASIZE PUSH1 0x1F NOT PUSH1 0x1F DUP3 ADD AND DUP3 ADD DUP1 PUSH1 0x40 MSTORE POP DUP2 ADD SWAP1 PUSH2 0x188B SWAP2 SWAP1 PUSH2 0x26B6 JUMP JUMPDEST PUSH1 0x1 JUMPDEST PUSH2 0x190F JUMPI RETURNDATASIZE DUP1 PUSH0 DUP2 EQ PUSH2 0x18BC JUMPI PUSH1 0x40 MLOAD SWAP2 POP PUSH1 0x1F NOT PUSH1 0x3F RETURNDATASIZE ADD AND DUP3 ADD PUSH1 0x40 MSTORE RETURNDATASIZE DUP3 MSTORE RETURNDATASIZE PUSH0 PUSH1 0x20 DUP5 ADD RETURNDATACOPY PUSH2 0x18C1 JUMP JUMPDEST PUSH1 0x60 SWAP2 POP JUMPDEST POP PUSH0 DUP2 MLOAD SUB PUSH2 0x1907 JUMPI DUP5 PUSH1 0x40 MLOAD PUSH32 0x57F447CE00000000000000000000000000000000000000000000000000000000 DUP2 MSTORE PUSH1 0x4 ADD PUSH2 0x18FE SWAP2 SWAP1 PUSH2 0x20EB JUMP JUMPDEST PUSH1 0x40 MLOAD DUP1 SWAP2 SUB SWAP1 REVERT JUMPDEST DUP1 MLOAD DUP2 PUSH1 0x20 ADD REVERT JUMPDEST PUSH4 0xBC197C81 PUSH1 0xE0 SHL PUSH28 0xFFFFFFFFFFFFFFFFFFFFFFFFFFFFFFFFFFFFFFFFFFFFFFFFFFFFFFFF NOT AND DUP2 PUSH28 0xFFFFFFFFFFFFFFFFFFFFFFFFFFFFFFFFFFFFFFFFFFFFFFFFFFFFFFFF NOT AND EQ PUSH2 0x1998 JUMPI DUP5 PUSH1 0x40 MLOAD PUSH32 0x57F447CE00000000000000000000000000000000000000000000000000000000 DUP2 MSTORE PUSH1 0x4 ADD PUSH2 0x198F SWAP2 SWAP1 PUSH2 0x20EB JUMP JUMPDEST PUSH1 0x40 MLOAD DUP1 SWAP2 SUB SWAP1 REVERT JUMPDEST POP JUMPDEST POP POP POP POP POP POP JUMP JUMPDEST PUSH0 PUSH1 0x40 MLOAD SWAP1 POP SWAP1 JUMP JUMPDEST PUSH0 DUP1 REVERT JUMPDEST PUSH0 DUP1 REVERT JUMPDEST PUSH0 PUSH20 0xFFFFFFFFFFFFFFFFFFFFFFFFFFFFFFFFFFFFFFFF DUP3 AND SWAP1 POP SWAP2 SWAP1 POP JUMP JUMPDEST PUSH0 PUSH2 0x19DC DUP3 PUSH2 0x19B3 JUMP JUMPDEST SWAP1 POP SWAP2 SWAP1 POP JUMP JUMPDEST PUSH2 0x19EC DUP2 PUSH2 0x19D2 JUMP JUMPDEST DUP2 EQ PUSH2 0x19F6 JUMPI PUSH0 DUP1 REVERT JUMPDEST POP JUMP JUMPDEST PUSH0 DUP2 CALLDATALOAD SWAP1 POP PUSH2 0x1A07 DUP2 PUSH2 0x19E3 JUMP JUMPDEST SWAP3 SWAP2 POP POP JUMP JUMPDEST PUSH0 DUP2 SWAP1 POP SWAP2 SWAP1 POP JUMP JUMPDEST PUSH2 0x1A1F DUP2 PUSH2 0x1A0D JUMP JUMPDEST DUP2 EQ PUSH2 0x1A29 JUMPI PUSH0 DUP1 REVERT JUMPDEST POP JUMP JUMPDEST PUSH0 DUP2 CALLDATALOAD SWAP1 POP PUSH2 0x1A3A DUP2 PUSH2 0x1A16 JUMP JUMPDEST SWAP3 SWAP2 POP POP JUMP JUMPDEST PUSH0 DUP1 PUSH1 0x40 DUP4 DUP6 SUB SLT ISZERO PUSH2 0x1A56 JUMPI PUSH2 0x1A55 PUSH2 0x19AB JUMP JUMPDEST JUMPDEST PUSH0 PUSH2 0x1A63 DUP6 DUP3 DUP7 ADD PUSH2 0x19F9 JUMP JUMPDEST SWAP3 POP POP PUSH1 0x20 PUSH2 0x1A74 DUP6 DUP3 DUP7 ADD PUSH2 0x1A2C JUMP JUMPDEST SWAP2 POP POP SWAP3 POP SWAP3 SWAP1 POP JUMP JUMPDEST PUSH2 0x1A87 DUP2 PUSH2 0x1A0D JUMP JUMPDEST DUP3 MSTORE POP POP JUMP JUMPDEST PUSH0 PUSH1 0x20 DUP3 ADD SWAP1 POP PUSH2 0x1AA0 PUSH0 DUP4 ADD DUP5 PUSH2 0x1A7E JUMP JUMPDEST SWAP3 SWAP2 POP POP JUMP JUMPDEST PUSH0 PUSH32 0xFFFFFFFF00000000000000000000000000000000000000000000000000000000 DUP3 AND SWAP1 POP SWAP2 SWAP1 POP JUMP JUMPDEST PUSH2 0x1ADA DUP2 PUSH2 0x1AA6 JUMP JUMPDEST DUP2 EQ PUSH2 0x1AE4 JUMPI PUSH0 DUP1 REVERT JUMPDEST POP JUMP JUMPDEST PUSH0 DUP2 CALLDATALOAD SWAP1 POP PUSH2 0x1AF5 DUP2 PUSH2 0x1AD1 JUMP JUMPDEST SWAP3 SWAP2 POP POP JUMP JUMPDEST PUSH0 PUSH1 0x20 DUP3 DUP5 SUB SLT ISZERO PUSH2 0x1B10 JUMPI PUSH2 0x1B0F PUSH2 0x19AB JUMP JUMPDEST JUMPDEST PUSH0 PUSH2 0x1B1D DUP5 DUP3 DUP6 ADD PUSH2 0x1AE7 JUMP JUMPDEST SWAP2 POP POP SWAP3 SWAP2 POP POP JUMP JUMPDEST PUSH0 DUP2 ISZERO ISZERO SWAP1 POP SWAP2 SWAP1 POP JUMP JUMPDEST PUSH2 0x1B3A DUP2 PUSH2 0x1B26 JUMP JUMPDEST DUP3 MSTORE POP POP JUMP JUMPDEST PUSH0 PUSH1 0x20 DUP3 ADD SWAP1 POP PUSH2 0x1B53 PUSH0 DUP4 ADD DUP5 PUSH2 0x1B31 JUMP JUMPDEST SWAP3 SWAP2 POP POP JUMP JUMPDEST PUSH0 DUP2 MLOAD SWAP1 POP SWAP2 SWAP1 POP JUMP JUMPDEST PUSH0 DUP3 DUP3 MSTORE PUSH1 0x20 DUP3 ADD SWAP1 POP SWAP3 SWAP2 POP POP JUMP JUMPDEST DUP3 DUP2 DUP4 MCOPY PUSH0 DUP4 DUP4 ADD MSTORE POP POP POP JUMP JUMPDEST PUSH0 PUSH1 0x1F NOT PUSH1 0x1F DUP4 ADD AND SWAP1 POP SWAP2 SWAP1 POP JUMP JUMPDEST PUSH0 PUSH2 0x1B9B DUP3 PUSH2 0x1B59 JUMP JUMPDEST PUSH2 0x1BA5 DUP2 DUP6 PUSH2 0x1B63 JUMP JUMPDEST SWAP4 POP PUSH2 0x1BB5 DUP2 DUP6 PUSH1 0x20 DUP7 ADD PUSH2 0x1B73 JUMP JUMPDEST PUSH2 0x1BBE DUP2 PUSH2 0x1B81 JUMP JUMPDEST DUP5 ADD SWAP2 POP POP SWAP3 SWAP2 POP POP JUMP JUMPDEST PUSH0 PUSH1 0x20 DUP3 ADD SWAP1 POP DUP2 DUP2 SUB PUSH0 DUP4 ADD MSTORE PUSH2 0x1BE1 DUP2 DUP5 PUSH2 0x1B91 JUMP JUMPDEST SWAP1 POP SWAP3 SWAP2 POP POP JUMP JUMPDEST PUSH0 PUSH1 0x20 DUP3 DUP5 SUB SLT ISZERO PUSH2 0x1BFE JUMPI PUSH2 0x1BFD PUSH2 0x19AB JUMP JUMPDEST JUMPDEST PUSH0 PUSH2 0x1C0B DUP5 DUP3 DUP6 ADD PUSH2 0x1A2C JUMP JUMPDEST SWAP2 POP POP SWAP3 SWAP2 POP POP JUMP JUMPDEST PUSH0 DUP1 REVERT JUMPDEST PUSH32 0x4E487B7100000000000000000000000000000000000000000000000000000000 PUSH0 MSTORE PUSH1 0x41 PUSH1 0x4 MSTORE PUSH1 0x24 PUSH0 REVERT JUMPDEST PUSH2 0x1C4E DUP3 PUSH2 0x1B81 JUMP JUMPDEST DUP2 ADD DUP2 DUP2 LT PUSH8 0xFFFFFFFFFFFFFFFF DUP3 GT OR ISZERO PUSH2 0x1C6D JUMPI PUSH2 0x1C6C PUSH2 0x1C18 JUMP JUMPDEST JUMPDEST DUP1 PUSH1 0x40 MSTORE POP POP POP JUMP JUMPDEST PUSH0 PUSH2 0x1C7F PUSH2 0x19A2 JUMP JUMPDEST SWAP1 POP PUSH2 0x1C8B DUP3 DUP3 PUSH2 0x1C45 JUMP JUMPDEST SWAP2 SWAP1 POP JUMP JUMPDEST PUSH0 PUSH8 0xFFFFFFFFFFFFFFFF DUP3 GT ISZERO PUSH2 0x1CAA JUMPI PUSH2 0x1CA9 PUSH2 0x1C18 JUMP JUMPDEST JUMPDEST PUSH1 0x20 DUP3 MUL SWAP1 POP PUSH1 0x20 DUP2 ADD SWAP1 POP SWAP2 SWAP1 POP JUMP JUMPDEST PUSH0 DUP1 REVERT JUMPDEST PUSH0 PUSH2 0x1CD1 PUSH2 0x1CCC DUP5 PUSH2 0x1C90 JUMP JUMPDEST PUSH2 0x1C76 JUMP JUMPDEST SWAP1 POP DUP1 DUP4 DUP3 MSTORE PUSH1 0x20 DUP3 ADD SWAP1 POP PUSH1 0x20 DUP5 MUL DUP4 ADD DUP6 DUP2 GT ISZERO PUSH2 0x1CF4 JUMPI PUSH2 0x1CF3 PUSH2 0x1CBB JUMP JUMPDEST JUMPDEST DUP4 JUMPDEST DUP2 DUP2 LT ISZERO PUSH2 0x1D1D JUMPI DUP1 PUSH2 0x1D09 DUP9 DUP3 PUSH2 0x1A2C JUMP JUMPDEST DUP5 MSTORE PUSH1 0x20 DUP5 ADD SWAP4 POP POP PUSH1 0x20 DUP2 ADD SWAP1 POP PUSH2 0x1CF6 JUMP JUMPDEST POP POP POP SWAP4 SWAP3 POP POP POP JUMP JUMPDEST PUSH0 DUP3 PUSH1 0x1F DUP4 ADD SLT PUSH2 0x1D3B JUMPI PUSH2 0x1D3A PUSH2 0x1C14 JUMP JUMPDEST JUMPDEST DUP2 CALLDATALOAD PUSH2 0x1D4B DUP5 DUP3 PUSH1 0x20 DUP7 ADD PUSH2 0x1CBF JUMP JUMPDEST SWAP2 POP POP SWAP3 SWAP2 POP POP JUMP JUMPDEST PUSH0 DUP1 REVERT JUMPDEST PUSH0 PUSH8 0xFFFFFFFFFFFFFFFF DUP3 GT ISZERO PUSH2 0x1D72 JUMPI PUSH2 0x1D71 PUSH2 0x1C18 JUMP JUMPDEST JUMPDEST PUSH2 0x1D7B DUP3 PUSH2 0x1B81 JUMP JUMPDEST SWAP1 POP PUSH1 0x20 DUP2 ADD SWAP1 POP SWAP2 SWAP1 POP JUMP JUMPDEST DUP3 DUP2 DUP4 CALLDATACOPY PUSH0 DUP4 DUP4 ADD MSTORE POP POP POP JUMP JUMPDEST PUSH0 PUSH2 0x1DA8 PUSH2 0x1DA3 DUP5 PUSH2 0x1D58 JUMP JUMPDEST PUSH2 0x1C76 JUMP JUMPDEST SWAP1 POP DUP3 DUP2 MSTORE PUSH1 0x20 DUP2 ADD DUP5 DUP5 DUP5 ADD GT ISZERO PUSH2 0x1DC4 JUMPI PUSH2 0x1DC3 PUSH2 0x1D54 JUMP JUMPDEST JUMPDEST PUSH2 0x1DCF DUP5 DUP3 DUP6 PUSH2 0x1D88 JUMP JUMPDEST POP SWAP4 SWAP3 POP POP POP JUMP JUMPDEST PUSH0 DUP3 PUSH1 0x1F DUP4 ADD SLT PUSH2 0x1DEB JUMPI PUSH2 0x1DEA PUSH2 0x1C14 JUMP JUMPDEST JUMPDEST DUP2 CALLDATALOAD PUSH2 0x1DFB DUP5 DUP3 PUSH1 0x20 DUP7 ADD PUSH2 0x1D96 JUMP JUMPDEST SWAP2 POP POP SWAP3 SWAP2 POP POP JUMP JUMPDEST PUSH0 DUP1 PUSH0 DUP1 PUSH0 PUSH1 0xA0 DUP7 DUP9 SUB SLT ISZERO PUSH2 0x1E1D JUMPI PUSH2 0x1E1C PUSH2 0x19AB JUMP JUMPDEST JUMPDEST PUSH0 PUSH2 0x1E2A DUP9 DUP3 DUP10 ADD PUSH2 0x19F9 JUMP JUMPDEST SWAP6 POP POP PUSH1 0x20 PUSH2 0x1E3B DUP9 DUP3 DUP10 ADD PUSH2 0x19F9 JUMP JUMPDEST SWAP5 POP POP PUSH1 0x40 DUP7 ADD CALLDATALOAD PUSH8 0xFFFFFFFFFFFFFFFF DUP2 GT ISZERO PUSH2 0x1E5C JUMPI PUSH2 0x1E5B PUSH2 0x19AF JUMP JUMPDEST JUMPDEST PUSH2 0x1E68 DUP9 DUP3 DUP10 ADD PUSH2 0x1D27 JUMP JUMPDEST SWAP4 POP POP PUSH1 0x60 DUP7 ADD CALLDATALOAD PUSH8 0xFFFFFFFFFFFFFFFF DUP2 GT ISZERO PUSH2 0x1E89 JUMPI PUSH2 0x1E88 PUSH2 0x19AF JUMP JUMPDEST JUMPDEST PUSH2 0x1E95 DUP9 DUP3 DUP10 ADD PUSH2 0x1D27 JUMP JUMPDEST SWAP3 POP POP PUSH1 0x80 DUP7 ADD CALLDATALOAD PUSH8 0xFFFFFFFFFFFFFFFF DUP2 GT ISZERO PUSH2 0x1EB6 JUMPI PUSH2 0x1EB5 PUSH2 0x19AF JUMP JUMPDEST JUMPDEST PUSH2 0x1EC2 DUP9 DUP3 DUP10 ADD PUSH2 0x1DD7 JUMP JUMPDEST SWAP2 POP POP SWAP3 SWAP6 POP SWAP3 SWAP6 SWAP1 SWAP4 POP JUMP JUMPDEST PUSH0 PUSH8 0xFFFFFFFFFFFFFFFF DUP3 GT ISZERO PUSH2 0x1EE9 JUMPI PUSH2 0x1EE8 PUSH2 0x1C18 JUMP JUMPDEST JUMPDEST PUSH1 0x20 DUP3 MUL SWAP1 POP PUSH1 0x20 DUP2 ADD SWAP1 POP SWAP2 SWAP1 POP JUMP JUMPDEST PUSH0 PUSH2 0x1F0C PUSH2 0x1F07 DUP5 PUSH2 0x1ECF JUMP JUMPDEST PUSH2 0x1C76 JUMP JUMPDEST SWAP1 POP DUP1 DUP4 DUP3 MSTORE PUSH1 0x20 DUP3 ADD SWAP1 POP PUSH1 0x20 DUP5 MUL DUP4 ADD DUP6 DUP2 GT ISZERO PUSH2 0x1F2F JUMPI PUSH2 0x1F2E PUSH2 0x1CBB JUMP JUMPDEST JUMPDEST DUP4 JUMPDEST DUP2 DUP2 LT ISZERO PUSH2 0x1F58 JUMPI DUP1 PUSH2 0x1F44 DUP9 DUP3 PUSH2 0x19F9 JUMP JUMPDEST DUP5 MSTORE PUSH1 0x20 DUP5 ADD SWAP4 POP POP PUSH1 0x20 DUP2 ADD SWAP1 POP PUSH2 0x1F31 JUMP JUMPDEST POP POP POP SWAP4 SWAP3 POP POP POP JUMP JUMPDEST PUSH0 DUP3 PUSH1 0x1F DUP4 ADD SLT PUSH2 0x1F76 JUMPI PUSH2 0x1F75 PUSH2 0x1C14 JUMP JUMPDEST JUMPDEST DUP2 CALLDATALOAD PUSH2 0x1F86 DUP5 DUP3 PUSH1 0x20 DUP7 ADD PUSH2 0x1EFA JUMP JUMPDEST SWAP2 POP POP SWAP3 SWAP2 POP POP JUMP JUMPDEST PUSH0 DUP1 PUSH1 0x40 DUP4 DUP6 SUB SLT ISZERO PUSH2 0x1FA5 JUMPI PUSH2 0x1FA4 PUSH2 0x19AB JUMP JUMPDEST JUMPDEST PUSH0 DUP4 ADD CALLDATALOAD PUSH8 0xFFFFFFFFFFFFFFFF DUP2 GT ISZERO PUSH2 0x1FC2 JUMPI PUSH2 0x1FC1 PUSH2 0x19AF JUMP JUMPDEST JUMPDEST PUSH2 0x1FCE DUP6 DUP3 DUP7 ADD PUSH2 0x1F62 JUMP JUMPDEST SWAP3 POP POP PUSH1 0x20 DUP4 ADD CALLDATALOAD PUSH8 0xFFFFFFFFFFFFFFFF DUP2 GT ISZERO PUSH2 0x1FEF JUMPI PUSH2 0x1FEE PUSH2 0x19AF JUMP JUMPDEST JUMPDEST PUSH2 0x1FFB DUP6 DUP3 DUP7 ADD PUSH2 0x1D27 JUMP JUMPDEST SWAP2 POP POP SWAP3 POP SWAP3 SWAP1 POP JUMP JUMPDEST PUSH0 DUP2 MLOAD SWAP1 POP SWAP2 SWAP1 POP JUMP JUMPDEST PUSH0 DUP3 DUP3 MSTORE PUSH1 0x20 DUP3 ADD SWAP1 POP SWAP3 SWAP2 POP POP JUMP JUMPDEST PUSH0 DUP2 SWAP1 POP PUSH1 0x20 DUP3 ADD SWAP1 POP SWAP2 SWAP1 POP JUMP JUMPDEST PUSH2 0x2037 DUP2 PUSH2 0x1A0D JUMP JUMPDEST DUP3 MSTORE POP POP JUMP JUMPDEST PUSH0 PUSH2 0x2048 DUP4 DUP4 PUSH2 0x202E JUMP JUMPDEST PUSH1 0x20 DUP4 ADD SWAP1 POP SWAP3 SWAP2 POP POP JUMP JUMPDEST PUSH0 PUSH1 0x20 DUP3 ADD SWAP1 POP SWAP2 SWAP1 POP JUMP JUMPDEST PUSH0 PUSH2 0x206A DUP3 PUSH2 0x2005 JUMP JUMPDEST PUSH2 0x2074 DUP2 DUP6 PUSH2 0x200F JUMP JUMPDEST SWAP4 POP PUSH2 0x207F DUP4 PUSH2 0x201F JUMP JUMPDEST DUP1 PUSH0 JUMPDEST DUP4 DUP2 LT ISZERO PUSH2 0x20AF JUMPI DUP2 MLOAD PUSH2 0x2096 DUP9 DUP3 PUSH2 0x203D JUMP JUMPDEST SWAP8 POP PUSH2 0x20A1 DUP4 PUSH2 0x2054 JUMP JUMPDEST SWAP3 POP POP PUSH1 0x1 DUP2 ADD SWAP1 POP PUSH2 0x2082 JUMP JUMPDEST POP DUP6 SWAP4 POP POP POP POP SWAP3 SWAP2 POP POP JUMP JUMPDEST PUSH0 PUSH1 0x20 DUP3 ADD SWAP1 POP DUP2 DUP2 SUB PUSH0 DUP4 ADD MSTORE PUSH2 0x20D4 DUP2 DUP5 PUSH2 0x2060 JUMP JUMPDEST SWAP1 POP SWAP3 SWAP2 POP POP JUMP JUMPDEST PUSH2 0x20E5 DUP2 PUSH2 0x19D2 JUMP JUMPDEST DUP3 MSTORE POP POP JUMP JUMPDEST PUSH0 PUSH1 0x20 DUP3 ADD SWAP1 POP PUSH2 0x20FE PUSH0 DUP4 ADD DUP5 PUSH2 0x20DC JUMP JUMPDEST SWAP3 SWAP2 POP POP JUMP JUMPDEST PUSH2 0x210D DUP2 PUSH2 0x1B26 JUMP JUMPDEST DUP2 EQ PUSH2 0x2117 JUMPI PUSH0 DUP1 REVERT JUMPDEST POP JUMP JUMPDEST PUSH0 DUP2 CALLDATALOAD SWAP1 POP PUSH2 0x2128 DUP2 PUSH2 0x2104 JUMP JUMPDEST SWAP3 SWAP2 POP POP JUMP JUMPDEST PUSH0 DUP1 PUSH1 0x40 DUP4 DUP6 SUB SLT ISZERO PUSH2 0x2144 JUMPI PUSH2 0x2143 PUSH2 0x19AB JUMP JUMPDEST JUMPDEST PUSH0 PUSH2 0x2151 DUP6 DUP3 DUP7 ADD PUSH2 0x19F9 JUMP JUMPDEST SWAP3 POP POP PUSH1 0x20 PUSH2 0x2162 DUP6 DUP3 DUP7 ADD PUSH2 0x211A JUMP JUMPDEST SWAP2 POP POP SWAP3 POP SWAP3 SWAP1 POP JUMP JUMPDEST PUSH0 DUP1 PUSH1 0x40 DUP4 DUP6 SUB SLT ISZERO PUSH2 0x2182 JUMPI PUSH2 0x2181 PUSH2 0x19AB JUMP JUMPDEST JUMPDEST PUSH0 PUSH2 0x218F DUP6 DUP3 DUP7 ADD PUSH2 0x19F9 JUMP JUMPDEST SWAP3 POP POP PUSH1 0x20 PUSH2 0x21A0 DUP6 DUP3 DUP7 ADD PUSH2 0x19F9 JUMP JUMPDEST SWAP2 POP POP SWAP3 POP SWAP3 SWAP1 POP JUMP JUMPDEST PUSH0 DUP1 PUSH0 DUP1 PUSH0 PUSH1 0xA0 DUP7 DUP9 SUB SLT ISZERO PUSH2 0x21C3 JUMPI PUSH2 0x21C2 PUSH2 0x19AB JUMP JUMPDEST JUMPDEST PUSH0 PUSH2 0x21D0 DUP9 DUP3 DUP10 ADD PUSH2 0x19F9 JUMP JUMPDEST SWAP6 POP POP PUSH1 0x20 PUSH2 0x21E1 DUP9 DUP3 DUP10 ADD PUSH2 0x19F9 JUMP JUMPDEST SWAP5 POP POP PUSH1 0x40 PUSH2 0x21F2 DUP9 DUP3 DUP10 ADD PUSH2 0x1A2C JUMP JUMPDEST SWAP4 POP POP PUSH1 0x60 PUSH2 0x2203 DUP9 DUP3 DUP10 ADD PUSH2 0x1A2C JUMP JUMPDEST SWAP3 POP POP PUSH1 0x80 DUP7 ADD CALLDATALOAD PUSH8 0xFFFFFFFFFFFFFFFF DUP2 GT ISZERO PUSH2 0x2224 JUMPI PUSH2 0x2223 PUSH2 0x19AF JUMP JUMPDEST JUMPDEST PUSH2 0x2230 DUP9 DUP3 DUP10 ADD PUSH2 0x1DD7 JUMP JUMPDEST SWAP2 POP POP SWAP3 SWAP6 POP SWAP3 SWAP6 SWAP1 SWAP4 POP JUMP JUMPDEST PUSH0 PUSH1 0x20 DUP3 DUP5 SUB SLT ISZERO PUSH2 0x2252 JUMPI PUSH2 0x2251 PUSH2 0x19AB JUMP JUMPDEST JUMPDEST PUSH0 PUSH2 0x225F DUP5 DUP3 DUP6 ADD PUSH2 0x19F9 JUMP JUMPDEST SWAP2 POP POP SWAP3 SWAP2 POP POP JUMP JUMPDEST PUSH32 0x4E487B7100000000000000000000000000000000000000000000000000000000 PUSH0 MSTORE PUSH1 0x22 PUSH1 0x4 MSTORE PUSH1 0x24 PUSH0 REVERT JUMPDEST PUSH0 PUSH1 0x2 DUP3 DIV SWAP1 POP PUSH1 0x1 DUP3 AND DUP1 PUSH2 0x22AC JUMPI PUSH1 0x7F DUP3 AND SWAP2 POP JUMPDEST PUSH1 0x20 DUP3 LT DUP2 SUB PUSH2 0x22BF JUMPI PUSH2 0x22BE PUSH2 0x2268 JUMP JUMPDEST JUMPDEST POP SWAP2 SWAP1 POP JUMP JUMPDEST PUSH32 0x4E487B7100000000000000000000000000000000000000000000000000000000 PUSH0 MSTORE PUSH1 0x11 PUSH1 0x4 MSTORE PUSH1 0x24 PUSH0 REVERT JUMPDEST PUSH0 PUSH2 0x22FC DUP3 PUSH2 0x1A0D JUMP JUMPDEST SWAP2 POP PUSH2 0x2307 DUP4 PUSH2 0x1A0D JUMP JUMPDEST SWAP3 POP DUP3 DUP3 MUL PUSH2 0x2315 DUP2 PUSH2 0x1A0D JUMP JUMPDEST SWAP2 POP DUP3 DUP3 DIV DUP5 EQ DUP4 ISZERO OR PUSH2 0x232C JUMPI PUSH2 0x232B PUSH2 0x22C5 JUMP JUMPDEST JUMPDEST POP SWAP3 SWAP2 POP POP JUMP JUMPDEST PUSH32 0x4E487B7100000000000000000000000000000000000000000000000000000000 PUSH0 MSTORE PUSH1 0x12 PUSH1 0x4 MSTORE PUSH1 0x24 PUSH0 REVERT JUMPDEST PUSH0 PUSH2 0x236A DUP3 PUSH2 0x1A0D JUMP JUMPDEST SWAP2 POP PUSH2 0x2375 DUP4 PUSH2 0x1A0D JUMP JUMPDEST SWAP3 POP DUP3 PUSH2 0x2385 JUMPI PUSH2 0x2384 PUSH2 0x2333 JUMP JUMPDEST JUMPDEST DUP3 DUP3 DIV SWAP1 POP SWAP3 SWAP2 POP POP JUMP JUMPDEST PUSH0 PUSH2 0x239A DUP3 PUSH2 0x1A0D JUMP JUMPDEST SWAP2 POP PUSH2 0x23A5 DUP4 PUSH2 0x1A0D JUMP JUMPDEST SWAP3 POP DUP3 DUP3 ADD SWAP1 POP DUP1 DUP3 GT ISZERO PUSH2 0x23BD JUMPI PUSH2 0x23BC PUSH2 0x22C5 JUMP JUMPDEST JUMPDEST SWAP3 SWAP2 POP POP JUMP JUMPDEST PUSH32 0x496E636F7272656374207469636B657420707269636520696E636C7564696E67 PUSH0 DUP3 ADD MSTORE PUSH32 0x2066656500000000000000000000000000000000000000000000000000000000 PUSH1 0x20 DUP3 ADD MSTORE POP JUMP JUMPDEST PUSH0 PUSH2 0x241D PUSH1 0x24 DUP4 PUSH2 0x1B63 JUMP JUMPDEST SWAP2 POP PUSH2 0x2428 DUP3 PUSH2 0x23C3 JUMP JUMPDEST PUSH1 0x40 DUP3 ADD SWAP1 POP SWAP2 SWAP1 POP JUMP JUMPDEST PUSH0 PUSH1 0x20 DUP3 ADD SWAP1 POP DUP2 DUP2 SUB PUSH0 DUP4 ADD MSTORE PUSH2 0x244A DUP2 PUSH2 0x2411 JUMP JUMPDEST SWAP1 POP SWAP2 SWAP1 POP JUMP JUMPDEST PUSH32 0x4E6F7420656E6F7567682062616C616E636520696E20746865207072697A6520 PUSH0 DUP3 ADD MSTORE PUSH32 0x706F6F6C2E20506C6561736520636F6E7461637420737570706F7274206F6E20 PUSH1 0x20 DUP3 ADD MSTORE PUSH32 0x446973636F72642E000000000000000000000000000000000000000000000000 PUSH1 0x40 DUP3 ADD MSTORE POP JUMP JUMPDEST PUSH0 PUSH2 0x24D1 PUSH1 0x48 DUP4 PUSH2 0x1B63 JUMP JUMPDEST SWAP2 POP PUSH2 0x24DC DUP3 PUSH2 0x2451 JUMP JUMPDEST PUSH1 0x60 DUP3 ADD SWAP1 POP SWAP2 SWAP1 POP JUMP JUMPDEST PUSH0 PUSH1 0x20 DUP3 ADD SWAP1 POP DUP2 DUP2 SUB PUSH0 DUP4 ADD MSTORE PUSH2 0x24FE DUP2 PUSH2 0x24C5 JUMP JUMPDEST SWAP1 POP SWAP2 SWAP1 POP JUMP JUMPDEST PUSH0 PUSH1 0x40 DUP3 ADD SWAP1 POP PUSH2 0x2518 PUSH0 DUP4 ADD DUP6 PUSH2 0x20DC JUMP JUMPDEST PUSH2 0x2525 PUSH1 0x20 DUP4 ADD DUP5 PUSH2 0x20DC JUMP JUMPDEST SWAP4 SWAP3 POP POP POP JUMP JUMPDEST PUSH0 PUSH1 0x40 DUP3 ADD SWAP1 POP PUSH2 0x253F PUSH0 DUP4 ADD DUP6 PUSH2 0x1A7E JUMP JUMPDEST PUSH2 0x254C PUSH1 0x20 DUP4 ADD DUP5 PUSH2 0x1A7E JUMP JUMPDEST SWAP4 SWAP3 POP POP POP JUMP JUMPDEST PUSH32 0x4E487B7100000000000000000000000000000000000000000000000000000000 PUSH0 MSTORE PUSH1 0x32 PUSH1 0x4 MSTORE PUSH1 0x24 PUSH0 REVERT JUMPDEST PUSH0 PUSH1 0x80 DUP3 ADD SWAP1 POP PUSH2 0x2593 PUSH0 DUP4 ADD DUP8 PUSH2 0x20DC JUMP JUMPDEST PUSH2 0x25A0 PUSH1 0x20 DUP4 ADD DUP7 PUSH2 0x1A7E JUMP JUMPDEST PUSH2 0x25AD PUSH1 0x40 DUP4 ADD DUP6 PUSH2 0x1A7E JUMP JUMPDEST PUSH2 0x25BA PUSH1 0x60 DUP4 ADD DUP5 PUSH2 0x1A7E JUMP JUMPDEST SWAP6 SWAP5 POP POP POP POP POP JUMP JUMPDEST PUSH0 PUSH1 0x40 DUP3 ADD SWAP1 POP DUP2 DUP2 SUB PUSH0 DUP4 ADD MSTORE PUSH2 0x25DB DUP2 DUP6 PUSH2 0x2060 JUMP JUMPDEST SWAP1 POP DUP2 DUP2 SUB PUSH1 0x20 DUP4 ADD MSTORE PUSH2 0x25EF DUP2 DUP5 PUSH2 0x2060 JUMP JUMPDEST SWAP1 POP SWAP4 SWAP3 POP POP POP JUMP JUMPDEST PUSH0 DUP2 MLOAD SWAP1 POP SWAP2 SWAP1 POP JUMP JUMPDEST PUSH0 DUP3 DUP3 MSTORE PUSH1 0x20 DUP3 ADD SWAP1 POP SWAP3 SWAP2 POP POP JUMP JUMPDEST PUSH0 PUSH2 0x261C DUP3 PUSH2 0x25F8 JUMP JUMPDEST PUSH2 0x2626 DUP2 DUP6 PUSH2 0x2602 JUMP JUMPDEST SWAP4 POP PUSH2 0x2636 DUP2 DUP6 PUSH1 0x20 DUP7 ADD PUSH2 0x1B73 JUMP JUMPDEST PUSH2 0x263F DUP2 PUSH2 0x1B81 JUMP JUMPDEST DUP5 ADD SWAP2 POP POP SWAP3 SWAP2 POP POP JUMP JUMPDEST PUSH0 PUSH1 0xA0 DUP3 ADD SWAP1 POP PUSH2 0x265D PUSH0 DUP4 ADD DUP9 PUSH2 0x20DC JUMP JUMPDEST PUSH2 0x266A PUSH1 0x20 DUP4 ADD DUP8 PUSH2 0x20DC JUMP JUMPDEST PUSH2 0x2677 PUSH1 0x40 DUP4 ADD DUP7 PUSH2 0x1A7E JUMP JUMPDEST PUSH2 0x2684 PUSH1 0x60 DUP4 ADD DUP6 PUSH2 0x1A7E JUMP JUMPDEST DUP2 DUP2 SUB PUSH1 0x80 DUP4 ADD MSTORE PUSH2 0x2696 DUP2 DUP5 PUSH2 0x2612 JUMP JUMPDEST SWAP1 POP SWAP7 SWAP6 POP POP POP POP POP POP JUMP JUMPDEST PUSH0 DUP2 MLOAD SWAP1 POP PUSH2 0x26B0 DUP2 PUSH2 0x1AD1 JUMP JUMPDEST SWAP3 SWAP2 POP POP JUMP JUMPDEST PUSH0 PUSH1 0x20 DUP3 DUP5 SUB SLT ISZERO PUSH2 0x26CB JUMPI PUSH2 0x26CA PUSH2 0x19AB JUMP JUMPDEST JUMPDEST PUSH0 PUSH2 0x26D8 DUP5 DUP3 DUP6 ADD PUSH2 0x26A2 JUMP JUMPDEST SWAP2 POP POP SWAP3 SWAP2 POP POP JUMP JUMPDEST PUSH0 PUSH1 0xA0 DUP3 ADD SWAP1 POP PUSH2 0x26F4 PUSH0 DUP4 ADD DUP9 PUSH2 0x20DC JUMP JUMPDEST PUSH2 0x2701 PUSH1 0x20 DUP4 ADD DUP8 PUSH2 0x20DC JUMP JUMPDEST DUP2 DUP2 SUB PUSH1 0x40 DUP4 ADD MSTORE PUSH2 0x2713 DUP2 DUP7 PUSH2 0x2060 JUMP JUMPDEST SWAP1 POP DUP2 DUP2 SUB PUSH1 0x60 DUP4 ADD MSTORE PUSH2 0x2727 DUP2 DUP6 PUSH2 0x2060 JUMP JUMPDEST SWAP1 POP DUP2 DUP2 SUB PUSH1 0x80 DUP4 ADD MSTORE PUSH2 0x273B DUP2 DUP5 PUSH2 0x2612 JUMP JUMPDEST SWAP1 POP SWAP7 SWAP6 POP POP POP POP POP POP JUMP INVALID LOG2 PUSH5 0x6970667358 0x22 SLT KECCAK256 DUP16 PUSH31 0x85ADDF0FBDF795224622769E607D4AEDE04CB6DEC783B568A9D39F7E8FA264 PUSH20 0x6F6C634300081A00330000000000000000000000 "
				},
				"gasEstimates": {
					"creation": {
						"codeDepositCost": "2021800",
						"executionCost": "infinite",
						"totalCost": "infinite"
					},
					"external": {
						"balanceOf(address,uint256)": "infinite",
						"balanceOfBatch(address[],uint256[])": "infinite",
						"isApprovedForAll(address,address)": "infinite",
						"name()": "infinite",
						"owner()": "2582",
						"purchaseTicket()": "infinite",
						"renounceOwnership()": "infinite",
						"safeBatchTransferFrom(address,address,uint256[],uint256[],bytes)": "infinite",
						"safeTransferFrom(address,address,uint256,uint256,bytes)": "infinite",
						"setApprovalForAll(address,bool)": "infinite",
						"supportsInterface(bytes4)": "809",
						"symbol()": "infinite",
						"ticketPrice()": "2470",
						"transferOwnership(address)": "infinite",
						"uri(uint256)": "infinite"
					},
					"internal": {
						"determineOutcome()": "14"
					}
				},
				"methodIdentifiers": {
					"balanceOf(address,uint256)": "00fdd58e",
					"balanceOfBatch(address[],uint256[])": "4e1273f4",
					"isApprovedForAll(address,address)": "e985e9c5",
					"name()": "06fdde03",
					"owner()": "8da5cb5b",
					"purchaseTicket()": "21846c76",
					"renounceOwnership()": "715018a6",
					"safeBatchTransferFrom(address,address,uint256[],uint256[],bytes)": "2eb2c2d6",
					"safeTransferFrom(address,address,uint256,uint256,bytes)": "f242432a",
					"setApprovalForAll(address,bool)": "a22cb465",
					"supportsInterface(bytes4)": "01ffc9a7",
					"symbol()": "95d89b41",
					"ticketPrice()": "1209b1f6",
					"transferOwnership(address)": "f2fde38b",
					"uri(uint256)": "0e89341c"
				}
			},
			"storageLayout": {
				"storage": [
					{
						"astId": 326,
						"contract": "practice.sol:LotteryNFT",
						"label": "_balances",
						"offset": 0,
						"slot": "0",
						"type": "t_mapping(t_uint256,t_mapping(t_address,t_uint256))"
					},
					{
						"astId": 332,
						"contract": "practice.sol:LotteryNFT",
						"label": "_operatorApprovals",
						"offset": 0,
						"slot": "1",
						"type": "t_mapping(t_address,t_mapping(t_address,t_bool))"
					},
					{
						"astId": 334,
						"contract": "practice.sol:LotteryNFT",
						"label": "_uri",
						"offset": 0,
						"slot": "2",
						"type": "t_string_storage"
					},
					{
						"astId": 8,
						"contract": "practice.sol:LotteryNFT",
						"label": "_owner",
						"offset": 0,
						"slot": "3",
						"type": "t_address"
					},
					{
						"astId": 3304,
						"contract": "practice.sol:LotteryNFT",
						"label": "name",
						"offset": 0,
						"slot": "4",
						"type": "t_string_storage"
					},
					{
						"astId": 3306,
						"contract": "practice.sol:LotteryNFT",
						"label": "symbol",
						"offset": 0,
						"slot": "5",
						"type": "t_string_storage"
					},
					{
						"astId": 3308,
						"contract": "practice.sol:LotteryNFT",
						"label": "ticketPrice",
						"offset": 0,
						"slot": "6",
						"type": "t_uint256"
					}
				],
				"types": {
					"t_address": {
						"encoding": "inplace",
						"label": "address",
						"numberOfBytes": "20"
					},
					"t_bool": {
						"encoding": "inplace",
						"label": "bool",
						"numberOfBytes": "1"
					},
					"t_mapping(t_address,t_bool)": {
						"encoding": "mapping",
						"key": "t_address",
						"label": "mapping(address => bool)",
						"numberOfBytes": "32",
						"value": "t_bool"
					},
					"t_mapping(t_address,t_mapping(t_address,t_bool))": {
						"encoding": "mapping",
						"key": "t_address",
						"label": "mapping(address => mapping(address => bool))",
						"numberOfBytes": "32",
						"value": "t_mapping(t_address,t_bool)"
					},
					"t_mapping(t_address,t_uint256)": {
						"encoding": "mapping",
						"key": "t_address",
						"label": "mapping(address => uint256)",
						"numberOfBytes": "32",
						"value": "t_uint256"
					},
					"t_mapping(t_uint256,t_mapping(t_address,t_uint256))": {
						"encoding": "mapping",
						"key": "t_uint256",
						"label": "mapping(uint256 => mapping(address => uint256))",
						"numberOfBytes": "32",
						"value": "t_mapping(t_address,t_uint256)"
					},
					"t_string_storage": {
						"encoding": "bytes",
						"label": "string",
						"numberOfBytes": "32"
					},
					"t_uint256": {
						"encoding": "inplace",
						"label": "uint256",
						"numberOfBytes": "32"
					}
				}
			},
			"userdoc": {
				"kind": "user",
				"methods": {},
				"version": 1
			}
		}
	}
}