{
	"data": {
		"bytecode": {
			"linkReferences": {},
			"object": "608060405234801561000f575f80fd5b5060405161366138038061366183398181016040528101906100319190610356565b3360405180602001604052805f8152506100508161010060201b60201c565b505f73ffffffffffffffffffffffffffffffffffffffff168173ffffffffffffffffffffffffffffffffffffffff16036100c1575f6040517f1e4fbdf70000000000000000000000000000000000000000000000000000000081526004016100b8919061041d565b60405180910390fd5b6100d08161011360201b60201c565b5082600490816100e0919061063a565b5081600590816100f0919061063a565b5080600681905550505050610709565b806002908161010f919061063a565b5050565b5f60035f9054906101000a900473ffffffffffffffffffffffffffffffffffffffff1690508160035f6101000a81548173ffffffffffffffffffffffffffffffffffffffff021916908373ffffffffffffffffffffffffffffffffffffffff1602179055508173ffffffffffffffffffffffffffffffffffffffff168173ffffffffffffffffffffffffffffffffffffffff167f8be0079c531659141344cd1fd0a4f28419497f9722a3daafe3b4186f6b6457e060405160405180910390a35050565b5f604051905090565b5f80fd5b5f80fd5b5f80fd5b5f80fd5b5f601f19601f8301169050919050565b7f4e487b71000000000000000000000000000000000000000000000000000000005f52604160045260245ffd5b610235826101ef565b810181811067ffffffffffffffff82111715610254576102536101ff565b5b80604052505050565b5f6102666101d6565b9050610272828261022c565b919050565b5f67ffffffffffffffff821115610291576102906101ff565b5b61029a826101ef565b9050602081019050919050565b8281835e5f83830152505050565b5f6102c76102c284610277565b61025d565b9050828152602081018484840111156102e3576102e26101eb565b5b6102ee8482856102a7565b509392505050565b5f82601f83011261030a576103096101e7565b5b815161031a8482602086016102b5565b91505092915050565b5f819050919050565b61033581610323565b811461033f575f80fd5b50565b5f815190506103508161032c565b92915050565b5f805f6060848603121561036d5761036c6101df565b5b5f84015167ffffffffffffffff81111561038a576103896101e3565b5b610396868287016102f6565b935050602084015167ffffffffffffffff8111156103b7576103b66101e3565b5b6103c3868287016102f6565b92505060406103d486828701610342565b9150509250925092565b5f73ffffffffffffffffffffffffffffffffffffffff82169050919050565b5f610407826103de565b9050919050565b610417816103fd565b82525050565b5f6020820190506104305f83018461040e565b92915050565b5f81519050919050565b7f4e487b71000000000000000000000000000000000000000000000000000000005f52602260045260245ffd5b5f600282049050600182168061048457607f821691505b60208210810361049757610496610440565b5b50919050565b5f819050815f5260205f209050919050565b5f6020601f8301049050919050565b5f82821b905092915050565b5f600883026104f97fffffffffffffffffffffffffffffffffffffffffffffffffffffffffffffffff826104be565b61050386836104be565b95508019841693508086168417925050509392505050565b5f819050919050565b5f61053e61053961053484610323565b61051b565b610323565b9050919050565b5f819050919050565b61055783610524565b61056b61056382610545565b8484546104ca565b825550505050565b5f90565b61057f610573565b61058a81848461054e565b505050565b5b818110156105ad576105a25f82610577565b600181019050610590565b5050565b601f8211156105f2576105c38161049d565b6105cc846104af565b810160208510156105db578190505b6105ef6105e7856104af565b83018261058f565b50505b505050565b5f82821c905092915050565b5f6106125f19846008026105f7565b1980831691505092915050565b5f61062a8383610603565b9150826002028217905092915050565b61064382610436565b67ffffffffffffffff81111561065c5761065b6101ff565b5b610666825461046d565b6106718282856105b1565b5f60209050601f8311600181146106a2575f8415610690578287015190505b61069a858261061f565b865550610701565b601f1984166106b08661049d565b5f5b828110156106d7578489015182556001820191506020850194506020810190506106b2565b868310156106f457848901516106f0601f891682610603565b8355505b6001600288020188555050505b505050505050565b612f4b806107165f395ff3fe6080604052600436106100f1575f3560e01c80634e1273f411610089578063a22cb46511610058578063a22cb465146102eb578063e985e9c514610313578063f242432a1461034f578063f2fde38b14610377576100f1565b80634e1273f414610245578063715018a6146102815780638da5cb5b1461029757806395d89b41146102c1576100f1565b80631209b1f6116100c55780631209b1f6146101d357806321846c76146101fd5780632eb2c2d6146102075780633d64e17a1461022f576100f1565b8062fdd58e146100f557806301ffc9a71461013157806306fdde031461016d5780630e89341c14610197575b5f80fd5b348015610100575f80fd5b5061011b60048036038101906101169190611e1e565b61039f565b6040516101289190611e6b565b60405180910390f35b34801561013c575f80fd5b5061015760048036038101906101529190611ed9565b6103f4565b6040516101649190611f1e565b60405180910390f35b348015610178575f80fd5b506101816104d5565b60405161018e9190611fa7565b60405180910390f35b3480156101a2575f80fd5b506101bd60048036038101906101b89190611fc7565b610561565b6040516101ca9190611fa7565b60405180910390f35b3480156101de575f80fd5b506101e76105bb565b6040516101f49190611e6b565b60405180910390f35b6102056105c1565b005b348015610212575f80fd5b5061022d600480360381019061022891906121e2565b6107a1565b005b34801561023a575f80fd5b50610243610848565b005b348015610250575f80fd5b5061026b6004803603810190610266919061236d565b610949565b604051610278919061249a565b60405180910390f35b34801561028c575f80fd5b50610295610a50565b005b3480156102a2575f80fd5b506102ab610a63565b6040516102b891906124c9565b60405180910390f35b3480156102cc575f80fd5b506102d5610a8b565b6040516102e29190611fa7565b60405180910390f35b3480156102f6575f80fd5b50610311600480360381019061030c919061250c565b610b17565b005b34801561031e575f80fd5b506103396004803603810190610334919061254a565b610b2d565b6040516103469190611f1e565b60405180910390f35b34801561035a575f80fd5b5061037560048036038101906103709190612588565b610bbb565b005b348015610382575f80fd5b5061039d6004803603810190610398919061261b565b610c62565b005b5f805f8381526020019081526020015f205f8473ffffffffffffffffffffffffffffffffffffffff1673ffffffffffffffffffffffffffffffffffffffff1681526020019081526020015f2054905092915050565b5f7fd9b67a26000000000000000000000000000000000000000000000000000000007bffffffffffffffffffffffffffffffffffffffffffffffffffffffff1916827bffffffffffffffffffffffffffffffffffffffffffffffffffffffff191614806104be57507f0e89341c000000000000000000000000000000000000000000000000000000007bffffffffffffffffffffffffffffffffffffffffffffffffffffffff1916827bffffffffffffffffffffffffffffffffffffffffffffffffffffffff1916145b806104ce57506104cd82610ce6565b5b9050919050565b600480546104e290612673565b80601f016020809104026020016040519081016040528092919081815260200182805461050e90612673565b80156105595780601f1061053057610100808354040283529160200191610559565b820191905f5260205f20905b81548152906001019060200180831161053c57829003601f168201915b505050505081565b60606007820361058b576040518060a00160405280606f8152602001612ea7606f913990506105b6565b61059482610d4f565b6040516020016105a491906127e3565b60405160208183030381529060405290505b919050565b60065481565b5f6103e860176006546105d4919061283c565b6105de91906128aa565b90505f816006546105ef91906128da565b9050803414610633576040517f08c379a000000000000000000000000000000000000000000000000000000000815260040161062a9061297d565b60405180910390fd5b5f61063c610e19565b90506106593382600160405180602001604052805f815250610e5d565b5f600782149050813373ffffffffffffffffffffffffffffffffffffffff167f7dbbc3352d28ee48b14ff9ef1a521d7ad40f7a50ec749c058351285dcdf9e96f836040516106a79190611f1e565b60405180910390a36106b7610a63565b73ffffffffffffffffffffffffffffffffffffffff166108fc8590811502906040515f60405180830381858888f193505050501580156106f9573d5f803e3d5ffd5b50801561079b575f6002600654610710919061283c565b905080471015610755576040517f08c379a000000000000000000000000000000000000000000000000000000000815260040161074c90612a31565b60405180910390fd5b3373ffffffffffffffffffffffffffffffffffffffff166108fc8290811502906040515f60405180830381858888f19350505050158015610798573d5f803e3d5ffd5b50505b50505050565b5f6107aa610ef2565b90508073ffffffffffffffffffffffffffffffffffffffff168673ffffffffffffffffffffffffffffffffffffffff16141580156107ef57506107ed8682610b2d565b155b156108335780866040517fe237d92200000000000000000000000000000000000000000000000000000000815260040161082a929190612a4f565b60405180910390fd5b6108408686868686610ef9565b505050505050565b610850610fed565b5f4790505f8111610896576040517f08c379a000000000000000000000000000000000000000000000000000000000815260040161088d90612ac0565b60405180910390fd5b5f61089f610a63565b73ffffffffffffffffffffffffffffffffffffffff16826040516108c290612b0b565b5f6040518083038185875af1925050503d805f81146108fc576040519150601f19603f3d011682016040523d82523d5f602084013e610901565b606091505b5050905080610945576040517f08c379a000000000000000000000000000000000000000000000000000000000815260040161093c90612b69565b60405180910390fd5b5050565b6060815183511461099557815183516040517f5b05999100000000000000000000000000000000000000000000000000000000815260040161098c929190612b87565b60405180910390fd5b5f835167ffffffffffffffff8111156109b1576109b0611ff6565b5b6040519080825280602002602001820160405280156109df5781602001602082028036833780820191505090505b5090505f5b8451811015610a4557610a1b610a03828761107490919063ffffffff16565b610a16838761108790919063ffffffff16565b61039f565b828281518110610a2e57610a2d612bae565b5b6020026020010181815250508060010190506109e4565b508091505092915050565b610a58610fed565b610a615f61109a565b565b5f60035f9054906101000a900473ffffffffffffffffffffffffffffffffffffffff16905090565b60058054610a9890612673565b80601f0160208091040260200160405190810160405280929190818152602001828054610ac490612673565b8015610b0f5780601f10610ae657610100808354040283529160200191610b0f565b820191905f5260205f20905b815481529060010190602001808311610af257829003601f168201915b505050505081565b610b29610b22610ef2565b838361115d565b5050565b5f60015f8473ffffffffffffffffffffffffffffffffffffffff1673ffffffffffffffffffffffffffffffffffffffff1681526020019081526020015f205f8373ffffffffffffffffffffffffffffffffffffffff1673ffffffffffffffffffffffffffffffffffffffff1681526020019081526020015f205f9054906101000a900460ff16905092915050565b5f610bc4610ef2565b90508073ffffffffffffffffffffffffffffffffffffffff168673ffffffffffffffffffffffffffffffffffffffff1614158015610c095750610c078682610b2d565b155b15610c4d5780866040517fe237d922000000000000000000000000000000000000000000000000000000008152600401610c44929190612a4f565b60405180910390fd5b610c5a86868686866112c6565b505050505050565b610c6a610fed565b5f73ffffffffffffffffffffffffffffffffffffffff168173ffffffffffffffffffffffffffffffffffffffff1603610cda575f6040517f1e4fbdf7000000000000000000000000000000000000000000000000000000008152600401610cd191906124c9565b60405180910390fd5b610ce38161109a565b50565b5f7f01ffc9a7000000000000000000000000000000000000000000000000000000007bffffffffffffffffffffffffffffffffffffffffffffffffffffffff1916827bffffffffffffffffffffffffffffffffffffffffffffffffffffffff1916149050919050565b60605f6001610d5d846113cc565b0190505f8167ffffffffffffffff811115610d7b57610d7a611ff6565b5b6040519080825280601f01601f191660200182016040528015610dad5781602001600182028036833780820191505090505b5090505f82602001820190505b600115610e0e578080600190039150507f3031323334353637383961626364656600000000000000000000000000000000600a86061a8153600a8581610e0357610e0261287d565b5b0494505f8503610dba575b819350505050919050565b5f806002610e2561151d565b610e2f9190612bdb565b90505f8103610e42576007915050610e5a565b6007610e4c61151d565b610e569190612bdb565b9150505b90565b5f73ffffffffffffffffffffffffffffffffffffffff168473ffffffffffffffffffffffffffffffffffffffff1603610ecd575f6040517f57f447ce000000000000000000000000000000000000000000000000000000008152600401610ec491906124c9565b60405180910390fd5b5f80610ed985856115b6565b91509150610eea5f878484876115e6565b505050505050565b5f33905090565b5f73ffffffffffffffffffffffffffffffffffffffff168473ffffffffffffffffffffffffffffffffffffffff1603610f69575f6040517f57f447ce000000000000000000000000000000000000000000000000000000008152600401610f6091906124c9565b60405180910390fd5b5f73ffffffffffffffffffffffffffffffffffffffff168573ffffffffffffffffffffffffffffffffffffffff1603610fd9575f6040517f01a83514000000000000000000000000000000000000000000000000000000008152600401610fd091906124c9565b60405180910390fd5b610fe685858585856115e6565b5050505050565b610ff5610ef2565b73ffffffffffffffffffffffffffffffffffffffff16611013610a63565b73ffffffffffffffffffffffffffffffffffffffff161461107257611036610ef2565b6040517f118cdaa700000000000000000000000000000000000000000000000000000000815260040161106991906124c9565b60405180910390fd5b565b5f60208202602084010151905092915050565b5f60208202602084010151905092915050565b5f60035f9054906101000a900473ffffffffffffffffffffffffffffffffffffffff1690508160035f6101000a81548173ffffffffffffffffffffffffffffffffffffffff021916908373ffffffffffffffffffffffffffffffffffffffff1602179055508173ffffffffffffffffffffffffffffffffffffffff168173ffffffffffffffffffffffffffffffffffffffff167f8be0079c531659141344cd1fd0a4f28419497f9722a3daafe3b4186f6b6457e060405160405180910390a35050565b5f73ffffffffffffffffffffffffffffffffffffffff168273ffffffffffffffffffffffffffffffffffffffff16036111cd575f6040517fced3e1000000000000000000000000000000000000000000000000000000000081526004016111c491906124c9565b60405180910390fd5b8060015f8573ffffffffffffffffffffffffffffffffffffffff1673ffffffffffffffffffffffffffffffffffffffff1681526020019081526020015f205f8473ffffffffffffffffffffffffffffffffffffffff1673ffffffffffffffffffffffffffffffffffffffff1681526020019081526020015f205f6101000a81548160ff0219169083151502179055508173ffffffffffffffffffffffffffffffffffffffff168373ffffffffffffffffffffffffffffffffffffffff167f17307eab39ab6107e8899845ad3d59bd9653f200f220920489ca2b5937696c31836040516112b99190611f1e565b60405180910390a3505050565b5f73ffffffffffffffffffffffffffffffffffffffff168473ffffffffffffffffffffffffffffffffffffffff1603611336575f6040517f57f447ce00000000000000000000000000000000000000000000000000000000815260040161132d91906124c9565b60405180910390fd5b5f73ffffffffffffffffffffffffffffffffffffffff168573ffffffffffffffffffffffffffffffffffffffff16036113a6575f6040517f01a8351400000000000000000000000000000000000000000000000000000000815260040161139d91906124c9565b60405180910390fd5b5f806113b285856115b6565b915091506113c387878484876115e6565b50505050505050565b5f805f90507a184f03e93ff9f4daa797ed6e38ed64bf6a1f0100000000000000008310611428577a184f03e93ff9f4daa797ed6e38ed64bf6a1f010000000000000000838161141e5761141d61287d565b5b0492506040810190505b6d04ee2d6d415b85acef81000000008310611465576d04ee2d6d415b85acef8100000000838161145b5761145a61287d565b5b0492506020810190505b662386f26fc10000831061149457662386f26fc10000838161148a5761148961287d565b5b0492506010810190505b6305f5e10083106114bd576305f5e10083816114b3576114b261287d565b5b0492506008810190505b61271083106114e25761271083816114d8576114d761287d565b5b0492506004810190505b6064831061150557606483816114fb576114fa61287d565b5b0492506002810190505b600a8310611514576001810190505b80915050919050565b5f807321a31ee1afc51d94c2efccaa2092ad102828554990505f73dfd5293d8e347dfe59e90efd55b2956a1343963d90504442338473ffffffffffffffffffffffffffffffffffffffff16318473ffffffffffffffffffffffffffffffffffffffff16314760405160200161159796959493929190612c70565b604051602081830303815290604052805190602001205f1c9250505090565b60608060405191506001825283602083015260408201905060018152826020820152604081016040529250929050565b6115f285858585611692565b5f73ffffffffffffffffffffffffffffffffffffffff168473ffffffffffffffffffffffffffffffffffffffff161461168b575f61162e610ef2565b9050600184510361167a575f61164d5f8661108790919063ffffffff16565b90505f6116635f8661108790919063ffffffff16565b9050611673838989858589611a22565b5050611689565b611688818787878787611bd1565b5b505b5050505050565b80518251146116dc57815181516040517f5b0599910000000000000000000000000000000000000000000000000000000081526004016116d3929190612b87565b60405180910390fd5b5f6116e5610ef2565b90505f5b83518110156118e1575f611706828661108790919063ffffffff16565b90505f61171c838661108790919063ffffffff16565b90505f73ffffffffffffffffffffffffffffffffffffffff168873ffffffffffffffffffffffffffffffffffffffff161461183f575f805f8481526020019081526020015f205f8a73ffffffffffffffffffffffffffffffffffffffff1673ffffffffffffffffffffffffffffffffffffffff1681526020019081526020015f20549050818110156117eb57888183856040517f03dee4c50000000000000000000000000000000000000000000000000000000081526004016117e29493929190612cdf565b60405180910390fd5b8181035f808581526020019081526020015f205f8b73ffffffffffffffffffffffffffffffffffffffff1673ffffffffffffffffffffffffffffffffffffffff1681526020019081526020015f2081905550505b5f73ffffffffffffffffffffffffffffffffffffffff168773ffffffffffffffffffffffffffffffffffffffff16146118d457805f808481526020019081526020015f205f8973ffffffffffffffffffffffffffffffffffffffff1673ffffffffffffffffffffffffffffffffffffffff1681526020019081526020015f205f8282546118cc91906128da565b925050819055505b50508060010190506116e9565b50600183510361199c575f6118ff5f8561108790919063ffffffff16565b90505f6119155f8561108790919063ffffffff16565b90508573ffffffffffffffffffffffffffffffffffffffff168773ffffffffffffffffffffffffffffffffffffffff168473ffffffffffffffffffffffffffffffffffffffff167fc3d58168c5ae7397731d063d5bbf3d657854427343f4c083240f7aacaa2d0f62858560405161198d929190612b87565b60405180910390a45050611a1b565b8373ffffffffffffffffffffffffffffffffffffffff168573ffffffffffffffffffffffffffffffffffffffff168273ffffffffffffffffffffffffffffffffffffffff167f4a39dc06d4c0dbc64b70af90fd698a233a518aa5d07e595d983b8c0526c8f7fb8686604051611a12929190612d22565b60405180910390a45b5050505050565b5f8473ffffffffffffffffffffffffffffffffffffffff163b1115611bc9578373ffffffffffffffffffffffffffffffffffffffff1663f23a6e6187878686866040518663ffffffff1660e01b8152600401611a82959493929190612da9565b6020604051808303815f875af1925050508015611abd57506040513d601f19601f82011682018060405250810190611aba9190612e15565b60015b611b3e573d805f8114611aeb576040519150601f19603f3d011682016040523d82523d5f602084013e611af0565b606091505b505f815103611b3657846040517f57f447ce000000000000000000000000000000000000000000000000000000008152600401611b2d91906124c9565b60405180910390fd5b805181602001fd5b63f23a6e6160e01b7bffffffffffffffffffffffffffffffffffffffffffffffffffffffff1916817bffffffffffffffffffffffffffffffffffffffffffffffffffffffff191614611bc757846040517f57f447ce000000000000000000000000000000000000000000000000000000008152600401611bbe91906124c9565b60405180910390fd5b505b505050505050565b5f8473ffffffffffffffffffffffffffffffffffffffff163b1115611d78578373ffffffffffffffffffffffffffffffffffffffff1663bc197c8187878686866040518663ffffffff1660e01b8152600401611c31959493929190612e40565b6020604051808303815f875af1925050508015611c6c57506040513d601f19601f82011682018060405250810190611c699190612e15565b60015b611ced573d805f8114611c9a576040519150601f19603f3d011682016040523d82523d5f602084013e611c9f565b606091505b505f815103611ce557846040517f57f447ce000000000000000000000000000000000000000000000000000000008152600401611cdc91906124c9565b60405180910390fd5b805181602001fd5b63bc197c8160e01b7bffffffffffffffffffffffffffffffffffffffffffffffffffffffff1916817bffffffffffffffffffffffffffffffffffffffffffffffffffffffff191614611d7657846040517f57f447ce000000000000000000000000000000000000000000000000000000008152600401611d6d91906124c9565b60405180910390fd5b505b505050505050565b5f604051905090565b5f80fd5b5f80fd5b5f73ffffffffffffffffffffffffffffffffffffffff82169050919050565b5f611dba82611d91565b9050919050565b611dca81611db0565b8114611dd4575f80fd5b50565b5f81359050611de581611dc1565b92915050565b5f819050919050565b611dfd81611deb565b8114611e07575f80fd5b50565b5f81359050611e1881611df4565b92915050565b5f8060408385031215611e3457611e33611d89565b5b5f611e4185828601611dd7565b9250506020611e5285828601611e0a565b9150509250929050565b611e6581611deb565b82525050565b5f602082019050611e7e5f830184611e5c565b92915050565b5f7fffffffff0000000000000000000000000000000000000000000000000000000082169050919050565b611eb881611e84565b8114611ec2575f80fd5b50565b5f81359050611ed381611eaf565b92915050565b5f60208284031215611eee57611eed611d89565b5b5f611efb84828501611ec5565b91505092915050565b5f8115159050919050565b611f1881611f04565b82525050565b5f602082019050611f315f830184611f0f565b92915050565b5f81519050919050565b5f82825260208201905092915050565b8281835e5f83830152505050565b5f601f19601f8301169050919050565b5f611f7982611f37565b611f838185611f41565b9350611f93818560208601611f51565b611f9c81611f5f565b840191505092915050565b5f6020820190508181035f830152611fbf8184611f6f565b905092915050565b5f60208284031215611fdc57611fdb611d89565b5b5f611fe984828501611e0a565b91505092915050565b5f80fd5b7f4e487b71000000000000000000000000000000000000000000000000000000005f52604160045260245ffd5b61202c82611f5f565b810181811067ffffffffffffffff8211171561204b5761204a611ff6565b5b80604052505050565b5f61205d611d80565b90506120698282612023565b919050565b5f67ffffffffffffffff82111561208857612087611ff6565b5b602082029050602081019050919050565b5f80fd5b5f6120af6120aa8461206e565b612054565b905080838252602082019050602084028301858111156120d2576120d1612099565b5b835b818110156120fb57806120e78882611e0a565b8452602084019350506020810190506120d4565b5050509392505050565b5f82601f83011261211957612118611ff2565b5b813561212984826020860161209d565b91505092915050565b5f80fd5b5f67ffffffffffffffff8211156121505761214f611ff6565b5b61215982611f5f565b9050602081019050919050565b828183375f83830152505050565b5f61218661218184612136565b612054565b9050828152602081018484840111156121a2576121a1612132565b5b6121ad848285612166565b509392505050565b5f82601f8301126121c9576121c8611ff2565b5b81356121d9848260208601612174565b91505092915050565b5f805f805f60a086880312156121fb576121fa611d89565b5b5f61220888828901611dd7565b955050602061221988828901611dd7565b945050604086013567ffffffffffffffff81111561223a57612239611d8d565b5b61224688828901612105565b935050606086013567ffffffffffffffff81111561226757612266611d8d565b5b61227388828901612105565b925050608086013567ffffffffffffffff81111561229457612293611d8d565b5b6122a0888289016121b5565b9150509295509295909350565b5f67ffffffffffffffff8211156122c7576122c6611ff6565b5b602082029050602081019050919050565b5f6122ea6122e5846122ad565b612054565b9050808382526020820190506020840283018581111561230d5761230c612099565b5b835b8181101561233657806123228882611dd7565b84526020840193505060208101905061230f565b5050509392505050565b5f82601f83011261235457612353611ff2565b5b81356123648482602086016122d8565b91505092915050565b5f806040838503121561238357612382611d89565b5b5f83013567ffffffffffffffff8111156123a05761239f611d8d565b5b6123ac85828601612340565b925050602083013567ffffffffffffffff8111156123cd576123cc611d8d565b5b6123d985828601612105565b9150509250929050565b5f81519050919050565b5f82825260208201905092915050565b5f819050602082019050919050565b61241581611deb565b82525050565b5f612426838361240c565b60208301905092915050565b5f602082019050919050565b5f612448826123e3565b61245281856123ed565b935061245d836123fd565b805f5b8381101561248d578151612474888261241b565b975061247f83612432565b925050600181019050612460565b5085935050505092915050565b5f6020820190508181035f8301526124b2818461243e565b905092915050565b6124c381611db0565b82525050565b5f6020820190506124dc5f8301846124ba565b92915050565b6124eb81611f04565b81146124f5575f80fd5b50565b5f81359050612506816124e2565b92915050565b5f806040838503121561252257612521611d89565b5b5f61252f85828601611dd7565b9250506020612540858286016124f8565b9150509250929050565b5f80604083850312156125605761255f611d89565b5b5f61256d85828601611dd7565b925050602061257e85828601611dd7565b9150509250929050565b5f805f805f60a086880312156125a1576125a0611d89565b5b5f6125ae88828901611dd7565b95505060206125bf88828901611dd7565b94505060406125d088828901611e0a565b93505060606125e188828901611e0a565b925050608086013567ffffffffffffffff81111561260257612601611d8d565b5b61260e888289016121b5565b9150509295509295909350565b5f602082840312156126305761262f611d89565b5b5f61263d84828501611dd7565b91505092915050565b7f4e487b71000000000000000000000000000000000000000000000000000000005f52602260045260245ffd5b5f600282049050600182168061268a57607f821691505b60208210810361269d5761269c612646565b5b50919050565b5f81905092915050565b7f68747470733a2f2f6c6176656e6465722d6e6561742d706f72637570696e652d5f8201527f3334372e6d7970696e6174612e636c6f75642f697066732f516d5a4e744e617860208201527f68797a346e335058573731525855687367386a52335072706d51596a6d66593360408201527f625866564a782f7275676765645f000000000000000000000000000000000000606082015250565b5f612753606e836126a3565b915061275e826126ad565b606e82019050919050565b5f61277382611f37565b61277d81856126a3565b935061278d818560208601611f51565b80840191505092915050565b7f2e6a736f6e0000000000000000000000000000000000000000000000000000005f82015250565b5f6127cd6005836126a3565b91506127d882612799565b600582019050919050565b5f6127ed82612747565b91506127f98284612769565b9150612804826127c1565b915081905092915050565b7f4e487b71000000000000000000000000000000000000000000000000000000005f52601160045260245ffd5b5f61284682611deb565b915061285183611deb565b925082820261285f81611deb565b915082820484148315176128765761287561280f565b5b5092915050565b7f4e487b71000000000000000000000000000000000000000000000000000000005f52601260045260245ffd5b5f6128b482611deb565b91506128bf83611deb565b9250826128cf576128ce61287d565b5b828204905092915050565b5f6128e482611deb565b91506128ef83611deb565b92508282019050808211156129075761290661280f565b5b92915050565b7f496e636f7272656374207469636b657420707269636520696e636c7564696e675f8201527f2066656500000000000000000000000000000000000000000000000000000000602082015250565b5f612967602483611f41565b91506129728261290d565b604082019050919050565b5f6020820190508181035f8301526129948161295b565b9050919050565b7f4e6f7420656e6f7567682062616c616e636520666f7220746865207072697a655f8201527f2e20506c6561736520636f6e7461637420737570706f7274206f6e204469736360208201527f6f72642e00000000000000000000000000000000000000000000000000000000604082015250565b5f612a1b604483611f41565b9150612a268261299b565b606082019050919050565b5f6020820190508181035f830152612a4881612a0f565b9050919050565b5f604082019050612a625f8301856124ba565b612a6f60208301846124ba565b9392505050565b7f4e6f2062616c616e636520746f204861727665737400000000000000000000005f82015250565b5f612aaa601583611f41565b9150612ab582612a76565b602082019050919050565b5f6020820190508181035f830152612ad781612a9e565b9050919050565b5f81905092915050565b50565b5f612af65f83612ade565b9150612b0182612ae8565b5f82019050919050565b5f612b1582612aeb565b9150819050919050565b7f48617276657374206661696c65640000000000000000000000000000000000005f82015250565b5f612b53600e83611f41565b9150612b5e82612b1f565b602082019050919050565b5f6020820190508181035f830152612b8081612b47565b9050919050565b5f604082019050612b9a5f830185611e5c565b612ba76020830184611e5c565b9392505050565b7f4e487b71000000000000000000000000000000000000000000000000000000005f52603260045260245ffd5b5f612be582611deb565b9150612bf083611deb565b925082612c0057612bff61287d565b5b828206905092915050565b5f819050919050565b612c25612c2082611deb565b612c0b565b82525050565b5f8160601b9050919050565b5f612c4182612c2b565b9050919050565b5f612c5282612c37565b9050919050565b612c6a612c6582611db0565b612c48565b82525050565b5f612c7b8289612c14565b602082019150612c8b8288612c14565b602082019150612c9b8287612c59565b601482019150612cab8286612c14565b602082019150612cbb8285612c14565b602082019150612ccb8284612c14565b602082019150819050979650505050505050565b5f608082019050612cf25f8301876124ba565b612cff6020830186611e5c565b612d0c6040830185611e5c565b612d196060830184611e5c565b95945050505050565b5f6040820190508181035f830152612d3a818561243e565b90508181036020830152612d4e818461243e565b90509392505050565b5f81519050919050565b5f82825260208201905092915050565b5f612d7b82612d57565b612d858185612d61565b9350612d95818560208601611f51565b612d9e81611f5f565b840191505092915050565b5f60a082019050612dbc5f8301886124ba565b612dc960208301876124ba565b612dd66040830186611e5c565b612de36060830185611e5c565b8181036080830152612df58184612d71565b90509695505050505050565b5f81519050612e0f81611eaf565b92915050565b5f60208284031215612e2a57612e29611d89565b5b5f612e3784828501612e01565b91505092915050565b5f60a082019050612e535f8301886124ba565b612e6060208301876124ba565b8181036040830152612e72818661243e565b90508181036060830152612e86818561243e565b90508181036080830152612e9a8184612d71565b9050969550505050505056fe68747470733a2f2f6c6176656e6465722d6e6561742d706f72637570696e652d3334372e6d7970696e6174612e636c6f75642f697066732f516d5a4e744e617868797a346e335058573731525855687367386a52335072706d51596a6d665933625866564a782f57494e2e6a736f6ea264697066735822122070a75b5e8bf89c43757f90aecc572b34cf9a762ec3a0c8ed2caea799525b540a64736f6c634300081a0033",
			"opcodes": "PUSH1 0x80 PUSH1 0x40 MSTORE CALLVALUE DUP1 ISZERO PUSH2 0xF JUMPI PUSH0 DUP1 REVERT JUMPDEST POP PUSH1 0x40 MLOAD PUSH2 0x3661 CODESIZE SUB DUP1 PUSH2 0x3661 DUP4 CODECOPY DUP2 DUP2 ADD PUSH1 0x40 MSTORE DUP2 ADD SWAP1 PUSH2 0x31 SWAP2 SWAP1 PUSH2 0x356 JUMP JUMPDEST CALLER PUSH1 0x40 MLOAD DUP1 PUSH1 0x20 ADD PUSH1 0x40 MSTORE DUP1 PUSH0 DUP2 MSTORE POP PUSH2 0x50 DUP2 PUSH2 0x100 PUSH1 0x20 SHL PUSH1 0x20 SHR JUMP JUMPDEST POP PUSH0 PUSH20 0xFFFFFFFFFFFFFFFFFFFFFFFFFFFFFFFFFFFFFFFF AND DUP2 PUSH20 0xFFFFFFFFFFFFFFFFFFFFFFFFFFFFFFFFFFFFFFFF AND SUB PUSH2 0xC1 JUMPI PUSH0 PUSH1 0x40 MLOAD PUSH32 0x1E4FBDF700000000000000000000000000000000000000000000000000000000 DUP2 MSTORE PUSH1 0x4 ADD PUSH2 0xB8 SWAP2 SWAP1 PUSH2 0x41D JUMP JUMPDEST PUSH1 0x40 MLOAD DUP1 SWAP2 SUB SWAP1 REVERT JUMPDEST PUSH2 0xD0 DUP2 PUSH2 0x113 PUSH1 0x20 SHL PUSH1 0x20 SHR JUMP JUMPDEST POP DUP3 PUSH1 0x4 SWAP1 DUP2 PUSH2 0xE0 SWAP2 SWAP1 PUSH2 0x63A JUMP JUMPDEST POP DUP2 PUSH1 0x5 SWAP1 DUP2 PUSH2 0xF0 SWAP2 SWAP1 PUSH2 0x63A JUMP JUMPDEST POP DUP1 PUSH1 0x6 DUP2 SWAP1 SSTORE POP POP POP POP PUSH2 0x709 JUMP JUMPDEST DUP1 PUSH1 0x2 SWAP1 DUP2 PUSH2 0x10F SWAP2 SWAP1 PUSH2 0x63A JUMP JUMPDEST POP POP JUMP JUMPDEST PUSH0 PUSH1 0x3 PUSH0 SWAP1 SLOAD SWAP1 PUSH2 0x100 EXP SWAP1 DIV PUSH20 0xFFFFFFFFFFFFFFFFFFFFFFFFFFFFFFFFFFFFFFFF AND SWAP1 POP DUP2 PUSH1 0x3 PUSH0 PUSH2 0x100 EXP DUP2 SLOAD DUP2 PUSH20 0xFFFFFFFFFFFFFFFFFFFFFFFFFFFFFFFFFFFFFFFF MUL NOT AND SWAP1 DUP4 PUSH20 0xFFFFFFFFFFFFFFFFFFFFFFFFFFFFFFFFFFFFFFFF AND MUL OR SWAP1 SSTORE POP DUP2 PUSH20 0xFFFFFFFFFFFFFFFFFFFFFFFFFFFFFFFFFFFFFFFF AND DUP2 PUSH20 0xFFFFFFFFFFFFFFFFFFFFFFFFFFFFFFFFFFFFFFFF AND PUSH32 0x8BE0079C531659141344CD1FD0A4F28419497F9722A3DAAFE3B4186F6B6457E0 PUSH1 0x40 MLOAD PUSH1 0x40 MLOAD DUP1 SWAP2 SUB SWAP1 LOG3 POP POP JUMP JUMPDEST PUSH0 PUSH1 0x40 MLOAD SWAP1 POP SWAP1 JUMP JUMPDEST PUSH0 DUP1 REVERT JUMPDEST PUSH0 DUP1 REVERT JUMPDEST PUSH0 DUP1 REVERT JUMPDEST PUSH0 DUP1 REVERT JUMPDEST PUSH0 PUSH1 0x1F NOT PUSH1 0x1F DUP4 ADD AND SWAP1 POP SWAP2 SWAP1 POP JUMP JUMPDEST PUSH32 0x4E487B7100000000000000000000000000000000000000000000000000000000 PUSH0 MSTORE PUSH1 0x41 PUSH1 0x4 MSTORE PUSH1 0x24 PUSH0 REVERT JUMPDEST PUSH2 0x235 DUP3 PUSH2 0x1EF JUMP JUMPDEST DUP2 ADD DUP2 DUP2 LT PUSH8 0xFFFFFFFFFFFFFFFF DUP3 GT OR ISZERO PUSH2 0x254 JUMPI PUSH2 0x253 PUSH2 0x1FF JUMP JUMPDEST JUMPDEST DUP1 PUSH1 0x40 MSTORE POP POP POP JUMP JUMPDEST PUSH0 PUSH2 0x266 PUSH2 0x1D6 JUMP JUMPDEST SWAP1 POP PUSH2 0x272 DUP3 DUP3 PUSH2 0x22C JUMP JUMPDEST SWAP2 SWAP1 POP JUMP JUMPDEST PUSH0 PUSH8 0xFFFFFFFFFFFFFFFF DUP3 GT ISZERO PUSH2 0x291 JUMPI PUSH2 0x290 PUSH2 0x1FF JUMP JUMPDEST JUMPDEST PUSH2 0x29A DUP3 PUSH2 0x1EF JUMP JUMPDEST SWAP1 POP PUSH1 0x20 DUP2 ADD SWAP1 POP SWAP2 SWAP1 POP JUMP JUMPDEST DUP3 DUP2 DUP4 MCOPY PUSH0 DUP4 DUP4 ADD MSTORE POP POP POP JUMP JUMPDEST PUSH0 PUSH2 0x2C7 PUSH2 0x2C2 DUP5 PUSH2 0x277 JUMP JUMPDEST PUSH2 0x25D JUMP JUMPDEST SWAP1 POP DUP3 DUP2 MSTORE PUSH1 0x20 DUP2 ADD DUP5 DUP5 DUP5 ADD GT ISZERO PUSH2 0x2E3 JUMPI PUSH2 0x2E2 PUSH2 0x1EB JUMP JUMPDEST JUMPDEST PUSH2 0x2EE DUP5 DUP3 DUP6 PUSH2 0x2A7 JUMP JUMPDEST POP SWAP4 SWAP3 POP POP POP JUMP JUMPDEST PUSH0 DUP3 PUSH1 0x1F DUP4 ADD SLT PUSH2 0x30A JUMPI PUSH2 0x309 PUSH2 0x1E7 JUMP JUMPDEST JUMPDEST DUP2 MLOAD PUSH2 0x31A DUP5 DUP3 PUSH1 0x20 DUP7 ADD PUSH2 0x2B5 JUMP JUMPDEST SWAP2 POP POP SWAP3 SWAP2 POP POP JUMP JUMPDEST PUSH0 DUP2 SWAP1 POP SWAP2 SWAP1 POP JUMP JUMPDEST PUSH2 0x335 DUP2 PUSH2 0x323 JUMP JUMPDEST DUP2 EQ PUSH2 0x33F JUMPI PUSH0 DUP1 REVERT JUMPDEST POP JUMP JUMPDEST PUSH0 DUP2 MLOAD SWAP1 POP PUSH2 0x350 DUP2 PUSH2 0x32C JUMP JUMPDEST SWAP3 SWAP2 POP POP JUMP JUMPDEST PUSH0 DUP1 PUSH0 PUSH1 0x60 DUP5 DUP7 SUB SLT ISZERO PUSH2 0x36D JUMPI PUSH2 0x36C PUSH2 0x1DF JUMP JUMPDEST JUMPDEST PUSH0 DUP5 ADD MLOAD PUSH8 0xFFFFFFFFFFFFFFFF DUP2 GT ISZERO PUSH2 0x38A JUMPI PUSH2 0x389 PUSH2 0x1E3 JUMP JUMPDEST JUMPDEST PUSH2 0x396 DUP7 DUP3 DUP8 ADD PUSH2 0x2F6 JUMP JUMPDEST SWAP4 POP POP PUSH1 0x20 DUP5 ADD MLOAD PUSH8 0xFFFFFFFFFFFFFFFF DUP2 GT ISZERO PUSH2 0x3B7 JUMPI PUSH2 0x3B6 PUSH2 0x1E3 JUMP JUMPDEST JUMPDEST PUSH2 0x3C3 DUP7 DUP3 DUP8 ADD PUSH2 0x2F6 JUMP JUMPDEST SWAP3 POP POP PUSH1 0x40 PUSH2 0x3D4 DUP7 DUP3 DUP8 ADD PUSH2 0x342 JUMP JUMPDEST SWAP2 POP POP SWAP3 POP SWAP3 POP SWAP3 JUMP JUMPDEST PUSH0 PUSH20 0xFFFFFFFFFFFFFFFFFFFFFFFFFFFFFFFFFFFFFFFF DUP3 AND SWAP1 POP SWAP2 SWAP1 POP JUMP JUMPDEST PUSH0 PUSH2 0x407 DUP3 PUSH2 0x3DE JUMP JUMPDEST SWAP1 POP SWAP2 SWAP1 POP JUMP JUMPDEST PUSH2 0x417 DUP2 PUSH2 0x3FD JUMP JUMPDEST DUP3 MSTORE POP POP JUMP JUMPDEST PUSH0 PUSH1 0x20 DUP3 ADD SWAP1 POP PUSH2 0x430 PUSH0 DUP4 ADD DUP5 PUSH2 0x40E JUMP JUMPDEST SWAP3 SWAP2 POP POP JUMP JUMPDEST PUSH0 DUP2 MLOAD SWAP1 POP SWAP2 SWAP1 POP JUMP JUMPDEST PUSH32 0x4E487B7100000000000000000000000000000000000000000000000000000000 PUSH0 MSTORE PUSH1 0x22 PUSH1 0x4 MSTORE PUSH1 0x24 PUSH0 REVERT JUMPDEST PUSH0 PUSH1 0x2 DUP3 DIV SWAP1 POP PUSH1 0x1 DUP3 AND DUP1 PUSH2 0x484 JUMPI PUSH1 0x7F DUP3 AND SWAP2 POP JUMPDEST PUSH1 0x20 DUP3 LT DUP2 SUB PUSH2 0x497 JUMPI PUSH2 0x496 PUSH2 0x440 JUMP JUMPDEST JUMPDEST POP SWAP2 SWAP1 POP JUMP JUMPDEST PUSH0 DUP2 SWAP1 POP DUP2 PUSH0 MSTORE PUSH1 0x20 PUSH0 KECCAK256 SWAP1 POP SWAP2 SWAP1 POP JUMP JUMPDEST PUSH0 PUSH1 0x20 PUSH1 0x1F DUP4 ADD DIV SWAP1 POP SWAP2 SWAP1 POP JUMP JUMPDEST PUSH0 DUP3 DUP3 SHL SWAP1 POP SWAP3 SWAP2 POP POP JUMP JUMPDEST PUSH0 PUSH1 0x8 DUP4 MUL PUSH2 0x4F9 PUSH32 0xFFFFFFFFFFFFFFFFFFFFFFFFFFFFFFFFFFFFFFFFFFFFFFFFFFFFFFFFFFFFFFFF DUP3 PUSH2 0x4BE JUMP JUMPDEST PUSH2 0x503 DUP7 DUP4 PUSH2 0x4BE JUMP JUMPDEST SWAP6 POP DUP1 NOT DUP5 AND SWAP4 POP DUP1 DUP7 AND DUP5 OR SWAP3 POP POP POP SWAP4 SWAP3 POP POP POP JUMP JUMPDEST PUSH0 DUP2 SWAP1 POP SWAP2 SWAP1 POP JUMP JUMPDEST PUSH0 PUSH2 0x53E PUSH2 0x539 PUSH2 0x534 DUP5 PUSH2 0x323 JUMP JUMPDEST PUSH2 0x51B JUMP JUMPDEST PUSH2 0x323 JUMP JUMPDEST SWAP1 POP SWAP2 SWAP1 POP JUMP JUMPDEST PUSH0 DUP2 SWAP1 POP SWAP2 SWAP1 POP JUMP JUMPDEST PUSH2 0x557 DUP4 PUSH2 0x524 JUMP JUMPDEST PUSH2 0x56B PUSH2 0x563 DUP3 PUSH2 0x545 JUMP JUMPDEST DUP5 DUP5 SLOAD PUSH2 0x4CA JUMP JUMPDEST DUP3 SSTORE POP POP POP POP JUMP JUMPDEST PUSH0 SWAP1 JUMP JUMPDEST PUSH2 0x57F PUSH2 0x573 JUMP JUMPDEST PUSH2 0x58A DUP2 DUP5 DUP5 PUSH2 0x54E JUMP JUMPDEST POP POP POP JUMP JUMPDEST JUMPDEST DUP2 DUP2 LT ISZERO PUSH2 0x5AD JUMPI PUSH2 0x5A2 PUSH0 DUP3 PUSH2 0x577 JUMP JUMPDEST PUSH1 0x1 DUP2 ADD SWAP1 POP PUSH2 0x590 JUMP JUMPDEST POP POP JUMP JUMPDEST PUSH1 0x1F DUP3 GT ISZERO PUSH2 0x5F2 JUMPI PUSH2 0x5C3 DUP2 PUSH2 0x49D JUMP JUMPDEST PUSH2 0x5CC DUP5 PUSH2 0x4AF JUMP JUMPDEST DUP2 ADD PUSH1 0x20 DUP6 LT ISZERO PUSH2 0x5DB JUMPI DUP2 SWAP1 POP JUMPDEST PUSH2 0x5EF PUSH2 0x5E7 DUP6 PUSH2 0x4AF JUMP JUMPDEST DUP4 ADD DUP3 PUSH2 0x58F JUMP JUMPDEST POP POP JUMPDEST POP POP POP JUMP JUMPDEST PUSH0 DUP3 DUP3 SHR SWAP1 POP SWAP3 SWAP2 POP POP JUMP JUMPDEST PUSH0 PUSH2 0x612 PUSH0 NOT DUP5 PUSH1 0x8 MUL PUSH2 0x5F7 JUMP JUMPDEST NOT DUP1 DUP4 AND SWAP2 POP POP SWAP3 SWAP2 POP POP JUMP JUMPDEST PUSH0 PUSH2 0x62A DUP4 DUP4 PUSH2 0x603 JUMP JUMPDEST SWAP2 POP DUP3 PUSH1 0x2 MUL DUP3 OR SWAP1 POP SWAP3 SWAP2 POP POP JUMP JUMPDEST PUSH2 0x643 DUP3 PUSH2 0x436 JUMP JUMPDEST PUSH8 0xFFFFFFFFFFFFFFFF DUP2 GT ISZERO PUSH2 0x65C JUMPI PUSH2 0x65B PUSH2 0x1FF JUMP JUMPDEST JUMPDEST PUSH2 0x666 DUP3 SLOAD PUSH2 0x46D JUMP JUMPDEST PUSH2 0x671 DUP3 DUP3 DUP6 PUSH2 0x5B1 JUMP JUMPDEST PUSH0 PUSH1 0x20 SWAP1 POP PUSH1 0x1F DUP4 GT PUSH1 0x1 DUP2 EQ PUSH2 0x6A2 JUMPI PUSH0 DUP5 ISZERO PUSH2 0x690 JUMPI DUP3 DUP8 ADD MLOAD SWAP1 POP JUMPDEST PUSH2 0x69A DUP6 DUP3 PUSH2 0x61F JUMP JUMPDEST DUP7 SSTORE POP PUSH2 0x701 JUMP JUMPDEST PUSH1 0x1F NOT DUP5 AND PUSH2 0x6B0 DUP7 PUSH2 0x49D JUMP JUMPDEST PUSH0 JUMPDEST DUP3 DUP2 LT ISZERO PUSH2 0x6D7 JUMPI DUP5 DUP10 ADD MLOAD DUP3 SSTORE PUSH1 0x1 DUP3 ADD SWAP2 POP PUSH1 0x20 DUP6 ADD SWAP5 POP PUSH1 0x20 DUP2 ADD SWAP1 POP PUSH2 0x6B2 JUMP JUMPDEST DUP7 DUP4 LT ISZERO PUSH2 0x6F4 JUMPI DUP5 DUP10 ADD MLOAD PUSH2 0x6F0 PUSH1 0x1F DUP10 AND DUP3 PUSH2 0x603 JUMP JUMPDEST DUP4 SSTORE POP JUMPDEST PUSH1 0x1 PUSH1 0x2 DUP9 MUL ADD DUP9 SSTORE POP POP POP JUMPDEST POP POP POP POP POP POP JUMP JUMPDEST PUSH2 0x2F4B DUP1 PUSH2 0x716 PUSH0 CODECOPY PUSH0 RETURN INVALID PUSH1 0x80 PUSH1 0x40 MSTORE PUSH1 0x4 CALLDATASIZE LT PUSH2 0xF1 JUMPI PUSH0 CALLDATALOAD PUSH1 0xE0 SHR DUP1 PUSH4 0x4E1273F4 GT PUSH2 0x89 JUMPI DUP1 PUSH4 0xA22CB465 GT PUSH2 0x58 JUMPI DUP1 PUSH4 0xA22CB465 EQ PUSH2 0x2EB JUMPI DUP1 PUSH4 0xE985E9C5 EQ PUSH2 0x313 JUMPI DUP1 PUSH4 0xF242432A EQ PUSH2 0x34F JUMPI DUP1 PUSH4 0xF2FDE38B EQ PUSH2 0x377 JUMPI PUSH2 0xF1 JUMP JUMPDEST DUP1 PUSH4 0x4E1273F4 EQ PUSH2 0x245 JUMPI DUP1 PUSH4 0x715018A6 EQ PUSH2 0x281 JUMPI DUP1 PUSH4 0x8DA5CB5B EQ PUSH2 0x297 JUMPI DUP1 PUSH4 0x95D89B41 EQ PUSH2 0x2C1 JUMPI PUSH2 0xF1 JUMP JUMPDEST DUP1 PUSH4 0x1209B1F6 GT PUSH2 0xC5 JUMPI DUP1 PUSH4 0x1209B1F6 EQ PUSH2 0x1D3 JUMPI DUP1 PUSH4 0x21846C76 EQ PUSH2 0x1FD JUMPI DUP1 PUSH4 0x2EB2C2D6 EQ PUSH2 0x207 JUMPI DUP1 PUSH4 0x3D64E17A EQ PUSH2 0x22F JUMPI PUSH2 0xF1 JUMP JUMPDEST DUP1 PUSH3 0xFDD58E EQ PUSH2 0xF5 JUMPI DUP1 PUSH4 0x1FFC9A7 EQ PUSH2 0x131 JUMPI DUP1 PUSH4 0x6FDDE03 EQ PUSH2 0x16D JUMPI DUP1 PUSH4 0xE89341C EQ PUSH2 0x197 JUMPI JUMPDEST PUSH0 DUP1 REVERT JUMPDEST CALLVALUE DUP1 ISZERO PUSH2 0x100 JUMPI PUSH0 DUP1 REVERT JUMPDEST POP PUSH2 0x11B PUSH1 0x4 DUP1 CALLDATASIZE SUB DUP2 ADD SWAP1 PUSH2 0x116 SWAP2 SWAP1 PUSH2 0x1E1E JUMP JUMPDEST PUSH2 0x39F JUMP JUMPDEST PUSH1 0x40 MLOAD PUSH2 0x128 SWAP2 SWAP1 PUSH2 0x1E6B JUMP JUMPDEST PUSH1 0x40 MLOAD DUP1 SWAP2 SUB SWAP1 RETURN JUMPDEST CALLVALUE DUP1 ISZERO PUSH2 0x13C JUMPI PUSH0 DUP1 REVERT JUMPDEST POP PUSH2 0x157 PUSH1 0x4 DUP1 CALLDATASIZE SUB DUP2 ADD SWAP1 PUSH2 0x152 SWAP2 SWAP1 PUSH2 0x1ED9 JUMP JUMPDEST PUSH2 0x3F4 JUMP JUMPDEST PUSH1 0x40 MLOAD PUSH2 0x164 SWAP2 SWAP1 PUSH2 0x1F1E JUMP JUMPDEST PUSH1 0x40 MLOAD DUP1 SWAP2 SUB SWAP1 RETURN JUMPDEST CALLVALUE DUP1 ISZERO PUSH2 0x178 JUMPI PUSH0 DUP1 REVERT JUMPDEST POP PUSH2 0x181 PUSH2 0x4D5 JUMP JUMPDEST PUSH1 0x40 MLOAD PUSH2 0x18E SWAP2 SWAP1 PUSH2 0x1FA7 JUMP JUMPDEST PUSH1 0x40 MLOAD DUP1 SWAP2 SUB SWAP1 RETURN JUMPDEST CALLVALUE DUP1 ISZERO PUSH2 0x1A2 JUMPI PUSH0 DUP1 REVERT JUMPDEST POP PUSH2 0x1BD PUSH1 0x4 DUP1 CALLDATASIZE SUB DUP2 ADD SWAP1 PUSH2 0x1B8 SWAP2 SWAP1 PUSH2 0x1FC7 JUMP JUMPDEST PUSH2 0x561 JUMP JUMPDEST PUSH1 0x40 MLOAD PUSH2 0x1CA SWAP2 SWAP1 PUSH2 0x1FA7 JUMP JUMPDEST PUSH1 0x40 MLOAD DUP1 SWAP2 SUB SWAP1 RETURN JUMPDEST CALLVALUE DUP1 ISZERO PUSH2 0x1DE JUMPI PUSH0 DUP1 REVERT JUMPDEST POP PUSH2 0x1E7 PUSH2 0x5BB JUMP JUMPDEST PUSH1 0x40 MLOAD PUSH2 0x1F4 SWAP2 SWAP1 PUSH2 0x1E6B JUMP JUMPDEST PUSH1 0x40 MLOAD DUP1 SWAP2 SUB SWAP1 RETURN JUMPDEST PUSH2 0x205 PUSH2 0x5C1 JUMP JUMPDEST STOP JUMPDEST CALLVALUE DUP1 ISZERO PUSH2 0x212 JUMPI PUSH0 DUP1 REVERT JUMPDEST POP PUSH2 0x22D PUSH1 0x4 DUP1 CALLDATASIZE SUB DUP2 ADD SWAP1 PUSH2 0x228 SWAP2 SWAP1 PUSH2 0x21E2 JUMP JUMPDEST PUSH2 0x7A1 JUMP JUMPDEST STOP JUMPDEST CALLVALUE DUP1 ISZERO PUSH2 0x23A JUMPI PUSH0 DUP1 REVERT JUMPDEST POP PUSH2 0x243 PUSH2 0x848 JUMP JUMPDEST STOP JUMPDEST CALLVALUE DUP1 ISZERO PUSH2 0x250 JUMPI PUSH0 DUP1 REVERT JUMPDEST POP PUSH2 0x26B PUSH1 0x4 DUP1 CALLDATASIZE SUB DUP2 ADD SWAP1 PUSH2 0x266 SWAP2 SWAP1 PUSH2 0x236D JUMP JUMPDEST PUSH2 0x949 JUMP JUMPDEST PUSH1 0x40 MLOAD PUSH2 0x278 SWAP2 SWAP1 PUSH2 0x249A JUMP JUMPDEST PUSH1 0x40 MLOAD DUP1 SWAP2 SUB SWAP1 RETURN JUMPDEST CALLVALUE DUP1 ISZERO PUSH2 0x28C JUMPI PUSH0 DUP1 REVERT JUMPDEST POP PUSH2 0x295 PUSH2 0xA50 JUMP JUMPDEST STOP JUMPDEST CALLVALUE DUP1 ISZERO PUSH2 0x2A2 JUMPI PUSH0 DUP1 REVERT JUMPDEST POP PUSH2 0x2AB PUSH2 0xA63 JUMP JUMPDEST PUSH1 0x40 MLOAD PUSH2 0x2B8 SWAP2 SWAP1 PUSH2 0x24C9 JUMP JUMPDEST PUSH1 0x40 MLOAD DUP1 SWAP2 SUB SWAP1 RETURN JUMPDEST CALLVALUE DUP1 ISZERO PUSH2 0x2CC JUMPI PUSH0 DUP1 REVERT JUMPDEST POP PUSH2 0x2D5 PUSH2 0xA8B JUMP JUMPDEST PUSH1 0x40 MLOAD PUSH2 0x2E2 SWAP2 SWAP1 PUSH2 0x1FA7 JUMP JUMPDEST PUSH1 0x40 MLOAD DUP1 SWAP2 SUB SWAP1 RETURN JUMPDEST CALLVALUE DUP1 ISZERO PUSH2 0x2F6 JUMPI PUSH0 DUP1 REVERT JUMPDEST POP PUSH2 0x311 PUSH1 0x4 DUP1 CALLDATASIZE SUB DUP2 ADD SWAP1 PUSH2 0x30C SWAP2 SWAP1 PUSH2 0x250C JUMP JUMPDEST PUSH2 0xB17 JUMP JUMPDEST STOP JUMPDEST CALLVALUE DUP1 ISZERO PUSH2 0x31E JUMPI PUSH0 DUP1 REVERT JUMPDEST POP PUSH2 0x339 PUSH1 0x4 DUP1 CALLDATASIZE SUB DUP2 ADD SWAP1 PUSH2 0x334 SWAP2 SWAP1 PUSH2 0x254A JUMP JUMPDEST PUSH2 0xB2D JUMP JUMPDEST PUSH1 0x40 MLOAD PUSH2 0x346 SWAP2 SWAP1 PUSH2 0x1F1E JUMP JUMPDEST PUSH1 0x40 MLOAD DUP1 SWAP2 SUB SWAP1 RETURN JUMPDEST CALLVALUE DUP1 ISZERO PUSH2 0x35A JUMPI PUSH0 DUP1 REVERT JUMPDEST POP PUSH2 0x375 PUSH1 0x4 DUP1 CALLDATASIZE SUB DUP2 ADD SWAP1 PUSH2 0x370 SWAP2 SWAP1 PUSH2 0x2588 JUMP JUMPDEST PUSH2 0xBBB JUMP JUMPDEST STOP JUMPDEST CALLVALUE DUP1 ISZERO PUSH2 0x382 JUMPI PUSH0 DUP1 REVERT JUMPDEST POP PUSH2 0x39D PUSH1 0x4 DUP1 CALLDATASIZE SUB DUP2 ADD SWAP1 PUSH2 0x398 SWAP2 SWAP1 PUSH2 0x261B JUMP JUMPDEST PUSH2 0xC62 JUMP JUMPDEST STOP JUMPDEST PUSH0 DUP1 PUSH0 DUP4 DUP2 MSTORE PUSH1 0x20 ADD SWAP1 DUP2 MSTORE PUSH1 0x20 ADD PUSH0 KECCAK256 PUSH0 DUP5 PUSH20 0xFFFFFFFFFFFFFFFFFFFFFFFFFFFFFFFFFFFFFFFF AND PUSH20 0xFFFFFFFFFFFFFFFFFFFFFFFFFFFFFFFFFFFFFFFF AND DUP2 MSTORE PUSH1 0x20 ADD SWAP1 DUP2 MSTORE PUSH1 0x20 ADD PUSH0 KECCAK256 SLOAD SWAP1 POP SWAP3 SWAP2 POP POP JUMP JUMPDEST PUSH0 PUSH32 0xD9B67A2600000000000000000000000000000000000000000000000000000000 PUSH28 0xFFFFFFFFFFFFFFFFFFFFFFFFFFFFFFFFFFFFFFFFFFFFFFFFFFFFFFFF NOT AND DUP3 PUSH28 0xFFFFFFFFFFFFFFFFFFFFFFFFFFFFFFFFFFFFFFFFFFFFFFFFFFFFFFFF NOT AND EQ DUP1 PUSH2 0x4BE JUMPI POP PUSH32 0xE89341C00000000000000000000000000000000000000000000000000000000 PUSH28 0xFFFFFFFFFFFFFFFFFFFFFFFFFFFFFFFFFFFFFFFFFFFFFFFFFFFFFFFF NOT AND DUP3 PUSH28 0xFFFFFFFFFFFFFFFFFFFFFFFFFFFFFFFFFFFFFFFFFFFFFFFFFFFFFFFF NOT AND EQ JUMPDEST DUP1 PUSH2 0x4CE JUMPI POP PUSH2 0x4CD DUP3 PUSH2 0xCE6 JUMP JUMPDEST JUMPDEST SWAP1 POP SWAP2 SWAP1 POP JUMP JUMPDEST PUSH1 0x4 DUP1 SLOAD PUSH2 0x4E2 SWAP1 PUSH2 0x2673 JUMP JUMPDEST DUP1 PUSH1 0x1F ADD PUSH1 0x20 DUP1 SWAP2 DIV MUL PUSH1 0x20 ADD PUSH1 0x40 MLOAD SWAP1 DUP2 ADD PUSH1 0x40 MSTORE DUP1 SWAP3 SWAP2 SWAP1 DUP2 DUP2 MSTORE PUSH1 0x20 ADD DUP3 DUP1 SLOAD PUSH2 0x50E SWAP1 PUSH2 0x2673 JUMP JUMPDEST DUP1 ISZERO PUSH2 0x559 JUMPI DUP1 PUSH1 0x1F LT PUSH2 0x530 JUMPI PUSH2 0x100 DUP1 DUP4 SLOAD DIV MUL DUP4 MSTORE SWAP2 PUSH1 0x20 ADD SWAP2 PUSH2 0x559 JUMP JUMPDEST DUP3 ADD SWAP2 SWAP1 PUSH0 MSTORE PUSH1 0x20 PUSH0 KECCAK256 SWAP1 JUMPDEST DUP2 SLOAD DUP2 MSTORE SWAP1 PUSH1 0x1 ADD SWAP1 PUSH1 0x20 ADD DUP1 DUP4 GT PUSH2 0x53C JUMPI DUP3 SWAP1 SUB PUSH1 0x1F AND DUP3 ADD SWAP2 JUMPDEST POP POP POP POP POP DUP2 JUMP JUMPDEST PUSH1 0x60 PUSH1 0x7 DUP3 SUB PUSH2 0x58B JUMPI PUSH1 0x40 MLOAD DUP1 PUSH1 0xA0 ADD PUSH1 0x40 MSTORE DUP1 PUSH1 0x6F DUP2 MSTORE PUSH1 0x20 ADD PUSH2 0x2EA7 PUSH1 0x6F SWAP2 CODECOPY SWAP1 POP PUSH2 0x5B6 JUMP JUMPDEST PUSH2 0x594 DUP3 PUSH2 0xD4F JUMP JUMPDEST PUSH1 0x40 MLOAD PUSH1 0x20 ADD PUSH2 0x5A4 SWAP2 SWAP1 PUSH2 0x27E3 JUMP JUMPDEST PUSH1 0x40 MLOAD PUSH1 0x20 DUP2 DUP4 SUB SUB DUP2 MSTORE SWAP1 PUSH1 0x40 MSTORE SWAP1 POP JUMPDEST SWAP2 SWAP1 POP JUMP JUMPDEST PUSH1 0x6 SLOAD DUP2 JUMP JUMPDEST PUSH0 PUSH2 0x3E8 PUSH1 0x17 PUSH1 0x6 SLOAD PUSH2 0x5D4 SWAP2 SWAP1 PUSH2 0x283C JUMP JUMPDEST PUSH2 0x5DE SWAP2 SWAP1 PUSH2 0x28AA JUMP JUMPDEST SWAP1 POP PUSH0 DUP2 PUSH1 0x6 SLOAD PUSH2 0x5EF SWAP2 SWAP1 PUSH2 0x28DA JUMP JUMPDEST SWAP1 POP DUP1 CALLVALUE EQ PUSH2 0x633 JUMPI PUSH1 0x40 MLOAD PUSH32 0x8C379A000000000000000000000000000000000000000000000000000000000 DUP2 MSTORE PUSH1 0x4 ADD PUSH2 0x62A SWAP1 PUSH2 0x297D JUMP JUMPDEST PUSH1 0x40 MLOAD DUP1 SWAP2 SUB SWAP1 REVERT JUMPDEST PUSH0 PUSH2 0x63C PUSH2 0xE19 JUMP JUMPDEST SWAP1 POP PUSH2 0x659 CALLER DUP3 PUSH1 0x1 PUSH1 0x40 MLOAD DUP1 PUSH1 0x20 ADD PUSH1 0x40 MSTORE DUP1 PUSH0 DUP2 MSTORE POP PUSH2 0xE5D JUMP JUMPDEST PUSH0 PUSH1 0x7 DUP3 EQ SWAP1 POP DUP2 CALLER PUSH20 0xFFFFFFFFFFFFFFFFFFFFFFFFFFFFFFFFFFFFFFFF AND PUSH32 0x7DBBC3352D28EE48B14FF9EF1A521D7AD40F7A50EC749C058351285DCDF9E96F DUP4 PUSH1 0x40 MLOAD PUSH2 0x6A7 SWAP2 SWAP1 PUSH2 0x1F1E JUMP JUMPDEST PUSH1 0x40 MLOAD DUP1 SWAP2 SUB SWAP1 LOG3 PUSH2 0x6B7 PUSH2 0xA63 JUMP JUMPDEST PUSH20 0xFFFFFFFFFFFFFFFFFFFFFFFFFFFFFFFFFFFFFFFF AND PUSH2 0x8FC DUP6 SWAP1 DUP2 ISZERO MUL SWAP1 PUSH1 0x40 MLOAD PUSH0 PUSH1 0x40 MLOAD DUP1 DUP4 SUB DUP2 DUP6 DUP9 DUP9 CALL SWAP4 POP POP POP POP ISZERO DUP1 ISZERO PUSH2 0x6F9 JUMPI RETURNDATASIZE PUSH0 DUP1 RETURNDATACOPY RETURNDATASIZE PUSH0 REVERT JUMPDEST POP DUP1 ISZERO PUSH2 0x79B JUMPI PUSH0 PUSH1 0x2 PUSH1 0x6 SLOAD PUSH2 0x710 SWAP2 SWAP1 PUSH2 0x283C JUMP JUMPDEST SWAP1 POP DUP1 SELFBALANCE LT ISZERO PUSH2 0x755 JUMPI PUSH1 0x40 MLOAD PUSH32 0x8C379A000000000000000000000000000000000000000000000000000000000 DUP2 MSTORE PUSH1 0x4 ADD PUSH2 0x74C SWAP1 PUSH2 0x2A31 JUMP JUMPDEST PUSH1 0x40 MLOAD DUP1 SWAP2 SUB SWAP1 REVERT JUMPDEST CALLER PUSH20 0xFFFFFFFFFFFFFFFFFFFFFFFFFFFFFFFFFFFFFFFF AND PUSH2 0x8FC DUP3 SWAP1 DUP2 ISZERO MUL SWAP1 PUSH1 0x40 MLOAD PUSH0 PUSH1 0x40 MLOAD DUP1 DUP4 SUB DUP2 DUP6 DUP9 DUP9 CALL SWAP4 POP POP POP POP ISZERO DUP1 ISZERO PUSH2 0x798 JUMPI RETURNDATASIZE PUSH0 DUP1 RETURNDATACOPY RETURNDATASIZE PUSH0 REVERT JUMPDEST POP POP JUMPDEST POP POP POP POP JUMP JUMPDEST PUSH0 PUSH2 0x7AA PUSH2 0xEF2 JUMP JUMPDEST SWAP1 POP DUP1 PUSH20 0xFFFFFFFFFFFFFFFFFFFFFFFFFFFFFFFFFFFFFFFF AND DUP7 PUSH20 0xFFFFFFFFFFFFFFFFFFFFFFFFFFFFFFFFFFFFFFFF AND EQ ISZERO DUP1 ISZERO PUSH2 0x7EF JUMPI POP PUSH2 0x7ED DUP7 DUP3 PUSH2 0xB2D JUMP JUMPDEST ISZERO JUMPDEST ISZERO PUSH2 0x833 JUMPI DUP1 DUP7 PUSH1 0x40 MLOAD PUSH32 0xE237D92200000000000000000000000000000000000000000000000000000000 DUP2 MSTORE PUSH1 0x4 ADD PUSH2 0x82A SWAP3 SWAP2 SWAP1 PUSH2 0x2A4F JUMP JUMPDEST PUSH1 0x40 MLOAD DUP1 SWAP2 SUB SWAP1 REVERT JUMPDEST PUSH2 0x840 DUP7 DUP7 DUP7 DUP7 DUP7 PUSH2 0xEF9 JUMP JUMPDEST POP POP POP POP POP POP JUMP JUMPDEST PUSH2 0x850 PUSH2 0xFED JUMP JUMPDEST PUSH0 SELFBALANCE SWAP1 POP PUSH0 DUP2 GT PUSH2 0x896 JUMPI PUSH1 0x40 MLOAD PUSH32 0x8C379A000000000000000000000000000000000000000000000000000000000 DUP2 MSTORE PUSH1 0x4 ADD PUSH2 0x88D SWAP1 PUSH2 0x2AC0 JUMP JUMPDEST PUSH1 0x40 MLOAD DUP1 SWAP2 SUB SWAP1 REVERT JUMPDEST PUSH0 PUSH2 0x89F PUSH2 0xA63 JUMP JUMPDEST PUSH20 0xFFFFFFFFFFFFFFFFFFFFFFFFFFFFFFFFFFFFFFFF AND DUP3 PUSH1 0x40 MLOAD PUSH2 0x8C2 SWAP1 PUSH2 0x2B0B JUMP JUMPDEST PUSH0 PUSH1 0x40 MLOAD DUP1 DUP4 SUB DUP2 DUP6 DUP8 GAS CALL SWAP3 POP POP POP RETURNDATASIZE DUP1 PUSH0 DUP2 EQ PUSH2 0x8FC JUMPI PUSH1 0x40 MLOAD SWAP2 POP PUSH1 0x1F NOT PUSH1 0x3F RETURNDATASIZE ADD AND DUP3 ADD PUSH1 0x40 MSTORE RETURNDATASIZE DUP3 MSTORE RETURNDATASIZE PUSH0 PUSH1 0x20 DUP5 ADD RETURNDATACOPY PUSH2 0x901 JUMP JUMPDEST PUSH1 0x60 SWAP2 POP JUMPDEST POP POP SWAP1 POP DUP1 PUSH2 0x945 JUMPI PUSH1 0x40 MLOAD PUSH32 0x8C379A000000000000000000000000000000000000000000000000000000000 DUP2 MSTORE PUSH1 0x4 ADD PUSH2 0x93C SWAP1 PUSH2 0x2B69 JUMP JUMPDEST PUSH1 0x40 MLOAD DUP1 SWAP2 SUB SWAP1 REVERT JUMPDEST POP POP JUMP JUMPDEST PUSH1 0x60 DUP2 MLOAD DUP4 MLOAD EQ PUSH2 0x995 JUMPI DUP2 MLOAD DUP4 MLOAD PUSH1 0x40 MLOAD PUSH32 0x5B05999100000000000000000000000000000000000000000000000000000000 DUP2 MSTORE PUSH1 0x4 ADD PUSH2 0x98C SWAP3 SWAP2 SWAP1 PUSH2 0x2B87 JUMP JUMPDEST PUSH1 0x40 MLOAD DUP1 SWAP2 SUB SWAP1 REVERT JUMPDEST PUSH0 DUP4 MLOAD PUSH8 0xFFFFFFFFFFFFFFFF DUP2 GT ISZERO PUSH2 0x9B1 JUMPI PUSH2 0x9B0 PUSH2 0x1FF6 JUMP JUMPDEST JUMPDEST PUSH1 0x40 MLOAD SWAP1 DUP1 DUP3 MSTORE DUP1 PUSH1 0x20 MUL PUSH1 0x20 ADD DUP3 ADD PUSH1 0x40 MSTORE DUP1 ISZERO PUSH2 0x9DF JUMPI DUP2 PUSH1 0x20 ADD PUSH1 0x20 DUP3 MUL DUP1 CALLDATASIZE DUP4 CALLDATACOPY DUP1 DUP3 ADD SWAP2 POP POP SWAP1 POP JUMPDEST POP SWAP1 POP PUSH0 JUMPDEST DUP5 MLOAD DUP2 LT ISZERO PUSH2 0xA45 JUMPI PUSH2 0xA1B PUSH2 0xA03 DUP3 DUP8 PUSH2 0x1074 SWAP1 SWAP2 SWAP1 PUSH4 0xFFFFFFFF AND JUMP JUMPDEST PUSH2 0xA16 DUP4 DUP8 PUSH2 0x1087 SWAP1 SWAP2 SWAP1 PUSH4 0xFFFFFFFF AND JUMP JUMPDEST PUSH2 0x39F JUMP JUMPDEST DUP3 DUP3 DUP2 MLOAD DUP2 LT PUSH2 0xA2E JUMPI PUSH2 0xA2D PUSH2 0x2BAE JUMP JUMPDEST JUMPDEST PUSH1 0x20 MUL PUSH1 0x20 ADD ADD DUP2 DUP2 MSTORE POP POP DUP1 PUSH1 0x1 ADD SWAP1 POP PUSH2 0x9E4 JUMP JUMPDEST POP DUP1 SWAP2 POP POP SWAP3 SWAP2 POP POP JUMP JUMPDEST PUSH2 0xA58 PUSH2 0xFED JUMP JUMPDEST PUSH2 0xA61 PUSH0 PUSH2 0x109A JUMP JUMPDEST JUMP JUMPDEST PUSH0 PUSH1 0x3 PUSH0 SWAP1 SLOAD SWAP1 PUSH2 0x100 EXP SWAP1 DIV PUSH20 0xFFFFFFFFFFFFFFFFFFFFFFFFFFFFFFFFFFFFFFFF AND SWAP1 POP SWAP1 JUMP JUMPDEST PUSH1 0x5 DUP1 SLOAD PUSH2 0xA98 SWAP1 PUSH2 0x2673 JUMP JUMPDEST DUP1 PUSH1 0x1F ADD PUSH1 0x20 DUP1 SWAP2 DIV MUL PUSH1 0x20 ADD PUSH1 0x40 MLOAD SWAP1 DUP2 ADD PUSH1 0x40 MSTORE DUP1 SWAP3 SWAP2 SWAP1 DUP2 DUP2 MSTORE PUSH1 0x20 ADD DUP3 DUP1 SLOAD PUSH2 0xAC4 SWAP1 PUSH2 0x2673 JUMP JUMPDEST DUP1 ISZERO PUSH2 0xB0F JUMPI DUP1 PUSH1 0x1F LT PUSH2 0xAE6 JUMPI PUSH2 0x100 DUP1 DUP4 SLOAD DIV MUL DUP4 MSTORE SWAP2 PUSH1 0x20 ADD SWAP2 PUSH2 0xB0F JUMP JUMPDEST DUP3 ADD SWAP2 SWAP1 PUSH0 MSTORE PUSH1 0x20 PUSH0 KECCAK256 SWAP1 JUMPDEST DUP2 SLOAD DUP2 MSTORE SWAP1 PUSH1 0x1 ADD SWAP1 PUSH1 0x20 ADD DUP1 DUP4 GT PUSH2 0xAF2 JUMPI DUP3 SWAP1 SUB PUSH1 0x1F AND DUP3 ADD SWAP2 JUMPDEST POP POP POP POP POP DUP2 JUMP JUMPDEST PUSH2 0xB29 PUSH2 0xB22 PUSH2 0xEF2 JUMP JUMPDEST DUP4 DUP4 PUSH2 0x115D JUMP JUMPDEST POP POP JUMP JUMPDEST PUSH0 PUSH1 0x1 PUSH0 DUP5 PUSH20 0xFFFFFFFFFFFFFFFFFFFFFFFFFFFFFFFFFFFFFFFF AND PUSH20 0xFFFFFFFFFFFFFFFFFFFFFFFFFFFFFFFFFFFFFFFF AND DUP2 MSTORE PUSH1 0x20 ADD SWAP1 DUP2 MSTORE PUSH1 0x20 ADD PUSH0 KECCAK256 PUSH0 DUP4 PUSH20 0xFFFFFFFFFFFFFFFFFFFFFFFFFFFFFFFFFFFFFFFF AND PUSH20 0xFFFFFFFFFFFFFFFFFFFFFFFFFFFFFFFFFFFFFFFF AND DUP2 MSTORE PUSH1 0x20 ADD SWAP1 DUP2 MSTORE PUSH1 0x20 ADD PUSH0 KECCAK256 PUSH0 SWAP1 SLOAD SWAP1 PUSH2 0x100 EXP SWAP1 DIV PUSH1 0xFF AND SWAP1 POP SWAP3 SWAP2 POP POP JUMP JUMPDEST PUSH0 PUSH2 0xBC4 PUSH2 0xEF2 JUMP JUMPDEST SWAP1 POP DUP1 PUSH20 0xFFFFFFFFFFFFFFFFFFFFFFFFFFFFFFFFFFFFFFFF AND DUP7 PUSH20 0xFFFFFFFFFFFFFFFFFFFFFFFFFFFFFFFFFFFFFFFF AND EQ ISZERO DUP1 ISZERO PUSH2 0xC09 JUMPI POP PUSH2 0xC07 DUP7 DUP3 PUSH2 0xB2D JUMP JUMPDEST ISZERO JUMPDEST ISZERO PUSH2 0xC4D JUMPI DUP1 DUP7 PUSH1 0x40 MLOAD PUSH32 0xE237D92200000000000000000000000000000000000000000000000000000000 DUP2 MSTORE PUSH1 0x4 ADD PUSH2 0xC44 SWAP3 SWAP2 SWAP1 PUSH2 0x2A4F JUMP JUMPDEST PUSH1 0x40 MLOAD DUP1 SWAP2 SUB SWAP1 REVERT JUMPDEST PUSH2 0xC5A DUP7 DUP7 DUP7 DUP7 DUP7 PUSH2 0x12C6 JUMP JUMPDEST POP POP POP POP POP POP JUMP JUMPDEST PUSH2 0xC6A PUSH2 0xFED JUMP JUMPDEST PUSH0 PUSH20 0xFFFFFFFFFFFFFFFFFFFFFFFFFFFFFFFFFFFFFFFF AND DUP2 PUSH20 0xFFFFFFFFFFFFFFFFFFFFFFFFFFFFFFFFFFFFFFFF AND SUB PUSH2 0xCDA JUMPI PUSH0 PUSH1 0x40 MLOAD PUSH32 0x1E4FBDF700000000000000000000000000000000000000000000000000000000 DUP2 MSTORE PUSH1 0x4 ADD PUSH2 0xCD1 SWAP2 SWAP1 PUSH2 0x24C9 JUMP JUMPDEST PUSH1 0x40 MLOAD DUP1 SWAP2 SUB SWAP1 REVERT JUMPDEST PUSH2 0xCE3 DUP2 PUSH2 0x109A JUMP JUMPDEST POP JUMP JUMPDEST PUSH0 PUSH32 0x1FFC9A700000000000000000000000000000000000000000000000000000000 PUSH28 0xFFFFFFFFFFFFFFFFFFFFFFFFFFFFFFFFFFFFFFFFFFFFFFFFFFFFFFFF NOT AND DUP3 PUSH28 0xFFFFFFFFFFFFFFFFFFFFFFFFFFFFFFFFFFFFFFFFFFFFFFFFFFFFFFFF NOT AND EQ SWAP1 POP SWAP2 SWAP1 POP JUMP JUMPDEST PUSH1 0x60 PUSH0 PUSH1 0x1 PUSH2 0xD5D DUP5 PUSH2 0x13CC JUMP JUMPDEST ADD SWAP1 POP PUSH0 DUP2 PUSH8 0xFFFFFFFFFFFFFFFF DUP2 GT ISZERO PUSH2 0xD7B JUMPI PUSH2 0xD7A PUSH2 0x1FF6 JUMP JUMPDEST JUMPDEST PUSH1 0x40 MLOAD SWAP1 DUP1 DUP3 MSTORE DUP1 PUSH1 0x1F ADD PUSH1 0x1F NOT AND PUSH1 0x20 ADD DUP3 ADD PUSH1 0x40 MSTORE DUP1 ISZERO PUSH2 0xDAD JUMPI DUP2 PUSH1 0x20 ADD PUSH1 0x1 DUP3 MUL DUP1 CALLDATASIZE DUP4 CALLDATACOPY DUP1 DUP3 ADD SWAP2 POP POP SWAP1 POP JUMPDEST POP SWAP1 POP PUSH0 DUP3 PUSH1 0x20 ADD DUP3 ADD SWAP1 POP JUMPDEST PUSH1 0x1 ISZERO PUSH2 0xE0E JUMPI DUP1 DUP1 PUSH1 0x1 SWAP1 SUB SWAP2 POP POP PUSH32 0x3031323334353637383961626364656600000000000000000000000000000000 PUSH1 0xA DUP7 MOD BYTE DUP2 MSTORE8 PUSH1 0xA DUP6 DUP2 PUSH2 0xE03 JUMPI PUSH2 0xE02 PUSH2 0x287D JUMP JUMPDEST JUMPDEST DIV SWAP5 POP PUSH0 DUP6 SUB PUSH2 0xDBA JUMPI JUMPDEST DUP2 SWAP4 POP POP POP POP SWAP2 SWAP1 POP JUMP JUMPDEST PUSH0 DUP1 PUSH1 0x2 PUSH2 0xE25 PUSH2 0x151D JUMP JUMPDEST PUSH2 0xE2F SWAP2 SWAP1 PUSH2 0x2BDB JUMP JUMPDEST SWAP1 POP PUSH0 DUP2 SUB PUSH2 0xE42 JUMPI PUSH1 0x7 SWAP2 POP POP PUSH2 0xE5A JUMP JUMPDEST PUSH1 0x7 PUSH2 0xE4C PUSH2 0x151D JUMP JUMPDEST PUSH2 0xE56 SWAP2 SWAP1 PUSH2 0x2BDB JUMP JUMPDEST SWAP2 POP POP JUMPDEST SWAP1 JUMP JUMPDEST PUSH0 PUSH20 0xFFFFFFFFFFFFFFFFFFFFFFFFFFFFFFFFFFFFFFFF AND DUP5 PUSH20 0xFFFFFFFFFFFFFFFFFFFFFFFFFFFFFFFFFFFFFFFF AND SUB PUSH2 0xECD JUMPI PUSH0 PUSH1 0x40 MLOAD PUSH32 0x57F447CE00000000000000000000000000000000000000000000000000000000 DUP2 MSTORE PUSH1 0x4 ADD PUSH2 0xEC4 SWAP2 SWAP1 PUSH2 0x24C9 JUMP JUMPDEST PUSH1 0x40 MLOAD DUP1 SWAP2 SUB SWAP1 REVERT JUMPDEST PUSH0 DUP1 PUSH2 0xED9 DUP6 DUP6 PUSH2 0x15B6 JUMP JUMPDEST SWAP2 POP SWAP2 POP PUSH2 0xEEA PUSH0 DUP8 DUP5 DUP5 DUP8 PUSH2 0x15E6 JUMP JUMPDEST POP POP POP POP POP POP JUMP JUMPDEST PUSH0 CALLER SWAP1 POP SWAP1 JUMP JUMPDEST PUSH0 PUSH20 0xFFFFFFFFFFFFFFFFFFFFFFFFFFFFFFFFFFFFFFFF AND DUP5 PUSH20 0xFFFFFFFFFFFFFFFFFFFFFFFFFFFFFFFFFFFFFFFF AND SUB PUSH2 0xF69 JUMPI PUSH0 PUSH1 0x40 MLOAD PUSH32 0x57F447CE00000000000000000000000000000000000000000000000000000000 DUP2 MSTORE PUSH1 0x4 ADD PUSH2 0xF60 SWAP2 SWAP1 PUSH2 0x24C9 JUMP JUMPDEST PUSH1 0x40 MLOAD DUP1 SWAP2 SUB SWAP1 REVERT JUMPDEST PUSH0 PUSH20 0xFFFFFFFFFFFFFFFFFFFFFFFFFFFFFFFFFFFFFFFF AND DUP6 PUSH20 0xFFFFFFFFFFFFFFFFFFFFFFFFFFFFFFFFFFFFFFFF AND SUB PUSH2 0xFD9 JUMPI PUSH0 PUSH1 0x40 MLOAD PUSH32 0x1A8351400000000000000000000000000000000000000000000000000000000 DUP2 MSTORE PUSH1 0x4 ADD PUSH2 0xFD0 SWAP2 SWAP1 PUSH2 0x24C9 JUMP JUMPDEST PUSH1 0x40 MLOAD DUP1 SWAP2 SUB SWAP1 REVERT JUMPDEST PUSH2 0xFE6 DUP6 DUP6 DUP6 DUP6 DUP6 PUSH2 0x15E6 JUMP JUMPDEST POP POP POP POP POP JUMP JUMPDEST PUSH2 0xFF5 PUSH2 0xEF2 JUMP JUMPDEST PUSH20 0xFFFFFFFFFFFFFFFFFFFFFFFFFFFFFFFFFFFFFFFF AND PUSH2 0x1013 PUSH2 0xA63 JUMP JUMPDEST PUSH20 0xFFFFFFFFFFFFFFFFFFFFFFFFFFFFFFFFFFFFFFFF AND EQ PUSH2 0x1072 JUMPI PUSH2 0x1036 PUSH2 0xEF2 JUMP JUMPDEST PUSH1 0x40 MLOAD PUSH32 0x118CDAA700000000000000000000000000000000000000000000000000000000 DUP2 MSTORE PUSH1 0x4 ADD PUSH2 0x1069 SWAP2 SWAP1 PUSH2 0x24C9 JUMP JUMPDEST PUSH1 0x40 MLOAD DUP1 SWAP2 SUB SWAP1 REVERT JUMPDEST JUMP JUMPDEST PUSH0 PUSH1 0x20 DUP3 MUL PUSH1 0x20 DUP5 ADD ADD MLOAD SWAP1 POP SWAP3 SWAP2 POP POP JUMP JUMPDEST PUSH0 PUSH1 0x20 DUP3 MUL PUSH1 0x20 DUP5 ADD ADD MLOAD SWAP1 POP SWAP3 SWAP2 POP POP JUMP JUMPDEST PUSH0 PUSH1 0x3 PUSH0 SWAP1 SLOAD SWAP1 PUSH2 0x100 EXP SWAP1 DIV PUSH20 0xFFFFFFFFFFFFFFFFFFFFFFFFFFFFFFFFFFFFFFFF AND SWAP1 POP DUP2 PUSH1 0x3 PUSH0 PUSH2 0x100 EXP DUP2 SLOAD DUP2 PUSH20 0xFFFFFFFFFFFFFFFFFFFFFFFFFFFFFFFFFFFFFFFF MUL NOT AND SWAP1 DUP4 PUSH20 0xFFFFFFFFFFFFFFFFFFFFFFFFFFFFFFFFFFFFFFFF AND MUL OR SWAP1 SSTORE POP DUP2 PUSH20 0xFFFFFFFFFFFFFFFFFFFFFFFFFFFFFFFFFFFFFFFF AND DUP2 PUSH20 0xFFFFFFFFFFFFFFFFFFFFFFFFFFFFFFFFFFFFFFFF AND PUSH32 0x8BE0079C531659141344CD1FD0A4F28419497F9722A3DAAFE3B4186F6B6457E0 PUSH1 0x40 MLOAD PUSH1 0x40 MLOAD DUP1 SWAP2 SUB SWAP1 LOG3 POP POP JUMP JUMPDEST PUSH0 PUSH20 0xFFFFFFFFFFFFFFFFFFFFFFFFFFFFFFFFFFFFFFFF AND DUP3 PUSH20 0xFFFFFFFFFFFFFFFFFFFFFFFFFFFFFFFFFFFFFFFF AND SUB PUSH2 0x11CD JUMPI PUSH0 PUSH1 0x40 MLOAD PUSH32 0xCED3E10000000000000000000000000000000000000000000000000000000000 DUP2 MSTORE PUSH1 0x4 ADD PUSH2 0x11C4 SWAP2 SWAP1 PUSH2 0x24C9 JUMP JUMPDEST PUSH1 0x40 MLOAD DUP1 SWAP2 SUB SWAP1 REVERT JUMPDEST DUP1 PUSH1 0x1 PUSH0 DUP6 PUSH20 0xFFFFFFFFFFFFFFFFFFFFFFFFFFFFFFFFFFFFFFFF AND PUSH20 0xFFFFFFFFFFFFFFFFFFFFFFFFFFFFFFFFFFFFFFFF AND DUP2 MSTORE PUSH1 0x20 ADD SWAP1 DUP2 MSTORE PUSH1 0x20 ADD PUSH0 KECCAK256 PUSH0 DUP5 PUSH20 0xFFFFFFFFFFFFFFFFFFFFFFFFFFFFFFFFFFFFFFFF AND PUSH20 0xFFFFFFFFFFFFFFFFFFFFFFFFFFFFFFFFFFFFFFFF AND DUP2 MSTORE PUSH1 0x20 ADD SWAP1 DUP2 MSTORE PUSH1 0x20 ADD PUSH0 KECCAK256 PUSH0 PUSH2 0x100 EXP DUP2 SLOAD DUP2 PUSH1 0xFF MUL NOT AND SWAP1 DUP4 ISZERO ISZERO MUL OR SWAP1 SSTORE POP DUP2 PUSH20 0xFFFFFFFFFFFFFFFFFFFFFFFFFFFFFFFFFFFFFFFF AND DUP4 PUSH20 0xFFFFFFFFFFFFFFFFFFFFFFFFFFFFFFFFFFFFFFFF AND PUSH32 0x17307EAB39AB6107E8899845AD3D59BD9653F200F220920489CA2B5937696C31 DUP4 PUSH1 0x40 MLOAD PUSH2 0x12B9 SWAP2 SWAP1 PUSH2 0x1F1E JUMP JUMPDEST PUSH1 0x40 MLOAD DUP1 SWAP2 SUB SWAP1 LOG3 POP POP POP JUMP JUMPDEST PUSH0 PUSH20 0xFFFFFFFFFFFFFFFFFFFFFFFFFFFFFFFFFFFFFFFF AND DUP5 PUSH20 0xFFFFFFFFFFFFFFFFFFFFFFFFFFFFFFFFFFFFFFFF AND SUB PUSH2 0x1336 JUMPI PUSH0 PUSH1 0x40 MLOAD PUSH32 0x57F447CE00000000000000000000000000000000000000000000000000000000 DUP2 MSTORE PUSH1 0x4 ADD PUSH2 0x132D SWAP2 SWAP1 PUSH2 0x24C9 JUMP JUMPDEST PUSH1 0x40 MLOAD DUP1 SWAP2 SUB SWAP1 REVERT JUMPDEST PUSH0 PUSH20 0xFFFFFFFFFFFFFFFFFFFFFFFFFFFFFFFFFFFFFFFF AND DUP6 PUSH20 0xFFFFFFFFFFFFFFFFFFFFFFFFFFFFFFFFFFFFFFFF AND SUB PUSH2 0x13A6 JUMPI PUSH0 PUSH1 0x40 MLOAD PUSH32 0x1A8351400000000000000000000000000000000000000000000000000000000 DUP2 MSTORE PUSH1 0x4 ADD PUSH2 0x139D SWAP2 SWAP1 PUSH2 0x24C9 JUMP JUMPDEST PUSH1 0x40 MLOAD DUP1 SWAP2 SUB SWAP1 REVERT JUMPDEST PUSH0 DUP1 PUSH2 0x13B2 DUP6 DUP6 PUSH2 0x15B6 JUMP JUMPDEST SWAP2 POP SWAP2 POP PUSH2 0x13C3 DUP8 DUP8 DUP5 DUP5 DUP8 PUSH2 0x15E6 JUMP JUMPDEST POP POP POP POP POP POP POP JUMP JUMPDEST PUSH0 DUP1 PUSH0 SWAP1 POP PUSH27 0x184F03E93FF9F4DAA797ED6E38ED64BF6A1F010000000000000000 DUP4 LT PUSH2 0x1428 JUMPI PUSH27 0x184F03E93FF9F4DAA797ED6E38ED64BF6A1F010000000000000000 DUP4 DUP2 PUSH2 0x141E JUMPI PUSH2 0x141D PUSH2 0x287D JUMP JUMPDEST JUMPDEST DIV SWAP3 POP PUSH1 0x40 DUP2 ADD SWAP1 POP JUMPDEST PUSH14 0x4EE2D6D415B85ACEF8100000000 DUP4 LT PUSH2 0x1465 JUMPI PUSH14 0x4EE2D6D415B85ACEF8100000000 DUP4 DUP2 PUSH2 0x145B JUMPI PUSH2 0x145A PUSH2 0x287D JUMP JUMPDEST JUMPDEST DIV SWAP3 POP PUSH1 0x20 DUP2 ADD SWAP1 POP JUMPDEST PUSH7 0x2386F26FC10000 DUP4 LT PUSH2 0x1494 JUMPI PUSH7 0x2386F26FC10000 DUP4 DUP2 PUSH2 0x148A JUMPI PUSH2 0x1489 PUSH2 0x287D JUMP JUMPDEST JUMPDEST DIV SWAP3 POP PUSH1 0x10 DUP2 ADD SWAP1 POP JUMPDEST PUSH4 0x5F5E100 DUP4 LT PUSH2 0x14BD JUMPI PUSH4 0x5F5E100 DUP4 DUP2 PUSH2 0x14B3 JUMPI PUSH2 0x14B2 PUSH2 0x287D JUMP JUMPDEST JUMPDEST DIV SWAP3 POP PUSH1 0x8 DUP2 ADD SWAP1 POP JUMPDEST PUSH2 0x2710 DUP4 LT PUSH2 0x14E2 JUMPI PUSH2 0x2710 DUP4 DUP2 PUSH2 0x14D8 JUMPI PUSH2 0x14D7 PUSH2 0x287D JUMP JUMPDEST JUMPDEST DIV SWAP3 POP PUSH1 0x4 DUP2 ADD SWAP1 POP JUMPDEST PUSH1 0x64 DUP4 LT PUSH2 0x1505 JUMPI PUSH1 0x64 DUP4 DUP2 PUSH2 0x14FB JUMPI PUSH2 0x14FA PUSH2 0x287D JUMP JUMPDEST JUMPDEST DIV SWAP3 POP PUSH1 0x2 DUP2 ADD SWAP1 POP JUMPDEST PUSH1 0xA DUP4 LT PUSH2 0x1514 JUMPI PUSH1 0x1 DUP2 ADD SWAP1 POP JUMPDEST DUP1 SWAP2 POP POP SWAP2 SWAP1 POP JUMP JUMPDEST PUSH0 DUP1 PUSH20 0x21A31EE1AFC51D94C2EFCCAA2092AD1028285549 SWAP1 POP PUSH0 PUSH20 0xDFD5293D8E347DFE59E90EFD55B2956A1343963D SWAP1 POP PREVRANDAO TIMESTAMP CALLER DUP5 PUSH20 0xFFFFFFFFFFFFFFFFFFFFFFFFFFFFFFFFFFFFFFFF AND BALANCE DUP5 PUSH20 0xFFFFFFFFFFFFFFFFFFFFFFFFFFFFFFFFFFFFFFFF AND BALANCE SELFBALANCE PUSH1 0x40 MLOAD PUSH1 0x20 ADD PUSH2 0x1597 SWAP7 SWAP6 SWAP5 SWAP4 SWAP3 SWAP2 SWAP1 PUSH2 0x2C70 JUMP JUMPDEST PUSH1 0x40 MLOAD PUSH1 0x20 DUP2 DUP4 SUB SUB DUP2 MSTORE SWAP1 PUSH1 0x40 MSTORE DUP1 MLOAD SWAP1 PUSH1 0x20 ADD KECCAK256 PUSH0 SHR SWAP3 POP POP POP SWAP1 JUMP JUMPDEST PUSH1 0x60 DUP1 PUSH1 0x40 MLOAD SWAP2 POP PUSH1 0x1 DUP3 MSTORE DUP4 PUSH1 0x20 DUP4 ADD MSTORE PUSH1 0x40 DUP3 ADD SWAP1 POP PUSH1 0x1 DUP2 MSTORE DUP3 PUSH1 0x20 DUP3 ADD MSTORE PUSH1 0x40 DUP2 ADD PUSH1 0x40 MSTORE SWAP3 POP SWAP3 SWAP1 POP JUMP JUMPDEST PUSH2 0x15F2 DUP6 DUP6 DUP6 DUP6 PUSH2 0x1692 JUMP JUMPDEST PUSH0 PUSH20 0xFFFFFFFFFFFFFFFFFFFFFFFFFFFFFFFFFFFFFFFF AND DUP5 PUSH20 0xFFFFFFFFFFFFFFFFFFFFFFFFFFFFFFFFFFFFFFFF AND EQ PUSH2 0x168B JUMPI PUSH0 PUSH2 0x162E PUSH2 0xEF2 JUMP JUMPDEST SWAP1 POP PUSH1 0x1 DUP5 MLOAD SUB PUSH2 0x167A JUMPI PUSH0 PUSH2 0x164D PUSH0 DUP7 PUSH2 0x1087 SWAP1 SWAP2 SWAP1 PUSH4 0xFFFFFFFF AND JUMP JUMPDEST SWAP1 POP PUSH0 PUSH2 0x1663 PUSH0 DUP7 PUSH2 0x1087 SWAP1 SWAP2 SWAP1 PUSH4 0xFFFFFFFF AND JUMP JUMPDEST SWAP1 POP PUSH2 0x1673 DUP4 DUP10 DUP10 DUP6 DUP6 DUP10 PUSH2 0x1A22 JUMP JUMPDEST POP POP PUSH2 0x1689 JUMP JUMPDEST PUSH2 0x1688 DUP2 DUP8 DUP8 DUP8 DUP8 DUP8 PUSH2 0x1BD1 JUMP JUMPDEST JUMPDEST POP JUMPDEST POP POP POP POP POP JUMP JUMPDEST DUP1 MLOAD DUP3 MLOAD EQ PUSH2 0x16DC JUMPI DUP2 MLOAD DUP2 MLOAD PUSH1 0x40 MLOAD PUSH32 0x5B05999100000000000000000000000000000000000000000000000000000000 DUP2 MSTORE PUSH1 0x4 ADD PUSH2 0x16D3 SWAP3 SWAP2 SWAP1 PUSH2 0x2B87 JUMP JUMPDEST PUSH1 0x40 MLOAD DUP1 SWAP2 SUB SWAP1 REVERT JUMPDEST PUSH0 PUSH2 0x16E5 PUSH2 0xEF2 JUMP JUMPDEST SWAP1 POP PUSH0 JUMPDEST DUP4 MLOAD DUP2 LT ISZERO PUSH2 0x18E1 JUMPI PUSH0 PUSH2 0x1706 DUP3 DUP7 PUSH2 0x1087 SWAP1 SWAP2 SWAP1 PUSH4 0xFFFFFFFF AND JUMP JUMPDEST SWAP1 POP PUSH0 PUSH2 0x171C DUP4 DUP7 PUSH2 0x1087 SWAP1 SWAP2 SWAP1 PUSH4 0xFFFFFFFF AND JUMP JUMPDEST SWAP1 POP PUSH0 PUSH20 0xFFFFFFFFFFFFFFFFFFFFFFFFFFFFFFFFFFFFFFFF AND DUP9 PUSH20 0xFFFFFFFFFFFFFFFFFFFFFFFFFFFFFFFFFFFFFFFF AND EQ PUSH2 0x183F JUMPI PUSH0 DUP1 PUSH0 DUP5 DUP2 MSTORE PUSH1 0x20 ADD SWAP1 DUP2 MSTORE PUSH1 0x20 ADD PUSH0 KECCAK256 PUSH0 DUP11 PUSH20 0xFFFFFFFFFFFFFFFFFFFFFFFFFFFFFFFFFFFFFFFF AND PUSH20 0xFFFFFFFFFFFFFFFFFFFFFFFFFFFFFFFFFFFFFFFF AND DUP2 MSTORE PUSH1 0x20 ADD SWAP1 DUP2 MSTORE PUSH1 0x20 ADD PUSH0 KECCAK256 SLOAD SWAP1 POP DUP2 DUP2 LT ISZERO PUSH2 0x17EB JUMPI DUP9 DUP2 DUP4 DUP6 PUSH1 0x40 MLOAD PUSH32 0x3DEE4C500000000000000000000000000000000000000000000000000000000 DUP2 MSTORE PUSH1 0x4 ADD PUSH2 0x17E2 SWAP5 SWAP4 SWAP3 SWAP2 SWAP1 PUSH2 0x2CDF JUMP JUMPDEST PUSH1 0x40 MLOAD DUP1 SWAP2 SUB SWAP1 REVERT JUMPDEST DUP2 DUP2 SUB PUSH0 DUP1 DUP6 DUP2 MSTORE PUSH1 0x20 ADD SWAP1 DUP2 MSTORE PUSH1 0x20 ADD PUSH0 KECCAK256 PUSH0 DUP12 PUSH20 0xFFFFFFFFFFFFFFFFFFFFFFFFFFFFFFFFFFFFFFFF AND PUSH20 0xFFFFFFFFFFFFFFFFFFFFFFFFFFFFFFFFFFFFFFFF AND DUP2 MSTORE PUSH1 0x20 ADD SWAP1 DUP2 MSTORE PUSH1 0x20 ADD PUSH0 KECCAK256 DUP2 SWAP1 SSTORE POP POP JUMPDEST PUSH0 PUSH20 0xFFFFFFFFFFFFFFFFFFFFFFFFFFFFFFFFFFFFFFFF AND DUP8 PUSH20 0xFFFFFFFFFFFFFFFFFFFFFFFFFFFFFFFFFFFFFFFF AND EQ PUSH2 0x18D4 JUMPI DUP1 PUSH0 DUP1 DUP5 DUP2 MSTORE PUSH1 0x20 ADD SWAP1 DUP2 MSTORE PUSH1 0x20 ADD PUSH0 KECCAK256 PUSH0 DUP10 PUSH20 0xFFFFFFFFFFFFFFFFFFFFFFFFFFFFFFFFFFFFFFFF AND PUSH20 0xFFFFFFFFFFFFFFFFFFFFFFFFFFFFFFFFFFFFFFFF AND DUP2 MSTORE PUSH1 0x20 ADD SWAP1 DUP2 MSTORE PUSH1 0x20 ADD PUSH0 KECCAK256 PUSH0 DUP3 DUP3 SLOAD PUSH2 0x18CC SWAP2 SWAP1 PUSH2 0x28DA JUMP JUMPDEST SWAP3 POP POP DUP2 SWAP1 SSTORE POP JUMPDEST POP POP DUP1 PUSH1 0x1 ADD SWAP1 POP PUSH2 0x16E9 JUMP JUMPDEST POP PUSH1 0x1 DUP4 MLOAD SUB PUSH2 0x199C JUMPI PUSH0 PUSH2 0x18FF PUSH0 DUP6 PUSH2 0x1087 SWAP1 SWAP2 SWAP1 PUSH4 0xFFFFFFFF AND JUMP JUMPDEST SWAP1 POP PUSH0 PUSH2 0x1915 PUSH0 DUP6 PUSH2 0x1087 SWAP1 SWAP2 SWAP1 PUSH4 0xFFFFFFFF AND JUMP JUMPDEST SWAP1 POP DUP6 PUSH20 0xFFFFFFFFFFFFFFFFFFFFFFFFFFFFFFFFFFFFFFFF AND DUP8 PUSH20 0xFFFFFFFFFFFFFFFFFFFFFFFFFFFFFFFFFFFFFFFF AND DUP5 PUSH20 0xFFFFFFFFFFFFFFFFFFFFFFFFFFFFFFFFFFFFFFFF AND PUSH32 0xC3D58168C5AE7397731D063D5BBF3D657854427343F4C083240F7AACAA2D0F62 DUP6 DUP6 PUSH1 0x40 MLOAD PUSH2 0x198D SWAP3 SWAP2 SWAP1 PUSH2 0x2B87 JUMP JUMPDEST PUSH1 0x40 MLOAD DUP1 SWAP2 SUB SWAP1 LOG4 POP POP PUSH2 0x1A1B JUMP JUMPDEST DUP4 PUSH20 0xFFFFFFFFFFFFFFFFFFFFFFFFFFFFFFFFFFFFFFFF AND DUP6 PUSH20 0xFFFFFFFFFFFFFFFFFFFFFFFFFFFFFFFFFFFFFFFF AND DUP3 PUSH20 0xFFFFFFFFFFFFFFFFFFFFFFFFFFFFFFFFFFFFFFFF AND PUSH32 0x4A39DC06D4C0DBC64B70AF90FD698A233A518AA5D07E595D983B8C0526C8F7FB DUP7 DUP7 PUSH1 0x40 MLOAD PUSH2 0x1A12 SWAP3 SWAP2 SWAP1 PUSH2 0x2D22 JUMP JUMPDEST PUSH1 0x40 MLOAD DUP1 SWAP2 SUB SWAP1 LOG4 JUMPDEST POP POP POP POP POP JUMP JUMPDEST PUSH0 DUP5 PUSH20 0xFFFFFFFFFFFFFFFFFFFFFFFFFFFFFFFFFFFFFFFF AND EXTCODESIZE GT ISZERO PUSH2 0x1BC9 JUMPI DUP4 PUSH20 0xFFFFFFFFFFFFFFFFFFFFFFFFFFFFFFFFFFFFFFFF AND PUSH4 0xF23A6E61 DUP8 DUP8 DUP7 DUP7 DUP7 PUSH1 0x40 MLOAD DUP7 PUSH4 0xFFFFFFFF AND PUSH1 0xE0 SHL DUP2 MSTORE PUSH1 0x4 ADD PUSH2 0x1A82 SWAP6 SWAP5 SWAP4 SWAP3 SWAP2 SWAP1 PUSH2 0x2DA9 JUMP JUMPDEST PUSH1 0x20 PUSH1 0x40 MLOAD DUP1 DUP4 SUB DUP2 PUSH0 DUP8 GAS CALL SWAP3 POP POP POP DUP1 ISZERO PUSH2 0x1ABD JUMPI POP PUSH1 0x40 MLOAD RETURNDATASIZE PUSH1 0x1F NOT PUSH1 0x1F DUP3 ADD AND DUP3 ADD DUP1 PUSH1 0x40 MSTORE POP DUP2 ADD SWAP1 PUSH2 0x1ABA SWAP2 SWAP1 PUSH2 0x2E15 JUMP JUMPDEST PUSH1 0x1 JUMPDEST PUSH2 0x1B3E JUMPI RETURNDATASIZE DUP1 PUSH0 DUP2 EQ PUSH2 0x1AEB JUMPI PUSH1 0x40 MLOAD SWAP2 POP PUSH1 0x1F NOT PUSH1 0x3F RETURNDATASIZE ADD AND DUP3 ADD PUSH1 0x40 MSTORE RETURNDATASIZE DUP3 MSTORE RETURNDATASIZE PUSH0 PUSH1 0x20 DUP5 ADD RETURNDATACOPY PUSH2 0x1AF0 JUMP JUMPDEST PUSH1 0x60 SWAP2 POP JUMPDEST POP PUSH0 DUP2 MLOAD SUB PUSH2 0x1B36 JUMPI DUP5 PUSH1 0x40 MLOAD PUSH32 0x57F447CE00000000000000000000000000000000000000000000000000000000 DUP2 MSTORE PUSH1 0x4 ADD PUSH2 0x1B2D SWAP2 SWAP1 PUSH2 0x24C9 JUMP JUMPDEST PUSH1 0x40 MLOAD DUP1 SWAP2 SUB SWAP1 REVERT JUMPDEST DUP1 MLOAD DUP2 PUSH1 0x20 ADD REVERT JUMPDEST PUSH4 0xF23A6E61 PUSH1 0xE0 SHL PUSH28 0xFFFFFFFFFFFFFFFFFFFFFFFFFFFFFFFFFFFFFFFFFFFFFFFFFFFFFFFF NOT AND DUP2 PUSH28 0xFFFFFFFFFFFFFFFFFFFFFFFFFFFFFFFFFFFFFFFFFFFFFFFFFFFFFFFF NOT AND EQ PUSH2 0x1BC7 JUMPI DUP5 PUSH1 0x40 MLOAD PUSH32 0x57F447CE00000000000000000000000000000000000000000000000000000000 DUP2 MSTORE PUSH1 0x4 ADD PUSH2 0x1BBE SWAP2 SWAP1 PUSH2 0x24C9 JUMP JUMPDEST PUSH1 0x40 MLOAD DUP1 SWAP2 SUB SWAP1 REVERT JUMPDEST POP JUMPDEST POP POP POP POP POP POP JUMP JUMPDEST PUSH0 DUP5 PUSH20 0xFFFFFFFFFFFFFFFFFFFFFFFFFFFFFFFFFFFFFFFF AND EXTCODESIZE GT ISZERO PUSH2 0x1D78 JUMPI DUP4 PUSH20 0xFFFFFFFFFFFFFFFFFFFFFFFFFFFFFFFFFFFFFFFF AND PUSH4 0xBC197C81 DUP8 DUP8 DUP7 DUP7 DUP7 PUSH1 0x40 MLOAD DUP7 PUSH4 0xFFFFFFFF AND PUSH1 0xE0 SHL DUP2 MSTORE PUSH1 0x4 ADD PUSH2 0x1C31 SWAP6 SWAP5 SWAP4 SWAP3 SWAP2 SWAP1 PUSH2 0x2E40 JUMP JUMPDEST PUSH1 0x20 PUSH1 0x40 MLOAD DUP1 DUP4 SUB DUP2 PUSH0 DUP8 GAS CALL SWAP3 POP POP POP DUP1 ISZERO PUSH2 0x1C6C JUMPI POP PUSH1 0x40 MLOAD RETURNDATASIZE PUSH1 0x1F NOT PUSH1 0x1F DUP3 ADD AND DUP3 ADD DUP1 PUSH1 0x40 MSTORE POP DUP2 ADD SWAP1 PUSH2 0x1C69 SWAP2 SWAP1 PUSH2 0x2E15 JUMP JUMPDEST PUSH1 0x1 JUMPDEST PUSH2 0x1CED JUMPI RETURNDATASIZE DUP1 PUSH0 DUP2 EQ PUSH2 0x1C9A JUMPI PUSH1 0x40 MLOAD SWAP2 POP PUSH1 0x1F NOT PUSH1 0x3F RETURNDATASIZE ADD AND DUP3 ADD PUSH1 0x40 MSTORE RETURNDATASIZE DUP3 MSTORE RETURNDATASIZE PUSH0 PUSH1 0x20 DUP5 ADD RETURNDATACOPY PUSH2 0x1C9F JUMP JUMPDEST PUSH1 0x60 SWAP2 POP JUMPDEST POP PUSH0 DUP2 MLOAD SUB PUSH2 0x1CE5 JUMPI DUP5 PUSH1 0x40 MLOAD PUSH32 0x57F447CE00000000000000000000000000000000000000000000000000000000 DUP2 MSTORE PUSH1 0x4 ADD PUSH2 0x1CDC SWAP2 SWAP1 PUSH2 0x24C9 JUMP JUMPDEST PUSH1 0x40 MLOAD DUP1 SWAP2 SUB SWAP1 REVERT JUMPDEST DUP1 MLOAD DUP2 PUSH1 0x20 ADD REVERT JUMPDEST PUSH4 0xBC197C81 PUSH1 0xE0 SHL PUSH28 0xFFFFFFFFFFFFFFFFFFFFFFFFFFFFFFFFFFFFFFFFFFFFFFFFFFFFFFFF NOT AND DUP2 PUSH28 0xFFFFFFFFFFFFFFFFFFFFFFFFFFFFFFFFFFFFFFFFFFFFFFFFFFFFFFFF NOT AND EQ PUSH2 0x1D76 JUMPI DUP5 PUSH1 0x40 MLOAD PUSH32 0x57F447CE00000000000000000000000000000000000000000000000000000000 DUP2 MSTORE PUSH1 0x4 ADD PUSH2 0x1D6D SWAP2 SWAP1 PUSH2 0x24C9 JUMP JUMPDEST PUSH1 0x40 MLOAD DUP1 SWAP2 SUB SWAP1 REVERT JUMPDEST POP JUMPDEST POP POP POP POP POP POP JUMP JUMPDEST PUSH0 PUSH1 0x40 MLOAD SWAP1 POP SWAP1 JUMP JUMPDEST PUSH0 DUP1 REVERT JUMPDEST PUSH0 DUP1 REVERT JUMPDEST PUSH0 PUSH20 0xFFFFFFFFFFFFFFFFFFFFFFFFFFFFFFFFFFFFFFFF DUP3 AND SWAP1 POP SWAP2 SWAP1 POP JUMP JUMPDEST PUSH0 PUSH2 0x1DBA DUP3 PUSH2 0x1D91 JUMP JUMPDEST SWAP1 POP SWAP2 SWAP1 POP JUMP JUMPDEST PUSH2 0x1DCA DUP2 PUSH2 0x1DB0 JUMP JUMPDEST DUP2 EQ PUSH2 0x1DD4 JUMPI PUSH0 DUP1 REVERT JUMPDEST POP JUMP JUMPDEST PUSH0 DUP2 CALLDATALOAD SWAP1 POP PUSH2 0x1DE5 DUP2 PUSH2 0x1DC1 JUMP JUMPDEST SWAP3 SWAP2 POP POP JUMP JUMPDEST PUSH0 DUP2 SWAP1 POP SWAP2 SWAP1 POP JUMP JUMPDEST PUSH2 0x1DFD DUP2 PUSH2 0x1DEB JUMP JUMPDEST DUP2 EQ PUSH2 0x1E07 JUMPI PUSH0 DUP1 REVERT JUMPDEST POP JUMP JUMPDEST PUSH0 DUP2 CALLDATALOAD SWAP1 POP PUSH2 0x1E18 DUP2 PUSH2 0x1DF4 JUMP JUMPDEST SWAP3 SWAP2 POP POP JUMP JUMPDEST PUSH0 DUP1 PUSH1 0x40 DUP4 DUP6 SUB SLT ISZERO PUSH2 0x1E34 JUMPI PUSH2 0x1E33 PUSH2 0x1D89 JUMP JUMPDEST JUMPDEST PUSH0 PUSH2 0x1E41 DUP6 DUP3 DUP7 ADD PUSH2 0x1DD7 JUMP JUMPDEST SWAP3 POP POP PUSH1 0x20 PUSH2 0x1E52 DUP6 DUP3 DUP7 ADD PUSH2 0x1E0A JUMP JUMPDEST SWAP2 POP POP SWAP3 POP SWAP3 SWAP1 POP JUMP JUMPDEST PUSH2 0x1E65 DUP2 PUSH2 0x1DEB JUMP JUMPDEST DUP3 MSTORE POP POP JUMP JUMPDEST PUSH0 PUSH1 0x20 DUP3 ADD SWAP1 POP PUSH2 0x1E7E PUSH0 DUP4 ADD DUP5 PUSH2 0x1E5C JUMP JUMPDEST SWAP3 SWAP2 POP POP JUMP JUMPDEST PUSH0 PUSH32 0xFFFFFFFF00000000000000000000000000000000000000000000000000000000 DUP3 AND SWAP1 POP SWAP2 SWAP1 POP JUMP JUMPDEST PUSH2 0x1EB8 DUP2 PUSH2 0x1E84 JUMP JUMPDEST DUP2 EQ PUSH2 0x1EC2 JUMPI PUSH0 DUP1 REVERT JUMPDEST POP JUMP JUMPDEST PUSH0 DUP2 CALLDATALOAD SWAP1 POP PUSH2 0x1ED3 DUP2 PUSH2 0x1EAF JUMP JUMPDEST SWAP3 SWAP2 POP POP JUMP JUMPDEST PUSH0 PUSH1 0x20 DUP3 DUP5 SUB SLT ISZERO PUSH2 0x1EEE JUMPI PUSH2 0x1EED PUSH2 0x1D89 JUMP JUMPDEST JUMPDEST PUSH0 PUSH2 0x1EFB DUP5 DUP3 DUP6 ADD PUSH2 0x1EC5 JUMP JUMPDEST SWAP2 POP POP SWAP3 SWAP2 POP POP JUMP JUMPDEST PUSH0 DUP2 ISZERO ISZERO SWAP1 POP SWAP2 SWAP1 POP JUMP JUMPDEST PUSH2 0x1F18 DUP2 PUSH2 0x1F04 JUMP JUMPDEST DUP3 MSTORE POP POP JUMP JUMPDEST PUSH0 PUSH1 0x20 DUP3 ADD SWAP1 POP PUSH2 0x1F31 PUSH0 DUP4 ADD DUP5 PUSH2 0x1F0F JUMP JUMPDEST SWAP3 SWAP2 POP POP JUMP JUMPDEST PUSH0 DUP2 MLOAD SWAP1 POP SWAP2 SWAP1 POP JUMP JUMPDEST PUSH0 DUP3 DUP3 MSTORE PUSH1 0x20 DUP3 ADD SWAP1 POP SWAP3 SWAP2 POP POP JUMP JUMPDEST DUP3 DUP2 DUP4 MCOPY PUSH0 DUP4 DUP4 ADD MSTORE POP POP POP JUMP JUMPDEST PUSH0 PUSH1 0x1F NOT PUSH1 0x1F DUP4 ADD AND SWAP1 POP SWAP2 SWAP1 POP JUMP JUMPDEST PUSH0 PUSH2 0x1F79 DUP3 PUSH2 0x1F37 JUMP JUMPDEST PUSH2 0x1F83 DUP2 DUP6 PUSH2 0x1F41 JUMP JUMPDEST SWAP4 POP PUSH2 0x1F93 DUP2 DUP6 PUSH1 0x20 DUP7 ADD PUSH2 0x1F51 JUMP JUMPDEST PUSH2 0x1F9C DUP2 PUSH2 0x1F5F JUMP JUMPDEST DUP5 ADD SWAP2 POP POP SWAP3 SWAP2 POP POP JUMP JUMPDEST PUSH0 PUSH1 0x20 DUP3 ADD SWAP1 POP DUP2 DUP2 SUB PUSH0 DUP4 ADD MSTORE PUSH2 0x1FBF DUP2 DUP5 PUSH2 0x1F6F JUMP JUMPDEST SWAP1 POP SWAP3 SWAP2 POP POP JUMP JUMPDEST PUSH0 PUSH1 0x20 DUP3 DUP5 SUB SLT ISZERO PUSH2 0x1FDC JUMPI PUSH2 0x1FDB PUSH2 0x1D89 JUMP JUMPDEST JUMPDEST PUSH0 PUSH2 0x1FE9 DUP5 DUP3 DUP6 ADD PUSH2 0x1E0A JUMP JUMPDEST SWAP2 POP POP SWAP3 SWAP2 POP POP JUMP JUMPDEST PUSH0 DUP1 REVERT JUMPDEST PUSH32 0x4E487B7100000000000000000000000000000000000000000000000000000000 PUSH0 MSTORE PUSH1 0x41 PUSH1 0x4 MSTORE PUSH1 0x24 PUSH0 REVERT JUMPDEST PUSH2 0x202C DUP3 PUSH2 0x1F5F JUMP JUMPDEST DUP2 ADD DUP2 DUP2 LT PUSH8 0xFFFFFFFFFFFFFFFF DUP3 GT OR ISZERO PUSH2 0x204B JUMPI PUSH2 0x204A PUSH2 0x1FF6 JUMP JUMPDEST JUMPDEST DUP1 PUSH1 0x40 MSTORE POP POP POP JUMP JUMPDEST PUSH0 PUSH2 0x205D PUSH2 0x1D80 JUMP JUMPDEST SWAP1 POP PUSH2 0x2069 DUP3 DUP3 PUSH2 0x2023 JUMP JUMPDEST SWAP2 SWAP1 POP JUMP JUMPDEST PUSH0 PUSH8 0xFFFFFFFFFFFFFFFF DUP3 GT ISZERO PUSH2 0x2088 JUMPI PUSH2 0x2087 PUSH2 0x1FF6 JUMP JUMPDEST JUMPDEST PUSH1 0x20 DUP3 MUL SWAP1 POP PUSH1 0x20 DUP2 ADD SWAP1 POP SWAP2 SWAP1 POP JUMP JUMPDEST PUSH0 DUP1 REVERT JUMPDEST PUSH0 PUSH2 0x20AF PUSH2 0x20AA DUP5 PUSH2 0x206E JUMP JUMPDEST PUSH2 0x2054 JUMP JUMPDEST SWAP1 POP DUP1 DUP4 DUP3 MSTORE PUSH1 0x20 DUP3 ADD SWAP1 POP PUSH1 0x20 DUP5 MUL DUP4 ADD DUP6 DUP2 GT ISZERO PUSH2 0x20D2 JUMPI PUSH2 0x20D1 PUSH2 0x2099 JUMP JUMPDEST JUMPDEST DUP4 JUMPDEST DUP2 DUP2 LT ISZERO PUSH2 0x20FB JUMPI DUP1 PUSH2 0x20E7 DUP9 DUP3 PUSH2 0x1E0A JUMP JUMPDEST DUP5 MSTORE PUSH1 0x20 DUP5 ADD SWAP4 POP POP PUSH1 0x20 DUP2 ADD SWAP1 POP PUSH2 0x20D4 JUMP JUMPDEST POP POP POP SWAP4 SWAP3 POP POP POP JUMP JUMPDEST PUSH0 DUP3 PUSH1 0x1F DUP4 ADD SLT PUSH2 0x2119 JUMPI PUSH2 0x2118 PUSH2 0x1FF2 JUMP JUMPDEST JUMPDEST DUP2 CALLDATALOAD PUSH2 0x2129 DUP5 DUP3 PUSH1 0x20 DUP7 ADD PUSH2 0x209D JUMP JUMPDEST SWAP2 POP POP SWAP3 SWAP2 POP POP JUMP JUMPDEST PUSH0 DUP1 REVERT JUMPDEST PUSH0 PUSH8 0xFFFFFFFFFFFFFFFF DUP3 GT ISZERO PUSH2 0x2150 JUMPI PUSH2 0x214F PUSH2 0x1FF6 JUMP JUMPDEST JUMPDEST PUSH2 0x2159 DUP3 PUSH2 0x1F5F JUMP JUMPDEST SWAP1 POP PUSH1 0x20 DUP2 ADD SWAP1 POP SWAP2 SWAP1 POP JUMP JUMPDEST DUP3 DUP2 DUP4 CALLDATACOPY PUSH0 DUP4 DUP4 ADD MSTORE POP POP POP JUMP JUMPDEST PUSH0 PUSH2 0x2186 PUSH2 0x2181 DUP5 PUSH2 0x2136 JUMP JUMPDEST PUSH2 0x2054 JUMP JUMPDEST SWAP1 POP DUP3 DUP2 MSTORE PUSH1 0x20 DUP2 ADD DUP5 DUP5 DUP5 ADD GT ISZERO PUSH2 0x21A2 JUMPI PUSH2 0x21A1 PUSH2 0x2132 JUMP JUMPDEST JUMPDEST PUSH2 0x21AD DUP5 DUP3 DUP6 PUSH2 0x2166 JUMP JUMPDEST POP SWAP4 SWAP3 POP POP POP JUMP JUMPDEST PUSH0 DUP3 PUSH1 0x1F DUP4 ADD SLT PUSH2 0x21C9 JUMPI PUSH2 0x21C8 PUSH2 0x1FF2 JUMP JUMPDEST JUMPDEST DUP2 CALLDATALOAD PUSH2 0x21D9 DUP5 DUP3 PUSH1 0x20 DUP7 ADD PUSH2 0x2174 JUMP JUMPDEST SWAP2 POP POP SWAP3 SWAP2 POP POP JUMP JUMPDEST PUSH0 DUP1 PUSH0 DUP1 PUSH0 PUSH1 0xA0 DUP7 DUP9 SUB SLT ISZERO PUSH2 0x21FB JUMPI PUSH2 0x21FA PUSH2 0x1D89 JUMP JUMPDEST JUMPDEST PUSH0 PUSH2 0x2208 DUP9 DUP3 DUP10 ADD PUSH2 0x1DD7 JUMP JUMPDEST SWAP6 POP POP PUSH1 0x20 PUSH2 0x2219 DUP9 DUP3 DUP10 ADD PUSH2 0x1DD7 JUMP JUMPDEST SWAP5 POP POP PUSH1 0x40 DUP7 ADD CALLDATALOAD PUSH8 0xFFFFFFFFFFFFFFFF DUP2 GT ISZERO PUSH2 0x223A JUMPI PUSH2 0x2239 PUSH2 0x1D8D JUMP JUMPDEST JUMPDEST PUSH2 0x2246 DUP9 DUP3 DUP10 ADD PUSH2 0x2105 JUMP JUMPDEST SWAP4 POP POP PUSH1 0x60 DUP7 ADD CALLDATALOAD PUSH8 0xFFFFFFFFFFFFFFFF DUP2 GT ISZERO PUSH2 0x2267 JUMPI PUSH2 0x2266 PUSH2 0x1D8D JUMP JUMPDEST JUMPDEST PUSH2 0x2273 DUP9 DUP3 DUP10 ADD PUSH2 0x2105 JUMP JUMPDEST SWAP3 POP POP PUSH1 0x80 DUP7 ADD CALLDATALOAD PUSH8 0xFFFFFFFFFFFFFFFF DUP2 GT ISZERO PUSH2 0x2294 JUMPI PUSH2 0x2293 PUSH2 0x1D8D JUMP JUMPDEST JUMPDEST PUSH2 0x22A0 DUP9 DUP3 DUP10 ADD PUSH2 0x21B5 JUMP JUMPDEST SWAP2 POP POP SWAP3 SWAP6 POP SWAP3 SWAP6 SWAP1 SWAP4 POP JUMP JUMPDEST PUSH0 PUSH8 0xFFFFFFFFFFFFFFFF DUP3 GT ISZERO PUSH2 0x22C7 JUMPI PUSH2 0x22C6 PUSH2 0x1FF6 JUMP JUMPDEST JUMPDEST PUSH1 0x20 DUP3 MUL SWAP1 POP PUSH1 0x20 DUP2 ADD SWAP1 POP SWAP2 SWAP1 POP JUMP JUMPDEST PUSH0 PUSH2 0x22EA PUSH2 0x22E5 DUP5 PUSH2 0x22AD JUMP JUMPDEST PUSH2 0x2054 JUMP JUMPDEST SWAP1 POP DUP1 DUP4 DUP3 MSTORE PUSH1 0x20 DUP3 ADD SWAP1 POP PUSH1 0x20 DUP5 MUL DUP4 ADD DUP6 DUP2 GT ISZERO PUSH2 0x230D JUMPI PUSH2 0x230C PUSH2 0x2099 JUMP JUMPDEST JUMPDEST DUP4 JUMPDEST DUP2 DUP2 LT ISZERO PUSH2 0x2336 JUMPI DUP1 PUSH2 0x2322 DUP9 DUP3 PUSH2 0x1DD7 JUMP JUMPDEST DUP5 MSTORE PUSH1 0x20 DUP5 ADD SWAP4 POP POP PUSH1 0x20 DUP2 ADD SWAP1 POP PUSH2 0x230F JUMP JUMPDEST POP POP POP SWAP4 SWAP3 POP POP POP JUMP JUMPDEST PUSH0 DUP3 PUSH1 0x1F DUP4 ADD SLT PUSH2 0x2354 JUMPI PUSH2 0x2353 PUSH2 0x1FF2 JUMP JUMPDEST JUMPDEST DUP2 CALLDATALOAD PUSH2 0x2364 DUP5 DUP3 PUSH1 0x20 DUP7 ADD PUSH2 0x22D8 JUMP JUMPDEST SWAP2 POP POP SWAP3 SWAP2 POP POP JUMP JUMPDEST PUSH0 DUP1 PUSH1 0x40 DUP4 DUP6 SUB SLT ISZERO PUSH2 0x2383 JUMPI PUSH2 0x2382 PUSH2 0x1D89 JUMP JUMPDEST JUMPDEST PUSH0 DUP4 ADD CALLDATALOAD PUSH8 0xFFFFFFFFFFFFFFFF DUP2 GT ISZERO PUSH2 0x23A0 JUMPI PUSH2 0x239F PUSH2 0x1D8D JUMP JUMPDEST JUMPDEST PUSH2 0x23AC DUP6 DUP3 DUP7 ADD PUSH2 0x2340 JUMP JUMPDEST SWAP3 POP POP PUSH1 0x20 DUP4 ADD CALLDATALOAD PUSH8 0xFFFFFFFFFFFFFFFF DUP2 GT ISZERO PUSH2 0x23CD JUMPI PUSH2 0x23CC PUSH2 0x1D8D JUMP JUMPDEST JUMPDEST PUSH2 0x23D9 DUP6 DUP3 DUP7 ADD PUSH2 0x2105 JUMP JUMPDEST SWAP2 POP POP SWAP3 POP SWAP3 SWAP1 POP JUMP JUMPDEST PUSH0 DUP2 MLOAD SWAP1 POP SWAP2 SWAP1 POP JUMP JUMPDEST PUSH0 DUP3 DUP3 MSTORE PUSH1 0x20 DUP3 ADD SWAP1 POP SWAP3 SWAP2 POP POP JUMP JUMPDEST PUSH0 DUP2 SWAP1 POP PUSH1 0x20 DUP3 ADD SWAP1 POP SWAP2 SWAP1 POP JUMP JUMPDEST PUSH2 0x2415 DUP2 PUSH2 0x1DEB JUMP JUMPDEST DUP3 MSTORE POP POP JUMP JUMPDEST PUSH0 PUSH2 0x2426 DUP4 DUP4 PUSH2 0x240C JUMP JUMPDEST PUSH1 0x20 DUP4 ADD SWAP1 POP SWAP3 SWAP2 POP POP JUMP JUMPDEST PUSH0 PUSH1 0x20 DUP3 ADD SWAP1 POP SWAP2 SWAP1 POP JUMP JUMPDEST PUSH0 PUSH2 0x2448 DUP3 PUSH2 0x23E3 JUMP JUMPDEST PUSH2 0x2452 DUP2 DUP6 PUSH2 0x23ED JUMP JUMPDEST SWAP4 POP PUSH2 0x245D DUP4 PUSH2 0x23FD JUMP JUMPDEST DUP1 PUSH0 JUMPDEST DUP4 DUP2 LT ISZERO PUSH2 0x248D JUMPI DUP2 MLOAD PUSH2 0x2474 DUP9 DUP3 PUSH2 0x241B JUMP JUMPDEST SWAP8 POP PUSH2 0x247F DUP4 PUSH2 0x2432 JUMP JUMPDEST SWAP3 POP POP PUSH1 0x1 DUP2 ADD SWAP1 POP PUSH2 0x2460 JUMP JUMPDEST POP DUP6 SWAP4 POP POP POP POP SWAP3 SWAP2 POP POP JUMP JUMPDEST PUSH0 PUSH1 0x20 DUP3 ADD SWAP1 POP DUP2 DUP2 SUB PUSH0 DUP4 ADD MSTORE PUSH2 0x24B2 DUP2 DUP5 PUSH2 0x243E JUMP JUMPDEST SWAP1 POP SWAP3 SWAP2 POP POP JUMP JUMPDEST PUSH2 0x24C3 DUP2 PUSH2 0x1DB0 JUMP JUMPDEST DUP3 MSTORE POP POP JUMP JUMPDEST PUSH0 PUSH1 0x20 DUP3 ADD SWAP1 POP PUSH2 0x24DC PUSH0 DUP4 ADD DUP5 PUSH2 0x24BA JUMP JUMPDEST SWAP3 SWAP2 POP POP JUMP JUMPDEST PUSH2 0x24EB DUP2 PUSH2 0x1F04 JUMP JUMPDEST DUP2 EQ PUSH2 0x24F5 JUMPI PUSH0 DUP1 REVERT JUMPDEST POP JUMP JUMPDEST PUSH0 DUP2 CALLDATALOAD SWAP1 POP PUSH2 0x2506 DUP2 PUSH2 0x24E2 JUMP JUMPDEST SWAP3 SWAP2 POP POP JUMP JUMPDEST PUSH0 DUP1 PUSH1 0x40 DUP4 DUP6 SUB SLT ISZERO PUSH2 0x2522 JUMPI PUSH2 0x2521 PUSH2 0x1D89 JUMP JUMPDEST JUMPDEST PUSH0 PUSH2 0x252F DUP6 DUP3 DUP7 ADD PUSH2 0x1DD7 JUMP JUMPDEST SWAP3 POP POP PUSH1 0x20 PUSH2 0x2540 DUP6 DUP3 DUP7 ADD PUSH2 0x24F8 JUMP JUMPDEST SWAP2 POP POP SWAP3 POP SWAP3 SWAP1 POP JUMP JUMPDEST PUSH0 DUP1 PUSH1 0x40 DUP4 DUP6 SUB SLT ISZERO PUSH2 0x2560 JUMPI PUSH2 0x255F PUSH2 0x1D89 JUMP JUMPDEST JUMPDEST PUSH0 PUSH2 0x256D DUP6 DUP3 DUP7 ADD PUSH2 0x1DD7 JUMP JUMPDEST SWAP3 POP POP PUSH1 0x20 PUSH2 0x257E DUP6 DUP3 DUP7 ADD PUSH2 0x1DD7 JUMP JUMPDEST SWAP2 POP POP SWAP3 POP SWAP3 SWAP1 POP JUMP JUMPDEST PUSH0 DUP1 PUSH0 DUP1 PUSH0 PUSH1 0xA0 DUP7 DUP9 SUB SLT ISZERO PUSH2 0x25A1 JUMPI PUSH2 0x25A0 PUSH2 0x1D89 JUMP JUMPDEST JUMPDEST PUSH0 PUSH2 0x25AE DUP9 DUP3 DUP10 ADD PUSH2 0x1DD7 JUMP JUMPDEST SWAP6 POP POP PUSH1 0x20 PUSH2 0x25BF DUP9 DUP3 DUP10 ADD PUSH2 0x1DD7 JUMP JUMPDEST SWAP5 POP POP PUSH1 0x40 PUSH2 0x25D0 DUP9 DUP3 DUP10 ADD PUSH2 0x1E0A JUMP JUMPDEST SWAP4 POP POP PUSH1 0x60 PUSH2 0x25E1 DUP9 DUP3 DUP10 ADD PUSH2 0x1E0A JUMP JUMPDEST SWAP3 POP POP PUSH1 0x80 DUP7 ADD CALLDATALOAD PUSH8 0xFFFFFFFFFFFFFFFF DUP2 GT ISZERO PUSH2 0x2602 JUMPI PUSH2 0x2601 PUSH2 0x1D8D JUMP JUMPDEST JUMPDEST PUSH2 0x260E DUP9 DUP3 DUP10 ADD PUSH2 0x21B5 JUMP JUMPDEST SWAP2 POP POP SWAP3 SWAP6 POP SWAP3 SWAP6 SWAP1 SWAP4 POP JUMP JUMPDEST PUSH0 PUSH1 0x20 DUP3 DUP5 SUB SLT ISZERO PUSH2 0x2630 JUMPI PUSH2 0x262F PUSH2 0x1D89 JUMP JUMPDEST JUMPDEST PUSH0 PUSH2 0x263D DUP5 DUP3 DUP6 ADD PUSH2 0x1DD7 JUMP JUMPDEST SWAP2 POP POP SWAP3 SWAP2 POP POP JUMP JUMPDEST PUSH32 0x4E487B7100000000000000000000000000000000000000000000000000000000 PUSH0 MSTORE PUSH1 0x22 PUSH1 0x4 MSTORE PUSH1 0x24 PUSH0 REVERT JUMPDEST PUSH0 PUSH1 0x2 DUP3 DIV SWAP1 POP PUSH1 0x1 DUP3 AND DUP1 PUSH2 0x268A JUMPI PUSH1 0x7F DUP3 AND SWAP2 POP JUMPDEST PUSH1 0x20 DUP3 LT DUP2 SUB PUSH2 0x269D JUMPI PUSH2 0x269C PUSH2 0x2646 JUMP JUMPDEST JUMPDEST POP SWAP2 SWAP1 POP JUMP JUMPDEST PUSH0 DUP2 SWAP1 POP SWAP3 SWAP2 POP POP JUMP JUMPDEST PUSH32 0x68747470733A2F2F6C6176656E6465722D6E6561742D706F72637570696E652D PUSH0 DUP3 ADD MSTORE PUSH32 0x3334372E6D7970696E6174612E636C6F75642F697066732F516D5A4E744E6178 PUSH1 0x20 DUP3 ADD MSTORE PUSH32 0x68797A346E335058573731525855687367386A52335072706D51596A6D665933 PUSH1 0x40 DUP3 ADD MSTORE PUSH32 0x625866564A782F7275676765645F000000000000000000000000000000000000 PUSH1 0x60 DUP3 ADD MSTORE POP JUMP JUMPDEST PUSH0 PUSH2 0x2753 PUSH1 0x6E DUP4 PUSH2 0x26A3 JUMP JUMPDEST SWAP2 POP PUSH2 0x275E DUP3 PUSH2 0x26AD JUMP JUMPDEST PUSH1 0x6E DUP3 ADD SWAP1 POP SWAP2 SWAP1 POP JUMP JUMPDEST PUSH0 PUSH2 0x2773 DUP3 PUSH2 0x1F37 JUMP JUMPDEST PUSH2 0x277D DUP2 DUP6 PUSH2 0x26A3 JUMP JUMPDEST SWAP4 POP PUSH2 0x278D DUP2 DUP6 PUSH1 0x20 DUP7 ADD PUSH2 0x1F51 JUMP JUMPDEST DUP1 DUP5 ADD SWAP2 POP POP SWAP3 SWAP2 POP POP JUMP JUMPDEST PUSH32 0x2E6A736F6E000000000000000000000000000000000000000000000000000000 PUSH0 DUP3 ADD MSTORE POP JUMP JUMPDEST PUSH0 PUSH2 0x27CD PUSH1 0x5 DUP4 PUSH2 0x26A3 JUMP JUMPDEST SWAP2 POP PUSH2 0x27D8 DUP3 PUSH2 0x2799 JUMP JUMPDEST PUSH1 0x5 DUP3 ADD SWAP1 POP SWAP2 SWAP1 POP JUMP JUMPDEST PUSH0 PUSH2 0x27ED DUP3 PUSH2 0x2747 JUMP JUMPDEST SWAP2 POP PUSH2 0x27F9 DUP3 DUP5 PUSH2 0x2769 JUMP JUMPDEST SWAP2 POP PUSH2 0x2804 DUP3 PUSH2 0x27C1 JUMP JUMPDEST SWAP2 POP DUP2 SWAP1 POP SWAP3 SWAP2 POP POP JUMP JUMPDEST PUSH32 0x4E487B7100000000000000000000000000000000000000000000000000000000 PUSH0 MSTORE PUSH1 0x11 PUSH1 0x4 MSTORE PUSH1 0x24 PUSH0 REVERT JUMPDEST PUSH0 PUSH2 0x2846 DUP3 PUSH2 0x1DEB JUMP JUMPDEST SWAP2 POP PUSH2 0x2851 DUP4 PUSH2 0x1DEB JUMP JUMPDEST SWAP3 POP DUP3 DUP3 MUL PUSH2 0x285F DUP2 PUSH2 0x1DEB JUMP JUMPDEST SWAP2 POP DUP3 DUP3 DIV DUP5 EQ DUP4 ISZERO OR PUSH2 0x2876 JUMPI PUSH2 0x2875 PUSH2 0x280F JUMP JUMPDEST JUMPDEST POP SWAP3 SWAP2 POP POP JUMP JUMPDEST PUSH32 0x4E487B7100000000000000000000000000000000000000000000000000000000 PUSH0 MSTORE PUSH1 0x12 PUSH1 0x4 MSTORE PUSH1 0x24 PUSH0 REVERT JUMPDEST PUSH0 PUSH2 0x28B4 DUP3 PUSH2 0x1DEB JUMP JUMPDEST SWAP2 POP PUSH2 0x28BF DUP4 PUSH2 0x1DEB JUMP JUMPDEST SWAP3 POP DUP3 PUSH2 0x28CF JUMPI PUSH2 0x28CE PUSH2 0x287D JUMP JUMPDEST JUMPDEST DUP3 DUP3 DIV SWAP1 POP SWAP3 SWAP2 POP POP JUMP JUMPDEST PUSH0 PUSH2 0x28E4 DUP3 PUSH2 0x1DEB JUMP JUMPDEST SWAP2 POP PUSH2 0x28EF DUP4 PUSH2 0x1DEB JUMP JUMPDEST SWAP3 POP DUP3 DUP3 ADD SWAP1 POP DUP1 DUP3 GT ISZERO PUSH2 0x2907 JUMPI PUSH2 0x2906 PUSH2 0x280F JUMP JUMPDEST JUMPDEST SWAP3 SWAP2 POP POP JUMP JUMPDEST PUSH32 0x496E636F7272656374207469636B657420707269636520696E636C7564696E67 PUSH0 DUP3 ADD MSTORE PUSH32 0x2066656500000000000000000000000000000000000000000000000000000000 PUSH1 0x20 DUP3 ADD MSTORE POP JUMP JUMPDEST PUSH0 PUSH2 0x2967 PUSH1 0x24 DUP4 PUSH2 0x1F41 JUMP JUMPDEST SWAP2 POP PUSH2 0x2972 DUP3 PUSH2 0x290D JUMP JUMPDEST PUSH1 0x40 DUP3 ADD SWAP1 POP SWAP2 SWAP1 POP JUMP JUMPDEST PUSH0 PUSH1 0x20 DUP3 ADD SWAP1 POP DUP2 DUP2 SUB PUSH0 DUP4 ADD MSTORE PUSH2 0x2994 DUP2 PUSH2 0x295B JUMP JUMPDEST SWAP1 POP SWAP2 SWAP1 POP JUMP JUMPDEST PUSH32 0x4E6F7420656E6F7567682062616C616E636520666F7220746865207072697A65 PUSH0 DUP3 ADD MSTORE PUSH32 0x2E20506C6561736520636F6E7461637420737570706F7274206F6E2044697363 PUSH1 0x20 DUP3 ADD MSTORE PUSH32 0x6F72642E00000000000000000000000000000000000000000000000000000000 PUSH1 0x40 DUP3 ADD MSTORE POP JUMP JUMPDEST PUSH0 PUSH2 0x2A1B PUSH1 0x44 DUP4 PUSH2 0x1F41 JUMP JUMPDEST SWAP2 POP PUSH2 0x2A26 DUP3 PUSH2 0x299B JUMP JUMPDEST PUSH1 0x60 DUP3 ADD SWAP1 POP SWAP2 SWAP1 POP JUMP JUMPDEST PUSH0 PUSH1 0x20 DUP3 ADD SWAP1 POP DUP2 DUP2 SUB PUSH0 DUP4 ADD MSTORE PUSH2 0x2A48 DUP2 PUSH2 0x2A0F JUMP JUMPDEST SWAP1 POP SWAP2 SWAP1 POP JUMP JUMPDEST PUSH0 PUSH1 0x40 DUP3 ADD SWAP1 POP PUSH2 0x2A62 PUSH0 DUP4 ADD DUP6 PUSH2 0x24BA JUMP JUMPDEST PUSH2 0x2A6F PUSH1 0x20 DUP4 ADD DUP5 PUSH2 0x24BA JUMP JUMPDEST SWAP4 SWAP3 POP POP POP JUMP JUMPDEST PUSH32 0x4E6F2062616C616E636520746F20486172766573740000000000000000000000 PUSH0 DUP3 ADD MSTORE POP JUMP JUMPDEST PUSH0 PUSH2 0x2AAA PUSH1 0x15 DUP4 PUSH2 0x1F41 JUMP JUMPDEST SWAP2 POP PUSH2 0x2AB5 DUP3 PUSH2 0x2A76 JUMP JUMPDEST PUSH1 0x20 DUP3 ADD SWAP1 POP SWAP2 SWAP1 POP JUMP JUMPDEST PUSH0 PUSH1 0x20 DUP3 ADD SWAP1 POP DUP2 DUP2 SUB PUSH0 DUP4 ADD MSTORE PUSH2 0x2AD7 DUP2 PUSH2 0x2A9E JUMP JUMPDEST SWAP1 POP SWAP2 SWAP1 POP JUMP JUMPDEST PUSH0 DUP2 SWAP1 POP SWAP3 SWAP2 POP POP JUMP JUMPDEST POP JUMP JUMPDEST PUSH0 PUSH2 0x2AF6 PUSH0 DUP4 PUSH2 0x2ADE JUMP JUMPDEST SWAP2 POP PUSH2 0x2B01 DUP3 PUSH2 0x2AE8 JUMP JUMPDEST PUSH0 DUP3 ADD SWAP1 POP SWAP2 SWAP1 POP JUMP JUMPDEST PUSH0 PUSH2 0x2B15 DUP3 PUSH2 0x2AEB JUMP JUMPDEST SWAP2 POP DUP2 SWAP1 POP SWAP2 SWAP1 POP JUMP JUMPDEST PUSH32 0x48617276657374206661696C6564000000000000000000000000000000000000 PUSH0 DUP3 ADD MSTORE POP JUMP JUMPDEST PUSH0 PUSH2 0x2B53 PUSH1 0xE DUP4 PUSH2 0x1F41 JUMP JUMPDEST SWAP2 POP PUSH2 0x2B5E DUP3 PUSH2 0x2B1F JUMP JUMPDEST PUSH1 0x20 DUP3 ADD SWAP1 POP SWAP2 SWAP1 POP JUMP JUMPDEST PUSH0 PUSH1 0x20 DUP3 ADD SWAP1 POP DUP2 DUP2 SUB PUSH0 DUP4 ADD MSTORE PUSH2 0x2B80 DUP2 PUSH2 0x2B47 JUMP JUMPDEST SWAP1 POP SWAP2 SWAP1 POP JUMP JUMPDEST PUSH0 PUSH1 0x40 DUP3 ADD SWAP1 POP PUSH2 0x2B9A PUSH0 DUP4 ADD DUP6 PUSH2 0x1E5C JUMP JUMPDEST PUSH2 0x2BA7 PUSH1 0x20 DUP4 ADD DUP5 PUSH2 0x1E5C JUMP JUMPDEST SWAP4 SWAP3 POP POP POP JUMP JUMPDEST PUSH32 0x4E487B7100000000000000000000000000000000000000000000000000000000 PUSH0 MSTORE PUSH1 0x32 PUSH1 0x4 MSTORE PUSH1 0x24 PUSH0 REVERT JUMPDEST PUSH0 PUSH2 0x2BE5 DUP3 PUSH2 0x1DEB JUMP JUMPDEST SWAP2 POP PUSH2 0x2BF0 DUP4 PUSH2 0x1DEB JUMP JUMPDEST SWAP3 POP DUP3 PUSH2 0x2C00 JUMPI PUSH2 0x2BFF PUSH2 0x287D JUMP JUMPDEST JUMPDEST DUP3 DUP3 MOD SWAP1 POP SWAP3 SWAP2 POP POP JUMP JUMPDEST PUSH0 DUP2 SWAP1 POP SWAP2 SWAP1 POP JUMP JUMPDEST PUSH2 0x2C25 PUSH2 0x2C20 DUP3 PUSH2 0x1DEB JUMP JUMPDEST PUSH2 0x2C0B JUMP JUMPDEST DUP3 MSTORE POP POP JUMP JUMPDEST PUSH0 DUP2 PUSH1 0x60 SHL SWAP1 POP SWAP2 SWAP1 POP JUMP JUMPDEST PUSH0 PUSH2 0x2C41 DUP3 PUSH2 0x2C2B JUMP JUMPDEST SWAP1 POP SWAP2 SWAP1 POP JUMP JUMPDEST PUSH0 PUSH2 0x2C52 DUP3 PUSH2 0x2C37 JUMP JUMPDEST SWAP1 POP SWAP2 SWAP1 POP JUMP JUMPDEST PUSH2 0x2C6A PUSH2 0x2C65 DUP3 PUSH2 0x1DB0 JUMP JUMPDEST PUSH2 0x2C48 JUMP JUMPDEST DUP3 MSTORE POP POP JUMP JUMPDEST PUSH0 PUSH2 0x2C7B DUP3 DUP10 PUSH2 0x2C14 JUMP JUMPDEST PUSH1 0x20 DUP3 ADD SWAP2 POP PUSH2 0x2C8B DUP3 DUP9 PUSH2 0x2C14 JUMP JUMPDEST PUSH1 0x20 DUP3 ADD SWAP2 POP PUSH2 0x2C9B DUP3 DUP8 PUSH2 0x2C59 JUMP JUMPDEST PUSH1 0x14 DUP3 ADD SWAP2 POP PUSH2 0x2CAB DUP3 DUP7 PUSH2 0x2C14 JUMP JUMPDEST PUSH1 0x20 DUP3 ADD SWAP2 POP PUSH2 0x2CBB DUP3 DUP6 PUSH2 0x2C14 JUMP JUMPDEST PUSH1 0x20 DUP3 ADD SWAP2 POP PUSH2 0x2CCB DUP3 DUP5 PUSH2 0x2C14 JUMP JUMPDEST PUSH1 0x20 DUP3 ADD SWAP2 POP DUP2 SWAP1 POP SWAP8 SWAP7 POP POP POP POP POP POP POP JUMP JUMPDEST PUSH0 PUSH1 0x80 DUP3 ADD SWAP1 POP PUSH2 0x2CF2 PUSH0 DUP4 ADD DUP8 PUSH2 0x24BA JUMP JUMPDEST PUSH2 0x2CFF PUSH1 0x20 DUP4 ADD DUP7 PUSH2 0x1E5C JUMP JUMPDEST PUSH2 0x2D0C PUSH1 0x40 DUP4 ADD DUP6 PUSH2 0x1E5C JUMP JUMPDEST PUSH2 0x2D19 PUSH1 0x60 DUP4 ADD DUP5 PUSH2 0x1E5C JUMP JUMPDEST SWAP6 SWAP5 POP POP POP POP POP JUMP JUMPDEST PUSH0 PUSH1 0x40 DUP3 ADD SWAP1 POP DUP2 DUP2 SUB PUSH0 DUP4 ADD MSTORE PUSH2 0x2D3A DUP2 DUP6 PUSH2 0x243E JUMP JUMPDEST SWAP1 POP DUP2 DUP2 SUB PUSH1 0x20 DUP4 ADD MSTORE PUSH2 0x2D4E DUP2 DUP5 PUSH2 0x243E JUMP JUMPDEST SWAP1 POP SWAP4 SWAP3 POP POP POP JUMP JUMPDEST PUSH0 DUP2 MLOAD SWAP1 POP SWAP2 SWAP1 POP JUMP JUMPDEST PUSH0 DUP3 DUP3 MSTORE PUSH1 0x20 DUP3 ADD SWAP1 POP SWAP3 SWAP2 POP POP JUMP JUMPDEST PUSH0 PUSH2 0x2D7B DUP3 PUSH2 0x2D57 JUMP JUMPDEST PUSH2 0x2D85 DUP2 DUP6 PUSH2 0x2D61 JUMP JUMPDEST SWAP4 POP PUSH2 0x2D95 DUP2 DUP6 PUSH1 0x20 DUP7 ADD PUSH2 0x1F51 JUMP JUMPDEST PUSH2 0x2D9E DUP2 PUSH2 0x1F5F JUMP JUMPDEST DUP5 ADD SWAP2 POP POP SWAP3 SWAP2 POP POP JUMP JUMPDEST PUSH0 PUSH1 0xA0 DUP3 ADD SWAP1 POP PUSH2 0x2DBC PUSH0 DUP4 ADD DUP9 PUSH2 0x24BA JUMP JUMPDEST PUSH2 0x2DC9 PUSH1 0x20 DUP4 ADD DUP8 PUSH2 0x24BA JUMP JUMPDEST PUSH2 0x2DD6 PUSH1 0x40 DUP4 ADD DUP7 PUSH2 0x1E5C JUMP JUMPDEST PUSH2 0x2DE3 PUSH1 0x60 DUP4 ADD DUP6 PUSH2 0x1E5C JUMP JUMPDEST DUP2 DUP2 SUB PUSH1 0x80 DUP4 ADD MSTORE PUSH2 0x2DF5 DUP2 DUP5 PUSH2 0x2D71 JUMP JUMPDEST SWAP1 POP SWAP7 SWAP6 POP POP POP POP POP POP JUMP JUMPDEST PUSH0 DUP2 MLOAD SWAP1 POP PUSH2 0x2E0F DUP2 PUSH2 0x1EAF JUMP JUMPDEST SWAP3 SWAP2 POP POP JUMP JUMPDEST PUSH0 PUSH1 0x20 DUP3 DUP5 SUB SLT ISZERO PUSH2 0x2E2A JUMPI PUSH2 0x2E29 PUSH2 0x1D89 JUMP JUMPDEST JUMPDEST PUSH0 PUSH2 0x2E37 DUP5 DUP3 DUP6 ADD PUSH2 0x2E01 JUMP JUMPDEST SWAP2 POP POP SWAP3 SWAP2 POP POP JUMP JUMPDEST PUSH0 PUSH1 0xA0 DUP3 ADD SWAP1 POP PUSH2 0x2E53 PUSH0 DUP4 ADD DUP9 PUSH2 0x24BA JUMP JUMPDEST PUSH2 0x2E60 PUSH1 0x20 DUP4 ADD DUP8 PUSH2 0x24BA JUMP JUMPDEST DUP2 DUP2 SUB PUSH1 0x40 DUP4 ADD MSTORE PUSH2 0x2E72 DUP2 DUP7 PUSH2 0x243E JUMP JUMPDEST SWAP1 POP DUP2 DUP2 SUB PUSH1 0x60 DUP4 ADD MSTORE PUSH2 0x2E86 DUP2 DUP6 PUSH2 0x243E JUMP JUMPDEST SWAP1 POP DUP2 DUP2 SUB PUSH1 0x80 DUP4 ADD MSTORE PUSH2 0x2E9A DUP2 DUP5 PUSH2 0x2D71 JUMP JUMPDEST SWAP1 POP SWAP7 SWAP6 POP POP POP POP POP POP JUMP INVALID PUSH9 0x747470733A2F2F6C61 PUSH23 0x656E6465722D6E6561742D706F72637570696E652D3334 CALLDATACOPY 0x2E PUSH14 0x7970696E6174612E636C6F75642F PUSH10 0x7066732F516D5A4E744E PUSH2 0x7868 PUSH26 0x7A346E335058573731525855687367386A52335072706D51596A PUSH14 0x665933625866564A782F57494E2E PUSH11 0x736F6EA264697066735822 SLT KECCAK256 PUSH17 0xA75B5E8BF89C43757F90AECC572B34CF9A PUSH23 0x2EC3A0C8ED2CAEA799525B540A64736F6C634300081A00 CALLER "
		},
		"gasEstimates": {
			"creation": {
				"codeDepositCost": "2421400",
				"executionCost": "infinite",
				"totalCost": "infinite"
			},
			"external": {
				"Harvest()": "infinite",
				"balanceOf(address,uint256)": "infinite",
				"balanceOfBatch(address[],uint256[])": "infinite",
				"isApprovedForAll(address,address)": "infinite",
				"name()": "infinite",
				"owner()": "2582",
				"purchaseTicket()": "infinite",
				"renounceOwnership()": "infinite",
				"safeBatchTransferFrom(address,address,uint256[],uint256[],bytes)": "infinite",
				"safeTransferFrom(address,address,uint256,uint256,bytes)": "infinite",
				"setApprovalForAll(address,bool)": "infinite",
				"supportsInterface(bytes4)": "809",
				"symbol()": "infinite",
				"ticketPrice()": "2448",
				"transferOwnership(address)": "infinite",
				"uri(uint256)": "infinite"
			},
			"internal": {
				"determineOutcome()": "infinite",
				"random()": "infinite"
			}
		},
		"methodIdentifiers": {
			"Harvest()": "3d64e17a",
			"balanceOf(address,uint256)": "00fdd58e",
			"balanceOfBatch(address[],uint256[])": "4e1273f4",
			"isApprovedForAll(address,address)": "e985e9c5",
			"name()": "06fdde03",
			"owner()": "8da5cb5b",
			"purchaseTicket()": "21846c76",
			"renounceOwnership()": "715018a6",
			"safeBatchTransferFrom(address,address,uint256[],uint256[],bytes)": "2eb2c2d6",
			"safeTransferFrom(address,address,uint256,uint256,bytes)": "f242432a",
			"setApprovalForAll(address,bool)": "a22cb465",
			"supportsInterface(bytes4)": "01ffc9a7",
			"symbol()": "95d89b41",
			"ticketPrice()": "1209b1f6",
			"transferOwnership(address)": "f2fde38b",
			"uri(uint256)": "0e89341c"
		}
	},
	"abi": [
		{
			"inputs": [
				{
					"internalType": "string",
					"name": "_name",
					"type": "string"
				},
				{
					"internalType": "string",
					"name": "_symbol",
					"type": "string"
				},
				{
					"internalType": "uint256",
					"name": "_ticketPrice",
					"type": "uint256"
				}
			],
			"stateMutability": "nonpayable",
			"type": "constructor"
		},
		{
			"inputs": [
				{
					"internalType": "address",
					"name": "sender",
					"type": "address"
				},
				{
					"internalType": "uint256",
					"name": "balance",
					"type": "uint256"
				},
				{
					"internalType": "uint256",
					"name": "needed",
					"type": "uint256"
				},
				{
					"internalType": "uint256",
					"name": "tokenId",
					"type": "uint256"
				}
			],
			"name": "ERC1155InsufficientBalance",
			"type": "error"
		},
		{
			"inputs": [
				{
					"internalType": "address",
					"name": "approver",
					"type": "address"
				}
			],
			"name": "ERC1155InvalidApprover",
			"type": "error"
		},
		{
			"inputs": [
				{
					"internalType": "uint256",
					"name": "idsLength",
					"type": "uint256"
				},
				{
					"internalType": "uint256",
					"name": "valuesLength",
					"type": "uint256"
				}
			],
			"name": "ERC1155InvalidArrayLength",
			"type": "error"
		},
		{
			"inputs": [
				{
					"internalType": "address",
					"name": "operator",
					"type": "address"
				}
			],
			"name": "ERC1155InvalidOperator",
			"type": "error"
		},
		{
			"inputs": [
				{
					"internalType": "address",
					"name": "receiver",
					"type": "address"
				}
			],
			"name": "ERC1155InvalidReceiver",
			"type": "error"
		},
		{
			"inputs": [
				{
					"internalType": "address",
					"name": "sender",
					"type": "address"
				}
			],
			"name": "ERC1155InvalidSender",
			"type": "error"
		},
		{
			"inputs": [
				{
					"internalType": "address",
					"name": "operator",
					"type": "address"
				},
				{
					"internalType": "address",
					"name": "owner",
					"type": "address"
				}
			],
			"name": "ERC1155MissingApprovalForAll",
			"type": "error"
		},
		{
			"inputs": [
				{
					"internalType": "address",
					"name": "owner",
					"type": "address"
				}
			],
			"name": "OwnableInvalidOwner",
			"type": "error"
		},
		{
			"inputs": [
				{
					"internalType": "address",
					"name": "account",
					"type": "address"
				}
			],
			"name": "OwnableUnauthorizedAccount",
			"type": "error"
		},
		{
			"anonymous": false,
			"inputs": [
				{
					"indexed": true,
					"internalType": "address",
					"name": "account",
					"type": "address"
				},
				{
					"indexed": true,
					"internalType": "address",
					"name": "operator",
					"type": "address"
				},
				{
					"indexed": false,
					"internalType": "bool",
					"name": "approved",
					"type": "bool"
				}
			],
			"name": "ApprovalForAll",
			"type": "event"
		},
		{
			"anonymous": false,
			"inputs": [
				{
					"indexed": true,
					"internalType": "address",
					"name": "previousOwner",
					"type": "address"
				},
				{
					"indexed": true,
					"internalType": "address",
					"name": "newOwner",
					"type": "address"
				}
			],
			"name": "OwnershipTransferred",
			"type": "event"
		},
		{
			"anonymous": false,
			"inputs": [
				{
					"indexed": true,
					"internalType": "address",
					"name": "buyer",
					"type": "address"
				},
				{
					"indexed": true,
					"internalType": "uint256",
					"name": "tokenId",
					"type": "uint256"
				},
				{
					"indexed": false,
					"internalType": "bool",
					"name": "isWinner",
					"type": "bool"
				}
			],
			"name": "TicketPurchased",
			"type": "event"
		},
		{
			"anonymous": false,
			"inputs": [
				{
					"indexed": true,
					"internalType": "address",
					"name": "operator",
					"type": "address"
				},
				{
					"indexed": true,
					"internalType": "address",
					"name": "from",
					"type": "address"
				},
				{
					"indexed": true,
					"internalType": "address",
					"name": "to",
					"type": "address"
				},
				{
					"indexed": false,
					"internalType": "uint256[]",
					"name": "ids",
					"type": "uint256[]"
				},
				{
					"indexed": false,
					"internalType": "uint256[]",
					"name": "values",
					"type": "uint256[]"
				}
			],
			"name": "TransferBatch",
			"type": "event"
		},
		{
			"anonymous": false,
			"inputs": [
				{
					"indexed": true,
					"internalType": "address",
					"name": "operator",
					"type": "address"
				},
				{
					"indexed": true,
					"internalType": "address",
					"name": "from",
					"type": "address"
				},
				{
					"indexed": true,
					"internalType": "address",
					"name": "to",
					"type": "address"
				},
				{
					"indexed": false,
					"internalType": "uint256",
					"name": "id",
					"type": "uint256"
				},
				{
					"indexed": false,
					"internalType": "uint256",
					"name": "value",
					"type": "uint256"
				}
			],
			"name": "TransferSingle",
			"type": "event"
		},
		{
			"anonymous": false,
			"inputs": [
				{
					"indexed": false,
					"internalType": "string",
					"name": "value",
					"type": "string"
				},
				{
					"indexed": true,
					"internalType": "uint256",
					"name": "id",
					"type": "uint256"
				}
			],
			"name": "URI",
			"type": "event"
		},
		{
			"inputs": [],
			"name": "Harvest",
			"outputs": [],
			"stateMutability": "nonpayable",
			"type": "function"
		},
		{
			"inputs": [
				{
					"internalType": "address",
					"name": "account",
					"type": "address"
				},
				{
					"internalType": "uint256",
					"name": "id",
					"type": "uint256"
				}
			],
			"name": "balanceOf",
			"outputs": [
				{
					"internalType": "uint256",
					"name": "",
					"type": "uint256"
				}
			],
			"stateMutability": "view",
			"type": "function"
		},
		{
			"inputs": [
				{
					"internalType": "address[]",
					"name": "accounts",
					"type": "address[]"
				},
				{
					"internalType": "uint256[]",
					"name": "ids",
					"type": "uint256[]"
				}
			],
			"name": "balanceOfBatch",
			"outputs": [
				{
					"internalType": "uint256[]",
					"name": "",
					"type": "uint256[]"
				}
			],
			"stateMutability": "view",
			"type": "function"
		},
		{
			"inputs": [
				{
					"internalType": "address",
					"name": "account",
					"type": "address"
				},
				{
					"internalType": "address",
					"name": "operator",
					"type": "address"
				}
			],
			"name": "isApprovedForAll",
			"outputs": [
				{
					"internalType": "bool",
					"name": "",
					"type": "bool"
				}
			],
			"stateMutability": "view",
			"type": "function"
		},
		{
			"inputs": [],
			"name": "name",
			"outputs": [
				{
					"internalType": "string",
					"name": "",
					"type": "string"
				}
			],
			"stateMutability": "view",
			"type": "function"
		},
		{
			"inputs": [],
			"name": "owner",
			"outputs": [
				{
					"internalType": "address",
					"name": "",
					"type": "address"
				}
			],
			"stateMutability": "view",
			"type": "function"
		},
		{
			"inputs": [],
			"name": "purchaseTicket",
			"outputs": [],
			"stateMutability": "payable",
			"type": "function"
		},
		{
			"inputs": [],
			"name": "renounceOwnership",
			"outputs": [],
			"stateMutability": "nonpayable",
			"type": "function"
		},
		{
			"inputs": [
				{
					"internalType": "address",
					"name": "from",
					"type": "address"
				},
				{
					"internalType": "address",
					"name": "to",
					"type": "address"
				},
				{
					"internalType": "uint256[]",
					"name": "ids",
					"type": "uint256[]"
				},
				{
					"internalType": "uint256[]",
					"name": "values",
					"type": "uint256[]"
				},
				{
					"internalType": "bytes",
					"name": "data",
					"type": "bytes"
				}
			],
			"name": "safeBatchTransferFrom",
			"outputs": [],
			"stateMutability": "nonpayable",
			"type": "function"
		},
		{
			"inputs": [
				{
					"internalType": "address",
					"name": "from",
					"type": "address"
				},
				{
					"internalType": "address",
					"name": "to",
					"type": "address"
				},
				{
					"internalType": "uint256",
					"name": "id",
					"type": "uint256"
				},
				{
					"internalType": "uint256",
					"name": "value",
					"type": "uint256"
				},
				{
					"internalType": "bytes",
					"name": "data",
					"type": "bytes"
				}
			],
			"name": "safeTransferFrom",
			"outputs": [],
			"stateMutability": "nonpayable",
			"type": "function"
		},
		{
			"inputs": [
				{
					"internalType": "address",
					"name": "operator",
					"type": "address"
				},
				{
					"internalType": "bool",
					"name": "approved",
					"type": "bool"
				}
			],
			"name": "setApprovalForAll",
			"outputs": [],
			"stateMutability": "nonpayable",
			"type": "function"
		},
		{
			"inputs": [
				{
					"internalType": "bytes4",
					"name": "interfaceId",
					"type": "bytes4"
				}
			],
			"name": "supportsInterface",
			"outputs": [
				{
					"internalType": "bool",
					"name": "",
					"type": "bool"
				}
			],
			"stateMutability": "view",
			"type": "function"
		},
		{
			"inputs": [],
			"name": "symbol",
			"outputs": [
				{
					"internalType": "string",
					"name": "",
					"type": "string"
				}
			],
			"stateMutability": "view",
			"type": "function"
		},
		{
			"inputs": [],
			"name": "ticketPrice",
			"outputs": [
				{
					"internalType": "uint256",
					"name": "",
					"type": "uint256"
				}
			],
			"stateMutability": "view",
			"type": "function"
		},
		{
			"inputs": [
				{
					"internalType": "address",
					"name": "newOwner",
					"type": "address"
				}
			],
			"name": "transferOwnership",
			"outputs": [],
			"stateMutability": "nonpayable",
			"type": "function"
		},
		{
			"inputs": [
				{
					"internalType": "uint256",
					"name": "_tokenId",
					"type": "uint256"
				}
			],
			"name": "uri",
			"outputs": [
				{
					"internalType": "string",
					"name": "",
					"type": "string"
				}
			],
			"stateMutability": "pure",
			"type": "function"
		}
	]
}